:020000041000EA
:1000000000B5324B212058609868022188439860DF
:10001000D860186158612E4B002199600221596106
:100020000121F02299502B49196001219960352056
:1000300000F044F80222904214D00621196600F024
:1000400034F8196E01211966002018661A6600F04E
:100050002CF8196E196E196E052000F02FF8012189
:100060000842F9D1002199601B49196000215960AB
:100070001A491B48016001219960EB211966A021F2
:10008000196600F012F800219960164914480160C1
:100090000121996001BC002800D000471248134993
:1000A000086003C880F30888084703B5996A0420EC
:1000B0000142FBD001200142F8D103BD02B5186610
:1000C0001866FFF7F2FF186E186E02BD00000240BE
:1000D000000000180000070000035F00212200005C
:1000E000F4000018222000A00001001008ED00E03C
:1000F00000000000000000000000000074B24E7A12
:1001000000200420F7010010CB010010CD010010E9
:10011000C9010010C9010010C9010010C901001077
:10012000C9010010C9010010C9010010CF01001061
:10013000C9010010C9010010D1010010D301001045
:10014000C1010010C1010010C1010010C101001067
:10015000C1010010C1010010C1010010C101001057
:10016000C1010010C1010010C1010010C101001047
:10017000C1010010C1010010C1010010C101001037
:10018000C1010010C1010010C1010010C101001027
:10019000C1010010C1010010C1010010C101001017
:1001A000C1010010C1010010C1010010C101001007
:1001B000C1010010C1010010C1010010C1010010F7
:1001C000EFF30580103800BE00BE00BE00BE00BECA
:1001D00000BE00BEF2EB8871746B0110946B0110CD
:1001E0003802001090A31AE71E481F49086006C88D
:1001F00081F3088810471D480068002801D019487D
:10020000F3E70DA40ECC002902D000F012F8F9E7B4
:100210001749184A002000E001C19142FCD116495B
:100220008847164988471649884700BEFDE701C937
:1002300001C29A42FBD37047946B0110C0000020AA
:1002400004090020D87301100000042000000420DD
:10025000D8730110001004200010042000000000DA
:10026000704700000000000008ED00E0000000D032
:1002700004090020E06A0220858000105514001057
:1002800045800010F8B5C04606480749091A8B108A
:10029000C90FC91810B5491003D0044B002B00D06A
:1002A000984710BD04090020040900200000000048
:1002B000054B10B5002B03D00449054800E000BFF2
:1002C000FFF7E2FF10BDC04600000000280F00202D
:1002D000B8E20010036870B501220400002B2CD096
:1002E000214D2560002A01D1012070BD04F06CFC75
:1002F0001E4E73688B42F7D802D133688342F3D81D
:10030000D0231B061B68012B2AD00122184B1A6030
:1003100004F05AFC0023174A80185941306071607C
:100320000121154A13784B40137012D0D02380223C
:100330001B0692045A610022D3E7192003F0BCFF88
:10034000D02380221B0692045A625A61064B236016
:10035000CAE7D02380221B0692049A610022C0E7DC
:10036000064A1360D4E7C04652030010980A0020E2
:10037000540F0020A0860100DA6A0220580F0020E6
:10038000F0B5DE4657464E464546E0B502680400E5
:1003900001239DB0002A00D1D2E1CA4A2260002B7D
:1003A00007D101201DB0F0BCBB46B246A946A0460D
:1003B000F0BD04F009FCC44A53688B42F1D800D167
:1003C0007AE1D0231B061B68012B00D171E10122C9
:1003D000BE4B1A60BE4B1A78002A01D000F088FC90
:1003E000BC4BD0219A4652461B6809060133136064
:1003F000802292024B681D0015401342FAD1B64B81
:10040000322100229B5EA0220020920000939623BE
:10041000059503F015FD04F0D7FBB04BB04E186006
:1004200059609B46AF4B0022B05E64212D2206939B
:100430001B7802F0ABF930886421233800B20396B0
:1004400003F074F900210F2003F08EF9A64803F0A1
:1004500055FCA64EA64F0022B05E3B782D226421AB
:100460000A9701F043FF30882D2201303B78642148
:1004700000B201F03BFF3B780022B05E64212C22E9
:1004800001F034FF30886421233800B203F04EF9C4
:1004900000210F2003F068F9964803F02FFC964FD7
:1004A00034210022B85E954A049713780B9200938A
:1004B0005522552303F02EF838886421053000B208
:1004C00003F034F900210F2003F04EF98C4803F0BB
:1004D00015FC8C4A342191460020105E8A4A3D006A
:1004E0001378079200935522552301F047FE4A46A0
:1004F00010886421053000B203F018F900210F20A4
:1005000003F032F9814803F0F9FB814A3C2190461F
:100510000020105E7F4A1378089205220193009212
:100520003C23513202F016FE414608886421013016
:1005300000B203F0FBF800210F2003F015F9764814
:1005400003F0DCFB0522754F0021785E74490B78BF
:100550000991019346213C230092513202F0E6FAC0
:1005600038886421013000B203F0E0F800210F2048
:1005700003F0FAF86B4803F0C1FB2988039B0131B3
:100580002980514608680121814348464D4600882C
:100590001A88081828804046008802320918404608
:1005A00012B2018039881A803388013103333980CF
:1005B0005D491BB233808A4200DDD3E35A4A93423D
:1005C00000DDC6E3049A584B0021525E9A4200DDDA
:1005D000B5E34A46544B0021525E9A4200DDA4E343
:1005E0004246514B0021525E9A4200DD93E34E4B4E
:1005F00000217A5E9A4200DD84E3A020642140005D
:1006000003F050FCC5B2A0200F226421400003F08B
:100610005BFCA0208221400003F088F82900052D12
:1006200000D86BE3002003F09FF8404803F036FB4E
:10063000A0200F231E226421400001F0ADFB4220C8
:1006400000231E226421FF3001F0A6FB402000237E
:100650001E226421FF3001F09FFB04F0B5FA5B46D7
:100660001A685B68801A994105F020FF304905F04F
:10067000D8FE05F029FF02000B000CA82D4907F059
:1006800065FC00210F2003F06FF8E1218220490072
:10069000400003F04BF80CA803F000FB04F094FAC0
:1006A0000023254A084D80185941002328606960BD
:1006B00073E6224A13608DE61368834200D880E611
:1006C0006FE6C0469A030010500D0020540F002022
:1006D000EE010020C8120020D00E0020880A002061
:1006E000D66A0220EC01002050E50010EA0100204B
:1006F000E80100205CE50010E6010020E401002094
:1007000068E50010E2010020E001002074E500101F
:10071000DE010020DC01002080E50010DA0100206D
:10072000D801002090E500107E020000A0E5001036
:1007300000007A44B8E50010204E0000580F002059
:100740000433002140200093B0322D3302F0E2FE4A
:100750000B23B0220021FA200093273302F0DAFEA7
:100760000323B420B02200210093FF302F3302F086
:10077000D1FE0F2002F0EEFF0021412002F0D6FF53
:10078000012002F0DDFFFC4802F0F8FF0A214120C1
:1007900002F0CCFFF94802F0F1FF1421412002F0F1
:1007A000C5FFF74802F0EAFF1E21412002F0BEFF1C
:1007B000F44802F0E3FF0A21FF2002F0B7FF002017
:1007C00002F0C8FFF04803F069FADB200A2140007C
:1007D00002F0ACFF002002F0BDFF012002F0B0FFEC
:1007E000EA4802F0CBFFDB201421400002F09EFF1C
:1007F000E74802F0C3FFDB201E21400002F096FF15
:10080000E44802F0BBFF0F2002F0A4FF00210F20FC
:1008100002F0AAFF012002F093FF14239846002360
:100820009B46DD4B9A46D7235B0099465B46039374
:1008300023004446984627B2A34696253C00039ED3
:100840002FB2F3B23C223900200000933C2302F087
:1008500061FE3900200002F069FF46353200514642
:100860000CA807F073FBADB20CA802F087FF0436AA
:100870004D45E5D15C46039B463401330393A4B256
:10088000042BD8D1C821142002F050FFC34802F035
:1008900075FFC8215A2002F049FFC14802F06EFFDF
:1008A000C821A02002F042FFBE4802F067FFC82125
:1008B000E62002F03BFFBC4802F060FF87211420D5
:1008C000490002F033FFB94802F058FF87215A204F
:1008D000490002F02BFFB64802F050FF8721A0200C
:1008E000490002F023FFB34802F048FF8721E620C9
:1008F000490002F01BFFB04802F040FFAA2114207B
:10090000490002F013FFAD4802F038FFAA215A2037
:10091000490002F00BFFAA4802F030FFAA21A020F4
:10092000490002F003FFA74802F028FFAA21E620B1
:10093000490002F0FBFEA44802F020FFCD21142064
:10094000490002F0F3FEA14802F018FFCD215A2021
:10095000490002F0EBFE9E4802F010FFCD21A020DE
:10096000490002F0E3FE9B4802F008FFCD21E6209B
:10097000490002F0DBFE984802F000FFA520962116
:10098000400002F0D3FE0021032002F0EDFE934868
:1009900002F0F4FEA5209E21400002F0C7FE0021D7
:1009A000082002F0E1FE8E4B44461800994602F002
:1009B000E5FEA520A621400002F0B8FE00210A2095
:1009C00002F0D2FE874B1800984602F0D7FE0021B5
:1009D000062002F0C9FEA520AE21400002F0A6FECE
:1009E000814F380002F0CAFEA520B621400002F077
:1009F0009DFE00210D2002F0B7FE7C4E300002F07B
:100A0000BDFEA520C821400002F090FE0021032079
:100A100002F0AAFE764803F071F9A520D02140002B
:100A200002F084FE0021082002F09EFE484603F0FA
:100A300065F9A520D821400002F078FE00210A20A7
:100A400002F092FE404603F059F90021062002F020
:100A50008BFEA520E021400002F068FE380003F084
:100A60004DF9A520E821400002F060FE00210D2094
:100A700002F07AFE300003F041F9022002F060FE3D
:100A80009620FA21400002F051FE0021032002F0DE
:100A90006BFE584802F072FE852196204900400006
:100AA00002F044FE0021082002F05EFE484602F0FB
:100AB00065FE8D2196204900400002F037FE00219E
:100AC0000A2002F051FE404602F058FE00210620A6
:100AD00002F04AFE952196204900400002F026FED1
:100AE000380002F04BFE9D2196204900400002F0A4
:100AF0001DFE00210D2002F037FE300002F03EFE08
:100B0000012002F01DFEAF21A5204900400002F0A7
:100B10000DFE0021032002F027FE374803F0BEF847
:100B20006E21A520FF31400002F000FE00210820C8
:100B300002F01AFE484603F0B1F8BE21A520490094
:100B4000400002F0F3FD00210A2002F00DFE4046B5
:100B500003F0A4F80021062002F006FE8C21A52057
:100B6000FF31400002F0E2FD380003F097F8CD219C
:100B7000A5204900400041E0B8E20010CCE200109E
:100B8000E8E2001008E3001024E300103CE300104A
:100B90005CE3001070E3001080E3001084E30010B9
:100BA0008CE3001098E300109CE30010A4E3001015
:100BB000B0E30010B8E30010C4E30010CCE3001071
:100BC000D0E30010DCE30010E4E30010ECE30010DD
:100BD000F4E30010FCE3001008E4001010E400103F
:100BE00028E4001040E400105CE4001078E40010F9
:100BF00084E40010A0E40010B8E4001002F096FDB8
:100C000000210D2002F0B0FD300003F047F80F2363
:100C1000322229004B2001F00BF92900052002F0B7
:100C200085FD00210F2002F09FFD544803F066F877
:100C30000F23BE210093B6337822FF334B20FF31C0
:100C400001F07CF9DC210520490002F06FFD002154
:100C50000F2002F089FD4A4803F050F8E1210F23EC
:100C600019224B20490001F097F8E12105204900A5
:100C700002F05CFD00210F2002F076FD414803F0F8
:100C80003DF8E3210322DC20490003F01DF9E521B2
:100C90000322DE20490001F057F8E12196204900A7
:100CA00002F044FD00210F2002F05EFD364803F003
:100CB00025F8AA202900400002F038FD00210F206D
:100CC00002F052FD314803F019F8DC21AA20490056
:100CD000400002F02BFD00210F2002F045FD2C48C2
:100CE00003F00CF82B4B1A78002A01D1FFF778FBA0
:100CF000002200201A702260FFF754FB0F2002F040
:100D000033FD92E400233B8008F014F90F23099A85
:100D10000340138071E400234246138008F00AF96F
:100D20000F23089A0340138061E400234A4613808E
:100D300008F000F90F23079A0340138050E40023C2
:100D4000049A138008F0F6F80F230B9A03401380DF
:100D50003FE40023338008F0EDF80F230A9A0340A4
:100D600013802FE4039B059A1A8008F0E3F80F2301
:100D7000069A034013800022B35E1FE4DCE40010F7
:100D8000E8E40010F4E4001000E500100CE50010A9
:100D900030E50010EE01002070B5824C2568002D72
:100DA00000D1AAE0AF46804B2360804B9B699B0635
:100DB00000D586E0D0231B061B68012B00D1C7E0BD
:100DC00001227B4B1A607B4B00229B5E7F2B00D164
:100DD000B6E02022754910008B6918401A42FAD1FA
:100DE0007F23754A0B601368013B00D5A6E01360B2
:100DF000FE2B00DC94E000230220236070BD6F4BCB
:100E000023606A4B9B699B065BD4D0231B061B683F
:100E1000012B00D1A7E00122654B1A60684B1D78B9
:100E2000644B00229B5EAB4200D194E020225F49DC
:100E300010008B6918401A42FAD10D600D2D00D1B7
:100E400094E07F2D76D05C490A68531C0B605D49A5
:100E50008D54CDE75C4B2360544B9B699B0630D48B
:100E6000D0231B061B68012B61D00122504B1A6056
:100E7000504B00229B5E0A2B00D18AE020214B4A76
:100E800093691942FCD10A231360B4E74F4B2360E6
:100E9000464B9B699B0614D4D0231B061B68012B71
:100EA00074D00122424B1A60424B00229B5E202BE1
:100EB00064D020213D4A93691942FCD13A4B11601C
:100EC000236001209AE7424B2360384B9B69DB0685
:100ED000F7D4D0231B061B68012B25D00122344BED
:100EE0001A601021314A93691942FCD11268344BBF
:100EF00001201A70314B236080E7FF220021314826
:100F000005F0C4FB2C4B294A1D609369DB0607D40E
:100F1000102193691942FCD1136893691942F8D0E2
:100F20002B4B0120236069E72A4A1360D9E7294A3D
:100F300013609DE7254B012023605FE71060EFE71A
:100F400020211A4A93691942FCD10D23136040E70E
:100F5000204A136037E72021144A93691942FCD1D3
:100F60000D23136062E71B4A136057E7124A154BC3
:100F700012689854144B012023603FE720210B4A4C
:100F800093691942FCD10D23136092E7114A136053
:100F90008AE72021054A93691942FCD10D23136089
:100FA0006CE7C04668110020A60D00100040034009
:100FB000540F0020CC120020500F0020FE0D001016
:100FC000DB6A0220680F0020540E00108C0E001007
:100FD000C60E0010580F0020F0B5DE4657464E46AC
:100FE0004546E0B5454B85B01B68002B00D083E03B
:100FF000434B1B68002B1AD1424B434E9A460027A5
:10100000424C33680FE00022554653009B189B006A
:10101000534428009B689847226833680132226055
:101020000C359A42F1DB2760002BECDCFEE7012B4C
:1010300006D005B0F0BCBB46B246A946A046F0BDFE
:10104000304B324C9A46324B2F4E9846314B324FF2
:101050000293324B324D0393002399463B68013390
:101060003B604B4623603368002B00DCFEE72B001F
:10107000BB46554637001E004B46336003F0A4FDC7
:10108000434622681860596053009B189B005344E4
:101090009B682800984732682368012A09D03A687B
:1010A000013323600C359342E6DB35003E005F469A
:1010B000D4E702999B00CA5835000132CA5003F0A8
:1010C00083FD039A23689446DB009C4463460090AA
:1010D00001911868596843461A685B68801A9941FB
:1010E00002000B000098019912184B4161463E0026
:1010F0000A604B605F46B1E79F46C0465C0F002028
:10110000640F00207811002070110020140F0020BF
:10111000400D00207012002068120020A00A00205C
:10112000540F0020F0B5DE4657464E464546E0B522
:10113000454B85B01B68002B00D083E0434B1B68F8
:10114000002B1AD1424B434E9A460027424C33683B
:101150000FE00022554653009B189B005344280083
:101160009B68984722683368013222600C359A42A6
:10117000F1DB2760002BECDCFEE7012B06D005B08D
:10118000F0BCBB46B246A946A046F0BD304B324C3F
:101190009A46324B2F4E9846314B324F0293324B88
:1011A000324D0393002399463B6801333B604B4625
:1011B00023603368002B00DCFEE72B00BB4655465E
:1011C00037001E004B46336003F0FEFC43462268A6
:1011D0001860596053009B189B0053449B6828007B
:1011E000984732682368012A09D03A68013323609E
:1011F0000C359342E6DB35003E005F46D4E70299AA
:101200009B00CA5835000132CA5003F0DDFC039A36
:1012100023689446DB009C44634600900191186863
:10122000596843461A685B68801A994102000B00AE
:101230000098019912184B4161463E000A604B60CC
:101240005F46B1E79F46C046600F0020640F002054
:10125000F011002074110020180F0020480D00200C
:10126000981200206C120020F00A0020580F002075
:10127000D0231B061B6870B5012B16D016490B68CE
:10128000092B05DD0022154B1A60FFF7A5FE70BD86
:101290005A001348D2189200124D84186360A5605A
:1012A0000024013384500B60ECE70F490B68092BD5
:1012B0000BDC5A000D48D21892000A4D8418636066
:1012C000A5600024013384500B600022084B1A6093
:1012D000FFF728FFDBE7C046701100205C0F0020FD
:1012E000781100208D13001074110020F0110020DF
:1012F000600F002003680122F0B5002B29D01C4BA1
:101300000360002A23D01B4B9B699B061FD4D0236C
:101310001B061B68012B20D00122174B1A60174EA9
:10132000174D3468174B2F5D00229B5EBB4217D0D0
:101330002021104A93691942FCD1176001342B5DBA
:1013400000223460002BDAD103600220F0BD0120BE
:10135000FCE70024094E0A4DF1E70B4A1360DEE773
:101360002021044A93691942FCD10D231360DFE761
:10137000FE12001000400340540F0020240F0020F4
:1013800068100020CC120020580F0020F8B5036828
:101390000400002B20D023489F46234E23493200CF
:1013A000681C07F095FF03F00FFC214F386079604F
:1013B0000023F15E002002F065FD03F005FC3A68B1
:1013C0007B68801A99410B001A490200080007F057
:1013D0004FF82B78722B20D0174A184B61CB61C283
:1013E0001B681048136000230360154B2360FFF750
:1013F00081FF01280FD00022124B1A60124B23608C
:10140000FFF7CAFC012806D0104D2B78652BC4D0FD
:10141000722BE1D101E00020F8BD01220C4B1A70C3
:10142000DAE7C0466C110020D00E0020E0E5001085
:10143000900A0020E4E5001068100020D0E50010BC
:10144000EA13001068110020FC130010680F002040
:10145000EE01002070B584B0324803AB02AA01A9A6
:1014600003F08CFD002803D12F482E4902F044FFE1
:10147000039A0299019803F0A5FC06F029FF2B4876
:1014800006F0F6FF00F032FB07F054F9284807F0A9
:10149000C7F9D0231B061B68012B0BD0254A136804
:1014A000092B28DD0022244B1A60FFF795FD002050
:1014B00004B070BD214A1368092B05DD0022204BC2
:1014C0001A60FFF72FFEF2E70C210C005C431D4869
:1014D0001D4E05196B60AE60002525505C1C146024
:1014E0000A2CEBD0614346187460184C0233B46088
:1014F0000D501360E2E70C210C005C431448124EBF
:1015000005196B60AE60002525505C1C14600A2C28
:10151000C8D06143461874600C4C0233B4600D505F
:101520001360BFE7F049020020E60010FCE5001060
:1015300071120010701100205C0F00207411002047
:10154000600F0020F011002081030010D502001070
:1015500078110020F0B5C6460D0014008118A022B5
:1015600000B59200914201DD394C241A0126064251
:1015700023D0A0210022890087B28F425241D1B2EC
:10158000002A18D1E132AFB2FF3297424941002917
:1015900011D129B28A005218D20101B252182D4934
:1015A00057108C46C95D164243D00F220A401901DC
:1015B0000A436146CA550130013C0126264227D024
:1015C000A02700210219013A92B2BF00BA42494154
:1015D0009046CFB200291AD1A9B28C46F0216246BA
:1015E00049008A427F41002F11D12FB2B900C91999
:1015F000C9010A001749424457108C46C95D16427A
:101600001FD00F220A4019010A436146CA55013C06
:101610006210012C0ADDAC00190164191943A40100
:101620000C4B40102018C01805F030F880BCB846AC
:10163000F0BD0F22914362461943D1550130013C60
:10164000BBE70F22914362461943D155013CDFE7C6
:101650007F020000D0120020F0B54E465746DE460D
:101660004546E0B59DB0029326AB1B780C00019374
:1016700027AB197893009B18AF4A80B29B18179339
:1016800000239C4601339A46E023A2B2FF339B1A03
:101690009BB21593130008339BB29946060063462C
:1016A0008C4614900692052B00D1B4E1179AD25CB7
:1016B000099232B29346149AA024D11889B2080034
:1016C000002205910021A400A0425141CAB2039218
:1016D0005A46100099496044891AA04200DC6146CC
:1016E0005046A0273040002407900020BF00BE4293
:1016F0006041C2B21392069A4F1E0092159A2000C2
:1017000008925A4601320F923A005A44129292B20B
:101710009046A02445460022A400A5424241D2B2F0
:1017200010928A1E904652463A400A9252460B97B1
:101730003A4201D042460B92721E9046884442467D
:10174000A0250020002492B2AD00AA42604111926F
:10175000C2B20E9252460A400D9252460C910A4273
:1017600000D00C97764A06990492099A09934B4641
:10177000009C089F6546089600930E0026E0012D08
:101780004DD1F0235B009C4215D2039B002B12D15C
:10179000059BA1009C460919C901049B614448109E
:1017A0001B5C0D4200D1BBE00F211940029B1B01C5
:1017B0001943049B19540134009B7F1BAE19A4B23A
:1017C0005208BFB2B6B29C4200D194E05146504696
:1017D00011401042D3D1029B01988342EBD0012DDE
:1017E0004FD1F0235B009C4249410029E3D103998A
:1017F0000029E0D1059BA1009C460919C901504B65
:10180000614448109C461B5C0D4200D1FBE00F2157
:101810001940019B1B01194363461954CBE7F02380
:1018200031B2481988465B00984200DD74E02BB263
:101830009C466346002BBEDDA0239B009B45BADA85
:10184000079B002B00D07DE0E133FF339942B2DAF1
:10185000411E994201DBE021FF310C9B5B10169386
:101860000D9B002B00D0D9E0009B40469C46169B68
:10187000002B00DD33E101308142F8DA634600934A
:1018800099E7F02330B2291880465B0099424FDC7B
:101890002BB29C466346002B8DDDA0239B009B450D
:1018A00089DAA03B9C46984285DA4B1E99466345EF
:1018B00002DBE023FF339946009B169218942A001E
:1018C000444698464B465D46B146BB461E0017004F
:1018D00021003A002800019B0134FFF73BFEB4428F
:1018E000F6DD434600933B004E465F46169AAB46F4
:1018F000189C1D005FE7AC469946089E099B66440C
:101900000133B6B2062B00D0CDE61DB0F0BCBB460D
:10191000B246A946A046F0BD3BB29C46581888E79F
:101920000F218B431900029B1943049B195442E772
:101930003BB29C461918ADE7ECF000107F020000A6
:10194000D0120020F0235B009C46994200DB32E776
:10195000431E1800634502DBE023FF331800A14655
:1019600019964446060090460B9B1B955B101693F8
:10197000029B139D19010B4318931A97E30F002D37
:101980000ED1002B0CD10F21A2001219D201564FFB
:101990005A445210B85C0140029800010143B95406
:1019A0000A9A002A14D0002B12D1109B002B0FD1C1
:1019B00048226B460F219B18A2001B881219D201E6
:1019C000494F9B185B10FA5C8A4302990A43FA5408
:1019D000169A002A0EDD60216B465B180021595EC5
:1019E0000F9B414F5810A3001B199B01C0183818BA
:1019F00004F04CFE0134B442C0DD42464C46199E10
:101A00001A9F1B9DD7E60F218B431900019B194399
:101A100063461954CFE6002209924AE6A1465B4686
:101A20001893009B8C469B4641461992002910DB77
:101A30000E9B002B0DD1119B0F2498468800401857
:101A4000C001294A40444010135CA343029C234335
:101A50001354169B002B09DC01318C45E6DA5B46FA
:101A60000093189B4C469B46199AA4E65B4600934C
:101A7000189B88469B4661464C46199A1A4B1B9503
:101A80009C465B465B101893029B65461801034316
:101A900099465B461A934B46A34691464446884670
:101AA0001993189BA0009C46001980016044169A67
:101AB00019992818013404F0E9FDA04509DB0D9BB4
:101AC000002BEED04A464146D946A0461A9B1B9DA4
:101AD000A6E71A9B5C464A469B461B9D6BE66346FF
:101AE00080460093CAE7C046D0120020F0B5D64623
:101AF0004F464646C0B581498AB0814806F0DCFCB5
:101B0000804906007E4806F0D7FC7F4905007C48E6
:101B100006F0D2FC00210400794806F0B5FC012152
:101B2000774806F0B1FC0221754806F0ADFC0023B1
:101B3000802299460593F82352025B020292039396
:101B4000C02310221B0302A906A89846049304F0A0
:101B5000A3FD3100731C08310A03DB01134306A9FE
:101B6000102202A8079304F097FD684B0127059304
:101B7000C0230621DB0210209A46029302F082FB6A
:101B80000123102200215E48009706F011FD32006B
:101B9000002102AB5A4806F065FD29006B1C0D318F
:101BA0000A03DB0113435A4A062113408022D2055F
:101BB0001343079343460893564B1120099353460A
:101BC000069302F05FFB0123112201214C4800978C
:101BD00006F0EEFC2A00012106AB494806F042FD62
:101BE0004B4680220593F82352025B020292039334
:101BF0004346102202A906A8049304F04DFD2200DA
:101C0000A31C08321203DB01134306A9102202A809
:101C1000079304F041FD404A404B062112200492F4
:101C2000059302F02FFB0621132002F02BFB062167
:101C3000142002F027FB0621152002F023FB0423C9
:101C4000122202212E48009706F0B2FC2200022147
:101C500002AB2B4806F006FD012006F051FDA02640
:101C60000400012006F04CFDF605B4462C4BE502BD
:101C7000C2022C492B40134319432B4EA30163444A
:101C80001E602A4E80015E609626B6029E60196133
:101C9000274960440A4027492A430A4326490160EC
:101CA0008021436087600261154A490253680B42F4
:101CB000FCD18021214B89021361114A53680B42E8
:101CC000FCD1E0238021FF3353610D4AC9025368E0
:101CD0000B42FCD14023FF339361194B194AA021D9
:101CE0001A6001238622A340C905D2008B500AB096
:101CF000E0BCBA46B146A846F0BDC04628F6001082
:101D00000000205004F60010E8F500100002000466
:101D1000FFFFFF9F2046004400000C40520240108D
:101D2000FD0700FF11000100D01200201800205014
:101D3000FD871FFF09801F00F00100208F020000B7
:101D4000002020500707000030B5A0240023A40085
:101D500085B2A5425B41DCB2002B14D1E1338DB2D8
:101D6000FF339D426441002C0DD18B005918C901ED
:101D7000081808494310CC5CC00705D50F20120194
:101D800020400243CA5430BD0F2084432243CA542A
:101D9000F9E7C046D0120020F0B5DE4657464E4661
:101DA0004546E0B5541883B09B460190A14236DA0F
:101DB0000123A02200259C460E3386B2984692004D
:101DC0005B4696426D41F0271B019946174EEDB2D6
:101DD0007F0009E040465146014048460143F15426
:101DE000013211B2A1421ADA8AB2BA42F8D2002DF7
:101DF000F6D18B005918019BC9019A4651444B10EA
:101E0000F05C824660460842E4D140465146814338
:101E1000584601320143F15411B2A142E4DB03B050
:101E2000F0BCBB46B246A946A046F0BDD012002089
:101E3000F0B5C6461400A0220D0000B592009042F5
:101E40005DDAF02149008D4259DA0119914201DD34
:101E5000384C241A0126064223D0A02100228900F2
:101E600087B28F425241D1B2002A18D1E132AFB2CB
:101E7000FF3297424941002911D129B28A005218F4
:101E8000D20101B252182C4957108C46C95D164236
:101E90004AD00F220A4019010A436146CA5501304F
:101EA000013C0126264227D0A02700210219013A31
:101EB00092B2BF00BA4249419046CFB200291AD12E
:101EC000A9B28C46F021624649008A427F41002F28
:101ED00011D12FB2B900C919C9010A0016494244EB
:101EE00057108C46C95D164218D00F220A401901BE
:101EF0000A436146CA55013C6210012C02DC80BCD9
:101F0000B846F0BD19011943AB005B199B014010A5
:101F10001818094BC01804F0B9FBF0E70F229143E1
:101F200062461943D155E6E70F22914362461943B1
:101F3000D155B4E77F020000D0120020F0B557461B
:101F40004E46DE464546E0B587B010AC2478171AF9
:101F500003945C1AE617A51975400195FD177E19C3
:101F60006E40019D894693468246B54265DC8242B9
:101F700000DBD3E0CF1AFC173F196740841AA5B2E3
:101F800024B2A846E50FAC46644464108B4200DBE3
:101F9000D4E0010018000B00110001220292BAB235
:101FA0009446019AB24271DDF02252009146A0326D
:101FB0009246704A9346039A120105924246049251
:101FC00062469C46019218E00E331D40059B1D435E
:101FD0005B46DD55019BE11A8DB20CB2090407D5B1
:101FE000029B9846049B46449846454430B22CB226
:101FF000013211B2614500DDA8E0002500274B4603
:102000008AB29A426F4186B2FDB2002FE2D15346A6
:102010009E426D41002DDDD15B468D006918C901DE
:1020200009184F10DD5D01230B42CDD10F239D43D5
:10203000039B1D435B46DD55CCE78B4216DA871ABE
:10204000FC173F196740CC1AA5B224B2A846E50F89
:10205000AC4664446410824200DB85E008001A004C
:1020600001005B4618000B00110096E7A5B224B2F0
:10207000E70F3C19A8463700641082428DDC3E4AC7
:102080000292BAB29446019AB2428DDCF02252001A
:102090009146A0329246374A9346039A120105921E
:1020A0004246049262469C46019217E00E339D43DD
:1020B000039B1D435B46DD55019BE11A8DB20CB2BB
:1020C000090407D5029B9846049B4644984645441C
:1020D00030B22CB2013211B2614537DC0025002745
:1020E0004B4686B29E426F418AB2FDB2002FE3D1C9
:1020F00053469A426D41002DDED15B4685002D1876
:10210000ED0169184F10DD5D01230B42CED00F2386
:102110001D40059B1D435B46DD55CDE7BCB23FB27C
:10212000A046FC0FE41964108B4216DCABB29C464F
:102130001300114A080002925146A7E718005346BF
:1021400011000D4A0292994200DC28E707B0F0BC6A
:10215000BB46B246A946A046F0BD130001220100CD
:102160002F0048460292EEE71000034A190002923F
:102170004B4614E7D0120020FFFF0000F0B54546A3
:102180005746DE464E46E0B55D18A02385B0019265
:102190000EAA127807000C0090469B00984213DAB2
:1021A000F0266B1E99467600B14200DB93E01300E7
:1021B000019A9246FFF7CEF9B14507DA43465246F7
:1021C00049463800FFF7C6F9AC427DDAF0214900F4
:1021D00089464549A0238C4601218A460E310020BC
:1021E0008B464146BEB29B009E4240410901009190
:1021F0006146C0B2BC4623000700220008000296D8
:10220000039409E05B461940009B19438155013254
:1022100012B21300AA4217DA92B24A45F7D2002F3F
:10222000F5D154469900CB18DB0163445E10815D03
:102230001C42E7D15B46994343460132194312B22F
:1022400013008155AA42E7DB019B029E013BF61871
:10225000B3B29B46A0235A4600219B009A424941B3
:1022600001239C460E3399464346F0271B019A46AC
:10227000C346039C1C48C9B27F00009209E04E4649
:1022800043463340564633430355013214B2AC4201
:102290001ADAA2B2BA42F8D20029F6D1A3001B1969
:1022A000009CDB01A04643445C10065DB0466646D8
:1022B0001E42E4D14E464346B3435E4601323343A9
:1022C000035514B2AC42E4DB05B0F0BCBB46B246E9
:1022D000A946A046F0BDB34200DB75E713004946AE
:1022E000019AFFF737F9EFE7D0120020F0B5DE468C
:1022F00057464E4645469C460123E0B586B2B34656
:1023000089B0059292B29B1A1BB20493D3039B1A15
:102310005B001BB2A02607938BB2D5185F460393D0
:102320000023B600B7425B41ADB2A03E0124DBB250
:10233000B54200D303E2002B00D000E2AB005B19F2
:10234000DB011B185D10A8464746E04DEF5D1C42BF
:1023500000D0A3E10F239F4363461F434346EF543E
:10236000039B9C1AA4B2B4420AD2A3001B19DB013E
:102370001B185B10E85C0F24A04364462043E8541C
:102380005B46F020D4180023039D400085425B414A
:10239000A4B2A030DBB2844211D2002B0FD188004E
:1023A0004018C0010019C94E4510745DC00700D423
:1023B000DDE10F202040644624012043705558463B
:1023C000A024801A80B2A400A04211D2002B0FD109
:1023D0008B005B18DB01BD4C1B185810215CDB0720
:1023E00000D4CAE10F230B40614609010B4323547B
:1023F000059B002B00DC9BE1039BB44E5D1E5C1C27
:102400000023ADB2A4B2029300950194FCE00F2723
:102410000740604600010743484637545846A02706
:10242000C31A002400209BB2BF00BB42604181461A
:10243000C0B205004846002815D14046002812D1F8
:1024400009B2880080464144C901C9184810814634
:10245000305CC90700D45BE10F21014060460001F8
:10246000014348463154F0270020002403997F009F
:10247000891A89B2B9426041C0B2804650460028EC
:1024800018D14046002815D1880081468944484625
:10249000C0018146069800B248444410A246345D0B
:1024A000C00700D43CE10F202040644624012043B3
:1024B00054463055002D13D14046002810D109B2A2
:1024C00088004018C0011BB2C3185810315CDB07EC
:1024D00000D4FDE00F230B40614609010B43335448
:1024E0005B46A020002400219B1880009BB2834201
:1024F0006141F027C8B280460020019D7F00BD42A7
:102500006041C0B2002913D1002811D1A946A90009
:102510004944C901C9184C10A146375DC90700D408
:10252000DCE064460F21394027014C4639433155E0
:102530005946A0278A1A00240021BF0092B2BA424D
:102540006141CFB2002917D1002815D1019908B2F5
:1025500081000918C9018918481081464C465B481A
:102560008246005DC90700D4BEE00F2101406046ED
:102570000001014350460155F02400200021009D38
:102580006400A54241414046C9B2002817D1002944
:1025900015D1A846A8004044C0011BB2C31858106A
:1025A0008046444649488146005DDB0700D4A2E0EE
:1025B0000F23034060460001034348460355002FA4
:1025C00014D1002912D1009B12B219B28B005B18F2
:1025D000DB019A183D485110435CD20700D491E0CA
:1025E0000F2213406246120113434354009D019C85
:1025F000013DABB201340093A3B20193029A059B53
:10260000934200DC94E09AB2049B99B2002B09DB60
:10261000531E9AB21BB20593079B023318B2591886
:10262000079089B202980024013083B200B2029070
:1026300058000130091809B204915946C81880B2EF
:1026400005000690A0200027800085426741F8B26F
:10265000B946F0278246002003997F00891889B285
:10266000B94260414C46C0B28046002C00D0D5E64D
:10267000002800D0D2E6A9468F007F18FF014F4402
:1026800078108146305CFF0700D5C0E60F27B843BD
:1026900007006046074348463754BFE60F236446A9
:1026A0003B40474624012343EB55039B9F1ABFB28F
:1026B000B74200D364E6BB00DB19DB011B185B10DB
:1026C000E85C0F2630402043E85459E6D012002041
:1026D0000F23994363461943315401E70F218F4378
:1026E00061460F43375523E70F218843614608436E
:1026F0005146085540E70F239843634618434B461D
:1027000018555CE70F2293436246134343546DE729
:102710000F21884301006046014348463154A2E638
:102720000F20844320006446204354463055C1E6C0
:1027300009B0F0BCBB46B246A946A046F0BD039C1A
:10274000A51AF024ADB26400A54200D318E6002B10
:1027500000D015E6AC006419E40124180A4D63109A
:10276000E85CE40700D406E664462401A9E70F20EC
:10277000844360460443745521E60F23994363461E
:102780001943215434E6C046D0120020F0B54E461D
:10279000DE4657464546E0B594B28DB008926200D9
:1027A000019392B28BB2191B561C09B236B276183D
:1027B00006938E423DDDA023002785B29B009D42FB
:1027C0007F41A03B9846D24BFFB29C4601239946DD
:1027D0000E339A46019B00901B0138000392A346DA
:1027E00067463200029308E053461940029B1943A2
:1027F000B955013529B28A4218DD8DB24545F8D266
:102800000028F6D18B005B1800994C468C46DB0102
:1028100063445E10B95D1C42E6D153469943019B67
:1028200001351943B95529B28A42E6DC5C46039A60
:10283000009801231B1B1BB25242079313B20B9348
:10284000089B002B00DC4BE183B20393032302932C
:1028500000230593019BAE4F9B460097079A019476
:1028600093B2002A0BDB2200013A91B212B2089215
:102870000B9A0191023211B2D3180B919BB2059AB7
:10288000013294B212B20592029A944663441BB28A
:102890000793039B019A1B199BB29C46069B9B1AAC
:1028A000520001321BB212B2D618B34200DB1EE155
:1028B000F020A0226146002540008046E038FF3825
:1028C00082460E3092008146584691426D41000189
:1028D000009F19001A00EDB204900993009409E0DA
:1028E0004B461940049B19433954013212B211006E
:1028F000964217DD92B24245F7D2002DF5D15446EB
:102900008B005B18DB0163445810395C1C42E7D133
:102910004B4699435B460132194312B239541100B8
:102920009642E7DC0199039A8C466946624492B26A
:10293000009C9046069A08254D5F121B12B2AD18F6
:10294000099B0097954200DCEAE0A0204746002161
:10295000800087424941F0277F00B946D23FFF3FC0
:10296000C9B2BA465F468C4610003F011100049779
:102970006246009FC4460993A0460A96009009E06B
:1029800053461840049B1843B855013109B208005A
:102990008D4217DD89B24945F7D2002AF5D10124CD
:1029A00083001B18DB0163445E10B85D1C42E7D155
:1029B000534698435B460131184309B2B8550800A5
:1029C0008D42E7DC44460399099B0C1B0A9EA1B289
:1029D000009A8C460097B34200DB9BE0A0210024C4
:1029E0006046890088426441A0398846E039FF3951
:1029F0008A460E31894659460901009FE4B2049186
:102A00000995009208E04B461840049B18437855FE
:102A100001310BB29E4216DD99B24145F8D2002C2D
:102A2000F6D152469800C318DB0163445D10785D0F
:102A30001A42E8D14B4698435B46013118430BB22A
:102A400078559E42E8DC039B0199009A5C1A099D27
:102A5000A3B29A460097954238DDA0235146002044
:102A60009B0099424041012398460E339C465B46A9
:102A7000F0261B019A46009FC0B27600019109E042
:102A800064464B46234054462343BB5401310AB2AB
:102A900095421ADD91B2B142F8D20028F6D19300E6
:102AA0009B18019ADB0191464B445A10BC5CA1462D
:102AB00044461C42E4D164464B46A3435C46013184
:102AC0002343BB540AB29542E4DC0097029B059A6B
:102AD00002339BB20293089B9A4201DA9CB2BDE694
:102AE0000DB0F0BCBB46B246A946A046F0BD019968
:102AF000039A8C466946624492B29046069A08252B
:102B00004D5F121B12B2AD18AA4200DA1DE7DDE7D5
:102B1000D0120020039B01995C1AA3B29A469CE74D
:102B200003990C1BA1B28C4658E7C046F0B54E463F
:102B300057464546DE46E0B58FB01E0018AB140080
:102B400000229A5E070019AB91461878A023B94479
:102B50000D00039200909B00994519DA5300E31A87
:102B60009A467319013B9846F0235B009D4205DAB3
:102B70000300524629004846FEF7ECFCF0235B00B8
:102B8000984505DA524641464846009BFEF7E2FC6E
:102B90006B469B89A9B29C460B9161448AB209930A
:102BA0005B009BB29346B2B2D51A0493BBB29C466B
:102BB00009B22DB2644402936D18A3B20C9208932B
:102BC000A94279DAF0246400A023A046CE4C00206C
:102BD000A4460124029A9B009A4240416246A246C2
:102BE0000E34A146009CC0B22401BC4601940700EB
:102BF0000B000C001000059109E04A461440019AB0
:102C00001443845501331BB21C009D4217DD9BB257
:102C10004345F7D2002FF5D15146A2001219D20137
:102C200062445610845D1142E7D14A469443009AAB
:102C3000013314431BB284551C009D42E7DC089B02
:102C400000205F1EBBB29A46A02352469B009A42C8
:102C500040410123F02698460E339C46009B05997F
:102C60001B019A46A84CC0B27600019209E0674663
:102C70004B463B4057463B436354013211B28D42B1
:102C80001ADD8AB2B242F8D20028F6D18B005B1866
:102C90000199DB0189464B445910675CB9464746A8
:102CA0001F42E4D167464B46BB43009F01323B4382
:102CB000635411B28D42E4DC099A029B944663444A
:102CC0009BB2019301239B1A1BB20A93049B5B42A4
:102CD0001BB20693039B002B00DC0DE11E00069B3C
:102CE0000A990593A0239B009946A03B9A46864BE0
:102CF00000209846009B04911B010793029608E070
:102D00000F231A40079B1A4343461A55029B9842C9
:102D100062DA6B46049A1B8994B2002A09DB5E1EB4
:102D200032B20292059AB3B2023211B2141905916D
:102D3000A4B2013082B251000131611809B20027FA
:102D4000002604914946019C00B2E51AADB25C46EA
:102D50008D427741A41A3900A4B2FFB2002915D1DF
:102D600051468C427F41002F10D14146A7003C19AB
:102D7000E40164196710CD5D0121214200D1B4E066
:102D80000E310D4007990D434146CD5501994C46F2
:102D90008A1A59460025CB1A002192B2A2424D410F
:102DA0009BB2ECB2002DB1D151468B426441002C54
:102DB000ACD19C00E318DB019B18012142465C105A
:102DC000125D19429CD10F239A43009B1A4343463C
:102DD0001A55029B98429CDB089B099A0024981A7A
:102DE00080B2431E9BB20493069B06000793039B8D
:102DF0000A9A9C46A0239B009946A03B9A46424BC8
:102E00000D909846009B1B0108936346029330E0A7
:102E10000E310D40089960460D4341460D5404990A
:102E200005988C4659460025091A4F4600206344F0
:102E30009BB2BB42454189B2E8B2002D14D1554640
:102E4000A942404100280FD1880040180125414681
:102E5000C001C3185810095C1D4257D00F231940F8
:102E6000089B194343461954029B0136B6B29C4253
:102E700057DA6B4690B21B89002A09DB5F1E3AB213
:102E80000292079ABBB2023211B21018079180B2B7
:102E90000134A2B2059252000132821858464946C6
:102EA000C51A002700208E42784124B2010012B2D8
:102EB000ADB2C0B20029B2D151468D424041002886
:102EC000ADD1A8004019C001801941108C4641467F
:102ED00065464D5D012101429AD10F218D43009934
:102EE00060460D4341460D5499E70F218D430099EB
:102EF0000D434146CD5549E70FB0F0BCBB46B24645
:102F0000A946A046F0BDC046D01200200F23994329
:102F1000009B0136194343461954029BB6B29C42AA
:102F2000A7DB0B9B0C9F9C46013F099B6744FF1A44
:102F3000069B0A9A0793039BBFB29C46A0239B0063
:102F40009946A03B9A46824B00249846009B0D98D8
:102F50001B0108936346BC46029317002EE00E3215
:102F60001640089A164342465654049A4D469346D4
:102F7000002600225B449BB2AB4256410599F5B254
:102F8000614489B2002E14D1524691426D41002D08
:102F90000FD142468D006D18ED01EB185D10515DAB
:102FA00001221A4245D00F231940089B194343467A
:102FB0005955029B013080B29C4245DA6B46BDB246
:102FC0001B89002F09DB07995A1E023193B212B2F6
:102FD00002924D190AB20792ADB20134A2B2560064
:102FE0000136AD192FB265464946EE180592002507
:102FF00000228842554124B22A00B6B2EDB2002A1E
:10300000B3D1524696426D41002DAED1B500AD19F7
:10301000ED012D186A10934642465946565C01222E
:103020002A429CD10F229643009A16434246565498
:103030009BE70F239943009B0130194343465955A1
:10304000029B80B29C42B9DBA0239B009846A03B28
:1030500099463F4B67469C46012300219B460E3311
:103060000493009BBA461B0105930A9E099B02919B
:103070000BE0049B1A40059B1A4363461A54039BBA
:10308000029A9A4200DB37E79BB2B0B2002E09DB0E
:103090005A1E93B212B20392069A023211B210185B
:1030A000069180B20299002501318AB209B2002747
:1030B0000291414654000134001906B20198C41A25
:1030C000A4B250468C426F41801880B2FDB2002FEE
:1030D00014D1494688426D41002D0FD161468500CB
:1030E0002818C001001945104C5D5946014228D0EE
:1030F00004990C4005990C4361464C550199404692
:103100008A1A0024002192B282424C4153449BB25D
:10311000E0B2002CB3D149468B4240410028AED1E9
:103120009800C318DB019B18594662465810125C80
:1031300019429ED1049B9A43009B1A4363461A543A
:103140009DE704998C4300990C4361464C55D5E7A3
:10315000D0120020F0B557464E464546DE46E0B553
:103160001D0093B01CAB00269C5F1F880C941DAC07
:10317000247880B2C319A2469CB2089494B26A180B
:103180009046F0261BB29B467B00AC469BB2019159
:103190008AB27600B04506DDE026FF36B61A36B2B2
:1031A000B4468846E0446646002E07DDA026B600F9
:1031B000B34503DAA03EB14200DA82E1BA18013D1C
:1031C00092B2ED1A0292AAB206920122013C5B422F
:1031D0001BB20119C91BD21B0F930C9B89B212B2EF
:1031E00009910792002B00DC64E1069B0321013367
:1031F0009BB20B930F9BC64C10930C9B03910593B2
:10320000079B11970A930023049301339B460E33C7
:103210009C466B460A9A9D8A93B2002A09DB6A1E75
:1032200095B212B20592109A023211B2D3181091CF
:103230009BB20499680001318AB209B204910399E2
:10324000884643441BB20A93099B9F18029BBFB256
:10325000591B0B9B09B29846404400B2401881426A
:1032600032DAA02300269B009F427641A03B98467D
:103270005346F6B21B01B9460D953700019306007F
:103280000E9208E063461940019B19432154013511
:1032900029B28E4216DD8DB24545F8D2002FF6D107
:1032A0005A468B005B18DB014B445810215C1A42D4
:1032B000E8D163469943534601351943215429B255
:1032C0008E42E8DC0D9D0E9A099B069E9846029B55
:1032D0004544991A039B09B29846464436B276187B
:1032E000ADB2B14233DAA02300279B009D427F415B
:1032F000A03B984653461B0199465346FFB2CA4627
:10330000019309E060464B46034050460343635433
:10331000013211B28E4218DD8AB24245F8D2002F36
:10332000F6D18B005B18DB015B195910605C81469C
:1033300058461842E6D160464B4683430198013215
:103340000343635411B28E42E6DC019B9A46039B11
:10335000059A02339BB20393049B934200DA58E729
:10336000002303210493013301930E339B460A008B
:10337000119F674C07998BB2002909DB791E8FB228
:1033800009B20C910F99023108B2CB180F909BB281
:103390000499D3181BB201310793089B8DB25B1BB4
:1033A0009BB29846029B09B20491D91B0B9B7800F3
:1033B0009946484409B200B243189C468B4234DD1A
:1033C000A023404600269B0098427641A03B9946A8
:1033D00053461B016046F6B2C4460393B8460592B5
:1033E000099508E05B461940039B1943615501327A
:1033F00011B2884216DD8AB24A45F8D2002EF6D1C3
:103400008B005B18DB016344019F5D10615D1F420F
:10341000E8D15B469943534601321943615511B2D5
:103420008842E8DC4746059A099D089BDF1B029B02
:10343000BFB2591B069B09B29D182DB26D18A94247
:1034400030DAA02300269B009F427641A03B98469D
:103450005346F6B21B01BC469146370003932E003B
:1034600008E05B461940039B19436155013001B2E6
:103470008E4216DD88B24045F8D2002FF6D18B007F
:103480005B18DB016344019A5D10615D1A42E8D16B
:103490005B469943534601301943615501B28E4250
:1034A000E8DC4A4604990C9B023292B2994201DA56
:1034B0009FB25FE713B0F0BCBB46B246A946A04638
:1034C000F0BDE11A09B20291012149428946C8447E
:1034D000B04502DBE021FF31884605932B000494C0
:1034E00099465C46BB4647469046019E029D039026
:1034F000310053462A0020000136FEF72BF8B74270
:10350000F6DA42464D465F460398049C059B55E615
:10351000D0120020F0B5DE464E4645465746E0B58F
:1035200085B005000EA800785E188346F0200C00D8
:103530004000864204DDE023FF335B1A1BB25E18B5
:10354000002B13DDA027BF00BD420FDA754B5019C9
:103550005B1BB84200DC7FE0F02252009446AFB221
:10356000581EEA0709D4614500DA7EE005B0F0BCD8
:10357000BB46B246A946A046F0BD6145F6DAA02199
:10358000002289008F425241013ED2B291466645E7
:1035900000DBBEE06A1C02923A18009292B2944696
:1035A000A0210022674689008F425241D2B2019287
:1035B0000122110001408A46023B024200D0A6E0EF
:1035C000431098465B465A461B011A43009B4746E8
:1035D000A8464D4699460392E30F002D12D1002BC9
:1035E00010D1A2001219D2014F4842445210815CFE
:1035F00000928C460F21624611405A461201114337
:10360000009A81545246002A12D0019A002A0FD102
:10361000002B0DD14A460F20A3001B1992B2DB01EB
:1036200041499B185B10CA5C824358460243CA5406
:10363000002F0DDD6B460C21595E029B3A0058109D
:10364000A3001B199B01C018374BC01803F01EF8CC
:103650000134B442C0DD89E71300F02252009446E1
:10366000AFB2581EEA0788D47DE7721E624553DA6E
:10367000013FFF18A026B9B20027B600B1427F4132
:103680008A46F9B2009101210E001E4019423CD138
:103690005F10002E43D1002F04DC0134A242FADA7D
:1036A00064E74546204BA84601936B1099465B465C
:1036B0001500180103430293019BA0009C460019CA
:1036C000800148443A0002996044013402F0DEFF70
:1036D000A54200DA4AE7002EEED02A00002C0EDBCD
:1036E000009B002B0BD10F25A3001B19DB010E48FB
:1036F00053445B10C15CA9435D462943C154002F6C
:10370000CFDC0134A242E9DA30E70300C0E7180059
:1037100056E7E026FF363DE7E022FF32A8E7A8465D
:10372000DCE7C0467F020000D0120020024B188068
:10373000024B19807047C046D26A0220D46A022028
:10374000034A031C002800D10123DBB21380704719
:10375000D86A0220024B1870024B18707047C0469E
:10376000DC6A0220DD6A0220024B1870024B1970DD
:103770007047C046DD6A0220DC6A0220F0B5D646FA
:103780004F464646C0B50278040082B0002A22D0D7
:10379000364B374D9A46374E0DE00D2A08D02B8810
:1037A000092A1ED19F229200934201D204332B801A
:1037B0002278002A0FD001340A2AEED12D4B2E4A4E
:1037C0001B881188DB005B1813800022284B1A80AD
:1037D0002278002AEFD102B0E0BCBA46B146A84632
:1037E000F0BD19B28C46A02031888000844521DAD2
:1037F00021480027C05F8046F0204000804519DA4C
:10380000C8B281464000484440006044002811DDB1
:103810004846C000404400280CDD4946174B60462E
:103820001B7801911649097800914146FDF714FF74
:1038300031882B884A008A1852009B185246127809
:103840009BB22B80002AB3D0A020800084468A003F
:103850008A1A520062449342AADD074BC9001A88B3
:103860008918198000232B80A2E7C046DE6A022057
:10387000D26A0220D86A0220D46A0220DD6A0220BD
:10388000DC6A0220F0B54E46DE465746454699466C
:10389000E0B591B01AAB1B781201049389B24B4585
:1038A00000D180E00B000F339BB2089383B29B469C
:1038B000644F0833D7199BB202971F004B46D84676
:1038C000614C0393029BF02000261A7800234000ED
:1038D00081425E41A0308446012082460E308146FE
:1038E00004988D000001069003986D18ED01000109
:1038F0004346F6B205900791009518E0634510D253
:10390000002E0ED1009959184810255C0195554696
:103910000D4240D04946019D0D402900069D294396
:103920002154013352009BB2D2B29F421BD051B2FC
:103930000029E3DA6345F4D2002EF2D10099591838
:103940004810255C019555460D421CD04946019D05
:1039500001330D402900059D520029439BB221549B
:10396000D2B29F42E3D1029B079901330293013106
:10397000089B89B29942A5D111B0F0BCBB46B246B2
:10398000A946A046F0BD4946019D8D432900039DEF
:1039900029432154C5E74946019D8D432900049DD3
:1039A00029432154BDE7274DA023002455190022A7
:1039B00080B29B0098426241D2B20F92421C96B2F2
:1039C00000229E4262410996D6B2821C019696B2AE
:1039D00000229E4262410A96D6B2C21C029696B25C
:1039E00000229E4262410B96D6B2021D039696B209
:1039F00000229E4262410C96D6B2421D049696B2B7
:103A000000229E4262410D96D6B2821D059696B264
:103A100000229E42624107900E96D6B2C21D00203F
:103A200092B29A4260410F00C3B29B464B460F3799
:103A300008920F9ABFB20696B8469146024E00937E
:103A40001CE0C046ECE80010D012002057063CD421
:103A5000970653D4D7066AD4170700D581E05707D5
:103A600000D599E0970700D5B1E0D20700D5C9E0AD
:103A7000013189B20135414500D17DE7F0200023B5
:103A80000027400081425B41EF57880040182A78A8
:103A9000DBB2C001002FD9DA4F46002FD6D1002B60
:103AA000D4D1079FBC468444674664467F10BA461B
:103AB000F75DE40700D4B9E00F242740009C2401FF
:103AC0002743544637555706C2D5002BC0D1019F16
:103AD000002FBDD1099CA446844464466410A246CC
:103AE000375D6446E40700D4A7E00F242740009C1C
:103AF00024012743544637559706ABD5002BA9D14F
:103B0000029F002FA6D10A9CA446844464466410F8
:103B1000A246375D6446E40700D4AAE00F2427409C
:103B2000009C2401274354463755D70694D5002BD3
:103B300092D1039F002F8FD10B9CA44684446446EE
:103B40006410A246375D6446E40700D49FE00F246A
:103B50002740009C2401274354463755170700D4BB
:103B60007DE7002B00D07AE7049F002F00D076E796
:103B70000C9CA446844464466410A246375D6446A7
:103B8000E4077DD50F242740009C24012743544699
:103B90003755570700D465E7002B00D062E7059F33
:103BA000002F00D05EE70D9CA44684446446641058
:103BB000A246375D6446E40754D50F242740009C95
:103BC0002401274354463755970700D44DE7002B6F
:103BD00000D04AE7069F002F00D046E70E9CA4467F
:103BE000844464466410A246375D6446E40732D5D7
:103BF0000F242740009C2401274354463755D20701
:103C000000D435E75A46002A00D031E7002B00D017
:103C10002EE7089B9C4660444210B35CC00713D457
:103C20000F20834300980343B35421E70F24A74395
:103C3000009C27435446375508E70F24A743009CB0
:103C400027435446375503E70F20034000980001EF
:103C50000343B3540CE70F24A743009C2743544667
:103C6000375502E70F24A743009C27435446375596
:103C7000F8E60F24A743009C274354463755E9E64E
:103C80000F24A743009C274354463755E7E60F24EB
:103C9000A743009C274354463755DDE6F0B5CE4692
:103CA000474680B50278040083B0002A18D00F4B35
:103CB0000F4D98460F4B288899460F4E494643466C
:103CC0000027C95F37781B7800B20097FFF7DAFD4D
:103CD00028880134083080B228802278002AEDD16B
:103CE00003B0C0BCB946B046F0BDC046DD6A022094
:103CF000D26A0220D46A0220DC6A0220F0B557465C
:103D00004546DE464E46E0B5464B077889B005008D
:103D10001C780493002F00D17AE0434B039499461A
:103D20001A88424B49461E880693414B07949B468E
:103D3000A0239B0098463F4B02910593330053E02C
:103D4000F0246400A14243DA059C2478A146DCB249
:103D5000A4466400644464000619002E51DD6646E2
:103D6000F600B2468A445646002E4ADD6346019369
:103D7000039B3A0000934B46FDF76EFC029B1A88AA
:103D8000069B501C00B21B88404521DA5946F0249E
:103D90000026895F6400A1421ADA059C2478A146B6
:103DA000DCB2A4466400644464000419002C0FDDF6
:103DB0006446E4006418002C0ADD634601934B4618
:103DC0003A000093FDF748FC069B029A1B88128874
:103DD000D900C91A5218029992B20A802F78002F7E
:103DE00015D0049909780391594610B20024095F4F
:103DF00001354045A4DB511C09B24145E8DA0E4AC1
:103E0000E6E7501C00B24045CFD10C4AE0E7079CE2
:103E1000049B1C7009B0F0BCBB46B246A946A04644
:103E2000F0BDC046DC6A0220D26A0220D86A0220B5
:103E3000D46A0220DD6A0220FF7F00007F020000BA
:103E4000F0B5C64600B51E0006AB00241B5F0C0093
:103E5000B14212DA0A4F1D011D434110121AA84641
:103E60007F185510A000001980012A00414638181B
:103E7000013402F00BFCB442F4DB80BCB846F0BD68
:103E8000D0120020962210B5830018180B01194398
:103E9000034B80019202121AC01802F0F7FB10BD0A
:103EA000D01200208B005918C9010918054B4A107F
:103EB000985CC90702D5000900B270470F2318406B
:103EC000FAE7C046D0120020A023F0B557464E4670
:103ED0004546DE469B009A46E0B585B0002786B28F
:103EE000814600230190504686427B41F025D8B29E
:103EF000844600206D008CB2AC427841771EC5B27A
:103F0000B8B28046D2B20095002B00D040E1002D1F
:103F100000D03DE14B468F007F18FF01DB19994629
:103F20005B109B4658464D46D54B185C0290ED07FA
:103F300000D400E10F252840814610018246484602
:103F400055462843814658464D46B8441D54404680
:103F50004010814648461F5C0F2087434846174360
:103F60001F54A027731C9BB2BF00BB4214D2009801
:103F7000002811D18F007F18FF01FF187B10994690
:103F80004846BF4B185CFF0700D426E10F270740C7
:103F90001001074348461F54F027631E9BB27F0061
:103FA000BB4216D26046002813D19F00FF18019B28
:103FB000FF01984647447B1099464846B04B185C31
:103FC000FF0700D44CE10F27074010010743484684
:103FD0001F54631C98B21BB29A46A0230025814649
:103FE0000020B71EBFB29B009F42684103000098AB
:103FF00002970343F020400083469846534628002A
:104000005F465546DB17BD4243414846C00B03435C
:10401000DBB2002B00D0ACE06346002B00D0A8E060
:104020004B469B004B44DB019B46019B9946CB448E
:104030005B465B109A465046914B185C8146584649
:10404000C00700D4D0E00F25AB464D465F461001B7
:10405000C0B23D400543039050461D5440460028E1
:1040600016D18800804688444046C00180460298A8
:104070008146C84440464710D85D81460F2080469F
:104080004846454628408046454603982843D8552B
:10409000A0230236B6B29B009E4211D2009B002B99
:1040A0000ED18B005918C901754B89194E109D5DB1
:1040B000C90700D4BBE00F212940150129439955B8
:1040C000F0270026A31E0234A5B224B2E1177F0018
:1040D000BC4271416046EC0B214301439BB2C9B223
:1040E000BB423AD2002838D19C00E418019BE4017D
:1040F0009C46634B64446710DE5DE40700D49BE09C
:104100000F241201D2B234401443DC5500290BD1E4
:104110000198A90084464919C90161440F2049103A
:104120005C5C204002435A5405B0F0BCBB46B2462A
:10413000A946A046F0BD0F2081464D460298A843EF
:104140001043814658464D461D54D04500D308E7DC
:1041500047447F10D85D824632E00029E4D1019BBC
:10416000A9009C464919C9016144D8077FD4444B32
:104170006FE04346002B00D08AE78B005B18DB0121
:104180009846029B9946C844DF0774D43C4B42E0F2
:10419000A0239B00984500D3E3E6009B002B00D0B2
:1041A000DFE68B005B18DB01984443465B101F0081
:1041B0009946334BD85D82464046C00700D4C9E6D5
:1041C0000F208046504645462840804610018146D3
:1041D00040464D462843D855C3E60F27B84307004D
:1041E000484617431F54D7E60F20834648465D468E
:1041F000A8431043814650464D461D544046002872
:1042000000D045E78800804688444046C00180468B
:1042100002988146C84440464710D85D80460F202A
:10422000814640464D46A8431043D85530E70F21FC
:104230008D4315439D5543E70F24A6431643DE5592
:10424000002900D070E70198A90084464919C901E6
:1042500061440F244910585CA04302435A5463E759
:104260000F27B8430700484617431F54B1E6120111
:10427000034BD2B252E71301DBB20393004BF9E6D2
:10428000D0120020094A83009A1810B51468402201
:10429000544080322240064CC000A44663441A6059
:1042A000044B9C466044416010BDC04604C00140C0
:1042B00004D00140004001400123D0228340120677
:1042C00093629361094A83009A1811684022514011
:1042D00080320A400649C0008C4663441A60054B90
:1042E0009C460523604443607047C04604C00140BB
:1042F00004D00140004001400FB400B5084883B02D
:1043000004F032F8049B002B07D005A91800019196
:1043100003F064FE034804F027F8012003F076FE62
:1043200054E6001064E60010EFF3108072B6034A02
:104330001368002BFCD0BFF35F8F70472C0100D0B7
:10434000BFF35F8F0022024B1A6080F31088704722
:104350002C0100D070B5EFF3108C72B60D4D2B68A8
:10436000002BFCD0BFF35F8F0724CB08C618C05CBE
:1043700001230C40A3401C000440034207D1184312
:104380003070BFF35F8F2C608CF3108870BD10000D
:10439000FFF7B2FF2C0100D0F8B54746CE4688465D
:1043A00080B5EFF3108C72B61C4D2C68002CFCD03D
:1043B000BFF35F8F9A4222D807210126894602E087
:1043C0000132934218D34D4637001540AF40D40810
:1043D0000119045D2742F3D110003C430C70BFF378
:1043E0005F8F00220D4B1A608CF3108800280EDBC3
:1043F000C0BCB946B046F8BD01204042EFE7BFF36C
:104400005F8F00232B608CF31088012040424346CD
:10441000002BEDD00898FFF76FFFC0462C0100D0AD
:10442000044A1078431CDBB2172B00D910231370F9
:104430007047C046F40100200021044B044ABFF33A
:104440005F8F02C39342FAD17047C046000100D08B
:10445000800100D0054B064A1360064A1360536082
:104460009360D36013615361936170478080808053
:1044700000E400E004E400E01F2318401E3B8340FA
:10448000002905D0C021044A4900535013607047E9
:10449000802201498B50FAE700E100E001228240CE
:1044A000034B1B6813405A1E9341D8B27047C04655
:1044B00000E100E070B50D00EFF3108672B60F4A10
:1044C0001368002BFCD0BFF35F8F0D4B10309B683F
:1044D00084001B590B4A934203D09D4201D000F047
:1044E00025FF074B9B681D51BFF35F8FBFF35F8FA5
:1044F0000022024B1A6086F3108870BD240100D0A0
:1045000000ED00E0C1010010024B9C4661448900AF
:10451000016070474000003470B5114C114DAC4241
:104520000FD2FF262368002B0CD0FFF779FF010084
:104530002000FFF7E9FFA680BFF35F8F0834AC428D
:10454000F0D370BDFFF76CFF01002000FFF7DCFF28
:104550002671BFF35F8F0834AC42E3D3F1E7C04666
:10456000F4080020040900200A4B1968EFF31080BA
:1045700072B60A68002AFCD0BFF35F8F1B68BFF3D6
:104580005F8F00221A6080F3108840BF0020002156
:104590007047C046C4120020F0B5DE4657464E466E
:1045A0004546E0B587B0EFF30583032201251A40A5
:1045B000954091008846A946B34B03925C58B34B93
:1045C0001D60B34B04934B46B24843630823E55E3A
:1045D000002D37DAA3881BB2002B00DBADE0A379F6
:1045E000002B00D0EEE00823E05E002820DB430033
:1045F00062691B18DB00D3189E68DD68731C00D14C
:1046000011E1A44801004144826A0B69B71A9B1A60
:104610009F4215D30123026A039883401A420FD0A8
:104620009C4800F0C9FA8D4202DCCCD18642CAD93E
:1046300040BF07B0F0BCBB46B246A946A046F0BD9D
:104640000E61EDE762696B0092465B19DB009A44EC
:1046500053469E68DF6800F0AFFA8F42BADC00D1A3
:1046600003E1002F00DAE8E05246534652691B6925
:104670009346049A934200D1D9E052460821605EE5
:1046800052880004594610439847009001910099C0
:10469000019A0B001000134300D1CEE013000A0072
:1046A000B61A9F41002806DB7A4800F085FA009E82
:1046B000019F36184F4153469E60DF6000229A5E8C
:1046C000002A00DA86E7530099186069C90041188A
:1046D00002938B68C9689B46B94200DD7AE702D134
:1046E000B34200D976E708239C46A4440595654665
:1046F0002281A446029B2C0006E053009918C900B1
:1047000041188D68C968AB469B18DB00C318B942D5
:1047100006DC00D1B3E01C000023E25E002AECDAE4
:10472000230064469C4653461A806346059D1D80BF
:10473000A3881BB2002B00DA51E72269EFF3108146
:1047400072B61368002BFCD0BFF35F8F0123A788DC
:104750005B42A3803FB22369BFF35F8F00221A60E0
:1047600081F31088002F00DA39E723000833220094
:104770009A4666697B00DB19DB00F318996850469E
:104780008C460824115FDD68002910DB029306E0E7
:10479000AB4244D00023E15E2000002906DB4C0040
:1047A0006418E4003419E368AB42F1DD029B078032
:1047B00000201F5E1980002FDCDA1400A379002B83
:1047C00000D110E70023A37126000823E15E08361C
:1047D0004B1C00D12CE70800A246656902E03E00B0
:1047E0004B1C1AD04B005B18DB00EF180A008C46FC
:1047F000E95E7B881BB2002BF1DA01235B42DC17F8
:10480000BB60FC60824205D0534631801B893B80EF
:1048100053461A8160464B1CE4D15446E5E6A36832
:104820006345B7D9C2E76B1C00D0EAE6F8E65B4601
:1048300058461B69984700281BD153461B8822699C
:104840002381EFF3108372B611680029FCD0BFF307
:104850005F8F514662880A8022696580BFF35F8F4F
:104860000021116083F31088B4E6864200D8F8E690
:10487000B0E65B461A685B680092019307E7B345B0
:1048800000D848E74CE7C046400F00203C70054088
:10489000994500100040054070B52E4C2569002D4B
:1048A00004D00A212C48FFF72FFE70BD2B4E0321A8
:1048B000300000F077F9E660FFF7B2FD284B0322E5
:1048C0009C46D02322701B061B6801216370254B78
:1048D0006044A3600F23800020610220638063692D
:1048E0004942A18019800231198647311D835852EF
:1048F00018315A5275325C39995218320131995235
:104900001832013199521832013199520835183252
:104910009D5202311832995218320131995218328F
:10492000013199521832013199521832013199529C
:104930001832013199520C4B0C49DC600130356260
:10494000FFF7B8FD01210320FFF796FD084B1D601E
:10495000A7E7C046F8010020C4120020004005402F
:1049600040000034FFFF1000400F00209945001068
:104970003860054070B501000469EFF3108C72B621
:1049800020680028FCD0BFF35F8F02200D5E4C69C9
:1049900068004019C00024180869002D36DB2688FD
:1049A0004E80BFF35F8F002606608CF31088E360B3
:1049B00063880498013320615B0405985B0CA26056
:1049C00060611A1C002B1FD093B228046280184328
:1049D0000A69EFF3108C72B61368002BFCD0BFF39A
:1049E0005F8F8B8823808D800B69BFF35F8F0022E0
:1049F0001A608CF310880B7801329A40CB68084912
:104A00008C4663441A6070BD0122DDE7BFF35F8FFF
:104A1000002303608CF3108801204042F3E7C04676
:104A20003C20000010B543890A1493421ADD53005C
:104A30009B184269DB00D3180469EFF3108C72B63F
:104A40002268002AFCD0BFF35F8F5A88090494B211
:104A5000090C8A4208D00369BFF35F8F00221A60F5
:104A60008CF31088002010BD8022120214435C8059
:104A7000012302698371BFF35F8F002111608CF302
:104A80001088044902788C469340C2680120624431
:104A90001360E8E73C200000F0B557464E46DE467E
:104AA0004546E0B506000F0085B0EFF30583994653
:104AB0008B46002B12D0384900204B6ABB4206D3EC
:104AC0008A6ADB1B591E8B41B2424041184305B034
:104AD000F0BCBB46B246A946A046F0BD2F4B9A4655
:104AE000DB68984653461B784046039300F064F811
:104AF0004246039B040004339B009B580D001B1A85
:104B000039003000001BA941894510DC0DD020BFC1
:104B1000214A0020536A5B45D9D3926ADB1B591E98
:104B20008B41B24240411843D1E78342EFD900F0B4
:104B30004BF832003B00121A8B41002B1ADB00238A
:104B40000193174B3200009350463B00FFF712FFD2
:104B5000011E0FDD104B5A6A5A451BD39B6AB342A4
:104B600016D35046FFF75EFF0B4A0020536A5B45A1
:104B7000ADD3D2E7084A0020536A5B45A7D3002093
:104B8000926ADB1BB24240415A1E934118439EE792
:104B90005A45E6D120BFE4E700400540F801002077
:104BA0006945001010B5024A0248FFF7D3FB10BD5B
:104BB00068E60010D40E00200300416A0A00986ADB
:104BC000596A8A42FAD17047034B596A0A00986AB7
:104BD000596A9142FAD1704700400540F8B5DE4667
:104BE0004E4657464546E0B58B4605000A991800E3
:104BF000160000F001FD0A9B6C001F02324B641985
:104C00009C46A4006444636881469F4200D9676063
:104C10002B1FDBB29846012B30D9C02380229B0189
:104C2000E31812011A60294BAD0059599A46002920
:104C30001BD17301E026226853401E408023424668
:104C40005B01E3181E60012A30D9802380229B017A
:104C5000E31812011A6053464A4667605A51F0BC85
:104C6000BB46B246A946A046F8BD586900F0C4FC50
:104C7000013043001B18033BFDD2DAE75B46012BF2
:104C8000CBD1C02303229B01E3181A60023AA36828
:104C90001A42FCD07301E0262268AD0053401E404A
:104CA00080230A4A5B019246E3181E605A46216837
:104CB000514003220A401A6001225B469A40A368D1
:104CC0001A42FCD0C1E7C04600800040DC0E002044
:104CD000F0B546464F46D646C0B51F00344B44009B
:104CE0009C462418A4006444636888461600FF2B81
:104CF00002D880235B006360031FDBB29A46012B5E
:104D000030D9C02380229B01E31812011A60294B7D
:104D100085005959994600291BD17301E026226864
:104D200053401E40802352465B01E3181E60012A57
:104D300030D9802380229B01E31812011A6080235E
:104D40005B0063604B465F51E0BCBA46B146A84683
:104D5000F0BD586900F050FC013043001B18033BC4
:104D6000FDD2DAE74346012BCBD1C02303229B01BE
:104D7000E3181A60023AA3681A42FCD07301E026D5
:104D80002268850053401E4080230A4A5B019146F9
:104D9000E3181E6042462168514003220A401A600F
:104DA000012342469340A2681342FCD0C1E7C046AB
:104DB00000800040DC0E0020014B8000C05870478E
:104DC000DC0E0020F0B54746CE4680B55B4B1600A2
:104DD0005A680700884683B0FF2A02D88022520012
:104DE0005A600322564B554D1A600123AC6823428A
:104DF000FCD0202229685140C0320A4051490A6043
:104E00002A684E4D5A40032313400B600223AC68BE
:104E10002342FCD080224C4B12011A6080235B009D
:104E20006B604A4C99464A4B3A0063610121434604
:104E30004848009600F0D8F941463800714300F028
:104E4000DBFB454B05005A68FF2A01D84A465A60E9
:104E50008022424B12011A602169002907D0606943
:104E600000F0CAFB013043001B18033BFDD2E023D6
:104E7000394A3B4811680B400360022311685940CE
:104E800001330B400421036093681942FCD0802158
:104E9000344B090119608021334B49005160236173
:104EA000264B5A68FF2A00D8596003220121244B5F
:104EB0001A60224A93681942FCD0E023106803402C
:104EC00020480360126803234A40022113401B4A12
:104ED000036093681942FCD080211B4B09011960C3
:104EE0008021224B4900516065615A68FF2A00D831
:104EF000596080221E4B12011A60A169002907D057
:104F0000606900F079FB013043001B18033BFDD2C0
:104F1000402316490A685A40A0331340154A1360CB
:104F20008022154B12011A6080235B004B60084BF6
:104F3000A36103B0C0BCB946B046F0BD3C800040A0
:104F40003CB000403C9000403CA00040DC0E002003
:104F5000006CDC02008002403080004030B0004035
:104F60003090004030A00040001BB7004880004057
:104F700048B000404890004048A00040F0B54E4680
:104F8000DE4657464546E0B51600924A85B0934640
:104F9000A022520091465A4603969B460600019273
:104FA0000291019B8C4A93420DD901235B429C469E
:104FB0008A4AE1449446019B634401934B460F2B7C
:104FC000EFD100208EE01F00854B07249C466744EC
:104FD0002300634338001900984600F00DFBA246F9
:104FE000651E864250D06C433800210000F004FB5F
:104FF000864259D06B1E9846012D00D1D3E053460E
:10500000E41A2100380000F0F7FA864258D0AB1EAF
:105010009846022D00D1B9E05346E41A2100380029
:1050200000F0EAFA864264D0EB1E9846032D66D063
:105030005346E41A2100380000F0DEFA864200D11F
:1050400072E02B1F9846042D00D174E05346E41AF9
:105050002100380000F0D0FA864200D17DE0052D15
:1050600000D17FE053463800E11A00F0C5FA06246B
:105070008642ADD10029ABD1C8465B46D146012559
:105080000298039E26E0A8464146380000F0B4FA94
:10509000002900D197E0651EA2466C43380021002C
:1050A00000F0AAFA8642A5D12100380000F0A4FA47
:1050B00000299FD1C8465B46D1460298039E09E06D
:1050C0000029A4D15246C2465B46C8465546914681
:1050D0000298039E4246434951434A4601600120DB
:1050E00032601D6005B0F0BCBB46B246A946A04682
:1050F000F0BD0029E6D0EB1E9846032D98D109217A
:1051000038000324092500F077FA8642BBD0032338
:10511000062138009A460334073D00F06DFA8642B6
:10512000C2D0012398466AE70029CBD02B1F9846AE
:10513000042D00D08AE704240C353B099E42A2D0FE
:1051400004230C2138009A4608340D3D00F054FA2F
:105150008642A9D00223984651E70029B2D0052DF6
:1051600000D07FE719213800192500F045FA864262
:1051700026D01421380000F03FFA052314249A4663
:1051800086421BD0023B9846153D38E70423022493
:105190009846BB089E4200D176E7A246013D7B08B7
:1051A0009E4200D180E7B74200D0FEE60122C84609
:1051B0005B46914601250298039E8BE7042573E721
:1051C000A846052460E7C8465B46A146250002982C
:1051D000039E7FE750262F0050F80C0020D1FFFFE0
:1051E000B0710B00001BB700F8B5040021481E0089
:1051F00017000D0000F000FA0100380000F0FCF983
:10520000069B36041B031E432368002B20DB1A4B2E
:105210001A49E3185A1E93418022920194465B4238
:105220001B0B174A1B0363441360164A13601F00CD
:105230000A689743FBD1144B2560E2182123A06034
:1052400013602368002BFCDA0823E6601360F8BDC6
:105250003F2322681340AB42D9D1A3681B051B0D25
:105260008342D4D1EE22E368D2021340B342CED1BE
:10527000EDE7C046001BB7000040FDBF08C000407E
:1052800000E0004000F00040043000008023024AAB
:105290009B000B43D362704700800540002310B58C
:1052A0000100988A1B8B984710BDC046162310B585
:1052B0000100188802331B88984710BDF8B547468F
:1052C000CE4680B50F1E18D014239946043304002F
:1052D0000025012698464B461888434621681B88BE
:1052E000984701C4431E984101350640AF42F2D1B0
:1052F0003000C0BCB946B046F8BD0126F8E7C0464C
:10530000AA23064A1B0113608D235B00D360044966
:10531000044B19605368002BFCDA704700400240D0
:1053200000B0FA00006002407047C04610B5014866
:10533000FEF7E2FF8CE6001070B5074D074EB54250
:1053400009D20024013E761BB60808CD98472300F9
:105350000134B342F9D170BD78E20010B4E200101C
:1053600070B5074D074EB54209D20024013E761BA9
:10537000B60808CD984723000134B342F9D170BD77
:10538000ACE20010B4E20010054B064A06491A6070
:10539000064A074B1A6010000B689843FBD1704710
:1053A00000E00040BFCDFBFE08C00040FE7F3C0097
:1053B00000F00040044BDB6C002B03D18022034B38
:1053C000D2021A607047C046000011504C201150A4
:1053D000044A054B1A60054A1368DB018033FBD190
:1053E0007047C046FFFFFF0100F0004008C00040CA
:1053F0004022034B9A675A671A67DA667047C046BD
:1054000000F0014010B5FFF717F810BDF8B52749B7
:10541000274C284D641AA6103200302E00D93022B5
:105420002800920001F038F9BC2C3BD830202F2303
:105430002C196407204A801BE40F9B1B052B16D9EF
:105440003700002C02D0B300771CEA50001B331940
:105450009B004108EB18C900C9181A605A6008334C
:105460009942FAD1012303421CD09843C619B300D4
:10547000EA50731C2F2E15D09B00EA50B31C2E2E21
:1054800010D09B00EA50F31C2D2E0BD09B00EA504D
:10549000331D2C2E06D09B00EA50731D2B2E01D0FD
:1054A0009B00EA50054B9D60F8BDC046000100100E
:1054B000C001001000000020C101001000ED00E05C
:1054C000002310B5294C82B0A367FFF719FF012212
:1054D000274B1A60636C012BFCD10322254B1A6009
:1054E000224A936B012BFCD1013300930121224A04
:1054F00022480433FFF778FE052301210093204A58
:105500002048FFF771FE0022022104201E4BFFF706
:10551000DFFB0022012105201C4BFFF7D9FB0022F5
:10552000002107201A4BFFF7D3FB0022002108209F
:10553000174BFFF7CDFB8023DB00009300220021F7
:105540000920134BFFF74AFB0022104B00210620D5
:10555000FFF7BEFB0420FFF72FFC0E4900F04CF8CC
:1055600001000020FFF792FE02B010BD0080004055
:105570003CB0004030B00040002F6859008002402D
:10558000008C864700C00240001BB70040597307DB
:10559000006CDC0240420F0001480421014B184717
:1055A00010020020BD520010124A936F9B0815D2C2
:1055B0009066D166002905D0FFE7FFE7FFE7516F4E
:1055C000106F704704B580210906C21751400028AA
:1055D00000D0C84308F038FE002104BDF0B5146EB9
:1055E000556E576F166FFFF7E3FF146655665767E2
:1055F0001667F0BD000000D0114A936F9B0813D2CC
:1056000010665166002905D0FFE7FFE7FFE7516FFD
:10561000106F704704B5002801D00020C04308F087
:1056200013FE002104BDC046F0B5146E556E576FD1
:10563000166FFFF7E5FF1466556657671667F0BDEE
:10564000000000D094464A4A926F9208624601D206
:1056500028E0C046F0B5464E346E756E776F366FF3
:1056600000F020F89446424A14665566576716675C
:105670006246F0BD94463E4A926F9208624601D25D
:1056800054E0C046F0B53A4E346E756E776F366FA3
:1056900000F04CF89446364A14665566576716670C
:1056A0006246F0BD002B24DB11D000293EDA00B5A4
:1056B000C943404200D1013100F038F8C9434042AB
:1056C00000D10131DB43524200D1013300BD002A39
:1056D000EBD1002801D1002905D00020C90FC9074E
:1056E00001D1C043410800B508F0A6FD0022002307
:1056F00000BD00B500290ADBDB43524200D1013373
:1057000000F014F8C943404200D1013100BDC94343
:10571000404200D10131DB43524200D1013300F05D
:1057200005F8DB43524200D1013300BD002923D1EB
:10573000002B18D1002A0CD0BC460D4F38667A6673
:1057400000210023FFE7FFE7FFE77A6F386F674626
:105750007047002801D00748010000B508F06CFD33
:105760000022002300BD02000B0000200021704732
:10577000000000D0FFFFFFFF002B00D0BFE0130CA4
:1057800028D1002AE7D080B4114F39667A66FFE746
:10579000FFE730B4040C7B6F396F1B0423433B6677
:1057A0007A66FFE7FFE7FFE7C04684B27B6F3D6F95
:1057B0001B0423433B667A66FFE7FFE7C0460023EE
:1057C0002C042D0C7A6F386F00196941B0BC7047FA
:1057D000000000D0F0B594460025140E01D112024D
:1057E0000835140F01D112010435940F01D1920034
:1057F0000235D40F01D152000135D40B0134254FAD
:105800007C66254C3C660E0C93B2FFE7FFE7FFE792
:105810003C6F6643360C7703BE467343DF0B5B0475
:10582000C01AB941130C7343DB18C91ACE0866437A
:10583000360CB64493B273431F0F1B01C01AB94113
:10584000130C73431F0B1B05C01AB941860D8F0241
:105850003E436643360C092D24DB520A7243801AFC
:105860007703460A6643360C16235B1BDE40DF4097
:10587000BF1964466643821B704604350633010037
:10588000D940A840C01900D30131A24206D200235A
:10589000F0BD0000000000D0FFFFFFFF121B013031
:1058A000F3D3F1E709277F1BFE406446A2B272439F
:1058B000801A00D20139220C7243130C1204821A8E
:1058C00099410B007046043513370100F940A84098
:1058D000801900D30131002B02D1A2420AD2F0BDBF
:1058E000013000D30131121BFAD2013BF8D1A242A0
:1058F00000D2F0BD013000D30131121BF7E7F0B543
:105900001C0C00D080E00CB400251C0A04D11B0242
:10591000160E3343120208351C0B04D11B01160F5F
:105920003343120104359C0B04D19B00960F334383
:1059300092000235DC0B02D192185B4101351C004C
:10594000971864410134464F7C66464C3C660E0C09
:10595000FFE7FFE7FFE7C0463C6F6643360C77037F
:10596000BE4697B27743C01B00D20139C01B00D29C
:1059700001399FB27743C91BC91B170C77437E04BB
:10598000FF0B801BB941CE086643360C0C2D33DB70
:10599000B644120B1F053A431B0B97B27743C01B4B
:1059A00000D201399FB27743C91B170C77433E04DD
:1059B0003F0C801BB941860D8F023E436643292769
:1059C0007F1BFE400C3D7746AF40BF1930BCA2B2F2
:1059D000ABB272437343801A9941220C7243130C89
:1059E0001204801A994102000B000137001BA941E3
:1059F000F9D2781E0021F0BD0C277F1BFE407746B0
:105A00007F0BAF40FF19E0E700245D1C07D0144F67
:105A10007D663966FFE7FFE7FFE7FFE73C6F95B27A
:105A20009EB265436643401BB141150C1E0C654395
:105A3000664336042F0C3E432D04401BB14199426E
:105A400004D202000B0020000021F0BD01D19042E1
:105A5000F7D3801A994101349942F2D3F6E7000056
:105A6000000000D0FFFFFFFF48404140484018B40D
:105A70001B4B5B68FC46019308BD04DFAB5D001067
:105A800018B4174B1B68FC46019308BD00DFB55DD9
:105A900000109446134A926F920809D2624618B4D5
:105AA0000F4BDB68FC46019308BD0CDF6D600010F6
:105AB0000C4AF0B5146E556E576F166F6246FFF7BD
:105AC000EEFF084A1466556657671667F0BD18B4AE
:105AD000034B9B68FC46019308BD08DF115F001073
