:020000041000EA
:10000000002008205D0100101B0100101D010010E0
:100010001101001011010010110100101101001058
:100020001901001019010010190100101F01001022
:10003000110100101901001021010010230100100E
:100040001101001011010010110100101101001028
:100050001101001011010010110100101101001018
:100060001101001011010010110100101101001008
:1000700011010010110100101101001011010010F8
:1000800011010010110100101101001011010010E8
:1000900011010010110100101101001011010010D8
:1000A00011010010110100101101001011010010C8
:1000B00011010010110100101101001011010010B8
:1000C00011010010110100101101001011010010A8
:1000D0001101001011010010110100101101001098
:1000E0001101001011010010110100101101001088
:1000F0001101001011010010110100101101001078
:100100001101001011010010110100101101001067
:10011000EFF30580103800BE00BE00BE00BE00BE7A
:1001200000BE00BEF2EB88715C3C00107C3C00100D
:10013000A001001090A31AE7D3DEFFFF42012110B7
:10014000FF0100008C3C0000793512AB4FF000003D
:100150001E49086006C881F3088810474FF05040D8
:10016000006810B14FF00000F2E70DA40ECC00299A
:1001700002D000F012F8F9E71549164A002000E015
:1001800001C19142FCD11449884714498847144958
:10019000884700BEFDE701C901C29A42FBD3704700
:1001A0007C3C00101001002058020020C43D0010CB
:1001B0000000082000000820C43D001000100820A6
:1001C00000100820000000007047000008ED00E06B
:1001D00058020020B45E02202D250010790700107F
:1001E00025250010F8B500BF064B0749C91A89102C
:1001F00048BF0131491003D0044B0BB101481847E7
:10020000704700BF58020020580200200000000084
:1002100008B5054B1BB105490548AFF30080BDE8A3
:100220000840FFF7E1BF00BF000000000805002004
:10023000842C0010000000002DE9F04F2DED028B02
:1002400087498BB0874802F0DBFA874981468548A9
:1002500002F0D6FA85498046824802F0D1FA9FED35
:100260007C8B074600217F4802F0A6FA01217D48D9
:1002700002F0A2FA4FF0000A4FF4402B0221794815
:1002800002F09AFA8DED028B09F1080602AC06AD78
:10029000CDF814A0CDF810B009F10103360346EAF9
:1002A000C31694E80F0085E80F00079695E80F0045
:1002B000012684E80F004FF4C023DFF8CCC10621EB
:1002C0001020CDF814C0029301F08EF810223346AE
:1002D00051466448009602F00DFB23464A465146BB
:1002E000604802F04DFB4FF4C023069308F10D0364
:1002F00008EB06021B0343EAC21323F0C04343F09A
:10030000804307935A4B062111200993CDF820B062
:1003100001F06AF81122334631465248009602F045
:10032000E9FA2B4642460FF23019D9E900893146E5
:100330004C4802F025FB8DED028BCDE904BA07F1A4
:10034000080CBB1C4FEA0C3C4CEAC31C94E80F00A1
:1003500085E80F00CDF81CC095E80F0084E80F0079
:1003600006211220CDE9048901F03EF80621132070
:1003700001F03AF80621142001F036F80621152084
:1003800001F032F80423122202213648009602F0CE
:10039000B1FA23463A460221324802F0F1FA3046D9
:1003A00002F042FB0446304602F03EFB03464FF4A7
:1003B000163E304D30493148DFF8D0804FEA841C7A
:1003C0000CF1A04C01EA433105EA4435CCF8008039
:1003D00041EA4431CCF8040045EA4330284F40F468
:1003E000802041F4FC019B0103F1A04340F0110087
:1003F00041F009011B4ACCF808E0CCF810001F605E
:10040000C3F804C09E6019615368D903FCD440F25C
:100410008F23144913614B689A03FCD440F2DF1315
:10042000104A4B6153685B03FCD440F23F15012333
:10043000956140F207704FF0A0421249A340086056
:10044000C2F850340BB0BDEC028BBDE8F08F00BF9A
:100450000000010000F0010000000C4052024010BA
:10046000C42C001000002050A02C0010842C001080
:1004700020460044FD1F00FCFD1F7EFC180020509C
:10048000280200200020205000020004A8060020BE
:10049000036870B50125044633B31B4E26600DB9C1
:1004A000012070BD01F074FC184DD5E90023904285
:1004B0009941F5D34FF050431B68012B20D0012206
:1004C000134B1A6001F064FC124A134BC0181378E6
:1004D00041F1000183F00103696028601921137064
:1004E00043EC40100025D9E7192000F09BFF1923A9
:1004F00045EC443045EC4030034B0120236070BD97
:10050000064A1360DEE700BF9C040010D8030020F9
:1005100040050020B05E0220A086010044050020B6
:100520002DE9F84F3F4B1F68002F77D13E4BD3F892
:100530000080B8F1000F1CD13C4E47463C4CDFF820
:10054000F490336811E000233A4D03EB430309EBC9
:10055000830328469B689847236832680133934297
:10056000236005F10C05F0DB1346002B2760EADC65
:10057000FEE7B8F1010F01D0BDE8F88F2C4C2B4EEF
:10058000DFF8B090DFF8BC802B4DDFF8BCA0D8F8C6
:10059000003032680133002AC8F80030276000DCE0
:1005A000FEE7DFF890B02F6001F0F2FB2368CAE9A4
:1005B000000103EB430309EB83039B68584698470C
:1005C0002A682368012A07D03268013393422360E6
:1005D0000BF10C0BDBDAE6E7184951F82320013266
:1005E00041F8232001F0D4FB8E46D4F800B0144B20
:1005F000DAF8041053F83B2003EBCB0CDAF80030A8
:10060000D31ADCF8042062EB01021B180C4842EB01
:100610000E0240F83B30CCF80420B8E747F0010761
:10062000384700BF48050020500500205405002031
:10063000FC0400205C05002040050020540600203A
:10064000E00300204C060020800400202DE9F84F34
:100650003F4B1F68002F77D13E4BD3F80080B8F195
:10066000000F1CD13C4E47463C4CDFF8F4903368F9
:1006700011E000233A4D03EB430309EB83032846C3
:100680009B6898472368326801339342236005F1E1
:100690000C05F0DB1346002B2760EADCFEE7B8F11F
:1006A000010F01D0BDE8F88F2C4C2B4EDFF8B09035
:1006B000DFF8BC802B4DDFF8BCA0D8F800303268E2
:1006C0000133002AC8F80030276000DCFEE7DFF8BD
:1006D00090B02F6001F05CFB2368CAE9000103EBD6
:1006E000430309EB83039B68584698472A682368AD
:1006F000012A07D032680133934223600BF10C0BBF
:10070000DBDAE6E7184951F82320013241F82320CB
:1007100001F03EFB8E46D4F800B0144BDAF804101A
:1007200053F83B2003EBCB0CDAF80030D31ADCF89B
:10073000042062EB01021B180C4842EB0E0240F849
:100740003B30CCF80420B8E747F00107384700BF3A
:100750004C05002050050020580500200005002011
:10076000D4050020440500207C0600203004002031
:10077000500600208804002070B584B0504803ABB8
:1007800002AA01A901F03EFC18B94D494D4800F0FC
:100790006DFEDDE90212019801F072FB01F0AAFF83
:1007A000FFF74AFD012000F0A5F80F2000F0E2FD60
:1007B000012000F0D7FD444800F0E6FD434800F07A
:1007C000E3FD414800F0E0FD404800F0DDFD3E481B
:1007D00000F0DAFD3D4800F0D7FD3B4800F0D4FDC5
:1007E0003A4800F0D1FD384800F0CEFD374800F01F
:1007F000CBFD354800F0C8FD344800F0C5FD324857
:1008000000F0C2FD314800F0BFFD2F4800F0BCFDF4
:100810002E4800F0B9FD2C4800F0B6FD2B4800F042
:10082000B3FD294800F0B0FD284800F0ADFD264892
:1008300000F0AAFD254800F0A7FD234800F0A4FD24
:10084000224800F0A1FD022000F08CFD204800F0BD
:100850009BFD204800F098FD4FF050431B68012B92
:1008600017D01D4A1368092B0BDC0C2100245E1CD9
:10087000166001FB03F21948194D8118C1E90135D1
:1008800084500022174B1A60FFF74AFE002004B084
:1008900070BD154A1368092B05DD0022134B1A6041
:1008A000FFF7D4FEF2E70C2100245E1C166001FB6A
:1008B00003F20F480A4D8118C1E901358450ECE775
:1008C000F0490200B42D0010E02C0010342D00106F
:1008D000882D00105C2D0010540500205C050020C0
:1008E0009104001048050020580500204C05002008
:1008F000D405002010B4C8B901234FF00F0C4FF4F9
:10090000A074F022184908801849088018490B8003
:10091000184981F800C01849087018481849037030
:10092000184B0C601A605DF8044B70470128FAD12F
:1009300000234FF00F0C4FF420744FF4F0720A496B
:100940000B800A490B800A4908800A4981F800C0D7
:1009500009490B70094B0A4918700A4B0C601A6060
:100960005DF8044B704700BFAA5E0220AC5E022017
:10097000AE5E0220B25E0220B15E0220B35E0220B3
:10098000C0040020900400202DE9F04F474C5E1871
:10099000276883B0BE4205460C469DF830B003DDA3
:1009A0007B1E5B1A1BB25E18002B06DD404BD3F892
:1009B0000080454501DAB94202DB03B0BDE8F08FA3
:1009C000A8EB0509AB18BE4209F1FF39A8BF3E46A6
:1009D0009845A8BF91466B1C05F0010A019309F1E7
:1009E000FF3300932B4655469A4675B94B46D807B8
:1009F000514625D45A10002A02DDB4F5F07F48DBB9
:100A00000134B442D9DA002DF0D04AEA04021204CB
:100A100023B211D49F420FDD03FB08A325485910D0
:100A2000425CDB0755BF22F00F0302F00F034BEAD5
:100A3000030343EA0B134354DDE90031D807D9D54A
:100A40000FFA84FEC4F3C03C7745D8BF4CF0010CCC
:100A5000CA18013AC2F3C03040EA0C00C0B212B268
:100A6000A8B9424513DA08FB0E22DFF848E04FEA46
:100A7000620C1EF80C00D20755BF20F00F0200F0E8
:100A80000F024BEA020242EA0B120EF80C20013B65
:100A9000B0E704EB840307489B0103EB61031844B0
:100AA0004BEA0B1101F0D0FFAAE700BF9004002031
:100AB000C0040020A80600202DE9F04F4FF0000CE4
:100AC0000D46174601B295B01C4608221023064673
:100AD0008B460846CDF800C029B2FFF755FF394BC9
:100AE000187817FB00FE002800F02E82A9B20844F7
:100AF00083B21393344B06F101081D68301D5D4528
:100B000006F1020A02900FFA88F0C8F3C038CCBF91
:100B10004FF0000C4FF0010C0C90A842A8BF48F019
:100B200001080FFA8AF0CAF3C03A57468542D8BF87
:100B300047F0010706F1030908970FFA89F7C9F38F
:100B4000C0390E904846BD42D8BF40F00100039026
:100B500002980F9707B2C0F3C030BD42D8BF40F033
:100B60000100721D04904CEADB70069010B2C2F3D3
:100B7000C0328542D8BF42F00102B31D05921AB2BD
:100B8000C3F3C0339542D8BF43F00103073609933E
:100B900033B2C6F3C0369D42D8BF46F001060D936E
:100BA0000A4BE4B21B6810970293094B139F9E44B3
:100BB000CDF82CB0074B1190129207964FEA04190A
:100BC0000A95CBE02D020020C004002090040020F4
:100BD000F32E0010A8060020BCF1000F0FD10B9DD2
:100BE00002EB050B4FEA6B0A13F80AC01BF0010F6A
:100BF0000CBF2CF00F0C0CF00F0C03F80AC075069C
:100C000040EA080C00F1D980BCF1000F0FD10C9D17
:100C100005EB020B4FEA6B0A13F80AC01BF0010F39
:100C20000CBF2CF00F0C0CF00F0C03F80AC0089D41
:100C300040EA050CB50600F1DE80BCF1000F0FD1D3
:100C40000E9D02EB050B4FEA6B0A13F80AC01BF06E
:100C5000010F0CBF2CF00F0C0CF00F0C03F80AC0A6
:100C6000039D40EA050CF50600F1E380BCF1000F9E
:100C70000FD10F9D02EB050B4FEA6B0A13F80AC068
:100C80001BF0010F0CBF2CF00F0C0CF00F0C03F835
:100C90000AC0049D40EA050C350700F1E880BCF16C
:100CA000000F0FD1109D02EB050B4FEA6B0A13F8F2
:100CB0000AC01BF0010F0CBF2CF00F0C0CF00F0C36
:100CC00003F80AC0059D40EA050C750700F1ED80A8
:100CD000BCF1000F0FD1119D02EB050B4FEA6B0A1F
:100CE00013F80AC01BF0010F0CBF2CF00F0C0CF016
:100CF0000F0C03F80AC0099D40EA050CB50700F186
:100D0000F280BCF1000F0FD1129D02EB050B4FEAF0
:100D10006B0A13F80AC01BF0010F0CBF2CF00F0C6C
:100D20000CF00F0C03F80AC0079DF60740EA050017
:100D300040F1F78068B90D9802445610985DD507C8
:100D40004BBF00F00F0020F00F0040EA09002043E5
:100D50009855013189B28F4200F0F680029E0AB2A6
:100D6000C80BB242A8BF40F001000A9D1EF8016FF7
:100D700005FB02F2069D40EA050C35067FF52CAF17
:100D8000BCF1000F7FF43BAF0B9D02EB050B4FEA6C
:100D90006B0A13F80AC01BF0010F0BBF2CF00F0CED
:100DA0000CF00F0C44EA0C0C49EA0C0C750603F825
:100DB0000AC040EA080C7FF527AFBCF1000F7FF4B2
:100DC00036AF0C9D05EB020B4FEA6B0A13F80AC015
:100DD0001BF0010F0BBF2CF00F0C0CF00F0C44EAB2
:100DE0000C0C49EA0C0C03F80AC0089D40EA050CFB
:100DF000B5067FF522AFBCF1000F7FF431AF0E9D39
:100E000002EB050B4FEA6B0A13F80AC01BF0010F47
:100E10000BBF2CF00F0C0CF00F0C44EA0C0C4CEA3E
:100E2000090C03F80AC0039D40EA050CF5067FF59E
:100E30001DAFBCF1000F7FF42CAF0F9D02EB050B33
:100E40004FEA6B0A13F80AC01BF0010F0BBF2CF01E
:100E50000F0C0CF00F0C44EA0C0C4CEA090C03F8D4
:100E60000AC0049D40EA050C35077FF518AFBCF1B8
:100E7000000F7FF427AF109D02EB050B4FEA6B0AC2
:100E800013F80AC01BF0010F0BBF2CF00F0C0CF075
:100E90000F0C44EA0C0C4CEA090C03F80AC0059D3F
:100EA00040EA050C75077FF513AFBCF1000F7FF426
:100EB00022AF119D02EB050B4FEA6B0A13F80AC033
:100EC0001BF0010F0BBF2CF00F0C0CF00F0C44EAC1
:100ED0000C0C4CEA090C03F80AC0099D40EA050C09
:100EE000B5077FF50EAFBCF1000F7FF41DAF129D6B
:100EF00002EB050B4FEA6B0A13F80AC01BF0010F57
:100F00000BBF2CF00F0C0CF00F0C44EA0C0C4CEA4D
:100F1000090C03F80AC0079DF60740EA05003FF5F3
:100F200009AF00287FF415AF0D9801310244561027
:100F3000985DD20789B24CBF00F00F0020F00F007F
:100F40008F4298557FF40AAF15B0BDE8F08F00BF0F
:100F50002DE9F04FA349A44B0978A44A91B0127827
:100F60001B880391A24904920D88DAB2A149022A92
:100F70000446B1F800B028D0049B019200930246C9
:100F8000039B59462846FFF797FD9B4BD3F800A0DB
:100F9000954B974A1B881588984A9548127812FBFA
:100FA00003F2A3EB83031544ADB20AEB43039D4266
:100FB000058007DD00228F4C914B21881B78028031
:100FC0000B44238011B0BDE8F08F8B4E0FFA85F9EA
:100FD000D6F800A0D145DFDA8A4A0FFA8BF1126801
:100FE0009142D9DA19F10B0FD6DB11F10F0FD3DBD8
:100FF00000271023B8461A4648460097FFF7C4FC5E
:10100000814B04EB8404E318D6F800A00E930BF197
:101010001006049BCDE90CB643EA03130F93B8F115
:10102000050F16BF0E9B002713F8087005F001038B
:101030000593EB0B0693CDE908850C9CBDF8343085
:1010400009F1020B18E06F4A25B2D2F80080AE1CFD
:10105000464507DD08F1FF36361B32B2002AB6B22C
:1010600004DD2E44D14501DA454563DB0234A4B2E8
:10107000A3424FEA57073CD0FD07E4D4DDE9032142
:101080008A42F3D05F4A25B2D2F80080AE1C4645B2
:1010900007DD08F1FF36361B32B2002AB6B2E5DDB5
:1010A0002E44D145E2DA4545E0DA4645A8BF46463A
:1010B000CDE90A34AAEB09020792D34526DD059B48
:1010C000002B40F00081CC46079B5A1E02F0010322
:1010D000002B40F09D805210002A1DDC0135B542E6
:1010E000EBDBDDE90A340234A4B2A3424FEA57072E
:1010F000C2D1DDE9088508F10108AB1CB8F1060F83
:101100009DB23FF445AF0FFA85F988E7059B002BA8
:1011100040F0F980CC460122B5F5F07FDEDA05EB30
:1011200085033A489B0103EB6C030F99184401F0C7
:101130008BFCD3E74645A8BF4646AAEB0902D34538
:10114000CDE90A34079211DD059B002B40F0858024
:10115000CC46079B5A1E02F00100E8B95210002A43
:101160000ADC0135AE42BCDDD345EDDC059B002B2E
:1011700040F09380CC460122B5F5F07FF1DA05EB23
:10118000850322489B0103EB6C031844039B43EA4D
:10119000031101F059FCE4E729B21FFA85FE8845E6
:1011A000CCBF0020012002EB0C03013B40EADE3003
:1011B000C3F3C03E50EA0E0E1BB211D153450FDAF5
:1011C0000AFB0133DFF844E05810DC071EF800107A
:1011D00000F1A680039B21F00F0119430EF80010C7
:1011E000013ABBE7B25E0220AE5E0220B15E022091
:1011F000AA5E0220AC5E0220C00400202C02002067
:101200002D02002090040020F4360010A8060020D3
:1012100029B21FFA85FE4145B4BF0020012002EB30
:101220000C03013B40EADE30C3F3C03E50EA0E0E31
:101230001BB210D153450EDA0AFB0133DFF820E16F
:101240005810DB071EF800107AD4049B21F00F0120
:1012500019430EF80010013A3DE7069C0799C5F3C3
:10126000C0332343A1F1020201F0010029B211D1E0
:1012700088450FDD0AFB019E39494FEA6E0C1EF0CE
:10128000010F11F80C3016D1039C23F00F032343F8
:1012900001F80C3009F1010C5FE7069AC5F3C03381
:1012A000134329B24FF001021FFA85FE50D1414588
:1012B0004EDA1046DEE7039C03F00F0343EA041303
:1012C00001F80C30E6E7069C079BC5F3C0302043CD
:1012D000A3F1020229B203F0010311D188450FDD09
:1012E0000AFB019E1E494FEA6E0C1EF0010F11F819
:1012F0000C001DD1049C20F00F00204301F80C00CD
:1013000009F1010CE4E6069AC5F3C033134329B290
:101310001FFA85FE1FD141451DDA01231A46DFE77A
:10132000039B01F00F0141EA03110EF8001057E78B
:10133000049C00F00F0040EA041001F80C00DFE705
:10134000049B01F00F0141EA03110EF8001082E73F
:1013500009EB020C23E7012209EB020C5BE700BF5B
:10136000A8060020012838BF0120014B18807047D3
:10137000AE5E0220024A034B10701870704700BF27
:10138000B15E0220B25E0220F8B504460078F0B1EA
:10139000114E124F124D0CE00D2807D0092817D11D
:1013A00033883A680433934200DA338014F8010F2B
:1013B00068B10A28F0D100220A492B8809883280B6
:1013C00003EBC1032B8014F8010F0028F1D1F8BD05
:1013D000FFF7BEFDEAE700BFAA5E0220C0040020BE
:1013E000AC5E0220AE5E022010B44FF480740C4B51
:1013F00053F8202003EB8003C00082F0400200F18C
:10140000804003F5805C02F0C00200F5203003F557
:101410004053CCF8002041601C605DF8044B7047DD
:101420000480034030B44FF0000343EC440043EC2D
:10143000400005254FF480740B4BC20053F8201078
:1014400003EB800081F0400102F1804303F520337B
:1014500001F0C00200F5805100F540500A605D6067
:10146000046030BC704700BF048003400FB400B577
:1014700083B0049C074801F081F93CB105A92046DE
:10148000019101F035F8044801F078F9012001F0EC
:1014900047F800BFE82D0010F82D0010EFF3108082
:1014A00072B6064BD3E8CF1F01220029FAD1C3E858
:1014B000412F0029F6D1BFF35F8F70479F040020B2
:1014C0000023034AC2E88F3F80F31088704700BFB3
:1014D0009F04002070B58646EFF3108572B6124C5B
:1014E000D4E8CF6F0120002EFAD1C4E8460F002EB9
:1014F000F6D1BFF35F8F4FF0010CC80801F007036E
:101500000CFA03F31EF800C01CEA030608D14CEAEB
:10151000030C0EF800C0C4E88F6F85F3108870BD0F
:101520001046FFF7A3FF00BF9F040020F8B5EFF3BC
:10153000108772B61C4ED6E8CF5F0124002DFAD179
:10154000C6E8454F002DF6D1BFF35F8F9A421BD8F6
:10155000012502E00132934222D3D40810F804E0BE
:1015600002F0070C05FA0CFC1EEA0C0FF2D14EEA51
:101570000C0E00F804E010460023C6E88F3F87F306
:101580001088984207DBF8BD0023C6E88F3F87F339
:1015900010884FF0FF300029F5D00698FFF766FF5E
:1015A0004FF0FF30E8E700BF9F040020044A1078A6
:1015B000431CDBB2182B28BF10231370704700BFE9
:1015C0002E0200204FF0E022936843F00053936016
:1015D000704700BF0021044B03F12002C3E88F1FB6
:1015E00001339342FAD17047940400204FF0E02376
:1015F0004FF08032C3F80024C3F80424C3F8082451
:10160000C3F80C24C3F81024C3F81424C3F8182416
:10161000C3F81C24C3F82024C3F82424C3F82824C6
:10162000C3F82C24C3F8302462B67047012300F0BD
:101630001F029340400941B1800000F1604000F575
:101640006140C0F8803103607047024A203042F8A0
:101650002030704700E100E0F8B50D46EFF3108749
:1016600072B6124ED6E8CF2F0123002AFAD1C6E86F
:10167000423F002AF6D1BFF35F8F0D4B00F11004FB
:101680009B680C4A53F82430934203D0994201D00E
:1016900000F016FE064B9B6843F82450BFF35F8FA3
:1016A0000023C6E88F3F87F31088F8BD9D04002013
:1016B00000ED00E011010010014B0B440360704786
:1016C0009404002070B5104C104DAC420ED2FF2691
:1016D000236863B1FFF76AFF01462046FFF7ECFF7E
:1016E000A680BFF35F8F0834AC42F1D370BDFFF723
:1016F0005DFF01462046FFF7DFFF2671BFF35F8FD6
:101700000834AC42E4D370BD4802002058020020E7
:101710000D4B1A68EFF3108172B6D2E8CFCF0120DB
:10172000BCF1000FF9D1C2E84C0FBCF1000FF4D1AD
:10173000BFF35F8F00221B68C3E88F2F81F31088EF
:1017400040BF002000217047A406002000000000D8
:101750002DE9F04F2DED028B85B0EFF30583DBB261
:10176000103B9A0818BF01224FF0010103F0030B50
:1017700018BFAF4DAF4B08BFAF4D0BEB820253F814
:10178000226001FA0BF205F541539FEDA78B019200
:101790005A602FE0B3881C0440F19380B379002B8A
:1017A00040F0DD80B6F90820002AC0F21E8173697E
:1017B00002EB420203EBC203D3E90247B7F1FF3F5A
:1017C00008BFB4F1FF3F0ED005EB8B01AB6A0A698D
:1017D000D21AE31A934205D301232A6A03FA0BF3C0
:1017E000134200D10C61284600F0CAFAA042B94168
:1017F000C0F2FB80B6F90830019A002B0093EA632F
:10180000C8DBD6F8148003EB4309284608EBC90768
:10181000D7E9024A00F0B4FAA04271EB0A01B9DB41
:10182000BAF1000FC0F2C380D7E90431834A934272
:1018300000F0ED807A88B6F9080092B242EA0040E2
:10184000984702460B4652EA030100F0B080002B95
:1018500080F2D180B4EB020E6AEB030A38F939301A
:10186000C7E902EA002B95DB716903EB430201EB48
:10187000C202D2E90270BE457AEB000C4FEA430285
:1018800088DBB4462CF8083F06E003EB430001EB8D
:10189000C0005A00D0E90270BE451A447AEB00003D
:1018A00001EBC20404DB31F93230A446002BECDA40
:1018B00028F83930009BACF80030B3881C043FF5A1
:1018C0006DAF3369EFF3108272B6D3E8CF0F012109
:1018D0000028FAD1C3E8401F0028F6D1BFF35F8F7C
:1018E0004FF6FF74B0880023316900B2B480C1E8BC
:1018F0008F3F82F310889842FFF650AF0746A94603
:10190000746906F1080807EB470E04EBCE03D3E930
:101910000250B6F90830C446002B13DBB2460097DC
:1019200004E034F936309446002B09DB03EB430620
:1019300004EBC602D2E90271BD4270EB0101F0DA9C
:101940005646009FACF8007034F93E7024F83E30E3
:10195000002FD8DAB3794D46002B3FF423AF002394
:10196000B371B6F9083006F10808581C3DD01A4684
:10197000776903E08046591C3FF416AF03EB43013F
:1019800007EBC100B0F802C01C461CF4004F9E4695
:1019900037F93130EED0944280ED028B05D0A8F8B3
:1019A0000030328927F8312034817246E3E738F875
:1019B000393033813369EFF3108272B6D3E8CF0F39
:1019C00001210028FAD1C3E8401F0028F6D1BFF357
:1019D0005F8F7388316928F83930009B738000234A
:1019E000C1E88F3F82F31088D4E640BF05B0BDEC5C
:1019F000028BBDE8F08F2846CDE9022300F0C0F944
:101A0000029A039B10EB020E43EB010A26E70846FD
:101A10000B69029198470028C9D00299D1E90023A7
:101A200011E700BFAFF30080FFFFFFFFFFFFFFFFE5
:101A300000800B402005002000000B4051170010D3
:101A40002DE9F84F364C25692DB1BDE8F84F0A2134
:101A50003448FFF731BEDFF8E4800321404600F050
:101A60007DF90326C4F80C80FFF7A0FD4FF0504C21
:101A70002D4B267003442361DCF800300F21637086
:101A8000636961801D834FF00405A3F878504FF01F
:101A90000505A3F890504FF00605A3F8A8504FF0A5
:101AA00007050E214FF6FF7208274FF00A0EA3F824
:101AB000C0504FF001094FF00C0C4FF0020B4FF0EB
:101AC000090A0D204FF00B05A3F868111749A280F1
:101AD000A3F808E1A160A3F848B0A3F8F0A0A3F828
:101AE0002051A3F838C1A3F85001A3F83090A3F80F
:101AF0006060A3F8D8701A800D4B3046C8F820708B
:101B00000C49DC60FFF7A8FD49463046FFF78EFD23
:101B1000094B0A211F640348BDE8F84FFFF7CCBD0D
:101B200030020020A406002094040020FFFF1000D3
:101B3000200500205117001000200B4000000B4032
:101B40000146F0B50069EFF3108772B6D0E8CF5FB9
:101B50000124002DFAD1C0E8454F002DF6D1BFF386
:101B60005F8FB1F902E04C690EEB4E0CBEF1000F35
:101B70004FEACC05086904EBCC0C3CDB665B4E807D
:101B80000026C0E88F6F87F31088BCF80200CCE90C
:101B900002230130C0F30E00012838BF0120059B4D
:101BA000ACF80200CCF81030069B40EA0E40CCF8AE
:101BB00014300B69EFF3108272B6D3E8CFCF012750
:101BC000BCF1000FF9D1C3E84C7FBCF1000FF4D198
:101BD000BFF35F8F8B886353A1F804E00B69C3E800
:101BE0008F6F82F310880122CB68097803F50153C7
:101BF0008A405A60F0BD0023C0E88F3F87F3108809
:101C00004FF0FF30F0BD00BF03464089B0EB214FDD
:101C100037DD58690A1402EB420210B500EBC2002E
:101C20001C69EFF3108C72B6D4E8CFEF0122BEF13D
:101C3000000FF9D1C4E84E2FBEF1000FF4D1BFF36D
:101C40005F8F428889B292B28A4207D000221B6914
:101C5000C3E88F2F8CF31088002010BD42F400429F
:101C600042800121002218699971C0E88F2F8CF3FE
:101C700010881C78DA68084602F50153A1405960C3
:101C800010BD0020704700BF2DE9F04306460D4609
:101C900083B0EFF30584E4B23CB12D4B5A6AAA42FB
:101CA0001CD2002003B0BDE8F0832A4FD7F80C9077
:101CB00097F80080484600F063F808F1040859F8E6
:101CC00028301B1A301A65EB0101984271F10001AE
:101CD00010DB20BF1E4B5A6AAA42E2D314BF012474
:101CE00000249B6AB34234BF204644F0010003B095
:101CF000BDE8F08300F04CF8864265EB0101002955
:101D000014DB154B3846CDE9003432462B46FFF73D
:101D100017FF011E0ADD0E4B5A6AAA4216D39B6AB0
:101D2000B34211D30B48FFF76FFFB6E7084B5C6A6D
:101D3000AC42B6D3641B18BF01249B6AB34234BFC4
:101D4000204644F00100ADE7AA42EBD120BFE9E70D
:101D500000000B40300200201117001010B4054B9A
:101D6000054C064AA04214BF1846581C5DF8044BA7
:101D7000FFF7B0BBC404002000800B40FC2D001016
:101D80000346416A0A46986A596A8A42FAD17047FC
:101D9000034B596A0A46986A596A9142FAD17047C8
:101DA00000000B4000EB400C4FEA8C0C0CF1804C17
:101DB0000CF5803CF0B51646DCF80420051FB2F5A2
:101DC000803F38BF4FF48032EDB238BFCCF80420EA
:101DD000012D2AD94FF40067254C0CF540521760AD
:101DE00054F82020B2B9DCF80020012D82EA461216
:101DF00002F0E0020CF5805632602AD94FF40061FF
:101E000044F820304FF480330CF500521160CCF8C8
:101E10000430F0BD6769B7FBF2FE0EF1010E0EEB68
:101E20004E0EBEF1030EFCD2DDE70129D2D1032410
:101E30000CF540521460DCF80820D207FBD5DCF822
:101E400000200B4C82EA461202F0E0020CF58056AC
:101E500032600122DCF800504D4005F0030535608A
:101E600002FA01F1DCF808200A42FBD0C6E700BF05
:101E7000CC040020014B53F820007047CC04002014
:101E8000584B2DE9F0431C6C1746B4F5803F38BF22
:101E90004FF4803283B038BF1A64032280460E4666
:101EA000514B504DDA636C6CE307FCD5EB6B4F4A3A
:101EB00083F0200303F0E003D363EB6B494D83F021
:101EC000010303F00303D3636C6CA407FCD54FF448
:101ED00000624FF48039464B464CDA63464B42462B
:101EE000636101213346C5F840904448009700F0F3
:101EF00057F94FF400616B6B07FB06F64B4538BF93
:101F0000C5F83490384B2269B8FBF6F619633AB13C
:101F10006369B3FBF2F3013303EB4303033BFDD2ED
:101F20003049324A0B6B03F0E00313630B6B83F011
:101F3000020303F0030313638B6B5807FCD54FF4C4
:101F400000654FF480332A4A15632D4A4B632261A2
:101F50000A6C9A424FF0030238BF0B64224B2149AE
:101F6000DA634B6CDA07FCD5CB6B204A03F0E00355
:101F7000D363CB6B1B4983F0010303F00303D363EB
:101F80004B6C9B07FCD54FF480334FF40065184A27
:101F90006661D5630B64CA6C9A4238BFCB644FF458
:101FA0000061114BA26999643AB16369B3FBF2F322
:101FB000013303EB4303033BFDD24FF400604FF4C6
:101FC0008031084A094D936C83F0400303F0E0032D
:101FD000AB64074B084DA5619864D16403B0BDE8BC
:101FE000F08300BF000001400030014000100140BC
:101FF00000200140CC040020006CDC020000054001
:10200000001BB7002DE9F04F4FF4A078994685B03A
:10201000CDE902125F4CDFF884A154450AD908F1DA
:10202000FF38A4F53B54B8F10F0FA4F12004F4D10C
:10203000002069E0072304F53722019403FB03F431
:1020400002F5D872B2FBF4FE70454FF0010C4FF070
:1020500002074FF003064FF004054FF005013FD093
:10206000B3F1010E00F094800EFB03F4B2FBF4FB1D
:1020700058454CD019B301FB03F4B2FBF4FB5845AF
:102080004FD0E5B105FB03F4B2FBF4FB584553D048
:10209000AEB106FB03F4B2FBF4FB584557D077B161
:1020A00007FB03F4B2FBF4FB58455BD0BCF1000F17
:1020B00005D00CFB03F4B2FBF4FB83455DD0734603
:1020C00003FB03F4B2FBF4FE704501F1FF3105F1AF
:1020D000FF3506F1FF3607F1FF370CF1FF3CBFD1AA
:1020E00004FB1024002CBBD19E464A46DDF808B004
:1020F000DDF80C900120284901FB08F1CBF8001015
:10210000C9F80030C2F800E005B0BDE8F08F04FB6C
:102110001024002CAED14A46DDF808B0DDF80C9052
:10212000E8E704FB1024002CABD14A468E46DDF8CC
:1021300008B0DDF80C90DDE704FB1024002CA7D1DB
:102140004A46AE46DDF808B0DDF80C90D2E704FB55
:102150001024002CA3D14A46B646DDF808B0DDF8BD
:102160000C90C7E704FB1024002C9FD14A46BE46C2
:10217000DDF808B0DDF80C90BCE704FB1024002C5F
:102180009DD14A46E646DDF808B0DDF80C90B1E78F
:10219000019C44E750262F00001BB70050F80C00AC
:1021A00070B4039D04682D0345EA03451B4B002CC6
:1021B000B3FBF1F3B2FBF3F61FDB194A194B904264
:1021C00014BF4FF480424FF40042174C1A6003F5DD
:1021D00080531A60A36832EA0303FBD1212200F581
:1021E00040530433016086601A600268002AFCDAFA
:1021F0000822C5601A6070BC7047036803F03F0393
:102200008B42DAD18368C3F30B03B342D5D1C368E1
:1022100003F4EE23AB42D0D1EDE700BF001BB700C3
:10222000008005400020024000000240012300EB36
:102230004000800000F1804000F5841041600360A0
:10224000704700BF0023DB8A002242E800F25202FE
:1022500001D4102118470421184700BF034AD2F8BF
:102260002838002BFBD0BFF35F8F704700000E4073
:102270000021044B044ABFF35F8F43F8041B9342D1
:10228000F9D170470C080E402C080E4010B44FF4E2
:102290008D704FF42A64064A064B07491460D060DB
:1022A00019605368002BFCDA5DF8044B704700BFDF
:1022B0000080044000A0044000B0FA00704700BF56
:1022C00008B50148FFF7D2F8202E001038B5054CAC
:1022D000054DAC4204D254F8043B9847AC42FAD3C3
:1022E00038BD00BF402C0010802C001010B40748EF
:1022F000074C084B084A094904601A608B6832EAA7
:102300000303FBD15DF8044B704700BF002002407F
:102310007F3BEFEF00300240F6FFF3030000024086
:10232000044BDB6CB3F5004F03D14FF48022024B1A
:10233000DA64704700001150002011504FF0E02285
:10234000044BD2F8881D0B43C2F8883D10EE3004D0
:10235000704700BF030330006FF06041044B054A33
:1023600019609368DB4333F06043FAD1704700BFD4
:10237000003002400000024010B545F25320FFF744
:1023800061FFBDE8104003460420184710B545F230
:102390005320FFF757FFBDE81040034601201847C0
:1023A000FFF718B91449154B70B55C1AA610442EE6
:1023B000324628BF4422124D9200284600F092FB7C
:1023C000B4F5867F13D80F4AC6F1440012D02B19FA
:1023D000410803EBC101C3E9002208338B42FAD163
:1023E000C30704D520F00100304445F82020064BF7
:1023F0009D6070BD4320F8E7000000101001001040
:10240000000000201101001000ED00E0002370B575
:102410002B4C82B0C4F88430FFF738FF0122294BDF
:10242000DA63636C012BFCD10321264A244B116330
:102430009C6B012CFCD10226052521460523224A4E
:1024400022480096FFF7ACFE21462B46204A214841
:102450000095FFF7A5FE0022042031461E4BFFF732
:10246000A1FC2146284600221C4BFFF79BFC0022C2
:10247000082011461A4BFFF795FC0022092011464F
:10248000174BFFF78FFC002206201146134BFFF776
:1024900089FC0022114B07201146FFF783FC042022
:1024A000FFF7E8FC00240F4BA3FB0035AD0CE0B2B6
:1024B00029460134FFF7BAFE062CF8D102B070BDF0
:1024C0000000014000300140002F68590000054025
:1024D000008C864700800540001BB70080D1F008C3
:1024E000006CDC0283DE1B4300B9704700F004B9C6
:1024F00010B5094B84B01C684CB1034600914FF0F5
:10250000FF3203A90548A047012004B010BD00F028
:1025100035F9204604B010BD04050020E924001060
:1025200000BEFDE708B5FFF7FBFF00BF38B5064C5E
:10253000064DFFF7CBFEAC4204D254F8043B98475B
:10254000AC42FAD338BD00BF802C0010842C0010A0
:1025500003680846114618472DE9F0411546427DAB
:1025600007468846002A46D0002D1DDD0B780A2B31
:1025700023D0012D4FF0000C18D04646012416F848
:10258000012F21460A2A04F1010422D0A542F6D1E6
:1025900065450BDC08EB050313F8013CA3F10D03C3
:1025A000B3FA83F35B093B75BDE8F0813B68A5EBAB
:1025B0000C0108EB0C009847ECE7037D002BD8D109
:1025C000036802210F489847012DE3D04FF0010C1A
:1025D000D3E716F8013C0D2BD8D08C4508EB0C0046
:1025E000A1EB0C0101DA3B689847022105483B68E2
:1025F0009847A446CAE7294640463B68BDE8F041F3
:10260000184700BF503C00102DE9F04782B00D463E
:1026100091461C460646FFF7BBFB4FF0FF3C6FF0B0
:1026200000472E4A821841F10003944577EB0301DD
:102630003CBF62463B462A4800F0FEFA6B1C8046CF
:1026400040D00CB3274F284B1C68B4B1B9F1000F30
:102650001CD1DFF89C9001E0246974B12368002B41
:10266000FAD0D9F800300BB19C42F5D120462A4669
:102670003146B8472469002CF0D1B8F1000F26D1BB
:10268000284602B0BDE8F087184FDCE74FF00A0A91
:10269000DFF85C9002E02469002CEED02368002B68
:1026A000F9D0D9F800300BB1A342F4D12A46314613
:1026B0002046B847012220460DF107018DF807A0FA
:1026C000B847E8E7304600F083FA0546B9E7044822
:1026D00000F0AEFA284602B0BDE8F08740420F0095
:1026E0005002002059250010F4040020512500104C
:1026F000F804002000207047F0B583B006468DF83E
:102700000700FFF745FB4FF0FF356FF00044174A15
:10271000821841F10003954274EB03013CBF23464C
:102720002A46134800F088FA124B07461C689CB1F1
:10273000114D01E024697CB12368002BFAD02B688D
:102740000BB19C42F6D1204601220DF10701FFF7A3
:1027500003FF2469002CEFD117B9304603B0F0BD58
:10276000034800F065FA304603B0F0BD40420F0068
:1027700050020020F4040020F804002038B504467C
:1027800000F026FA012305461A4620462946FFF79F
:102790003BFF084B1C682CB163682BB19847246938
:1027A000002CF9D1284638BD2469002CF4D12846E4
:1027B00038BD00BFF404002000F12F4000F5600098
:1027C000030D022B0DD0012B05D0094A094801EB5E
:1027D0008301FEF77FBE084A064801EB8301FEF73E
:1027E00079BE064A034801EB8301FEF773BE00BFC2
:1027F000702E0010C8040020B02E00108C2E001087
:102800002DE9F0470F460546FEF748FE012297F8EE
:1028100004A097F905C005F12F4EDFF8D4800EF51E
:10282000600E02FA0AF24FEA1E5EBCF1000F58F881
:102830002E6002F1FF32CAF1200435DBA44503DC2F
:1028400002FA0CF3334206D04FF0FF34FEF738FEA5
:102850002046BDE8F087D5F86831F979002B41D1E1
:102860004B0731D4644602FA0CF2164233D1396870
:10287000BAF1000F10D0674601EB4A0A31F8023B6B
:1028800007F11209B3F5005F38BF6344514507F102
:10289000010745F82930F1D1324348F82E20FEF7E0
:1028A0000FFE2046BDE8F087002C02DA13E0013C61
:1028B00011D302FA04F33342A446F8D1D5F86811D3
:1028C000FB7991B95B07CED56FF00A04FEF7F8FDEE
:1028D0002046BDE8F0876FF00804FEF7F1FD2046C2
:1028E000BDE8F087C907BDD5EEE7D907BBD5EBE753
:1028F000B40400202DE9F041D0F868419DF818603B
:10290000121B1F2A38D84EF29F044EF280054FF456
:10291000003801EB410C002E18BF254600EBCC041B
:1029200004F5435400EBCC0C052BDCF8DC704FEACB
:10293000410EDCF8CC60C4F80C800CD95401053B86
:1029400044F0A0540532052BCCF8DC4002F01F0205
:10295000CCF8D850F2D8714400EBC10100205201EC
:1029600042EA8363C1F8DC30C1F8D850C1F8DC70AA
:10297000C1F8CC60BDE8F0816FF00400FAE700BF59
:10298000F0B5012504688D4024EA05040460B3B362
:10299000D3E901561F68DC6801EB410300EBC30378
:1029A000C3F8C8704FEA410CC3F8D060C3F8CC50EC
:1029B000C3F8DC400CEB01034FF0013500EBC30C16
:1029C0004FF0004600EBC30E01230EF5865E0C1D92
:1029D00001F108078D40CEF8106003FA04F4CEF838
:1029E000106002F01F028560BB4000F500500460DB
:1029F0000EF1100E03600020CCF8D820F0BD4FF48B
:102A000080374FF440264FF4F83501EB410400EBDA
:102A1000C404C4F8C8704FEA410CC4F8D060C4F8CC
:102A2000CC50C4F8DC30C5E710B5054C82B0014687
:102A30000F23002200940348FEF778FD02B010BD7A
:102A4000D42E0010A85E0220830730B546D084182B
:102A5000844604E003F8011B9D0704D09C46A4456E
:102A60006346F7D130BD013A0244A2EB0C02032ABF
:102A700029D9CCB20F2A04EB042404EB04442FD947
:102A8000A2F1100C03F110052CF00F0CAC44C3E9BB
:102A90000044C3E9024410336345F8D112F00C0F2F
:102AA00002F00F0E18D02EF0030CAEF104051A46FA
:102AB0009C4442F8044B6245FBD125F003040433E7
:102AC0000EF003022344002ACCD0C9B21A4403F802
:102AD000011B9342FBD130BD7246F4E70346C6E7C3
:102AE0009646E0E7844641EA000313F0030349D128
:102AF000403A23D30B6803604B6843608B68836064
:102B0000CB68C3600B6903614B6943618B69836167
:102B1000CB69C3610B6A03624B6A43628B6A83624F
:102B2000CB6AC3620B6B03634B6B43638B6B836337
:102B3000CB6BC36340304031403ADBD230320BD3F1
:102B40000B6803604B6843608B688360CB68C3602D
:102B500010301031103AF3D20C3205D351F8043B47
:102B600040F8043B043AF9D2043208D0D2071CBF23
:102B700011F8013B00F8013B01D30B88038060464C
:102B8000704700BF082A13D38B07B1D010F003039E
:102B9000AED0C3F10403D21ADB071CBF11F8013B0E
:102BA00000F8013BA4D331F8023B20F8023B9FE739
:102BB000043AD9D3013A11F8013B00F8013BF9D2AC
:102BC0000B7803704B7843708B7883706046704746
:102BD00020F0030110F00300C0F1000051F8043BA5
:102BE00000F1040C4FEACC0C6FF000021CBF22FA7B
:102BF0000CF213434FF0010C4CEA0C2C4CEA0C4C39
:102C0000A3EB0C0222EA030212EACC1204BF51F831
:102C1000043B0430F4D0C2F1000102EA0102B2FA2E
:102C200082F2C2F11F0200EBD2007047F8B500BF7C
:102C30005FF800F0E50100205FF800F07D01002062
:102C400079230010ED220010212300100D24001024
:102C50005923001071220010A12300105D220010E2
:102C6000C5160010A5230010411A0010BD22001047
:102C70008D2300103D230010C5150010ED15001028
:042C8000110200102D
:102C84008C2C001009FF0100A08047A000E022A0C6
:102C9400C123A0800465046345000000A82C001033
:102CA4000EFF0100A08027A0C02001C0420049E01F
:102CB400C020860000E0C020C0205FE0C0388C0047
:102CC400CC2C001009FF0100A08027A0420000FFC7
:102CD40000FF00FF01FF01EC00C1000020202020C4
:102CE40020202020203020202020202020202031BF
:102CF40020202020202020202032202020202020BE
:102D04002020203320202020202020202034202098
:102D1400202020202020203520202020202020209A
:102D240020362020202020202020203700000000F2
:102D3400313233343536373839303132333435364D
:102D44003738393031323334353637383930313237
:102D54003334353637383930313233343536373821
:102D6400393031323334353637383930313233341F
:102D740035363738393031323334353637383930FF
:102D840000000000202020202020202020302020AF
:102D9400202020202020203120202020202020201E
:102DA400203220202020202020202033000000007A
:102DB40053797374656D20636C6F636B206F662049
:102DC4002575206B487A2063616E6E6F742062658E
:102DD4002065786163746C792061636869657665E0
:102DE400640000000A2A2A2A2050414E4943202A1E
:102DF4002A2A0A000A000000486172647761726539
:102E040020616C61726D20256420616C726561645F
:102E14007920636C61696D656400000048617264C7
:102E2400206173736572740052656C65617365002B
:102E3400626F6F74325F7732357130383000000062
:102E4400302E3100322E322E300000007069636F54
:102E5400320000007667615069636F320000000041
:102E640053657020313620323032350050494F20BE
:102E74003020534D20256420616C72656164792093
:102E8400636C61696D65640050494F203220534D75
:102E940020282564202D20382920616C7265616406
:102EA4007920636C61696D656400000050494F20AE
:102EB4003120534D20282564202D20342920616C95
:102EC400726561647920636C61696D6564000000FA
:102ED4004E6F20444D41206368616E6E656C7320B3
:102EE40061726520617661696C61626C65000000E5
:102EF40000000000000000000000000000000000CE
:102F0400FFFF0000000000000000000000000000BF
:102F140000000000000000FFFF00000000000000AF
:102F2400C0C0C0C0C0C0C0C0C0C0C0C0C0C0C0C09D
:102F3400181818181818181818181818181818180D
:102F4400C0C0C0C0C0C0C0C000000000000000007D
:102F54000000000000000000C0C0C0C0C0C0C0C06D
:102F640000000000000000F8F818181818181818C5
:102F7400000000000000001F1F1818181818181867
:102F8400181818181818181F1F0000000000000057
:102F940018181818181818F8F80000000000000095
:102FA40018181818181818FFFF18181818181818CF
:102FB40018181818181818FFFF0000000000000067
:102FC40000000000000000FFFF1818181818181857
:102FD40018181818181818F8F818181818181818AD
:102FE400181818181818181F1F181818181818184F
:102FF4000080C0E0F0F8FEF8F0E0C08000000000BF
:103004000002060E1E3EFE3E1E0E060200000000DA
:103014000000183C7E1818187E3C180000000000C0
:103024000000666666666666660066660000000006
:1030340000007FDBDBDB7B1B1B1B1B1B000000007A
:10304400007CC660386CC6C66C380CC67C000000B8
:103054000000000000000000FEFEFEFE0000000074
:103064000000183C7E1818187E3C18000000000070
:103074000000183C7E1818181818181800000000D2
:103084000000181818181818187E3C1800000000C2
:103094000000000000180CFEFE0C180000000000E8
:1030A40000000000003060FE7E30180000000000C8
:1030B400000000000000C0C0C0FE000000000000CE
:1030C40000000000002466FF6624000000000000E9
:1030D400000000001038387C7CFEFE000000000078
:1030E40000000000FEFE7C7C383810000000000068
:1030F40000000000000000000000000000000000CC
:103104000000183C3C3C1818180018180000000077
:103114000066666624000000000000000000000055
:103124000000006C6CFE6C6C6CFE6C6C00000000AB
:1031340018187CC6C2C07C060686C67C1818000017
:1031440000000000C2C60C183060C68600000000F3
:103154000000386C6C3876DCCCCCCC7600000000F7
:10316400003030306000000000000000000000006B
:1031740000000C18303030303030180C00000000E3
:10318400000030180C0C0C0C0C0C18300000000063
:103194000000000000663CFF3C66000000000000E8
:1031A400000000000018187E18180000000000003D
:1031B4000000000000000000001818183000000093
:1031C400000000000000007E00000000000000007D
:1031D40000000000000000000000181800000000BB
:1031E4000000000002060C183060C08000000000DF
:1031F40000007CC6C6CEDEF6E6C6C67C0000000033
:1032040000001838781818181818187E00000000E4
:1032140000007CC6060C183060C0C6FE000000002A
:1032240000007CC606063C060606C67C00000000BC
:1032340000000C1C3C6CCCFE0C0C0C1E00000000AE
:103244000000FEC0C0C0FC060606C67C00000000EC
:1032540000003860C0C0FCC6C6C6C67C00000000C2
:103264000000FEC606060C183030303000000000A6
:1032740000007CC6C6C67CC6C6C6C67C000000006C
:1032840000007CC6C6C67E0606060C780000000058
:1032940000000000181800000018180000000000CA
:1032A400000000001818000000181830000000008A
:1032B400000000060C18306030180C0600000000F6
:1032C40000000000007E00007E00000000000000FE
:1032D4000000006030180C060C183060000000007C
:1032E40000007CC6C60C181818001818000000004E
:1032F40000007CC6C6C6DEDEDEDCC07C000000004A
:10330400000010386CC6C6FEC6C6C6C60000000063
:103314000000FC6666667C66666666FC000000006B
:1033240000003C66C2C0C0C0C0C2663C00000000D1
:103334000000F86C6666666666666CF8000000005D
:103344000000FE6662687868606266FE0000000045
:103354000000FE6662687868606060F0000000004B
:1033640000003C66C2C0C0DEC6C6663A000000006B
:103374000000C6C6C6C6FEC6C6C6C6C60000000055
:1033840000003C18181818181818183C0000000001
:1033940000001E0C0C0C0C0CCCCCCC7800000000F3
:1033A4000000E666666C78786C6666E600000000ED
:1033B4000000F06060606060606266FE0000000013
:1033C4000000C3E7FFFFDBC3C3C3C3C300000000A7
:1033D4000000C6E6F6FEDECEC6C6C6C60000000085
:1033E40000007CC6C6C6C6C6C6C6C67C00000000B1
:1033F4000000FC6666667C60606060F000000000AF
:1034040000007CC6C6C6C6C6C6D6DE7C0C0E00004E
:103414000000FC6666667C6C666666E6000000007A
:1034240000007CC6C660380C06C6C67C00000000DE
:103434000000FFDB991818181818183C0000000049
:103444000000C6C6C6C6C6C6C6C6C67C0000000006
:103454000000C3C3C3C3C3C3C3663C180000000059
:103464000000C3C3C3C3C3DBDBFF66660000000008
:103474000000C3C3663C18183C66C3C300000000C8
:103484000000C3C3C3663C181818183C00000000B1
:103494000000FFC3860C183060C1C3FF00000000A9
:1034A40000003C30303030303030303C0000000020
:1034B40000000080C0E070381C0E0602000000000E
:1034C40000003C0C0C0C0C0C0C0C0C3C0000000020
:1034D40010386CC60000000000000000000000006E
:1034E40000000000000000000000000000FF0000D9
:1034F4003030180000000000000000000000000050
:103504000000000000780C7CCCCCCC7600000000DD
:103514000000E06060786C666666667C000000000F
:1035240000000000007CC6C0C0C0C67C00000000D3
:1035340000001C0C0C3C6CCCCCCCCC760000000005
:1035440000000000007CC6FEC0C0C67C0000000075
:103554000000386C6460F060606060F0000000009F
:10356400000000000076CCCCCCCCCC7C0CCC780019
:103574000000E060606C7666666666E60000000047
:1035840000001818003818181818183C000000001B
:1035940000000606000E06060606060666663C00E1
:1035A4000000E06060666C78786C66E600000000FD
:1035B40000003818181818181818183C00000000D3
:1035C4000000000000E6FFDBDBDBDBDB00000000CB
:1035D4000000000000DC66666666666600000000A7
:1035E40000000000007CC6C6C6C6C67C0000000001
:1035F4000000000000DC66666666667C6060F000C1
:10360400000000000076CCCCCCCCCC7C0C0C1E0092
:103614000000000000DC7666606060F000000000DE
:1036240000000000007CC660380CC67C000000006E
:103634000000103030FC30303030361C0000000008
:103644000000000000CCCCCCCCCCCC760000000038
:103654000000000000C3C3C3C3663C1800000000A0
:103664000000000000C3C3C3DBDBFF6600000000F2
:103674000000000000C3663C183C66C30000000064
:103684000000000000C6C6C6C6C6C67E060CF8000A
:103694000000000000FECC183060C6FE00000000F0
:1036A40000000E18181870181818180E00000000E2
:1036B4000000181818181818181818180000000016
:1036C4000000701818180E18181818700000000060
:1036D400000076DC00000000000000000000000094
:1036E4000000000010386CC6C6C6FE0000000000D2
:1036F40000000000003E5B4F5B3E3E6B4F6B3E1C88
:103704003E7C3E1C183C7E3C181C577D571C1C5E9E
:103714007F5E1C00183C1800FFE7C3E7FF00182475
:103724001800FFE7DBE7FF30483A060E262979291F
:1037340026407F050507407F05253F5A3CE73C5A54
:103744007F3E1C1C08081C1C3E7F14227F22145F31
:103754005F005F5F06097F017F006689956A60608C
:1037640060606094A2FFA29408047E040810207E86
:10377400201008082A1C08081C2A08081E1010100B
:10378400100C1E0C1E0C30383E3830060E3E0E0651
:10379400000000000000005F0000000700070014A4
:1037A4007F147F14242A7F2A122313086462364963
:1037B4005620500008070300001C2241000041224B
:1037C4001C002A1C7F1C2A08083E08080080703050
:1037D40000080808080800006060002010080402BF
:1037E4003E5149453E00427F4000724949494621C5
:1037F40041494D331814127F1027454545393C4A39
:10380400494931412111090736494949364649494F
:10381400291E000014000000403400000008142297
:103824004114141414140041221408020159090605
:103834003E415D594E7C1211127C7F494949363E06
:10384400414141227F4141413E7F494949417F09EC
:103854000909013E414151737F0808087F00417FF7
:1038640041002040413F017F081422417F404040F5
:10387400407F021C027F7F0408107F3E4141413E8D
:103884007F090909063E4151215E7F09192946260F
:103894004949493203017F01033F4040403F1F2013
:1038A40040201F3F4038403F6314081463030478EA
:1038B40004036159494D43007F414141020408100A
:1038C40020004141417F0402010204404040404045
:1038D400000307080020545478407F2844443838B3
:1038E40044444428384444287F3854545418000825
:1038F4007E090218A4A49C787F0804047800447DFF
:1039040040002040403D007F1028440000417F409B
:10391400007C047804787C080404783844444438EF
:10392400FC1824241818242418FC7C0804040848CF
:103934005454542404043F44243C4040207C1C2020
:1039440040201C3C4030403C44281028444C90907B
:10395400907C4464544C44000836410000007700D5
:1039640000004136080002010204023C2623263CE2
:103974001EA1A161123A4040207A3854545559216D
:103984005555794121545478412155547840205457
:103994005579400C1E5272123955555559395454A3
:1039A400545939555454580000457C410002457D12
:1039B400420001457C40F0292429F0F0282528F014
:1039C4007C545545002054547C547C0A097F493268
:1039D400494949323248484832324A4848303A41E3
:1039E40041217A3A42402078009DA0A07D39444488
:1039F40044393D4040403D3C24FF2424487E494313
:103A0400662B2FFC2F2BFF0929F620C0887E090383
:103A140020545479410000447D413048484A3238AA
:103A24004040227A007A0A0A727D0D19317D2629D6
:103A3400292F28262929292630484D4020380808CE
:103A4400080808080808382F10C8ACBA2F10283402
:103A5400FA00007B000008142A142222142A1408F5
:103A6400AA005500AAAA55AA55AA000000FF0010F2
:103A74001010FF00141414FF001010FF00FF1010AA
:103A8400F010F0141414FC001414F700FF0000FFED
:103A940000FF1414F404FC141417101F10101F104A
:103AA4001F1414141F00101010F0000000001F1049
:103AB4001010101F10101010F010000000FF101054
:103AC40010101010101010FF10000000FF14000060
:103AD400FF00FF00001F10170000FC04F41414176B
:103AE40010171414F404F40000FF00F71414141451
:103AF400141414F700F7141414171410101F101FC3
:103B0400141414F4141010F010F000001F101F000F
:103B140000001F14000000FC140000F010F010104E
:103B2400FF10FF141414FF141010101F00000000E5
:103B3400F010FFFFFFFFFFF0F0F0F0F0FFFFFF00D9
:103B440000000000FFFF0F0F0F0F0F3844443844EC
:103B54007C2A2A3E147E02020606027E027E02634C
:103B6400554941633844443C04407E201E200602EB
:103B74007E020299A5E7A5991C2A492A1C4C7201C8
:103B8400724C304A4D4D303048784830BC625A4609
:103B94003D3E494949007E0101017E2A2A2A2A2AFA
:103BA40044445F444440514A444040444A514000E4
:103BB40000FF0103E080FF000008086B6B08361269
:103BC400362436060F090F060000181800000010EE
:103BD40010003040FF0101001F01011E00191D17D4
:103BE40012003C3C3C3C0000000000000600525027
:103BF400D3F075422C2E001006005250E182887FCB
:103C0400342E0010060052503ABCA911442E001064
:103C140006005250ABB36053482E001006005250B9
:103C2400BBFF3CB6502E001006005250861C030207
:103C3400582E0010060052505422A29D642E0010EB
:103C440005005250DE65F468D83D00100D0A0000EE
:083C540090EEFF7F010000006B
:103C5C00F03B0010FC3B0010083C0010143C001022
:103C6C00203C00102C3C0010383C0010443C001050
:103C7C004FF050412DE9F0410027044616461D46F1
:103C8C00D1F8008008E0C1E88F7F8CF310883046B3
:103C9C00294600F075F8E8B92168EFF3108C72B67C
:103CAC00D1E8CF2F0123002AFAD1C1E8423F002AE4
:103CBC00F6D1BFF35F8F94F904302168002BE2DA60
:103CCC00002384F80480C1E88F3F8CF31088012016
:103CDC00BDE8F0810020BDE8F08100BF30B504687C
:103CEC00EFF3108C72B6D4E8CFEF0125BEF1000FC4
:103CFC00F9D1C4E84E5FBEF1000FF4D1BFF35F8F72
:103D0C0090F904400568002C10DB0021C5E88F1FDA
:103D1C008CF310884FF0504595F90050A54201D115
:103D2C00084630BDBDE83040FFF7A2BF4FF050420F
:103D3C00126800230271C5E88F3F8CF310880120B4
:103D4C0030BD00BF0368EFF3108272B6D3E8CFCF5B
:103D5C000121BCF1000FF9D1C3E84C1FBCF1000FDD
:103D6C00F4D1BFF35F8F4FF0FF0C0023016880F894
:103D7C0004C0C1E88F3F82F3108840BF704700BF7A
:103D8C005FF800F0891C0010A80600200810100035
:103D9C000000000000000000000000000000000017
:103DAC00000000005802002000000000000000008D
:083DBC000000000000000000FF
:103DC400D3DEFFFFFE010000FF01000074C3FFFF0C
:043DD400793512AB80
:040000051000014D99
:00000001FF
