:020000041000EA
:10000000002008205D0100101B0100101D010010E0
:100010001101001011010010110100101101001058
:100020001901001019010010190100101F01001022
:10003000110100101901001021010010230100100E
:100040001101001011010010110100101101001028
:100050001101001011010010110100101101001018
:100060001101001011010010110100101101001008
:1000700011010010110100101101001011010010F8
:1000800011010010110100101101001011010010E8
:1000900011010010110100101101001011010010D8
:1000A00011010010110100101101001011010010C8
:1000B00011010010110100101101001011010010B8
:1000C00011010010110100101101001011010010A8
:1000D0001101001011010010110100101101001098
:1000E0001101001011010010110100101101001088
:1000F0001101001011010010110100101101001078
:100100001101001011010010110100101101001067
:10011000EFF30580103800BE00BE00BE00BE00BE7A
:1001200000BE00BEF2EB8871F443001014440010CE
:10013000A001001090A31AE7D3DEFFFF42012110B7
:10014000FF010000044A0000793512AB4FF00000B7
:100150001E49086006C881F3088810474FF05040D8
:10016000006810B14FF00000F2E70DA40ECC00299A
:1001700002D000F012F8F9E71549164A002000E015
:1001800001C19142FCD11449884714498847144958
:10019000884700BEFDE701C901C29A42FBD3704700
:1001A0001444001010010020380800203C4B0010BF
:1001B00000000820000008203C4B00100010082020
:1001C00000100820000000007047000008ED00E06B
:1001D0003808002010660220992300103108001012
:1001E00091230010F8B500BF064B0749C91A8910C2
:1001F00048BF0131491003D0044B0BB101481847E7
:10020000704700BF380800203808002000000000B8
:1002100008B5054B1BB105490548AFF30080BDE8A3
:100220000840FFF7E1BF00BF00000000600C0020A5
:100230009C330010000000002DE9F04F2DED028BE3
:1002400087498BB0874802F011FA87498146854873
:1002500002F00CFA85498046824802F007FA9FEDC9
:100260007C8B074600217F4802F0DCF901217D48A4
:1002700002F0D8F94FF0000A4FF4402B02217948E0
:1002800002F0D0F98DED028B09F1080602AC06AD43
:10029000CDF814A0CDF810B009F10103360346EAF9
:1002A000C31694E80F0085E80F00079695E80F0045
:1002B000012684E80F004FF4C023DFF8CCC10621EB
:1002C0001020CDF814C0029300F084FF10223346B2
:1002D00051466448009602F043FA23464A46514686
:1002E000604802F083FA4FF4C023069308F10D032F
:1002F00008EB06021B0343EAC21323F0C04343F09A
:10030000804307935A4B062111200993CDF820B062
:1003100000F060FF1122334631465248009602F049
:100320001FFA2B4642460FF23019D9E900893146AF
:100330004C4802F05BFA8DED028BCDE904BA07F16F
:10034000080CBB1C4FEA0C3C4CEAC31C94E80F00A1
:1003500085E80F00CDF81CC095E80F0084E80F0079
:1003600006211220CDE9048900F034FF0621132074
:1003700000F030FF0621142000F02CFF062115208C
:1003800000F028FF0423122202213648009602F0D2
:10039000E7F923463A460221324802F027FA30466E
:1003A00002F078FA0446304602F074FA03464FF43D
:1003B000163E304D30493148DFF8D0804FEA841C7A
:1003C0000CF1A04C01EA433105EA4435CCF8008039
:1003D00041EA4431CCF8040045EA4330284F40F468
:1003E000802041F4FC019B0103F1A04340F0110087
:1003F00041F009011B4ACCF808E0CCF810001F605E
:10040000C3F804C09E6019615368D903FCD440F25C
:100410008F23144913614B689A03FCD440F2DF1315
:10042000104A4B6153685B03FCD440F23F15012333
:10043000956140F207704FF0A0421249A340086056
:10044000C2F850340BB0BDEC028BBDE8F08F00BF9A
:100450000000010000F0010000000C4052024010BA
:10046000DC33001000002050B83300109C33001023
:1004700020460044FD1F00FCFD1F7EFC180020509C
:10048000A802002000202050000200040C0E0020D2
:10049000036870B50125044633B31B4E26600DB9C1
:1004A000012070BD01F068FB184DD5E90023904292
:1004B0009941F5D34FF050431B68012B20D0012206
:1004C000134B1A6001F058FB124A134BC0181378F3
:1004D00041F1000183F00103696028601921137064
:1004E00043EC40100025D9E7192000F091FE1923B4
:1004F00045EC443045EC4030034B0120236070BD97
:10050000064A1360DEE700BF9C040010C00900200B
:10051000980C00200E660220A08601009C0C002092
:1005200038B503680446E3B143F001031847244B90
:10053000244D036001F020FBD5E90023904299414E
:1005400014D34FF050431B68012B33D001221E4BB4
:100550001A6001F011FB1D4BC01841F10001C5E903
:100560000001012000F02CFD194B2360012038BD53
:10057000174B144D036001F0FFFAD5E900239042B8
:100580009941F3D34FF050431B68012B15D0012242
:100590000D4B1A6001F0F0FA03460C4A00209B183C
:1005A00041F10001C5E9003100F00AFD044B0120D2
:1005B000236038BD074A1360CBE7064A1360E9E7BA
:1005C0002E050010B8090020980C002020A107007B
:1005D000700500109C0C00202DE9F84F3F4B1F6860
:1005E000002F77D13E4BD3F80080B8F1000F1CD11B
:1005F0003C4E47463C4CDFF8F490336811E0002352
:100600003A4D03EB430309EB830328469B68984765
:100610002368326801339342236005F10C05F0DB57
:100620001346002B2760EADCFEE7B8F1010F01D08A
:10063000BDE8F88F2C4C2B4EDFF8B090DFF8BC8073
:100640002B4DDFF8BCA0D8F8003032680133002A07
:10065000C8F80030276000DCFEE7DFF890B02F60BC
:1006600001F08AFA2368CAE9000103EB430309EBAE
:1006700083039B68584698472A682368012A07D055
:1006800032680133934223600BF10C0BDBDAE6E7AF
:10069000184951F82320013241F8232001F06CFA67
:1006A0008E46D4F800B0144BDAF8041053F83B200F
:1006B00003EBCB0CDAF80030D31ADCF8042062EB41
:1006C00001021B180C4842EB0E0240F83B30CCF8FC
:1006D0000420B8E747F00107384700BFA00C00200E
:1006E000A80C0020AC0C0020540C0020B40C0020FE
:1006F000980C0020AC0D0020C8090020A40D00209B
:10070000680A00202DE9F84F3F4B1F68002F77D172
:100710003E4BD3F80080B8F1000F1CD13C4E474649
:100720003C4CDFF8F490336811E000233A4D03EBC2
:10073000430309EB830328469B6898472368326884
:1007400001339342236005F10C05F0DB1346002BC7
:100750002760EADCFEE7B8F1010F01D0BDE8F88FB1
:100760002C4C2B4EDFF8B090DFF8BC802B4DDFF81F
:10077000BCA0D8F8003032680133002AC8F8003035
:10078000276000DCFEE7DFF890B02F6001F0F4F99D
:100790002368CAE9000103EB430309EB83039B6869
:1007A000584698472A682368012A07D032680133DF
:1007B000934223600BF10C0BDBDAE6E7184951F8A2
:1007C0002320013241F8232001F0D6F98E46D4F8D7
:1007D00000B0144BDAF8041053F83B2003EBCB0CB9
:1007E000DAF80030D31ADCF8042062EB01021B189F
:1007F0000C4842EB0E0240F83B30CCF80420B8E73E
:1008000047F00107384700BFA40C0020A80C0020C7
:10081000B00C0020580C00202C0D00209C0C002057
:10082000D40D0020180A0020A80D0020700A002016
:10083000F0B585B0804803AB02AA01A901F0D6FA51
:1008400018B97D497D4800F007FDDDE902120198E5
:1008500001F00AFA01F084FEFFF7EEFC012000F03F
:10086000D5FB0346764C5A6800210F202360904741
:10087000236801209B689847236872481B68984743
:10088000236871481B68984723686E481B6898471F
:1008900023686D481B68984723686A481B68984717
:1008A000236869481B689847236866481B6898470F
:1008B000236865481B689847236862481B68984707
:1008C000236861481B68984723685E481B689847FF
:1008D00023685D481B68984723685A481B689847F7
:1008E000236859481B689847236856481B689847EF
:1008F000236855481B689847236852481B689847E7
:10090000236851481B68984723684E481B689847DE
:1009100023684D481B68984723684A481B689847D6
:10092000236849481B689847236846481B689847CE
:10093000236845481B689847236802209B689847AE
:10094000236842481B689847236841481B689847BA
:1009500023683E481B68984723683D481B689847B2
:1009600023683C481B68984723683B481B689847A6
:1009700023681B699847236838481B689847236891
:1009800014210A20DB689847236835481B6898477C
:10099000142123680846DB689847236831481B68A0
:1009A00098474FF050431B68012B0BD02E490B6822
:1009B000092B29DD00222D4B1A60FFF70DFE0020C8
:1009C00005B0F0BD2A490B68092B05DD0022294B33
:1009D0001A60FFF797FEF2E70C20002600FB03F4F5
:1009E000254A5D1C254F16510A2D1444C4E90137D0
:1009F0000D60EBD005FB00F0165002442048023396
:100A0000C2E901500B60E1E70C20002600FB03F473
:100A10001C4A5D1C194F16510A2D1444C4E90137B4
:100A20000D60C7D005FB00F0165002441448023395
:100A3000C2E901500B60BDE7F0490200103500101B
:100A4000040E0020F83300104C340010A0340010C5
:100A500074340010CC34001088340010E4340010DA
:100A60000035001008350010AC0C0020A00C002050
:100A7000B00C0020A40C00202C0D0020210500103B
:100A800091040010B40C00200F4B1B685B69B3F895
:100A900000C0604517DA5A88914214DA00B593F81D
:100AA00010E05A7C5B6812FB01F21EFB00F180B281
:100AB0008C45C8BF1EFB00F092B2C8BF80B2188040
:100AC0005A805DF804FB7047080E0020012838BFEB
:100AD0000120024B1B685B6998747047080E002068
:100AE000024B1B685B69187659767047080E002028
:100AF000064B10B51B684FF416325C690021A06AE2
:100B000002F0B0F9002263681A6010BD080E0020E0
:100B10002DE9F84F9046704A5E1817680C467A69BE
:100B20000546B2F802E0944676459DF8289006DD29
:100B30000EF1FF3EAEEB010E0FFA8EF35E18002BA6
:100B40004ADDEB0705EB080A54D405F1FF3B0CE046
:100B50004346D80715D45A10002A02DDB4F5F07FB9
:100B60003CDB0134A64237DD7A6913889D42F8DA0E
:100B70005188A142F5DD9A45EADD5B1B013BD807B0
:100B8000E9D551880FFA84FCC4F3C03E8C45A8BF58
:100B90004EF0010E0BEB0301C1F3C03040EA0E0032
:100BA000C0B2B2F800E009B2A0B9714512DA0EFB8A
:100BB0000C11D2F828C048101CF80020C90755BFF6
:100BC00022F00F0202F00F0249EA020242EA091281
:100BD0000CF80020013BBEE7BDE8F88F04EB84036E
:100BE0003E489B0103EB6503184449EA091102F0F2
:100BF00039F9B6E705F1010B0AE05210002A02DDCF
:100C0000B4F5F07F5BDB0134B442E5DAD7F814C009
:100C1000BCF80030AB42F6DDBCF80220A242F2DDA7
:100C20005345B6BF591B414601F1FF3155EA044E09
:100C300020B215D4824213DD00FB0353DCF828E018
:100C40004FEA630C1EF80C20DB074BBF02F00F03CA
:100C500022F00F0343EA091349EA03030EF80C30AC
:100C6000CB0701F1FF32C8D4D7F814E04FEAD07CAB
:100C7000BEF802302A448342D8BF4CF0010CC2F3C4
:100C8000C03343EA0C03DBB2BEF800C012B2A3B912
:100C9000944512DD00FB0C22DEF828C050101CF831
:100CA0000030D2074BBF03F00F0323F00F0343EADA
:100CB000091349EA03030CF800308A1E9DE704EB90
:100CC00084014FEA6B03054803EB8113184449EA9A
:100CD000091102F0C7F896E7080E00200C0E00205C
:100CE0002DE9F04F88463E4916460D6800216C6993
:100CF00087B00822009107469A4600B210230FFAE7
:100D000088F1FFF705FF637C16FB03F2002B52D03E
:100D10005FFA8AFAB8B24FEA0A1BCDF808A0AA46D1
:100D20000546304B561E1E44C3F101039B1ACDE904
:100D300004431FFA88F82A46072016F8019F0FFA85
:100D400088FE0396DAF8147042EA08067B88B7F842
:100D500000C09E45B4BF0023012311B249FA00F43C
:100D600043EAD6338C45D8BF43F00103E40727D5C7
:100D70008BB90CFB0E11BE6A4C10335D029F11F053
:100D8000010F03F00F0123F00F0341EA0B0143EAC7
:100D9000070313D1335501380132431C92B2D1D12C
:100DA000DDE90363587C059B08F101089A1990421C
:100DB0001FFA88F8BFDC07B0BDE8F08F3155EAE7CD
:100DC000002BE8D10CFB0E11BE6A4C10335D11F004
:100DD000010F03F00F01F1D123F00F03DAE700BF99
:100DE000080E00206C3600102DE9F04F4F4C022BFE
:100DF00024680546D4F814C00E46DCF80470144686
:100E0000B7F8008087B07F880AD002460193404639
:100E10000B4600943946FFF763FF07B0BDE8F08F3B
:100E2000BCF800300FFA88FB9B45F6DABCF80230BC
:100E300039B29942F1DA1BF10B0FEEDB11F10F0F12
:100E4000EBDB00230093102358461A460391FFF76B
:100E50005FFEA642364B039905EB85053CD008F1B1
:100E60000A0292B22B4407F1100A04923A461F4636
:100E70001FFA8AFA059117F8019B15460397174642
:100E8000022319F0010F29B205F1020514BF0096E3
:100E9000009458461A46ADB2FFF73AFEAA454FEA0B
:100EA0005909EDD1049B08F102081FFA88F898450A
:100EB0003A46039F37D1174605990FFA88F800E0A4
:100EC00039B20223023740461A460094BFB2FFF7F8
:100ED0001FFE5745F4D1A0E71D4408F10A039BB259
:100EE00007F1100A03931FFA8AFA3C4615F8019B92
:100EF00019F0010F06D0022358461A46009621B277
:100F0000FFF706FE0234A4B2A2454FEA5909EFD119
:100F1000039B08F102081FFA88F843453FF47DAFB0
:100F20000FFA88FBE1E70FFA88FBA4E7080E002020
:100F30008C3E00102DE9F0410546007818B31F4B98
:100F40004FF6FA7800271E680FE00D280AD009280E
:100F50001BD1626894F824001388218803448B42D3
:100F600000DA138015F8010F68B10A287469ECD112
:100F70006368A17C5A881F8002EBC1025A8015F871
:100F8000010F0028F1D1BDE8F081A37C627E217EB3
:100F9000FFF72AFF6168A27C207C0B8800FB0233EC
:100FA00020889BB212FB080293420B80DADD0022FC
:100FB000637C0A804A8813444B80D3E7080E0020E4
:100FC000114B70B51B6882B05C696268237E15792D
:100FD000B2F800C05188667E65B10446507900B110
:100FE00044B10124127A604600960194FFF778FE1E
:100FF00002B070BD01246046202200960194FFF7E4
:101000006FFE02B070BD00BF080E0020F8B50646A6
:10101000182001F05DF905461E4F2C203D6001F0BF
:1010200057F90446002D2CD000282AD0686100F022
:1010300097F80F22184B60601B682283FEB1174996
:1010400041F208022160012122820422A1744FF49E
:10105000163184F82420124AE3606261114A38682C
:101060002262114D114B124AE161A2621149C0E99D
:101070000053114A114BC0E902120361F8BD104937
:10108000DEE7284601F040F9204601F03DF9002056
:10109000F8BD00BF080E0020AC0200208002E00175
:1010A0006C3600100F00F000350F0010E10A001040
:1010B0000C0E0020CD0A0010890A0010F10A001061
:1010C0004001F000B0F5207F02D2024B1B6818806F
:1010D000704700BF000E0020B0F5F07F02D2024B37
:1010E0001B685880704700BF000E0020B0F5207FBD
:1010F00002D2054B1B681880B1F5F07F02D2024B7B
:101100001B685980704700BF000E0020014B1B6810
:1011100018717047000E0020014B1B685871704712
:10112000000E0020014B1B68D8807047000E002085
:10113000014B1B6818727047000E0020014B1B68A2
:1011400018887047000E0020014B1B6858887047B4
:10115000000E0020014B1B6818797047000E00201C
:1011600010B5342001F0B4F8D8B1002280230D4C22
:101170000D49206041600D4C0D490260C0E90341FA
:101180000C4C0D490372C0E905410C4C0C49C0E9F7
:1011900007410C4C0C49C0E909410C4C0C49C0E911
:1011A0000B4110BD000E00200101F401C51000101C
:1011B000D9100010ED1000100D11001019110010C1
:1011C00025110010311100103D11001049110010BF
:1011D0005511001010B44FF480740C4B53F82020BC
:1011E00003EB8003C00082F0400200F1804003F571
:1011F000805C02F0C00200F5203003F54053CCF8CB
:10120000002041601C605DF8044B7047048003407F
:1012100030B44FF0000343EC440043EC400005259C
:101220004FF480740B4BC20053F8201003EB800086
:1012300081F0400102F1804303F5203301F0C00248
:1012400000F5805100F540500A605D60046030BCDC
:10125000704700BF048003400FB400B583B0049C06
:10126000074801F0C1F93CB105A92046019101F000
:101270005FF8044801F0B8F9012001F071F800BFEF
:101280005035001060350010EFF3108072B6064B39
:10129000D3E8CF1F01220029FAD1C3E8412F00294A
:1012A000F6D1BFF35F8F7047F30B00200023034A92
:1012B000C2E88F3F80F31088704700BFF30B002017
:1012C00070B58646EFF3108572B6124CD4E8CF6F36
:1012D0000120002EFAD1C4E8460F002EF6D1BFF34C
:1012E0005F8F4FF0010CC80801F007030CFA03F3FD
:1012F0001EF800C01CEA030608D14CEA030C0EF8E5
:1013000000C0C4E88F6F85F3108870BD1046FFF7EA
:10131000A3FF00BFF30B0020F8B5EFF3108772B600
:101320001C4ED6E8CF5F0124002DFAD1C6E8454F08
:10133000002DF6D1BFF35F8F9A421BD8012502E042
:101340000132934222D3D40810F804E002F0070CD3
:1013500005FA0CFC1EEA0C0FF2D14EEA0C0E00F856
:1013600004E010460023C6E88F3F87F310889842B8
:1013700007DBF8BD0023C6E88F3F87F310884FF0E6
:10138000FF300029F5D00698FFF766FF4FF0FF30D9
:10139000E8E700BFF30B0020044A1078431CDBB2DF
:1013A000182B28BF10231370704700BFB002002015
:1013B0004FF0E022936843F000539360704700BF02
:1013C0000021044B03F12002C3E88F1F0133934235
:1013D000FAD17047E80B00204FF0E0234FF0803245
:1013E000C3F80024C3F80424C3F80824C3F80C2469
:1013F000C3F81024C3F81424C3F81824C3F81C2419
:10140000C3F82024C3F82424C3F82824C3F82C24C8
:10141000C3F8302462B67047012300F01F029340E6
:10142000400941B1800000F1604000F56140C0F822
:10143000803103607047024A203042F82030704704
:1014400000E100E0F8B50D46EFF3108772B6124EDA
:10145000D6E8CF2F0123002AFAD1C6E8423F002A5E
:10146000F6D1BFF35F8F0D4B00F110049B680C4A5F
:1014700053F82430934203D0994201D000F014FE77
:10148000064B9B6843F82450BFF35F8F0023C6E8E8
:101490008F3F87F31088F8BDF10B002000ED00E0CE
:1014A00011010010014B0B4403607047E80B002052
:1014B00070B5104C104DAC420ED2FF26236863B1BC
:1014C000FFF76AFF01462046FFF7ECFFA680BFF357
:1014D0005F8F0834AC42F1D370BDFFF75DFF01466A
:1014E0002046FFF7DFFF2671BFF35F8F0834AC4261
:1014F000E4D370BD28080020380800200D4B1A687E
:10150000EFF3108172B6D2E8CFCF0120BCF1000F0B
:10151000F9D1C2E84C0FBCF1000FF4D1BFF35F8FDB
:1015200000221B68C3E88F2F81F3108840BF002082
:1015300000217047FC0D00202DE9F04F2DED028BAE
:1015400085B0EFF30583DBB2103B9A0818BF012288
:101550004FF0010103F0030B18BFAF4DAF4B08BFB5
:10156000AF4D0BEB820253F8226001FA0BF205F546
:1015700041539FEDA78B01925A602FE0B3881C0462
:1015800040F19380B379002B40F0DD80B6F908205C
:10159000002AC0F21E81736902EB420203EBC20310
:1015A000D3E90247B7F1FF3F08BFB4F1FF3F0ED0C8
:1015B00005EB8B01AB6A0A69D21AE31A934205D391
:1015C00001232A6A03FA0BF3134200D10C61284667
:1015D00000F0CAFAA042B941C0F2FB80B6F9083067
:1015E000019A002B0093EA63C8DBD6F8148003EB62
:1015F0004309284608EBC907D7E9024A00F0B4FAC4
:10160000A04271EB0A01B9DBBAF1000FC0F2C3804E
:10161000D7E90431834A934200F0ED807A88B6F925
:10162000080092B242EA0040984702460B4652EA4E
:10163000030100F0B080002B80F2D180B4EB020EE9
:101640006AEB030A38F93930C7E902EA002B95DB67
:10165000716903EB430201EBC202D2E90270BE459D
:101660007AEB000C4FEA430288DBB4462CF8083FC3
:1016700006E003EB430001EBC0005A00D0E9027022
:10168000BE451A447AEB000001EBC20404DB31F9D9
:101690003230A446002BECDA28F83930009BACF845
:1016A0000030B3881C043FF56DAF3369EFF310824F
:1016B00072B6D3E8CF0F01210028FAD1C3E8401F4A
:1016C0000028F6D1BFF35F8F4FF6FF74B088002378
:1016D000316900B2B480C1E88F3F82F3108898422C
:1016E000FFF650AF0746A946746906F1080807EBF4
:1016F000470E04EBCE03D3E90250B6F90830C446D6
:10170000002B13DBB246009704E034F936309446E0
:10171000002B09DB03EB430604EBC602D2E902719E
:10172000BD4270EB0101F0DA5646009FACF8007044
:1017300034F93E7024F83E30002FD8DAB3794D46A4
:10174000002B3FF423AF0023B371B6F9083006F144
:101750000808581C3DD01A46776903E08046591C9A
:101760003FF416AF03EB430107EBC100B0F802C032
:101770001C461CF4004F9E4637F93130EED094429F
:1017800080ED028B05D0A8F80030328927F831208F
:1017900034817246E3E738F8393033813369EFF347
:1017A000108272B6D3E8CF0F01210028FAD1C3E826
:1017B000401F0028F6D1BFF35F8F7388316928F886
:1017C0003930009B73800023C1E88F3F82F310887B
:1017D000D4E640BF05B0BDEC028BBDE8F08F2846D3
:1017E000CDE9022300F0C0F9029A039B10EB020E30
:1017F00043EB010A26E708460B6902919847002847
:10180000C9D00299D1E9002311E700BFAFF30080EE
:10181000FFFFFFFFFFFFFFFF00800B40780C002061
:1018200000000B40391500102DE9F84F364C2569A2
:101830002DB1BDE8F84F0A213448FFF733BEDFF879
:10184000E4800321404600F07DF90326C4F80C80B3
:10185000FFF7A2FD4FF0504C2D4B2670034423613F
:10186000DCF800300F216370636961801D834FF0E5
:101870000405A3F878504FF00505A3F890504FF0F9
:101880000605A3F8A8504FF007050E214FF6FF728A
:1018900008274FF00A0EA3F8C0504FF001094FF08F
:1018A0000C0C4FF0020B4FF0090A0D204FF00B0506
:1018B000A3F868111749A280A3F808E1A160A3F872
:1018C00048B0A3F8F0A0A3F82051A3F838C1A3F8BA
:1018D0005001A3F83090A3F86060A3F8D8701A8084
:1018E0000D4B3046C8F820700C49DC60FFF7AAFDAC
:1018F00049463046FFF790FD094B0A211F64034813
:10190000BDE8F84FFFF7CEBDB4020020FC0D00206B
:10191000E80B0020FFFF1000780C002039150010A4
:1019200000200B4000000B400146F0B50069EFF3CA
:10193000108772B6D0E8CF5F0124002DFAD1C0E83D
:10194000454F002DF6D1BFF35F8FB1F902E04C692E
:101950000EEB4E0CBEF1000F4FEACC05086904EB0C
:10196000CC0C3CDB665B4E800026C0E88F6F87F3B3
:101970001088BCF80200CCE902230130C0F30E004D
:10198000012838BF0120059BACF80200CCF81030CC
:10199000069B40EA0E40CCF814300B69EFF310823E
:1019A00072B6D3E8CFCF0127BCF1000FF9D1C3E85D
:1019B0004C7FBCF1000FF4D1BFF35F8F8B88635372
:1019C000A1F804E00B69C3E88F6F82F3108801224D
:1019D000CB68097803F501538A405A60F0BD0023B3
:1019E000C0E88F3F87F310884FF0FF30F0BD00BF95
:1019F00003464089B0EB214F37DD58690A1402EBEA
:101A0000420210B500EBC2001C69EFF3108C72B6F5
:101A1000D4E8CFEF0122BEF1000FF9D1C4E84E2F78
:101A2000BEF1000FF4D1BFF35F8F428889B292B24A
:101A30008A4207D000221B69C3E88F2F8CF31088DD
:101A4000002010BD42F400424280012100221869AA
:101A50009971C0E88F2F8CF310881C78DA680846DB
:101A600002F50153A140596010BD0020704700BF2E
:101A70002DE9F04306460D4683B0EFF30584E4B24A
:101A80003CB12D4B5A6AAA421CD2002003B0BDE8DB
:101A9000F0832A4FD7F80C9097F80080484600F062
:101AA00063F808F1040859F828301B1A301A65EB5E
:101AB0000101984271F1000110DB20BF1E4B5A6AF0
:101AC000AA42E2D314BF012400249B6AB34234BF6C
:101AD000204644F0010003B0BDE8F08300F04CF86C
:101AE000864265EB0101002914DB154B3846CDE930
:101AF000003432462B46FFF717FF011E0ADD0E4B5E
:101B00005A6AAA4216D39B6AB34211D30B48FFF715
:101B10006FFFB6E7084B5C6AAC42B6D3641B18BFD4
:101B200001249B6AB34234BF204644F00100ADE774
:101B3000AA42EBD120BFE9E700000B40B40200202D
:101B4000FD14001010B4054B054C064AA04214BF0A
:101B50001846581C5DF8044BFFF7B2BB140C00206C
:101B600000800B40643500100346416A0A46986ABB
:101B7000596A8A42FAD17047034B596A0A46986AF1
:101B8000596A9142FAD1704700000B4000EB400CBB
:101B90004FEA8C0C0CF1804C0CF5803CF0B51646ED
:101BA000DCF80420051FB2F5803F38BF4FF48032C7
:101BB000EDB238BFCCF80420012D2AD94FF40067CC
:101BC000254C0CF54052176054F82020B2B9DCF8CF
:101BD0000020012D82EA461202F0E0020CF5805648
:101BE00032602AD94FF4006144F820304FF480333A
:101BF0000CF500521160CCF80430F0BD6769B7FBFA
:101C0000F2FE0EF1010E0EEB4E0EBEF1030EFCD2F3
:101C1000DDE70129D2D103240CF540521460DCF831
:101C20000820D207FBD5DCF800200B4C82EA4612D4
:101C300002F0E0020CF5805632600122DCF8005020
:101C40004D4005F00305356002FA01F1DCF808208B
:101C50000A42FBD0C6E700BF1C0C0020014B53F822
:101C6000200070471C0C0020584B2DE9F0431C6CE1
:101C70001746B4F5803F38BF4FF4803283B038BF89
:101C80001A64032280460E46514B504DDA636C6C49
:101C9000E307FCD5EB6B4F4A83F0200303F0E0032E
:101CA000D363EB6B494D83F0010303F00303D3636C
:101CB0006C6CA407FCD54FF400624FF48039464B9E
:101CC000464CDA63464B4246636101213346C5F810
:101CD00040904448009700F057F94FF400616B6B57
:101CE00007FB06F64B4538BFC5F83490384B2269E0
:101CF000B8FBF6F619633AB16369B3FBF2F301334B
:101D000003EB4303033BFDD23049324A0B6B03F034
:101D1000E00313630B6B83F0020303F0030313630D
:101D20008B6B5807FCD54FF400654FF480332A4A7B
:101D300015632D4A4B6322610A6C9A424FF00302ED
:101D400038BF0B64224B2149DA634B6CDA07FCD5B0
:101D5000CB6B204A03F0E003D363CB6B1B4983F0CA
:101D6000010303F00303D3634B6C9B07FCD54FF4D3
:101D700080334FF40065184A6661D5630B64CA6C02
:101D80009A4238BFCB644FF40061114BA269996449
:101D90003AB16369B3FBF2F3013303EB4303033B53
:101DA000FDD24FF400604FF48031084A094D936C26
:101DB00083F0400303F0E003AB64074B084DA561DB
:101DC0009864D16403B0BDE8F08300BF0000014017
:101DD0000030014000100140002001401C0C002098
:101DE000006CDC0200000540001BB7002DE9F04F3D
:101DF0004FF4A078994685B0CDE902125F4CDFF828
:101E000084A154450AD908F1FF38A4F53B54B8F130
:101E10000F0FA4F12004F4D1002069E0072304F59A
:101E20003722019403FB03F402F5D872B2FBF4FEEF
:101E300070454FF0010C4FF002074FF003064FF0D2
:101E400004054FF005013FD0B3F1010E00F094807E
:101E50000EFB03F4B2FBF4FB58454CD019B301FB65
:101E600003F4B2FBF4FB58454FD0E5B105FB03F496
:101E7000B2FBF4FB584553D0AEB106FB03F4B2FB02
:101E8000F4FB584557D077B107FB03F4B2FBF4FBE2
:101E900058455BD0BCF1000F05D00CFB03F4B2FB3E
:101EA000F4FB83455DD0734603FB03F4B2FBF4FE01
:101EB000704501F1FF3105F1FF3506F1FF3607F1FD
:101EC000FF370CF1FF3CBFD104FB1024002CBBD129
:101ED0009E464A46DDF808B0DDF80C9001202849FE
:101EE00001FB08F1CBF80010C9F80030C2F800E09F
:101EF00005B0BDE8F08F04FB1024002CAED14A469B
:101F0000DDF808B0DDF80C90E8E704FB1024002CA5
:101F1000ABD14A468E46DDF808B0DDF80C90DDE71F
:101F200004FB1024002CA7D14A46AE46DDF808B0C9
:101F3000DDF80C90D2E704FB1024002CA3D14A4614
:101F4000B646DDF808B0DDF80C90C7E704FB1024B6
:101F5000002C9FD14A46BE46DDF808B0DDF80C9053
:101F6000BCE704FB1024002C9DD14A46E646DDF870
:101F700008B0DDF80C90B1E7019C44E750262F0033
:101F8000001BB70050F80C0070B4039D04682D03CB
:101F900045EA03451B4B002CB3FBF1F3B2FBF3F610
:101FA0001FDB194A194B904214BF4FF480424FF483
:101FB0000042174C1A6003F580531A60A36832EA96
:101FC0000303FBD1212200F54053043301608660F6
:101FD0001A600268002AFCDA0822C5601A6070BC28
:101FE0007047036803F03F038B42DAD18368C3F381
:101FF0000B03B342D5D1C36803F4EE23AB42D0D177
:10200000EDE700BF001BB700008005400020024044
:1020100000000240012300EB4000800000F18040FE
:1020200000F5841041600360704700BF0023DB8A25
:10203000002242E800F2520201D410211847042184
:10204000184700BF034AD2F82838002BFBD0BFF353
:102050005F8F704700000E400021044B044ABFF31D
:102060005F8F43F8041B9342F9D170470C080E4070
:102070002C080E4010B44FF48D704FF42A64064AB9
:10208000064B07491460D06019605368002BFCDAD6
:102090005DF8044B704700BF0080044000A004407E
:1020A00000B0FA00704700BF08B50148FFF7D4F848
:1020B0008835001038B5054C054DAC4204D254F8B3
:1020C000043B9847AC42FAD338BD00BF58330010E8
:1020D0009833001010B40748074C084B084A0949C8
:1020E00004601A608B6832EA0303FBD15DF8044B8D
:1020F000704700BF002002407F3BEFEF00300240FE
:10210000F6FFF30300000240044BDB6CB3F5004F15
:1021100003D14FF48022024BDA6470470000115063
:10212000002011504FF0E022044BD2F8881D0B43E1
:10213000C2F8883D10EE3004704700BF0303300042
:102140006FF06041044B054A19609368DB4333F03C
:102150006043FAD1704700BF0030024000000240E7
:1021600010B545F25320FFF761FFBDE8104003466C
:102170000420184710B545F25320FFF757FFBDE87C
:102180001040034601201847FFF71AB91449154BB0
:1021900070B55C1AA610442E324628BF4422124D58
:1021A0009200284600F0D6FEB4F5867F13D80F4A79
:1021B000C6F1440012D02B19410803EBC101C3E959
:1021C000002208338B42FAD1C30704D520F0010066
:1021D000304445F82020064B9D6070BD4320F8E751
:1021E000000000101001001000000020110100107C
:1021F00000ED00E0002370B52B4C82B0C4F88430B1
:10220000FFF738FF0122294BDA63636C012BFCD105
:102210000321264A244B11639C6B012CFCD102261E
:10222000052521460523224A22480096FFF7ACFEE9
:1022300021462B46204A21480095FFF7A5FE0022A3
:10224000042031461E4BFFF7A1FC21462846002200
:102250001C4BFFF79BFC0022082011461A4BFFF78E
:1022600095FC002209201146174BFFF78FFC002236
:1022700006201146134BFFF789FC0022114B072063
:102280001146FFF783FC0420FFF7E8FC00240F4B06
:10229000A3FB0035AD0CE0B229460134FFF7BAFECE
:1022A000062CF8D102B070BD0000014000300140A2
:1022B000002F685900000540008C864700800540CB
:1022C000001BB70080D1F008006CDC0283DE1B43EA
:1022D00038B50446094801F037F8204600F0EAFA1C
:1022E0000546064801F02CF82DB1054B2C449C42C4
:1022F00001D8284638BD0348FEF7AEFF2808002065
:10230000000008209435001010B50446054801F07F
:102310001BF8204600F0D6FABDE81040014801F055
:102320000FB800BF2808002000B9704700F01AB9A4
:1023300010B5094B84B01C684CB1034600914FF0B6
:10234000FF3203A90548A047012004B010BD00F0EA
:102350004BF9204604B010BD5C0C0020292300106E
:1023600000BEFDE7074A0346106838B1064903443A
:102370008B428CBF4FF0FF30136070470349084613
:102380001160F3E7500C00200000082010660220C6
:1023900008B5FFF7E5FF00BF38B5064C064DFFF75F
:1023A00089FEAC4204D254F8043B9847AC42FAD3BD
:1023B00038BD00BF983300109C33001003680846F6
:1023C000114618472DE9F0411546427D07468846DB
:1023D000002A46D0002D1DDD0B780A2B23D0012DBD
:1023E0004FF0000C18D04646012416F8012F214664
:1023F0000A2A04F1010422D0A542F6D165450BDC7E
:1024000008EB050313F8013CA3F10D03B3FA83F3C2
:102410005B093B75BDE8F0813B68A5EB0C0108EB5F
:102420000C009847ECE7037D002BD8D1036802210C
:102430000F489847012DE3D04FF0010CD3E716F871
:10244000013C0D2BD8D08C4508EB0C00A1EB0C0106
:1024500001DA3B689847022105483B689847A44643
:10246000CAE7294640463B68BDE8F041184700BF2F
:10247000E84300102DE9F04782B00D4691461C4616
:102480000646FFF779FB4FF0FF3C6FF000472E4AFE
:10249000821841F10003944577EB03013CBF62468B
:1024A0003B462A4800F054FF6B1C804640D00CB3DA
:1024B000274F284B1C68B4B1B9F1000F1CD1DFF8CD
:1024C0009C9001E0246974B12368002BFAD0D9F8FC
:1024D00000300BB19C42F5D120462A463146B84720
:1024E0002469002CF0D1B8F1000F26D1284602B0A3
:1024F000BDE8F087184FDCE74FF00A0ADFF85C9080
:1025000002E02469002CEED02368002BF9D0D9F822
:1025100000300BB1A342F4D12A4631462046B847D9
:10252000012220460DF107018DF807A0B847E8E722
:10253000304600F085FD0546B9E7044800F000FF8D
:10254000284602B0BDE8F08740420F003008002066
:10255000C5230010440C0020BD2300104C0C0020AB
:1025600000207047F0B583B006468DF80700FFF7EE
:1025700003FB4FF0FF356FF00044174A821841F11A
:102580000003954274EB03013CBF23462A461348DF
:1025900000F0DEFE124B07461C689CB1114D01E0B5
:1025A00024697CB12368002BFAD02B680BB19C42C4
:1025B000F6D1204601220DF10701FFF703FF246940
:1025C000002CEFD117B9304603B0F0BD034800F03E
:1025D000B7FE304603B0F0BD40420F003008002087
:1025E000440C00204C0C002038B5044600F028FDB7
:1025F000012305461A4620462946FFF73BFF084BB4
:102600001C682CB163682BB198472469002CF9D160
:10261000284638BD2469002CF4D1284638BD00BFB7
:10262000440C002000F12F4000F56000030D022B48
:102630000DD0012B05D0094A094801EB8301FEF7B3
:102640003FBE084A064801EB8301FEF739BE064A41
:10265000034801EB8301FEF733BE00BFE8350010ED
:10266000180C002028360010043600102DE9F04721
:102670000F460546FEF708FE012297F804A097F9D9
:1026800005C005F12F4EDFF8D4800EF5600E02FA7A
:102690000AF24FEA1E5EBCF1000F58F82E6002F1FC
:1026A000FF32CAF1200435DBA44503DC02FA0CF347
:1026B000334206D04FF0FF34FEF7F8FD2046BDE868
:1026C000F087D5F86831F979002B41D14B0731D427
:1026D000644602FA0CF2164233D13968BAF1000F9F
:1026E00010D0674601EB4A0A31F8023B07F11209A4
:1026F000B3F5005F38BF6344514507F1010745F862
:102700002930F1D1324348F82E20FEF7CFFD204684
:10271000BDE8F087002C02DA13E0013C11D302FA85
:1027200004F33342A446F8D1D5F86811FB7991B986
:102730005B07CED56FF00A04FEF7B8FD2046BDE872
:10274000F0876FF00804FEF7B1FD2046BDE8F08782
:10275000C907BDD5EEE7D907BBD5EBE7080C0020CC
:102760002DE9F041D0F868419DF81860121B1F2A2E
:1027700038D84EF29F044EF280054FF4003801EB3A
:10278000410C002E18BF254600EBCC0404F5435441
:1027900000EBCC0C052BDCF8DC704FEA410EDCF8CA
:1027A000CC60C4F80C800CD95401053B44F0A05413
:1027B0000532052BCCF8DC4002F01F02CCF8D850D3
:1027C000F2D8714400EBC1010020520142EA836358
:1027D000C1F8DC30C1F8D850C1F8DC70C1F8CC6069
:1027E000BDE8F0816FF00400FAE700BFF0B5012505
:1027F00004688D4024EA05040460B3B3D3E90156AC
:102800001F68DC6801EB410300EBC303C3F8C87029
:102810004FEA410CC3F8D060C3F8CC50C3F8DC4099
:102820000CEB01034FF0013500EBC30C4FF00046F9
:1028300000EBC30E01230EF5865E0C1D01F10807A7
:102840008D40CEF8106003FA04F4CEF8106002F068
:102850001F028560BB4000F5005004600EF1100EB1
:1028600003600020CCF8D820F0BD4FF480374FF43F
:1028700040264FF4F83501EB410400EBC404C4F8E2
:10288000C8704FEA410CC4F8D060C4F8CC50C4F80A
:10289000DC30C5E710B5054C82B001460F2300229D
:1028A00000940348FEF738FD02B010BD4C3600100E
:1028B0000C660220024B0146186800F00BB800BFFE
:1028C000E0060020024B0146186800F043BC00BF40
:1028D000E006002001F10B03162B2DE9F04F07460F
:1028E00083B023D8102900F2AF8000F0AFFA102592
:1028F00018230220BA4E33445C68A3F108029442C4
:1029000000F056816368384623F00303D4E90212CD
:102910002344CA6091605A68083442F001025A6048
:1029200000F09AFA204603B0BDE8F08F002B23F0A8
:102930000705C0F28980A94200F2868000F086FA7D
:10294000B5F5FC7FC0F07B826B0A00F08480042B1D
:1029500000F26281AB0903F1390003F1380EC300C4
:102960009F4E3344A3F1080C5C68A44507D10DE0E9
:10297000002AE16880F216818C450C4606D0636817
:1029800023F003035A1B0F2AF2DD7046DFF868823A
:102990003469444500F0F280636823F0030CACEB2B
:1029A00005030F2B00F37481002BC6E9048880F225
:1029B0006381BCF5007FD6F804E080F0FF804FEA29
:1029C000DC0301224FEA5C1C013302FA0CF256F8D8
:1029D00033104EEA020E06EBC302083AC6F804E0D2
:1029E000C4E9021246F83340CC6083104FF0010C6A
:1029F0000CFA03FCF44534D81CEA0E0F07D120F082
:102A000003004FEA4C0C04301CEA0E0FF9D006EB21
:102A1000C00A8146D646DEF80C300BE05A681C46E8
:102A2000DB6822F00302511B0F2900F3018100290A
:102A300080F215819E45F1D109F101090EF1080ED0
:102A400019F0030FE7D158E10C233B600024204626
:102A500003B0BDE8F08F4FF4007340204FF03F0EFD
:102A60007EE7B468636823F00309A945A9EB050371
:102A700002D30F2B00F385805A4B08201B6803F10B
:102A8000100804EB0903009300F056FA564AA844D4
:102A900083461368013305D008F1FF384342804470
:102AA00003EA08084146384600F02AFAB0F1FF3F31
:102AB00082464D4A00F0078104EB0903834200F28D
:102AC00000814A4B0BF1FF3C18684044186000F04D
:102AD00064811168013100F06C8104EB0902AAEBFA
:102AE000020202441A601AF00702CDE9002300F046
:102AF0002781C2F10802384692445A44D04408EA79
:102B00000C01521A02EA0C0B594600F0F9F9421C6A
:102B1000019B00F06A81A0EB0A0000EB0B0818682B
:102B200048F00102B442C6F808A05844CAF804208C
:102B3000186017D0B9F10F0F40F23E816168A9F11A
:102B40000C024FF0050C22F0070201F001011143C5
:102B50000F2A616004EB0201C1E901CC00F24D8152
:102B6000DAF80420224B54461968814238BF1860B5
:102B7000204B1968814238BF1860A6E0D6F804E0FF
:102B800033E7621945F0010543F00103083444F8C6
:102B9000045C3846B260536000F05EF9204603B032
:102BA000BDE8F08FA26823443846D1608A60B2E65F
:102BB000DC68A3427FF4A6AE0230E7E6BCF5206FE6
:102BC0004FEA5C2276D3142A00F2CD8002F15C0336
:102BD0005B32DB00F118F3580839994211D1A5E0B6
:102BE000D8020020AC0A0020CC0200207C0A002081
:102BF000A40A0020A80A0020E00200209B68994255
:102C000004D05A6822F003026245F7D8D968C4E9B3
:102C100002318C60DC60E8E6142B63D9542B00F29F
:102C2000AB802B0B03F16F0003F16E0EC30097E630
:102C3000D4F808C03846671945F001056560CCF83E
:102C40000C30C3F808C041F00103C6E90477C7E9B6
:102C500002887B60A150083400F0FEF8F7E62244B9
:102C60003846516841F00101516054F8082FD36093
:102C70009A6000F0F1F8EAE6A44438460834DCF83B
:102C8000043043F00103CCF8043000F0E5F8DEE650
:102C9000621943F0010145F0010538466560C6E957
:102CA0000422C2E90288516044F80C30083400F074
:102CB000D3F8CCE64FEA9C1202F139033832DB003C
:102CC00088E7B44262D0B468626822F00308A8457D
:102CD000A8EB050302D30F2B3FF753AF384600F0A4
:102CE000BBF8B3E603F15C0003F15B0EC30037E60B
:102CF0005AF80839534540F0A08010F0030F00F156
:102D0000FF30F5D1736823EA0C0373604FEA4C0C73
:102D10000CF1FF329A4204D3A3E64FEA4C0C09F1BE
:102D200004091CEA030FF8D0484670E692104FF0F1
:102D3000010C0CFA02F24EEA020EC6F804E066E755
:102D40000AEB0802384602EA0C02ABEB020B0BEA74
:102D50000C0B594600F0D4F8431C019B7FF4DBAE0A
:102D6000DDF800B0DBE6542A2AD84FEA1C3202F123
:102D70006F036E32DB002DE7B3F5AA7F2AD8EB0B89
:102D800003F1780003F1770EC300E9E52E4B0BF158
:102D9000FF3C1868404418609BE61AEA0C0F7FF469
:102DA00098AEC844D6F808A048F00102CAF804203A
:102DB000D8E6C2F800A096E60123CAF804308DE7F1
:102DC000B2F5AA7F24D84FEADC3202F178037732D9
:102DD000DB00FFE640F25452934224D8AB0C03F1DF
:102DE0007D0003F17C0EC300BAE5009A4FF0000BA2
:102DF000083A9044A8EB0A0891E6384604F1080125
:102E0000009300F0A7F9009BD6F808A01868A7E681
:102E100040F254539A420CD84FEA9C4202F17D038F
:102E20007C32DB00D6E64FF47E737F204FF07E0EBF
:102E300096E54FF47E737E22CCE6736866E7E80879
:102E400005F1080356E500BF7C0A0020014800F0A8
:102E50006FB800BF780A0020014800F06BB800BFCF
:102E6000780A0020830730B546D08418844604E0F1
:102E700003F8011B9D0704D09C46A4456346F7D187
:102E800030BD013A0244A2EB0C02032A29D9CCB28C
:102E90000F2A04EB042404EB04442FD9A2F1100CF4
:102EA00003F110052CF00F0CAC44C3E90044C3E956
:102EB000024410336345F8D112F00C0F02F00F0EEC
:102EC00018D02EF0030CAEF104051A469C4442F8CB
:102ED000044B6245FBD125F0030404330EF00302DA
:102EE0002344002ACCD0C9B21A4403F8011B9342F0
:102EF000FBD130BD7246F4E70346C6E79646E0E7ED
:102F000038B50022064D044608462A60FFF72AFA23
:102F1000431C00D038BD2B68002BFBD0236038BD8C
:102F2000480C0020014B1868704700BFE0060020E5
:102F3000704700BF704700BF082802D14FF480508F
:102F4000704708B5FFF7EEFF162203464FF0FF303B
:102F50001A6008BD844641EA000313F0030349D117
:102F6000403A23D30B6803604B6843608B688360EF
:102F7000CB68C3600B6903614B6943618B698361F3
:102F8000CB69C3610B6A03624B6A43628B6A8362DB
:102F9000CB6AC3620B6B03634B6B43638B6B8363C3
:102FA000CB6BC36340304031403ADBD230320BD37D
:102FB0000B6803604B6843608B688360CB68C360B9
:102FC00010301031103AF3D20C3205D351F8043BD3
:102FD00040F8043B043AF9D2043208D0D2071CBFAF
:102FE00011F8013B00F8013B01D30B8803806046D8
:102FF000704700BF082A13D38B07B1D010F003032A
:10300000AED0C3F10403D21ADB071CBF11F8013B99
:1030100000F8013BA4D331F8023B20F8023B9FE7C4
:10302000043AD9D3013A11F8013B00F8013BF9D237
:103030000B7803704B7843708B78837060467047D1
:1030400020F0030110F00300C0F1000051F8043B30
:1030500000F1040C4FEACC0C6FF000021CBF22FA06
:103060000CF213434FF0010C4CEA0C2C4CEA0C4CC4
:10307000A3EB0C0222EA030212EACC1204BF51F8BD
:10308000043B0430F4D0C2F1000102EA0102B2FABA
:1030900082F2C2F11F0200EBD20070472DE9F84323
:1030A0000646DFF8AC8008208946FFF745FF054655
:1030B0003046FFF7CBFED8F808305F6827F00307EB
:1030C000A7F11104A4EB09042C44B4FBF5F4013C72
:1030D00005FB04F4A54208DC00213046FFF710FF91
:1030E000D8F808303B44984205D03046FFF7B4FE8C
:1030F0000020BDE8F88361423046FFF701FF013050
:103100000FD03F1B104AD8F80830304647F001076F
:103110005F6013681B1B1360FFF79EFE0120BDE874
:10312000F88300213046FFF7EBFED8F80820831A19
:103130000F2BDADD43F0010303495360034B1B6897
:10314000C01A0860D1E700BF7C0A0020CC02002032
:10315000D802002000295AD0F8B50C460746FFF7E0
:1031600075FE734D54F804CCA4F10802A8682CF045
:1031700001030CF0010ED1184E68884226F00306B8
:103180007CD088194E60406800F00100BEF1000F4D
:103190002ED154F8084C05F1080C121B23449468F6
:1031A000644560D0D2F80CE0C4F80CE0CEF80840DA
:1031B00000287DD043F0010050600B60B3F5007F24
:1031C0002ED25809D908012383406868013103438E
:1031D00055F831006B6005EBC103083BC2E90203FF
:1031E00045F83120C2603846BDE8F840FFF734BEEC
:1031F00070B9334405F1080C886843F00104604558
:103200006ED0C968C16088605460D350D6E77047FB
:103210004CF00101B3F5007F44F8041CD350D0D327
:10322000B3F5206F4FEA532144D2990901F13900D7
:1032300001F13804C100681869580838884203D180
:1032400055E08968884204D04C6824F003049C420D
:10325000F7D8C868C2E9021082603846CA60BDE883
:10326000F840FFF7F9BD80BB1E44D1E90213CB60E3
:10327000996046F0010353609651B4E71E44BEF1D5
:10328000000F07D154F8083CD21A1E44D2E90213A9
:10329000CB60996046F001035360264BAA601B681F
:1032A000B342A0D8244B38461968FFF7F7FE9AE7D7
:1032B0003344A1E714290DD954291FD8190B01F162
:1032C0006F0001F16E04C100B5E743F001005060EA
:1032D0000B6088E701F15C0001F15B04C100AAE723
:1032E000C5E90422C2E902CC5460D3507BE7A410A4
:1032F0000123A3406C6823436B60ABE7B1F5AA7F61
:1033000006D8D90B01F1780001F17704C10092E7EA
:1033100040F25450814206D8990C01F17D0001F130
:103320007C04C10087E74FF47E717E2483E700BFF1
:10333000D8020020D0020020AC0A0020F8B500BF5F
:103340005FF800F0650200205FF800F01101002036
:103350005FF800F0FD01002061210010D520001071
:1033600009210010F5210010412100105920001002
:103370008921001045200010B11400108D2100108B
:1033800029180010A520001075210010252100101B
:0C339000B1130010D9130010110200103E
:10339C00A433001009FF0100A08047A000E022A088
:1033AC00C123A0800465046345000000C0330010F5
:1033BC000EFF0100A08027A0C02001C0420049E000
:1033CC00C020860000E0C020C0205FE0C0388C0028
:1033DC00E433001009FF0100A08027A0420000FF89
:1033EC0000FF00FF01FF01EC00C1000020202020A5
:1033FC0020202020203020202020202020202031A0
:10340C00202020202020202020322020202020209E
:10341C002020203320202020202020202034202079
:10342C00202020202020203520202020202020207B
:10343C0020362020202020202020203700000000D3
:10344C00313233343536373839303132333435362E
:10345C003738393031323334353637383930313218
:10346C003334353637383930313233343536373802
:10347C003930313233343536373839303132333400
:10348C0035363738393031323334353637383930E0
:10349C000000000020202020202020202030202090
:1034AC0020202020202020312020202020202020FF
:1034BC00203220202020202020202033000000005B
:1034CC0020202020202020202030202020202020E0
:1034DC00202020310A0000005061756C6F2064615F
:1034EC002073696C76612028632920323032352EA6
:1034FC002E2E0A005061756C6F0000002053696C11
:10350C007661000053797374656D20636C6F636B27
:10351C00206F66202575206B487A2063616E6E6F74
:10352C00742062652065786163746C7920616368CE
:10353C006965766564000000466F6E7420387831DA
:10354C00360000000A2A2A2A2050414E4943202ADC
:10355C002A2A0A000A0000004861726477617265C9
:10356C0020616C61726D20256420616C72656164F0
:10357C007920636C61696D65640000004861726458
:10358C0020617373657274004F7574206F66206DC3
:10359C00656D6F727900000052656C656173650032
:1035AC00626F6F74325F77323571303830000000E3
:1035BC00302E3100322E322E300000007069636FD5
:1035CC00320000007667615069636F3200000000C2
:1035DC0053657020313720323032350050494F203E
:1035EC003020534D20256420616C72656164792014
:1035FC00636C61696D65640050494F203220534DF6
:10360C0020282564202D20382920616C7265616486
:10361C007920636C61696D656400000050494F202E
:10362C003120534D20282564202D20342920616C15
:10363C00726561647920636C61696D65640000007A
:10364C004E6F20444D41206368616E6E656C732033
:10365C0061726520617661696C61626C6500000065
:10366C00000000000000000000000000000000004E
:10367C00FFFF000000000000000000000000000040
:10368C0000000000000000FFFF0000000000000030
:10369C00C0C0C0C0C0C0C0C0C0C0C0C0C0C0C0C01E
:1036AC00181818181818181818181818181818188E
:1036BC00C0C0C0C0C0C0C0C00000000000000000FE
:1036CC000000000000000000C0C0C0C0C0C0C0C0EE
:1036DC0000000000000000F8F81818181818181846
:1036EC00000000000000001F1F18181818181818E8
:1036FC00181818181818181F1F00000000000000D8
:10370C0018181818181818F8F80000000000000015
:10371C0018181818181818FFFF181818181818184F
:10372C0018181818181818FFFF00000000000000E7
:10373C0000000000000000FFFF18181818181818D7
:10374C0018181818181818F8F8181818181818182D
:10375C00181818181818181F1F18181818181818CF
:10376C000080C0E0F0F8FEF8F0E0C080000000003F
:10377C000002060E1E3EFE3E1E0E0602000000005B
:10378C000000183C7E1818187E3C18000000000041
:10379C000000666666666666660066660000000087
:1037AC0000007FDBDBDB7B1B1B1B1B1B00000000FB
:1037BC00007CC660386CC6C66C380CC67C00000039
:1037CC000000000000000000FEFEFEFE00000000F5
:1037DC000000183C7E1818187E3C180000000000F1
:1037EC000000183C7E181818181818180000000053
:1037FC000000181818181818187E3C180000000043
:10380C000000000000180CFEFE0C18000000000068
:10381C0000000000003060FE7E3018000000000048
:10382C00000000000000C0C0C0FE0000000000004E
:10383C0000000000002466FF662400000000000069
:10384C00000000001038387C7CFEFE0000000000F8
:10385C0000000000FEFE7C7C3838100000000000E8
:10386C00000000000000000000000000000000004C
:10387C000000183C3C3C18181800181800000000F8
:10388C0000666666240000000000000000000000D6
:10389C000000006C6CFE6C6C6CFE6C6C000000002C
:1038AC0018187CC6C2C07C060686C67C1818000098
:1038BC0000000000C2C60C183060C6860000000074
:1038CC000000386C6C3876DCCCCCCC760000000078
:1038DC0000303030600000000000000000000000EC
:1038EC0000000C18303030303030180C0000000064
:1038FC00000030180C0C0C0C0C0C183000000000E4
:10390C000000000000663CFF3C6600000000000068
:10391C00000000000018187E1818000000000000BD
:10392C000000000000000000001818183000000013
:10393C00000000000000007E0000000000000000FD
:10394C00000000000000000000001818000000003B
:10395C000000000002060C183060C080000000005F
:10396C0000007CC6C6CEDEF6E6C6C67C00000000B3
:10397C0000001838781818181818187E0000000065
:10398C0000007CC6060C183060C0C6FE00000000AB
:10399C0000007CC606063C060606C67C000000003D
:1039AC0000000C1C3C6CCCFE0C0C0C1E000000002F
:1039BC000000FEC0C0C0FC060606C67C000000006D
:1039CC0000003860C0C0FCC6C6C6C67C0000000043
:1039DC000000FEC606060C18303030300000000027
:1039EC0000007CC6C6C67CC6C6C6C67C00000000ED
:1039FC0000007CC6C6C67E0606060C7800000000D9
:103A0C00000000001818000000181800000000004A
:103A1C00000000001818000000181830000000000A
:103A2C00000000060C18306030180C060000000076
:103A3C0000000000007E00007E000000000000007E
:103A4C000000006030180C060C18306000000000FC
:103A5C0000007CC6C60C18181800181800000000CE
:103A6C0000007CC6C6C6DEDEDEDCC07C00000000CA
:103A7C00000010386CC6C6FEC6C6C6C600000000E4
:103A8C000000FC6666667C66666666FC00000000EC
:103A9C0000003C66C2C0C0C0C0C2663C0000000052
:103AAC000000F86C6666666666666CF800000000DE
:103ABC000000FE6662687868606266FE00000000C6
:103ACC000000FE6662687868606060F000000000CC
:103ADC0000003C66C2C0C0DEC6C6663A00000000EC
:103AEC000000C6C6C6C6FEC6C6C6C6C600000000D6
:103AFC0000003C18181818181818183C0000000082
:103B0C0000001E0C0C0C0C0CCCCCCC780000000073
:103B1C000000E666666C78786C6666E6000000006D
:103B2C000000F06060606060606266FE0000000093
:103B3C000000C3E7FFFFDBC3C3C3C3C30000000027
:103B4C000000C6E6F6FEDECEC6C6C6C60000000005
:103B5C0000007CC6C6C6C6C6C6C6C67C0000000031
:103B6C000000FC6666667C60606060F0000000002F
:103B7C0000007CC6C6C6C6C6C6D6DE7C0C0E0000CF
:103B8C000000FC6666667C6C666666E600000000FB
:103B9C0000007CC6C660380C06C6C67C000000005F
:103BAC000000FFDB991818181818183C00000000CA
:103BBC000000C6C6C6C6C6C6C6C6C67C0000000087
:103BCC000000C3C3C3C3C3C3C3663C1800000000DA
:103BDC000000C3C3C3C3C3DBDBFF66660000000089
:103BEC000000C3C3663C18183C66C3C30000000049
:103BFC000000C3C3C3663C181818183C0000000032
:103C0C000000FFC3860C183060C1C3FF0000000029
:103C1C0000003C30303030303030303C00000000A0
:103C2C0000000080C0E070381C0E0602000000008E
:103C3C0000003C0C0C0C0C0C0C0C0C3C00000000A0
:103C4C0010386CC6000000000000000000000000EE
:103C5C0000000000000000000000000000FF000059
:103C6C0030301800000000000000000000000000D0
:103C7C000000000000780C7CCCCCCC76000000005E
:103C8C000000E06060786C666666667C0000000090
:103C9C0000000000007CC6C0C0C0C67C0000000054
:103CAC0000001C0C0C3C6CCCCCCCCC760000000086
:103CBC0000000000007CC6FEC0C0C67C00000000F6
:103CCC000000386C6460F060606060F00000000020
:103CDC00000000000076CCCCCCCCCC7C0CCC78009A
:103CEC000000E060606C7666666666E600000000C8
:103CFC0000001818003818181818183C000000009C
:103D0C0000000606000E06060606060666663C0061
:103D1C000000E06060666C78786C66E6000000007D
:103D2C0000003818181818181818183C0000000053
:103D3C000000000000E6FFDBDBDBDBDB000000004B
:103D4C000000000000DC6666666666660000000027
:103D5C0000000000007CC6C6C6C6C67C0000000081
:103D6C000000000000DC66666666667C6060F00041
:103D7C00000000000076CCCCCCCCCC7C0C0C1E0013
:103D8C000000000000DC7666606060F0000000005F
:103D9C0000000000007CC660380CC67C00000000EF
:103DAC000000103030FC30303030361C0000000089
:103DBC000000000000CCCCCCCCCCCC7600000000B9
:103DCC000000000000C3C3C3C3663C180000000021
:103DDC000000000000C3C3C3DBDBFF660000000073
:103DEC000000000000C3663C183C66C300000000E5
:103DFC000000000000C6C6C6C6C6C67E060CF8008B
:103E0C000000000000FECC183060C6FE0000000070
:103E1C0000000E18181870181818180E0000000062
:103E2C000000181818181818181818180000000096
:103E3C000000701818180E181818187000000000E0
:103E4C00000076DC00000000000000000000000014
:103E5C000000000010386CC6C6C6FE000000000052
:103E6C0000C0C0C0C0C0C0C0C0C0C0C0C0C0000086
:103E7C00000000000000000000000000FFFF000038
:103E8C0000000000003E5B4F5B3E3E6B4F6B3E1CE8
:103E9C003E7C3E1C183C7E3C181C577D571C1C5EFF
:103EAC007F5E1C00183C1800FFE7C3E7FF001824D6
:103EBC001800FFE7DBE7FF30483A060E2629792980
:103ECC0026407F050507407F05253F5A3CE73C5AB5
:103EDC007F3E1C1C08081C1C3E7F14227F22145F92
:103EEC005F005F5F06097F017F006689956A6060ED
:103EFC0060606094A2FFA29408047E040810207EE7
:103F0C00201008082A1C08081C2A08081E1010106B
:103F1C00100C1E0C1E0C30383E3830060E3E0E06B1
:103F2C00000000000000005F000000070007001404
:103F3C007F147F14242A7F2A1223130864623649C3
:103F4C005620500008070300001C224100004122AB
:103F5C001C002A1C7F1C2A08083E080800807030B0
:103F6C00000808080808000060600020100804021F
:103F7C003E5149453E00427F400072494949462125
:103F8C0041494D331814127F1027454545393C4A99
:103F9C0049493141211109073649494936464949B0
:103FAC00291E0000140000004034000000081422F8
:103FBC004114141414140041221408020159090666
:103FCC003E415D594E7C1211127C7F494949363E67
:103FDC00414141227F4141413E7F494949417F094D
:103FEC000909013E414151737F0808087F00417F58
:103FFC0041002040413F017F081422417F40404056
:10400C00407F021C027F7F0408107F3E4141413EED
:10401C007F090909063E4151215E7F09192946266F
:10402C004949493203017F01033F4040403F1F2073
:10403C0040201F3F4038403F63140814630304784A
:10404C0004036159494D43007F414141020408106A
:10405C0020004141417F04020102044040404040A5
:10406C00000307080020545478407F284444383813
:10407C0044444428384444287F3854545418000885
:10408C007E090218A4A49C787F0804047800447D5F
:10409C0040002040403D007F1028440000417F40FC
:1040AC00007C047804787C08040478384444443850
:1040BC00FC1824241818242418FC7C080404084830
:1040CC005454542404043F44243C4040207C1C2081
:1040DC0040201C3C4030403C44281028444C9090DC
:1040EC00907C4464544C4400083641000000770036
:1040FC0000004136080002010204023C2623263C43
:10410C001EA1A161123A4040207A385454555921CD
:10411C0055557941215454784121555478402054B7
:10412C005579400C1E527212395555555939545403
:10413C00545939555454580000457C410002457D72
:10414C00420001457C40F0292429F0F0282528F074
:10415C007C545545002054547C547C0A097F4932C8
:10416C00494949323248484832324A4848303A4143
:10417C0041217A3A42402078009DA0A07D394444E8
:10418C0044393D4040403D3C24FF2424487E494373
:10419C00662B2FFC2F2BFF0929F620C0887E0903E4
:1041AC0020545479410000447D413048484A32380B
:1041BC004040227A007A0A0A727D0D19317D262937
:1041CC00292F28262929292630484D40203808082F
:1041DC00080808080808382F10C8ACBA2F10283463
:1041EC00FA00007B000008142A142222142A140856
:1041FC00AA005500AAAA55AA55AA000000FF001053
:10420C001010FF00141414FF001010FF00FF10100A
:10421C00F010F0141414FC001414F700FF0000FF4D
:10422C0000FF1414F404FC141417101F10101F10AA
:10423C001F1414141F00101010F0000000001F10A9
:10424C001010101F10101010F010000000FF1010B4
:10425C0010101010101010FF10000000FF140000C0
:10426C00FF00FF00001F10170000FC04F4141417CB
:10427C0010171414F404F40000FF00F714141414B1
:10428C00141414F700F7141414171410101F101F23
:10429C00141414F4141010F010F000001F101F0070
:1042AC0000001F14000000FC140000F010F01010AF
:1042BC00FF10FF141414FF141010101F0000000046
:1042CC00F010FFFFFFFFFFF0F0F0F0F0FFFFFF003A
:1042DC0000000000FFFF0F0F0F0F0F38444438444D
:1042EC007C2A2A3E147E02020606027E027E0263AD
:1042FC00554941633844443C04407E201E2006024C
:10430C007E020299A5E7A5991C2A492A1C4C720128
:10431C00724C304A4D4D303048784830BC625A4669
:10432C003D3E494949007E0101017E2A2A2A2A2A5A
:10433C0044445F444440514A444040444A51400044
:10434C0000FF0103E080FF000008086B6B083612C9
:10435C00362436060F090F0600001818000000104E
:10436C0010003040FF0101001F01011E00191D1734
:10437C0012003C3C3C3C0000000000000600525087
:10438C00D3F07542A435001006005250E182887FAC
:10439C00AC350010060052503ABCA911BC350010C7
:1043AC0006005250ABB36053C0350010060052509B
:1043BC00BBFF3CB6C835001006005250861C0302E9
:1043CC00D0350010060052505422A29DDC3500104E
:1043DC0005005250DE65F468504B00100D0A0000C9
:0843EC0068EBFF7F01000000F7
:1043F4008843001094430010A0430010AC43001005
:10440400B8430010C4430010D0430010DC43001034
:104414004FF0504310B5026893F90040EFF3108356
:1044240072B6D2E8CFCF0121BCF1000FF9D1C2E8B6
:104434004C1FBCF1000FF4D1BFF35F8F90F904203F
:10444400002A1CDB00210268C2E88F1F83F3108856
:1044540020BF0268EFF3108372B6D2E8CFEF5FF0AB
:10446400010CBEF1000FF8D1C2E84ECFBEF1000F2F
:10447400F3D1BFF35F8F90F90420002AE3DA00221E
:1044840001680471C1E88F2F83F3108810BD00BF49
:104494004FF050412DE9F0410027044616461D46D1
:1044A400D1F8008008E0C1E88F7F8CF31088304693
:1044B400294600F075F8E8B92168EFF3108C72B65C
:1044C400D1E8CF2F0123002AFAD1C1E8423F002AC4
:1044D400F6D1BFF35F8F94F904302168002BE2DA40
:1044E400002384F80480C1E88F3F8CF310880120F6
:1044F400BDE8F0810020BDE8F08100BF30B504685C
:10450400EFF3108C72B6D4E8CFEF0125BEF1000FA3
:10451400F9D1C4E84E5FBEF1000FF4D1BFF35F8F51
:1045240090F904400568002C10DB0021C5E88F1FBA
:104534008CF310884FF0504595F90050A54201D1F5
:10454400084630BDBDE83040FFF7A2BF4FF05042EF
:10455400126800230271C5E88F3F8CF31088012094
:1045640030BD00BF0368EFF3108272B6D3E8CFCF3B
:104574000121BCF1000FF9D1C3E84C1FBCF1000FBD
:10458400F4D1BFF35F8F4FF0FF0C0023016880F874
:1045940004C0C1E88F3F82F3108840BF704700BF5A
:1045A4005FF800F0711A00100C0E00204435001062
:1045B40010000000000000000000000000000000E7
:1045C400000000000000000038080020FFFFFFFF8B
:1045D40000000200000000000000000000000000D5
:1045E400D8020020D8020020E0020020E0020020CF
:1045F400E8020020E8020020F0020020F00200207F
:10460400F8020020F802002000030020000300202C
:1046140008030020080300201003002010030020DA
:10462400180300201803002020030020200300208A
:10463400280300202803002030030020300300203A
:1046440038030020380300204003002040030020EA
:10465400480300204803002050030020500300209A
:10466400580300205803002060030020600300204A
:1046740068030020680300207003002070030020FA
:1046840078030020780300208003002080030020AA
:10469400880300208803002090030020900300205A
:1046A4009803002098030020A0030020A00300200A
:1046B400A8030020A8030020B0030020B0030020BA
:1046C400B8030020B8030020C0030020C00300206A
:1046D400C8030020C8030020D0030020D00300201A
:1046E400D8030020D8030020E0030020E0030020CA
:1046F400E8030020E8030020F0030020F00300207A
:10470400F8030020F8030020000400200004002027
:1047140008040020080400201004002010040020D5
:104724001804002018040020200400202004002085
:104734002804002028040020300400203004002035
:1047440038040020380400204004002040040020E5
:104754004804002048040020500400205004002095
:104764005804002058040020600400206004002045
:1047740068040020680400207004002070040020F5
:1047840078040020780400208004002080040020A5
:104794008804002088040020900400209004002055
:1047A4009804002098040020A0040020A004002005
:1047B400A8040020A8040020B0040020B0040020B5
:1047C400B8040020B8040020C0040020C004002065
:1047D400C8040020C8040020D0040020D004002015
:1047E400D8040020D8040020E0040020E0040020C5
:1047F400E8040020E8040020F0040020F004002075
:10480400F8040020F8040020000500200005002022
:1048140008050020080500201005002010050020D0
:104824001805002018050020200500202005002080
:104834002805002028050020300500203005002030
:1048440038050020380500204005002040050020E0
:104854004805002048050020500500205005002090
:104864005805002058050020600500206005002040
:1048740068050020680500207005002070050020F0
:1048840078050020780500208005002080050020A0
:104894008805002088050020900500209005002050
:1048A4009805002098050020A0050020A005002000
:1048B400A8050020A8050020B0050020B0050020B0
:1048C400B8050020B8050020C0050020C005002060
:1048D400C8050020C8050020D0050020D005002010
:1048E400D8050020D8050020E0050020E0050020C0
:1048F400E8050020E8050020F0050020F005002070
:10490400F8050020F805002000060020000600201D
:1049140008060020080600201006002010060020CB
:10492400180600201806002020060020200600207B
:10493400280600202806002030060020300600202B
:1049440038060020380600204006002040060020DB
:10495400480600204806002050060020500600208B
:10496400580600205806002060060020600600203B
:1049740068060020680600207006002070060020EB
:10498400780600207806002080060020800600209B
:10499400880600208806002090060020900600204B
:1049A4009806002098060020A0060020A0060020FB
:1049B400A8060020A8060020B0060020B0060020AB
:1049C400B8060020B8060020C0060020C00600205B
:1049D400C8060020C8060020D0060020D00600200B
:1049E400E80600200000000000000000B00A0020DB
:1049F400180B0020800B00200000000000000000C5
:104A040000000000000000000000000000000000A2
:104A14000000000000000000000000000000000092
:104A24000000000000000000000000000000000082
:104A34000000000000000000000000000000000072
:104A44000000000000000000000000000000000062
:104A54000000000000000000000000000000000052
:104A64000000000000000000000000000000000042
:104A74000000000000000000000000000000000032
:104A840001000000000000000E33CDAB34126DE6CF
:104A9400ECDE05000B000000000000000000000038
:104AA4000000000000000000000000000000000002
:104AB40000000000000000000000000000000000F2
:104AC40000000000000000000000000000000000E2
:104AD40000000000000000000000000000000000D2
:104AE40000000000000000000000000000000000C2
:104AF40000000000000000000000000000000000B2
:104B040000000000000000000000000000000000A1
:104B14000000000000000000000000000000000091
:104B24000000000000000000000000000000000081
:084B3400000000000000000079
:104B3C00D3DEFFFFFE010000FF010000FCB5FFFF0C
:044B4C00793512ABFA
:040000051000014D99
:00000001FF
