:020000041000EA
:10000000002008205D0100101B0100101D010010E0
:100010001101001011010010110100101101001058
:100020001901001019010010190100101F01001022
:10003000110100101901001021010010230100100E
:100040001101001011010010110100101101001028
:100050001101001011010010110100101101001018
:100060001101001011010010110100101101001008
:1000700011010010110100101101001011010010F8
:1000800011010010110100101101001011010010E8
:1000900011010010110100101101001011010010D8
:1000A00011010010110100101101001011010010C8
:1000B00011010010110100101101001011010010B8
:1000C00011010010110100101101001011010010A8
:1000D0001101001011010010110100101101001098
:1000E0001101001011010010110100101101001088
:1000F0001101001011010010110100101101001078
:100100001101001011010010110100101101001067
:10011000EFF30580103800BE00BE00BE00BE00BE7A
:1001200000BE00BEF2EB8871D04F0010F04F0010FF
:10013000A001001090A31AE7D3DEFFFF42012110B7
:10014000FF01000080530000793512AB4FF0000032
:100150001E49086006C881F3088810474FF05040D8
:10016000006810B14FF00000F2E70DA40ECC00299A
:1001700002D000F012F8F9E71549164A002000E015
:1001800001C19142FCD11449884714498847144958
:10019000884700BEFDE701C901C29A42FBD3704700
:1001A000F04F001010010020D8050020B8540010B6
:1001B0000000082000000820B8540010001008209B
:1001C00000100820000000007047000008ED00E06B
:1001D000D805002044620220713E0010790700100B
:1001E000693E0010F8B500BF064B0749C91A8910CF
:1001F00048BF0131491003D0044B0BB101481847E7
:10020000704700BFD8050020D8050020000000007E
:1002100008B5054B1BB105490548AFF30080BDE8A3
:100220000840FFF7E1BF00BF000000009808002071
:1002300014470010000000002DE9F04F2DED028B57
:1002400087498BB0874804F01DF887498146854867
:1002500004F018F885498046824804F013F89FEDB1
:100260007C8B074600217F4803F0E8FF01217D4891
:1002700003F0E4FF4FF0000A4FF4402B02217948CD
:1002800003F0DCFF8DED028B09F1080602AC06AD30
:10029000CDF814A0CDF810B009F10103360346EAF9
:1002A000C31694E80F0085E80F00079695E80F0045
:1002B000012684E80F004FF4C023DFF8CCC10621EB
:1002C0001020CDF814C0029301F052F810223346EA
:1002D00051466448009604F04FF823464A4651467A
:1002E000604804F08FF84FF4C023069308F10D0323
:1002F00008EB06021B0343EAC21323F0C04343F09A
:10030000804307935A4B062111200993CDF820B062
:1003100001F02EF81122334631465248009604F07F
:100320002BF82B4642460FF23019D9E900893146A5
:100330004C4804F067F88DED028BCDE904BA07F163
:10034000080CBB1C4FEA0C3C4CEAC31C94E80F00A1
:1003500085E80F00CDF81CC095E80F0084E80F0079
:1003600006211220CDE9048901F002F806211320AC
:1003700000F0FEFF0621142000F0FAFF06211520F0
:1003800000F0F6FF0423122202213648009603F003
:10039000F3FF23463A460221324804F033F8304650
:1003A00004F084F80446304604F080F803464FF425
:1003B000163E304D30493148DFF8D0804FEA841C7A
:1003C0000CF1A04C01EA433105EA4435CCF8008039
:1003D00041EA4431CCF8040045EA4330284F40F468
:1003E000802041F4FC019B0103F1A04340F0110087
:1003F00041F009011B4ACCF808E0CCF810001F605E
:10040000C3F804C09E6019615368D903FCD440F25C
:100410008F23144913614B689A03FCD440F2DF1315
:10042000104A4B6153685B03FCD440F23F15012333
:10043000956140F207704FF0A0421249A340086056
:10044000C2F850340BB0BDEC028BBDE8F08F00BF9A
:100450000000010000F0010000000C4052024010BA
:100460005847001000002050344700101847001073
:1004700020460044FD1F00FCFD1F7EFC180020509C
:10048000A80500200020205000020004380A0020A7
:10049000036870B50125044633B31B4E26600DB9C1
:1004A000012070BD01F038FC184DD5E900239042C1
:1004B0009941F5D34FF050431B68012B20D0012206
:1004C000134B1A6001F028FC124A134BC018137822
:1004D00041F1000183F00103696028601921137064
:1004E00043EC40100025D9E7192000F05FFF1923E5
:1004F00045EC443045EC4030034B0120236070BD97
:10050000064A1360DEE700BF9C040010600700206D
:10051000D008002040620220A0860100D4080020FC
:100520002DE9F84F3F4B1F68002F77D13E4BD3F892
:100530000080B8F1000F1CD13C4E47463C4CDFF820
:10054000F490336811E000233A4D03EB430309EBC9
:10055000830328469B689847236832680133934297
:10056000236005F10C05F0DB1346002B2760EADC65
:10057000FEE7B8F1010F01D0BDE8F88F2C4C2B4EEF
:10058000DFF8B090DFF8BC802B4DDFF8BCA0D8F8C6
:10059000003032680133002AC8F80030276000DCE0
:1005A000FEE7DFF890B02F6001F0B6FB2368CAE9E0
:1005B000000103EB430309EB83039B68584698470C
:1005C0002A682368012A07D03268013393422360E6
:1005D0000BF10C0BDBDAE6E7184951F82320013266
:1005E00041F8232001F098FB8E46D4F800B0144B5C
:1005F000DAF8041053F83B2003EBCB0CDAF80030A8
:10060000D31ADCF8042062EB01021B180C4842EB01
:100610000E0240F83B30CCF80420B8E747F0010761
:10062000384700BFD8080020E0080020E408002078
:100630008C080020EC080020D0080020E4090020ED
:1006400068070020DC090020080800202DE9F84F89
:100650003F4B1F68002F77D13E4BD3F80080B8F195
:10066000000F1CD13C4E47463C4CDFF8F4903368F9
:1006700011E000233A4D03EB430309EB83032846C3
:100680009B6898472368326801339342236005F1E1
:100690000C05F0DB1346002B2760EADCFEE7B8F11F
:1006A000010F01D0BDE8F88F2C4C2B4EDFF8B09035
:1006B000DFF8BC802B4DDFF8BCA0D8F800303268E2
:1006C0000133002AC8F80030276000DCFEE7DFF8BD
:1006D00090B02F6001F020FB2368CAE9000103EB12
:1006E000430309EB83039B68584698472A682368AD
:1006F000012A07D032680133934223600BF10C0BBF
:10070000DBDAE6E7184951F82320013241F82320CB
:1007100001F002FB8E46D4F800B0144BDAF8041056
:1007200053F83B2003EBCB0CDAF80030D31ADCF89B
:10073000042062EB01021B180C4842EB0E0240F849
:100740003B30CCF80420B8E747F00107384700BF3A
:10075000DC080020E0080020E808002090080020C5
:1007600064090020D40800200C0A0020B8070020EB
:10077000E009002010080020F0B585B0324803AB36
:1007800002AA01A901F002FC18B92F492F4800F074
:1007900031FEDDE90212019801F036FB03F07CFC2A
:1007A0002B4803F03DFDFFF747FD012000F0EEF977
:1007B0004FF050431B68012B0BD026490B68092BC7
:1007C00029DD0022244B1A60FFF7AAFE002005B0A5
:1007D000F0BD22490B68092B05DD0022204B1A6071
:1007E000FFF734FFF2E70C20002600FB03F41D4A5C
:1007F0005D1C1D4F16510A2D1444C4E901370D60CC
:10080000EBD005FB00F01650024418480233C2E951
:1008100001500B60E1E70C20002500FB03FC144AAB
:100820005C1C114E42F80C500A2C9444CCE9013661
:100830000C60C6D004FB00F0155002440B48023394
:10084000C2E901400B60BCE7F04902009C47001080
:1008500074470010E4080020D8080020E8080020B1
:10086000DC08002064090020BD0A0010910400107B
:10087000EC0800200EB42DE9F04F8AB013AA52F80C
:10088000049B804699F800300492002B00F0008110
:100890000026C9F1010B07463146DFF81CA2CDF84E
:1008A00004B008E0214601363B7008EB060719F852
:1008B0000130002B38D0252B01F10104F2D119F8B9
:1008C0000420302A00F0C280202302931AF802503C
:1008D00015F0040511D0002509EB0403A2F1300046
:1008E0001C4613F8012F05EB85051AF8021000EBE2
:1008F00045054907F2D4019B1C44A2F15803202B63
:100900001CD8DFE803F0211B1B1B1B1B1B1B1B1B25
:100910001B40891B1B1B1B1B1B1B1B1B1B1B1B1B94
:100920001B4E1B1B1B1B2100B8460023304688F8BA
:1009300000300AB0BDE8F04F03B070473A7001369E
:1009400008EB0607611CB2E7049B582A03F1040177
:100950000DF1140B1B680CBF544A554A04915846BC
:10096000142103F03DFAA84203467CDB002BE9DDAD
:1009700038461A465946029303F0F6FD029B1E4480
:1009800008EB0607DEE7049B012D03F1040293F850
:1009900000B004925FDC08F806B0013608EB0607E9
:1009A000D0E7049A1368043218460393049203F0C4
:1009B00051FEA8428346039B61DBBBF1000FBFD011
:1009C0000BF1FF32052A65D908EB0602591C511AB2
:1009D00002295FD919462BF00307D51951F8040BEA
:1009E00042F8040B9542F9D1BB4506EB07020FD044
:1009F0002BF00301595C08F80210791C594507DAFD
:100A0000595C02374244BB45517001DDDB5D937098
:100A10005E4408EB060795E7049B0DF1140B1A1DC5
:100A200004921B6814215846224A03F0D9F9A842BF
:100A300003469DDA2D1A03902A46384602992E4421
:100A400003F044FD08EB0607039B91E78C1C029220
:100A500019F804203AE7384602996A1E013E03F06D
:100A600035FD2E4497E72D1A03902A463846029901
:100A70002E4403F02BFD08EB0607039B76E72D1AA7
:100A80002A463846029903F021FD2E44039B94E741
:100A90001E464AE7013B721E424403EB0B0013F86B
:100AA000011F834202F8011FF9D1B1E7D0470010BE
:100AB000D4470010D8470010C54E001070B5036829
:100AC00001250446C2B0002B3ED0284E266015B941
:100AD000012042B070BD01F01FF9254DD5E900237A
:100AE00090429941F4D34FF050431B68012B3AD008
:100AF0000122204B1A6001F00FF91F4BC01841F181
:100B000000032860C8210A206B6000F09DFB412093
:100B100000F02CFB4FF4C8710A2000F095FB9DF803
:100B2000062016499DF8073002A8FFF7A3FE02A889
:100B300000F0A6FB124A134B1068196800B209B204
:100B400000F082FB0025C1E70F2000F08FFB0220A0
:100B500000F084FB0120054A8DF8065022608DF8D4
:100B6000075042B070BD084A1360C4E7CC0A0010B9
:100B700058070020D0080020A0860100DC470010A4
:100B80007C08002080080020D408002010B4C8B9D8
:100B900001234FF00F0C4FF4A074F0221849088085
:100BA0001849088018490B80184981F800C0184975
:100BB0000870184818490370184B0C601A605DF8EB
:100BC000044B70470128FAD100234FF00F0C4FF46B
:100BD00020744FF4F0720A490B800A490B800A49CD
:100BE00008800A4981F800C009490B70094B0A497D
:100BF00018700A4B0C601A605DF8044B704700BF18
:100C00003A6202203C6202203E62022042620220DE
:100C10004162022043620220480800201808002098
:100C20002DE9F04F474C5E18276883B0BE42054659
:100C30000C469DF830B003DD7B1E5B1A1BB25E18BC
:100C4000002B06DD404BD3F80080454501DAB94260
:100C500002DB03B0BDE8F08FA8EB0509AB18BE427C
:100C600009F1FF39A8BF3E469845A8BF91466B1CC5
:100C700005F0010A019309F1FF3300932B46554615
:100C80009A4675B94B46D807514625D45A10002AC2
:100C900002DDB4F5F07F48DB0134B442D9DA002D2F
:100CA000F0D04AEA0402120423B211D49F420FDDAD
:100CB00003FB08A325485910425CDB0755BF22F00F
:100CC0000F0302F00F034BEA030343EA0B134354F1
:100CD000DDE90031D807D9D50FFA84FEC4F3C03C52
:100CE0007745D8BF4CF0010CCA18013AC2F3C030A6
:100CF00040EA0C00C0B212B2A8B9424513DA08FBB0
:100D00000E22DFF848E04FEA620C1EF80C00D20712
:100D100055BF20F00F0200F00F024BEA020242EA38
:100D20000B120EF80C20013BB0E704EB84030748DC
:100D30009B0103EB610318444BEA0B1103F0C6FB64
:100D4000AAE700BF1808002048080020380A002041
:100D50002DE9F04F00261D4614468B4693B09DF8B2
:100D600074A09DF870300AEB4A02049300964FEA93
:100D7000CA03520007460395FFF752FFB54B04EB39
:100D800084041FFA8BFBE31811930BF108031FFA7D
:100D900083FE53461FFA87FCB146F246664660461C
:100DA000D8469E46B9F1050F0CBF0023119B4FEAB0
:100DB000D63218BF13F8093006F0010706920FFA71
:100DC0008EF24546CDE908980A97CDF808801F466F
:100DD000F04653460FFA86FB0592079620E09E4A9E
:100DE000B8F1010FD2F8009066D02EB206EB080AD7
:100DF000CA4500F38180059A002A07DD974AD2F898
:100E000000E0F34502DA4E45C0F2BA80029C454448
:100E10000134A2B29A4202924FEA5707ADB272D0A1
:100E2000FE07DCD4DDE903218A42EFD08A4AB8F11B
:100E3000010FD2F800907BD02EB206EB08024A4593
:100E400000F398800FFA88F10029DFDD8349D1F89B
:100E500000A0D345DADA4E45D8DA4A45A8BF4A465B
:100E6000AAEB0B011446013908EB0B025245D8BF1F
:100E700041460A460D9717460BF10101CDE90F30A7
:100E80000C910E95511E0A9D0B91002D40F00F8183
:100E90003B465946D80700F1E5805A10002A03DD89
:100EA000B6F5F07FC0F235810136A642EDDBDDE913
:100EB0000D75DDE90F30A9E7684A029C116826B27A
:100EC00002B24E45B8BF8A42A0DA44EA000C5FEA9B
:100ED000DC3C9BD106FB0122DFF884C15610D4070D
:100EE0001CF8061040F1FA80039A01F00F0141EA64
:100EF00002110CF8061089E709F1FF32521B12B2F9
:100F000002EB060A78E7C646DDF82090079E09F155
:100F100001099A46411C0EEB0603B9F1060FDDF8F4
:100F2000248088B29EB27FF43DAF13B0BDE8F08F4D
:100F30004A4A029C116826B202B24E45B8BF8A42A4
:100F4000BFF664AF44EA000C5FEADC3C7FF45EAFBE
:100F500006FB0122DFF808C15610D4071CF8061062
:100F600040F1D08001F00F02049942EA01120CF81E
:100F700006204BE709F1FF31491B09B28A1963E7E3
:100F8000AEEB0B01CA4508EB0B0201F1FF31A8BF24
:100F9000CA469645A8BF41460A460A9C0BF1010184
:100FA0000C91511E0D970E9517467546CDE90F30E1
:100FB0000B9184B93B46D807594625D45A10002ACC
:100FC00003DDB6F5F07FC0F2908001365645BFF6DE
:100FD0006EAF002CEED00699C6F3C0330B4332B28D
:100FE0000ED14A450CDA05FB02B21D485110D2075A
:100FF000435C00F1A380039A23F00F03134343548F
:10100000DDE90B31D807D9D50FFA86FEC6F3C03C0F
:10101000CE45A8BF4CF0010C5A18013AC2F3C030BB
:1010200040EA0C00C0B212B288B9AA420FDA05FB3E
:101030000E22DFF82CE04FEA620CD2071EF80C00FB
:1010400074D420F00F02039802430EF80C20013BE9
:10105000B4E700BF1049001018080020480800201D
:10106000380A00200FFA86FEC6F3C03CCE45A8BF62
:101070004CF0010C5A18013AC2F3C03040EA0C009F
:10108000C0B212B288B952450FDA0AFB0E22DFF85D
:10109000D8E04FEA620CD2071EF80C0055D420F0BD
:1010A0000F02049802430EF80C20013BF5E6069966
:1010B000C6F3C0330B4332B20DD14A450BDA0AFBFB
:1010C00002B229485110D207435C46D4049A23F057
:1010D0000F0313434354DDE90B31DBE6039A21F0A0
:1010E0000F0111430CF8061090E606EB86031E482C
:1010F0009B0103EB61031844039B43EA031103F0D4
:10110000E5F962E721F00F0204990A430CF8062082
:101110007CE606EB8603491001EB83111248049B21
:10112000084443EA031103F0D1F9BDE600F00F02D1
:10113000039842EA00120EF80C2088E7039A03F0A5
:101140000F0343EA021343545AE700F00F020498D6
:1011500042EA00120EF80C20A7E7049A03F00F03EE
:1011600043EA02134354B6E7380A00202DE9F04160
:101170000A2882B00ED00D2809D02C4C2C4D0928FD
:1011800023882A6813D10433934200DA238002B003
:10119000BDE8F0810020274A274913880C8823499D
:1011A00003EBC4031380088002B0BDE8F081224E37
:1011B0000FFA83FE9645B6F800C020DA1D491F4F8E
:1011C000B1F900103F68B94219DA06275FFA8CF8C6
:1011D00018FB07E7002F12DD01EBC807002F0EDD1B
:1011E000174BCDF804801B7802460093154B7046D0
:1011F0001B78FFF7ADFDB6F800C023882A680CEB1A
:101200004C0103EB4103ACEB8C019BB202EB4102BE
:1012100093422380BBDD0021064A2180138803EB23
:10122000CC03138002B0BDE8F08100BF3A62022017
:10123000480800203C6202203E620220180800207C
:101240004162022042620220024A034B1080198050
:10125000704700BF3A6202203C620220012838BF7A
:101260000120014B188070473E620220024A034B66
:1012700010701870704700BF416202204262022065
:101280000278002A64D02DE9F0430446314D324FF4
:10129000324E83B00CE00D2A07D0092A2B8838681B
:1012A00017D10433834200DA2B8014F8012F6AB17E
:1012B0000A2AF0D100212A4A30881388298003EBBA
:1012C000C003138014F8012F002AF1D103B0BDE848
:1012D000F0830FFA83FE8645B6F800C024DA204971
:1012E000DFF88880B1F90010D8F8008041451BDA9A
:1012F0004FF006085FFA8CF919FB08E8B8F1000F07
:1013000012DD01EBC908B8F1000F0DDD154BCDF86A
:1013100004901B7870460093134B1B78FFF718FD61
:10132000B6F800C02B8838680CEB4C0203EB420384
:10133000ACEB8C019BB200EB410293422B80B4DDFD
:101340000023074A2B80138803EBCC031380ACE700
:10135000704700BF3A620220480800203E62022027
:101360003C620220416202204262022018080020F2
:1013700010B44FF480740C4B53F8202003EB80031F
:10138000C00082F0400200F1804003F5805C02F072
:10139000C00200F5203003F54053CCF80020416036
:1013A0001C605DF8044B70470480034030B44FF07C
:1013B000000343EC440043EC400005254FF48074E7
:1013C0000B4BC20053F8201003EB800081F040016A
:1013D00002F1804303F5203301F0C00200F5805193
:1013E00000F540500A605D60046030BC704700BF8B
:1013F000048003400FB400B583B0049C074802F09A
:101400008FFE3CB105A92046019102F013FD04486E
:1014100002F086FE012002F025FD00BFEC4700101F
:10142000FC470010EFF3108072B6064BD3E8CF1FD5
:1014300001220029FAD1C3E8412F0029F6D1BFF3D8
:101440005F8F7047270800200023034AC2E88F3FC0
:1014500080F31088704700BF2708002070B58646CB
:10146000EFF3108572B6124CD4E8CF6F0120002E36
:10147000FAD1C4E8460F002EF6D1BFF35F8F4FF0CC
:10148000010CC80801F007030CFA03F31EF800C0B2
:101490001CEA030608D14CEA030C0EF800C0C4E8AD
:1014A0008F6F85F3108870BD1046FFF7A3FF00BF54
:1014B00027080020F8B5EFF3108772B61C4ED6E867
:1014C000CF5F0124002DFAD1C6E8454F002DF6D19B
:1014D000BFF35F8F9A421BD8012502E0013293428D
:1014E00022D3D40810F804E002F0070C05FA0CFC33
:1014F0001EEA0C0FF2D14EEA0C0E00F804E0104682
:101500000023C6E88F3F87F31088984207DBF8BDB9
:101510000023C6E88F3F87F310884FF0FF30002983
:10152000F5D00698FFF766FF4FF0FF30E8E700BF01
:1015300027080020044A1078431CDBB2182B28BF70
:1015400010231370704700BFAC0500204FF0E0225D
:10155000936843F000539360704700BF0021044B31
:1015600003F12002C3E88F1F01339342FAD1704781
:101570001C0800204FF0E0234FF08032C3F8002415
:10158000C3F80424C3F80824C3F80C24C3F81024B7
:10159000C3F81424C3F81824C3F81C24C3F8202467
:1015A000C3F82424C3F82824C3F82C24C3F8302417
:1015B00062B67047012300F01F029340400941B119
:1015C000800000F1604000F56140C0F880310360A8
:1015D0007047024A203042F82030704700E100E0B6
:1015E000F8B50D46EFF3108772B6124ED6E8CF2F3E
:1015F0000123002AFAD1C6E8423F002AF6D1BFF300
:101600005F8F0D4B00F110049B680C4A53F8243097
:10161000934203D0994201D000F016FE064B9B681E
:1016200043F82450BFF35F8F0023C6E88F3F87F352
:101630001088F8BD2508002000ED00E01101001021
:10164000014B0B44036070471C08002070B5104C20
:10165000104DAC420ED2FF26236863B1FFF76AFF3C
:1016600001462046FFF7ECFFA680BFF35F8F0834EA
:10167000AC42F1D370BDFFF75DFF01462046FFF796
:10168000DFFF2671BFF35F8F0834AC42E4D370BD37
:10169000C8050020D80500200D4B1A68EFF3108113
:1016A00072B6D2E8CFCF0120BCF1000FF9D1C2E869
:1016B0004C0FBCF1000FF4D1BFF35F8F00221B6809
:1016C000C3E88F2F81F3108840BF002000217047AE
:1016D000340A0020000000002DE9F04F2DED028BB0
:1016E00085B0EFF30583DBB2103B9A0818BF0122E7
:1016F0004FF0010103F0030B18BFAF4DAF4B08BF14
:10170000AF4D0BEB820253F8226001FA0BF205F5A4
:1017100041539FEDA78B01925A602FE0B3881C04C0
:1017200040F19380B379002B40F0DD80B6F90820BA
:10173000002AC0F21E81736902EB420203EBC2036E
:10174000D3E90247B7F1FF3F08BFB4F1FF3F0ED026
:1017500005EB8B01AB6A0A69D21AE31A934205D3EF
:1017600001232A6A03FA0BF3134200D10C612846C5
:1017700000F0CAFAA042B941C0F2FB80B6F90830C5
:10178000019A002B0093EA63C8DBD6F8148003EBC0
:101790004309284608EBC907D7E9024A00F0B4FA22
:1017A000A04271EB0A01B9DBBAF1000FC0F2C380AD
:1017B000D7E90431834A934200F0ED807A88B6F984
:1017C000080092B242EA0040984702460B4652EAAD
:1017D000030100F0B080002B80F2D180B4EB020E48
:1017E0006AEB030A38F93930C7E902EA002B95DBC6
:1017F000716903EB430201EBC202D2E90270BE45FC
:101800007AEB000C4FEA430288DBB4462CF8083F21
:1018100006E003EB430001EBC0005A00D0E9027080
:10182000BE451A447AEB000001EBC20404DB31F937
:101830003230A446002BECDA28F83930009BACF8A3
:101840000030B3881C043FF56DAF3369EFF31082AD
:1018500072B6D3E8CF0F01210028FAD1C3E8401FA8
:101860000028F6D1BFF35F8F4FF6FF74B0880023D6
:10187000316900B2B480C1E88F3F82F3108898428A
:10188000FFF650AF0746A946746906F1080807EB52
:10189000470E04EBCE03D3E90250B6F90830C44634
:1018A000002B13DBB246009704E034F9363094463F
:1018B000002B09DB03EB430604EBC602D2E90271FD
:1018C000BD4270EB0101F0DA5646009FACF80070A3
:1018D00034F93E7024F83E30002FD8DAB3794D4603
:1018E000002B3FF423AF0023B371B6F9083006F1A3
:1018F0000808581C3DD01A46776903E08046591CF9
:101900003FF416AF03EB430107EBC100B0F802C090
:101910001C461CF4004F9E4637F93130EED09442FD
:1019200080ED028B05D0A8F80030328927F83120ED
:1019300034817246E3E738F8393033813369EFF3A5
:10194000108272B6D3E8CF0F01210028FAD1C3E884
:10195000401F0028F6D1BFF35F8F7388316928F8E4
:101960003930009B73800023C1E88F3F82F31088D9
:10197000D4E640BF05B0BDEC028BBDE8F08F284631
:10198000CDE9022300F0C0F9029A039B10EB020E8E
:1019900043EB010A26E708460B69029198470028A5
:1019A000C9D00299D1E9002311E700BFAFF300804D
:1019B000FFFFFFFFFFFFFFFF00800B40B00800208C
:1019C00000000B40D91600102DE9F84F364C256960
:1019D0002DB1BDE8F84F0A213448FFF731BEDFF8DA
:1019E000E4800321404600F07DF90326C4F80C8012
:1019F000FFF7A0FD4FF0504C2D4B267003442361A0
:101A0000DCF800300F216370636961801D834FF043
:101A10000405A3F878504FF00505A3F890504FF057
:101A20000605A3F8A8504FF007050E214FF6FF72E8
:101A300008274FF00A0EA3F8C0504FF001094FF0ED
:101A40000C0C4FF0020B4FF0090A0D204FF00B0564
:101A5000A3F868111749A280A3F808E1A160A3F8D0
:101A600048B0A3F8F0A0A3F82051A3F838C1A3F818
:101A70005001A3F83090A3F86060A3F8D8701A80E2
:101A80000D4B3046C8F820700C49DC60FFF7A8FD0C
:101A900049463046FFF78EFD094B0A211F64034873
:101AA000BDE8F84FFFF7CCBDB0050020340A002098
:101AB0001C080020FFFF1000B0080020D9160010FD
:101AC00000200B4000000B400146F0B50069EFF329
:101AD000108772B6D0E8CF5F0124002DFAD1C0E89C
:101AE000454F002DF6D1BFF35F8FB1F902E04C698D
:101AF0000EEB4E0CBEF1000F4FEACC05086904EB6B
:101B0000CC0C3CDB665B4E800026C0E88F6F87F311
:101B10001088BCF80200CCE902230130C0F30E00AB
:101B2000012838BF0120059BACF80200CCF810302A
:101B3000069B40EA0E40CCF814300B69EFF310829C
:101B400072B6D3E8CFCF0127BCF1000FF9D1C3E8BB
:101B50004C7FBCF1000FF4D1BFF35F8F8B886353D0
:101B6000A1F804E00B69C3E88F6F82F310880122AB
:101B7000CB68097803F501538A405A60F0BD002311
:101B8000C0E88F3F87F310884FF0FF30F0BD00BFF3
:101B900003464089B0EB214F37DD58690A1402EB48
:101BA000420210B500EBC2001C69EFF3108C72B654
:101BB000D4E8CFEF0122BEF1000FF9D1C4E84E2FD7
:101BC000BEF1000FF4D1BFF35F8F428889B292B2A9
:101BD0008A4207D000221B69C3E88F2F8CF310883C
:101BE000002010BD42F40042428001210022186909
:101BF0009971C0E88F2F8CF310881C78DA6808463A
:101C000002F50153A140596010BD0020704700BF8C
:101C10002DE9F04306460D4683B0EFF30584E4B2A8
:101C20003CB12D4B5A6AAA421CD2002003B0BDE839
:101C3000F0832A4FD7F80C9097F80080484600F0C0
:101C400063F808F1040859F828301B1A301A65EBBC
:101C50000101984271F1000110DB20BF1E4B5A6A4E
:101C6000AA42E2D314BF012400249B6AB34234BFCA
:101C7000204644F0010003B0BDE8F08300F04CF8CA
:101C8000864265EB0101002914DB154B3846CDE98E
:101C9000003432462B46FFF717FF011E0ADD0E4BBC
:101CA0005A6AAA4216D39B6AB34211D30B48FFF774
:101CB0006FFFB6E7084B5C6AAC42B6D3641B18BF33
:101CC00001249B6AB34234BF204644F00100ADE7D3
:101CD000AA42EBD120BFE9E700000B40B00500208D
:101CE0009916001010B4054B054C064AA04214BFCB
:101CF0001846581C5DF8044BFFF7B0BB4C08002099
:101D000000800B40004800100346416A0A46986A6A
:101D1000596A8A42FAD17047034B596A0A46986A4F
:101D2000596A9142FAD1704700000B4000EB400C19
:101D30004FEA8C0C0CF1804C0CF5803CF0B516464B
:101D4000DCF80420051FB2F5803F38BF4FF4803225
:101D5000EDB238BFCCF80420012D2AD94FF400672A
:101D6000254C0CF54052176054F82020B2B9DCF82D
:101D70000020012D82EA461202F0E0020CF58056A6
:101D800032602AD94FF4006144F820304FF4803398
:101D90000CF500521160CCF80430F0BD6769B7FB58
:101DA000F2FE0EF1010E0EEB4E0EBEF1030EFCD252
:101DB000DDE70129D2D103240CF540521460DCF890
:101DC0000820D207FBD5DCF800200B4C82EA461233
:101DD00002F0E0020CF5805632600122DCF800507F
:101DE0004D4005F00305356002FA01F1DCF80820EA
:101DF0000A42FBD0C6E700BF54080020014B53F84D
:101E00002000704754080020584B2DE9F0431C6C0B
:101E10001746B4F5803F38BF4FF4803283B038BFE7
:101E20001A64032280460E46514B504DDA636C6CA7
:101E3000E307FCD5EB6B4F4A83F0200303F0E0038C
:101E4000D363EB6B494D83F0010303F00303D363CA
:101E50006C6CA407FCD54FF400624FF48039464BFC
:101E6000464CDA63464B4246636101213346C5F86E
:101E700040904448009700F057F94FF400616B6BB5
:101E800007FB06F64B4538BFC5F83490384B22693E
:101E9000B8FBF6F619633AB16369B3FBF2F30133A9
:101EA00003EB4303033BFDD23049324A0B6B03F093
:101EB000E00313630B6B83F0020303F0030313636C
:101EC0008B6B5807FCD54FF400654FF480332A4ADA
:101ED00015632D4A4B6322610A6C9A424FF003024C
:101EE00038BF0B64224B2149DA634B6CDA07FCD50F
:101EF000CB6B204A03F0E003D363CB6B1B4983F029
:101F0000010303F00303D3634B6C9B07FCD54FF431
:101F100080334FF40065184A6661D5630B64CA6C60
:101F20009A4238BFCB644FF40061114BA2699964A7
:101F30003AB16369B3FBF2F3013303EB4303033BB1
:101F4000FDD24FF400604FF48031084A094D936C84
:101F500083F0400303F0E003AB64074B084DA56139
:101F60009864D16403B0BDE8F08300BF0000014075
:101F700000300140001001400020014054080020C2
:101F8000006CDC0200000540001BB7002DE9F04F9B
:101F90004FF4A078994685B0CDE902125F4CDFF886
:101FA00084A154450AD908F1FF38A4F53B54B8F18F
:101FB0000F0FA4F12004F4D1002069E0072304F5F9
:101FC0003722019403FB03F402F5D872B2FBF4FE4E
:101FD00070454FF0010C4FF002074FF003064FF031
:101FE00004054FF005013FD0B3F1010E00F09480DD
:101FF0000EFB03F4B2FBF4FB58454CD019B301FBC4
:1020000003F4B2FBF4FB58454FD0E5B105FB03F4F4
:10201000B2FBF4FB584553D0AEB106FB03F4B2FB60
:10202000F4FB584557D077B107FB03F4B2FBF4FB40
:1020300058455BD0BCF1000F05D00CFB03F4B2FB9C
:10204000F4FB83455DD0734603FB03F4B2FBF4FE5F
:10205000704501F1FF3105F1FF3506F1FF3607F15B
:10206000FF370CF1FF3CBFD104FB1024002CBBD187
:102070009E464A46DDF808B0DDF80C90012028495C
:1020800001FB08F1CBF80010C9F80030C2F800E0FD
:1020900005B0BDE8F08F04FB1024002CAED14A46F9
:1020A000DDF808B0DDF80C90E8E704FB1024002C04
:1020B000ABD14A468E46DDF808B0DDF80C90DDE77E
:1020C00004FB1024002CA7D14A46AE46DDF808B028
:1020D000DDF80C90D2E704FB1024002CA3D14A4673
:1020E000B646DDF808B0DDF80C90C7E704FB102415
:1020F000002C9FD14A46BE46DDF808B0DDF80C90B2
:10210000BCE704FB1024002C9DD14A46E646DDF8CE
:1021100008B0DDF80C90B1E7019C44E750262F0091
:10212000001BB70050F80C0070B4039D04682D0329
:1021300045EA03451B4B002CB3FBF1F3B2FBF3F66E
:102140001FDB194A194B904214BF4FF480424FF4E1
:102150000042174C1A6003F580531A60A36832EAF4
:102160000303FBD1212200F5405304330160866054
:102170001A600268002AFCDA0822C5601A6070BC86
:102180007047036803F03F038B42DAD18368C3F3DF
:102190000B03B342D5D1C36803F4EE23AB42D0D1D5
:1021A000EDE700BF001BB7000080054000200240A3
:1021B00000000240012300EB4000800000F180405D
:1021C00000F5841041600360704700BF0023DB8A84
:1021D000002242E800F2520201D4102118470421E3
:1021E000184700BF034AD2F82838002BFBD0BFF3B2
:1021F0005F8F704700000E400021044B044ABFF37C
:102200005F8F43F8041B9342F9D170470C080E40CE
:102210002C080E4010B44FF48D704FF42A64064A17
:10222000064B07491460D06019605368002BFCDA34
:102230005DF8044B704700BF0080044000A00440DC
:1022400000B0FA00704700BF08B50148FFF7D2F8A8
:102250002448001038B5054C054DAC4204D254F862
:10226000043B9847AC42FAD338BD00BFD0460010BB
:102270001047001010B40748074C084B084A09499A
:1022800004601A608B6832EA0303FBD15DF8044BEB
:10229000704700BF002002407F3BEFEF003002405C
:1022A000F6FFF30300000240044BDB6CB3F5004F74
:1022B00003D14FF48022024BDA64704700001150C2
:1022C000002011504FF0E022044BD2F8881D0B4340
:1022D000C2F8883D10EE3004704700BF03033000A1
:1022E0006FF06041044B054A19609368DB4333F09B
:1022F0006043FAD1704700BF003002400000024046
:1023000010B545F25320FFF761FFBDE810400346CA
:102310000420184710B545F25320FFF757FFBDE8DA
:102320001040034601201847FFF718B91449154B10
:1023300070B55C1AA610442E324628BF4422124DB6
:102340009200284602F010F9B4F5867F13D80F4AA0
:10235000C6F1440012D02B19410803EBC101C3E9B7
:10236000002208338B42FAD1C30704D520F00100C4
:10237000304445F82020064B9D6070BD4320F8E7AF
:1023800000000010100100100000002011010010DA
:1023900000ED00E0002370B52B4C82B0C4F884300F
:1023A000FFF738FF0122294BDA63636C012BFCD164
:1023B0000321264A244B11639C6B012CFCD102267D
:1023C000052521460523224A22480096FFF7ACFE48
:1023D00021462B46204A21480095FFF7A5FE002202
:1023E000042031461E4BFFF7A1FC2146284600225F
:1023F0001C4BFFF79BFC0022082011461A4BFFF7ED
:1024000095FC002209201146174BFFF78FFC002294
:1024100006201146134BFFF789FC0022114B0720C1
:102420001146FFF783FC0420FFF7E8FC00240F4B64
:10243000A3FB0035AD0CE0B229460134FFF7BAFE2C
:10244000062CF8D102B070BD000001400030014000
:10245000002F685900000540008C86470080054029
:10246000001BB70080D1F008006CDC0283DE1B4348
:1024700086B003B451FC0804CDE9020151FC090403
:10248000CDE9040151EC0A04CDE9060103BCF04793
:10249000BDE800504EEC00C4BDE800504EEC01C455
:1024A000BDE800504EEC02C400BD000000B5FFF7CF
:1024B000DFFF02E010FE30F4F8D441EC100443ECEE
:1024C000112400EE010410EE010480EE200451EC12
:1024D0001004704700B5FFF7CBFF02E010FE30F4A8
:1024E000F8D441EC100443EC112400EE010410EE8A
:1024F000210480EE200451EC3004704700B5FFF752
:10250000B7FF02E010FE30F4F8D410B541EC10042F
:1025100043EC112451EC040453EC0524A0FB024CC1
:102520005FF0000EE0FB03CEE1FB02CE4CEC20445A
:102530000024E1FB03E444EC30E480EE200451ECA1
:102540005004BDE81040704700B5FFF791FF02E06E
:1025500010FE30F4F8D441EC100443EC112451EC9B
:102560002104A0FB01126FEA820252FB100052FB11
:1025700012F252FB1000A0EBD07C53EC04245CFB65
:1025800013F153EC1524A1FB022001FB030053ECD3
:102590004424A2EB000050FB1CF24FEA111312EB93
:1025A000017043EBE27140EA515020EA915020F073
:1025B000070053EC7524A0FB023C53EC752400FB90
:1025C00003CC01FB02CC53EC0424ACEB824C40EA7C
:1025D0005C70A0F1010041EC400480EE200451EC5D
:1025E0007004704700B5FFF743FF02E010FE30F4BF
:1025F000F8D440EC700400EE010410EE210480EEEB
:10260000200451EC3004704700B5FFF731FF02E0C1
:1026100010FE30F4F8D440EC600400EE010410EE3B
:10262000210480EE200451EC3004704700B5FFF720
:102630001FFF02E010FE30F4F8D441EC800400EEFD
:10264000010410EE010480EE400410EE1304704704
:1026500000B5FFF70DFF02E010FE30F4F8D441ECB6
:10266000800400EE010410EE010480EE400410EE40
:102670003304704700B5FFF7FBFE02E010FE30F4B4
:10268000F8D441EC100443EC112400EE010410EEE8
:102690003004C0F30070704700B5FFF7E9FE02E0B8
:1026A00010FE30F4F8D443EC102441EC110400EE99
:1026B000010410EE30F48CBF01200020704700BFF1
:1026C00000B5FFF7D5FE02E010FE30F4F8D443EC7D
:1026D000102441EC110400EE010410EE30F42CBF84
:1026E00001200020704700BF00B5FFF7C1FE02E0E7
:1026F00010FE30F4F8D441EC100443EC112400EE49
:10270000010410EE30F42CBF01200020704700BF00
:1027100000B5FFF7ADFE02E010FE30F4F8D441EC56
:10272000100443EC112400EE010410EE30F48CBFD1
:1027300001200020704700BF9A4238BF885470477C
:10274000704700BF2DE9F04F83B09946DDE90DAB2E
:102750000F9B884611469A07074616D1DA453AD2AA
:102760000C460D46ABEB0A060E4422464B4641464C
:1027700020200134B847B442F7D12946BAF1000FFE
:1027800008D1204603B0BDE8F08F0C46BAF1000F27
:1027900010D00E4655460C9B2E449A440191721B54
:1027A0004B46013D41461AF8010D3446B847002D0D
:1027B000F5D101990F9B9B07E3D5651AAB45E0D98D
:1027C00022464B46414620200135B8475D4504F17D
:1027D0000104F5D3D5E70C46BAF1000FD9D1D0E703
:1027E0002DE9F04F0F9FDDF8248017F0020F0A9CAF
:1027F0009DF82CA00E9DDDE90C9644D1F5BBB442AA
:1028000041D207F0010B04F1FF3C4FF0300EC444FD
:1028100004E00134A6420CF801EF01D9202CF8D1D4
:10282000BBF1000F00F08880A5422CD904F1FF3CD9
:102830004FF0300EC44404E00134AC420CF801EF18
:1028400021D0202CF8D117F0100F0ED017F4806F84
:1028500054D1A64263D0A54261D0B9F1100F50D037
:10286000B9F1020F56D0202C29D12024CDE90B57E5
:10287000CDE90984BDE8F04FFFF764BF17F0010B05
:1028800034D1B442BFD317F0100F1ED017F4806FAD
:10289000E3D1002CDDD1B9F1100F63D0B9F1020FF3
:1028A00077D0302488F800400124BAF1000F11D10C
:1028B0007E0748D52B2608F804600134D6E7264663
:1028C00001344FF0300C08F806C0202CCDD0BAF1FE
:1028D000000FEDD02D2608F804600134CDE90B5728
:1028E000CDE90984BDE8F04FFFF72CBFBAF1000F26
:1028F00030D0B44205F1FF3585D395E7B9F1100F1B
:10290000B3D1BE063BD5202CAFD0582608F80460C2
:102910000134A8E7202CA8D02646013407E0661E23
:10292000B9D0B9F1100F36D0B9F1020FC9D14FF0BB
:10293000620C08F806C096E717F0100FC5D017F420
:10294000806F86D089E73E0790D5202608F804607E
:1029500001348BE717F00C0F00D0013DB442FFF4B7
:1029600052AF61E7BC0612D4782488F800403024C6
:1029700088F801400224BAF1000F99D0AAE7202C70
:102980003FF473AF782608F8046001346BE75824ED
:10299000EBE76224E9E717F0200FA4F1020C04D062
:1029A0004FF0580E08F80CE08BE74FF0780E08F85F
:1029B0000CE086E700B9704701F070BB10B1D1E9B7
:1029C00000311847704700BF2DE9F04F97B09DEDDB
:1029D000207BDDE9225B0746884651EC170B249CDF
:1029E00099460C920B4602468DED047B0794FFF747
:1029F00045FE002840F0F481DDE904014FF0FF328C
:102A00006FF48013FFF74CFE002840F01B81DDE9D6
:102A100004014FF0FF32AC4BFFF77EFE002840F080
:102A2000EE80DDE90401A4A3D3E90023FFF774FEDF
:102A3000002840F0D380DDE90401A1A3D3E90023FD
:102A4000FFF72EFE002840F0C980DDE904010022D6
:102A50000023FFF725FE002840F0E88023460D9074
:102A600013F4806F08BF062530212B460EAAA5F16E
:102A7000200605E0013BB34202F8011B00F0938100
:102A8000092BF7D81E46ED1ADDE90401FFF7D2FD48
:102A90008E4B044603EBC60393ED007B8DED087B64
:102AA000FFF7A4FD02460B46DDE90401FFF716FD22
:102AB000DDE90823FFF726FD02460B46CDE90A2390
:102AC000FFF7CAFD8246FFF7A3FD02460B46DDE98C
:102AD0000A01FFF703FD02460B46CDE90A23002257
:102AE0007B4BFFF719FE002800F0FE800AF1010A77
:102AF0005046FFF78DFD02460B46DDE90801FFF762
:102B0000E3FD10B14FF0000A0134002E00F0FD800B
:102B1000681E0EABDFF8CCC118440FE0ACFB0A21F5
:102B2000C90801EB8102AAEB42023032BAF1090F67
:102B300000F8012F40F21C818A461D46202D05F128
:102B4000010306F1FF36E9D12025691E0EAB61486D
:102B5000194410E080FB0462C3EBA20303EB830281
:102B6000A4EB420404F1300201351C4601F8012FA8
:102B7000002B00F0EB80202D4FEAE473EAD1079B95
:102B800003F00303012B18D1BBF1000F15D00D9BEF
:102B9000002B00F00A810BF1FF3BBBF1200F0CD999
:102BA0006B1E0EA930220B4405E001355D4503F88C
:102BB000012F80F0D180202DF7D1079B0EACCDE9FD
:102BC00002B341464B4638460C9A01950094FFF7F4
:102BD000B9FD8246504617B0BDE8F08F079B9DEDCA
:102BE000047BCDE923B341464B4638460C9A8DED24
:102BF000207B229517B0BDE8F04F00F045B9610782
:102C000023464CBF042303234146219338464B46B9
:102C1000079A48BF304CCDE922B258BF2F4C0C9ACE
:102C2000209417B0BDE8F04FFFF78CBDDDE9042319
:102C300000200021FFF752FC0123CDE904010D9390
:102C400023460DE723469C0740F0AA80BBF1040F02
:102C500040F2A6800C9B1D461C1F04EB0B0A2A4663
:102C60004B46414620200135B847AA45F7D1554685
:102C70001B4C261F14F8010D2A464B464146B84707
:102C8000B44205F10105F5D1079B0AF1040A980742
:102C9000A0D50C9CAAEB04039B459BD952464B46FE
:102CA000414620200AF1010AB847AAEB04035B451C
:102CB000F4D38FE7AFF300800000000065CDCD4175
:102CC0000000000065CDCDC1FFFFEF7F704E00100A
:102CD0000000E03F67666666744800107C4800109C
:102CE00088480010CDCCCCCC0022DDE90A01634B32
:102CF000FFF7D6FC00287FF408AFBAF1000F6AD1C5
:102D00000AF1010A002E7FF403AF2046FFF76EFCA4
:102D100002460B46DDE90401FFF7E0FB02460B46E5
:102D2000CDE904230022554BFFF7BAFC00287FF4BD
:102D30000CAFDDE904010022504BFFF7EDFC002849
:102D40007FF403AF013424F00104FEE6079B03F097
:102D50000303012B00F08280202D3FF42EAF0D9B4A
:102D60007BB32D220DEB050383F83820013524E7D2
:102D7000202B3FF4E9AE0EAA15441E44302204E095
:102D8000202B05F8012F3FF4DFAE9E4203F1010333
:102D9000F6D12E220DEB060383F83820751CD4E6FD
:102DA000DDF830A063E720256EE6079B13F00C0FDB
:102DB00050D00BF1FF3BAB453FF6F2AE202D3FF478
:102DC000FCAE079B5A0701D52B22CBE71B077FF5EB
:102DD000F4AE2022C6E71AF0010F3FF496AE8FE75B
:102DE000A60734D1BBF1030F31D90C9B1D46DC1E65
:102DF00004EB0B0A2A464B46414620200135B847D2
:102E00005545F7D155461E4CE61E14F8010D2A46CD
:102E10004B464146B847A64205F10105F5D1079B4F
:102E20000AF1030A9D077FF5D5AE0C9CAAEB0403BB
:102E30009B457FF6CFAE52464B46414620200AF1D5
:102E4000010AB847AAEB04039B45F4D8C2E6DDF8B3
:102E500030A0D7E7AB453FF6A3AEAEE6BBF1000F1F
:102E60003FF47AAF0D9B002B9FD00BF1FF3B5D45EC
:102E7000FFF496AE202D7FF474AF9EE60000E03F95
:102E800083480010000000002DE9F04F9FB02A9EFB
:102E9000DDE92845074693460891099322462B46CB
:102EA000204629460E96DDE92BA6FFF7E7FB002812
:102EB00040F0BE80204629464FF0FF32784BFFF7A6
:102EC0002BFC002840F0B480204629464FF0FF320A
:102ED0006FF48013FFF7E4FB002840F0A980204640
:102EE000294600220023FFF7DBFB002840F0D581B4
:102EF000CDE90A45DDE90A239046994606F40062C9
:102F000016F480630F92139340F0A18058EA0903EE
:102F100040F0CA80002A40F0E38106230E9316F0A9
:102F20000202109240F0D4815346042B38BF042390
:102F30000C920422043B12920F9320462946002251
:102F40000023FFF7ADFB002840F0F3819DED0A7BE5
:102F50000F9B5A4603930E9B8DED007B029326F444
:102F6000006304933846099B0899FFF72DFD02463C
:102F700016F0200F099B08990CBF6520452002F12F
:102F80000108B8470C9A129B16AC5D1E82EAE273E8
:102F9000A3EBE273D10F002622469946DFF804C165
:102FA00001E0202E10D0CE46ACFB0930C00800EB6B
:102FB0008003A9EB43033033BEF1090F814606F1CC
:102FC000010602F8013BECD80523002006930A23F2
:102FD00005950094099D089C4246CDE90330CDE952
:102FE00001612B4621463846FFF7FAFB109A8046CE
:102FF000D2B1A0EB0B06B24516D90BEB06022B465D
:10300000214620200136B847B245F6D80BF1FF33F0
:103010005344CBF10102A3EB08034244924538BF6D
:10302000002308F10108984440461FB0BDE8F08F26
:103030005A463846CDE92845CDE92BA60E9C099B7A
:1030400008992A941FB0BDE8F04FFFF7BDBC58EABD
:1030500009032BD1002A3FF462AF00230C930E9B8F
:103060000C9A934200F3B9814FF00008204629469C
:1030700000220023FFF714FB002840F013819DED90
:103080000A7B26F4006646F480668DED287B5A465E
:103090003846CDE92A8A099B08992C96D2E700BFC9
:1030A000FFFFEF7FCDCCCCCC06230E93C9F30A50A3
:1030B000A0F2FF30FFF79AFAC1A3D3E90023FFF78C
:1030C00021FAC1A3D3E90023FFF7F4F9C9F31309E7
:1030D000CDE90C0149F07F5140460022B24B41F44A
:1030E0004011FFF7FBF9A4A3D3E90023FFF70AFA85
:1030F00002460B46DDE90C01FFF7DCF9FFF79AFA0F
:103100000C90FFF773FA9EA3D3E90023804689460B
:10311000FFF7F8F90022A54BFFF7CCF9FFF78AFA81
:10312000034649464046129397A3D3E90023FFF78D
:10313000E9F9804612988946FFF758FA94A3D3E933
:103140000023FFF7DFF902460B4640464946FFF7EA
:10315000C5F902460B4680468946FFF7D3F9424639
:103160004B46CDE9100140464946FFF7A3F900223E
:10317000CDE91401DDE910018D4BFFF7E9F90022DB
:103180008C4BFFF797F902460B46DDE91001FFF77C
:10319000DFF90022884BFFF78DF902460B46DDE987
:1031A0001001FFF7D5F942464B468046894600207C
:1031B0004FF08041FFF792F902460B4640464946E0
:1031C000FFF778F902460B46DDE91401FFF7C0F975
:1031D00000227A4BFFF76EF9129B002203F2FF3CAC
:1031E0004FEA0C53FFF78EF980468946DDE90A0164
:1031F00042464B46FFF754FA50B10C9B4046013B08
:1032000049460C9300226B4BFFF7A2F98046894692
:103210000C9A43466332C62A06F0020210924946CF
:103220000F9A2CD8002A5ED0042212920B433FF44E
:1032300016AFDDE90A0158A3D3E90023FFF758FAD6
:1032400048B1DDE90A0156A3D3E90023FFF728FAC4
:1032500000287FF404AF0E9B002B50D0139A002A55
:103260007DD0013B0E93129B9A4505D9109B002BF4
:1032700000F0AE800223109300230F9344E022BBA2
:10328000BAF1050F4FD906F00203002B49D10523EF
:103290001293AAF105030F933AE005F100430A9453
:1032A0000B9327E626F4006646F4806638462C9693
:1032B000DDE90A67344607F100455A46CDE92A8A16
:1032C000CDE92845099B0899BCE605221292ADE795
:1032D00000230222CDE90F3204220C9312922CE635
:1032E0004FF00508C2E6BAF1040F1FD9109B002B5E
:1032F00078D104231293AAF104030F9304E0129BE4
:103300009A4531D80E9B0F930C9B002B3FF415AEC2
:10331000DDE90A0142464B46FFF71AF9CDE90A01F9
:103320000BE60223109305231293F1E70423129373
:10333000EAE7DDE90A45A0460F9B05F10049039342
:103340000E9B5A46029326F4006304933846CDE957
:103350000089099B0899FFF737FB024608E6129B94
:103360009A4544D80F92CFE7109B8BB30E9B0F93D7
:1033700002231093C8E700BF61436F63A787D23F62
:1033800071A379094F930A401655B5BBB16B024042
:10339000EF39FAFE422EE63F2D431CEBE2361A3F90
:1033A0000000000080842E410000F83F0000E03F54
:1033B00000002C4000002440000018400000F03FB6
:1033C000FB799F501344D33FB3C8608B288AC63F14
:1033D000129BAAEB03030F9396E7A3EB020808F1F5
:1033E000FF3843E604231293022310938CE7109BCB
:1033F000002BEDD002230F92109385E72DE9F04FBB
:103400009BB0249C954D0A94954CB1F1000A18BFCD
:10341000834625601878934C914608BFA3460993CC
:10342000002800F093824FF000080AE042464B4625
:10343000514608F10108D847099B1878002800F088
:10344000CE80099B252803F101030993EED11C4688
:103450000023224612F8010BA0F1200110290AD8FE
:10346000DFE801F04009093C09090909090909389F
:10347000093409093000A0F130010929099440F20A
:103480008A802A2800F0F08000252E2800F09680FF
:103490000026A0F1680112292DD8DFE811F04901BA
:1034A0002C0043012C0038012C002C002C002C0097
:1034B0002C002C002C0027002C002C002C002C00B1
:1034C0002C002700144643F00103C2E7144643F0E2
:1034D0000203BEE7144643F00403BAE7144643F080
:1034E0001003B6E7144643F00803B2E70999487899
:1034F00043F480730132672809927ED8242840F271
:10350000C180A0F12502422A00F2BC80DFE812F05F
:103510005001BA00BA00BA00BA00BA00BA00BA0044
:10352000BA00BA00BA00BA00BA00BA00BA00BA00CB
:10353000BA00BA00BA00BA00BA00BA00BA00BA00BB
:10354000BA00BA00BA00BA00BA00BA00BA00BA00AB
:10355000190137011901BA00BA00BA00BA00BA005D
:10356000BA00BA00BA00BA00BA00BA00BA00BA008B
:10357000BA00BA00BA00BC01BA00BA00BA00BA0078
:10358000BA00BA00BA00BA00BA00BC015801BC01C6
:10359000190137011901002500E0013205EB85050D
:1035A00000EB45051078303DA0F130010929F4D930
:1035B0002E28099202F101027FF46AAF099943F4BF
:1035C000806348781146A0F13006092E40F221812F
:1035D0002A2800F02F8109920026013259E744463B
:1035E000C14501D809F1FF384B46424651460020FB
:1035F000D84720461BB0BDE8F08FA0F16902D2B2D7
:103600000F2A3FD8012149F241079140394040F04B
:10361000F3800A2A3DD0072A34D10A9D55F8042B9D
:10362000002A00F0138143F0210012AB1F460B93D8
:1036300003E0202900F014811A4602F00F0423460B
:10364000092C94BF303337330F2A07F8013B01F1BF
:1036500001014FEA1213ECD802E100BFFD33001064
:1036600094080020412700100A99099851F8045B3A
:103670004078002DCDE90921BCBF43F002036D4223
:10368000013202E742464B46514608F10108D8474D
:10369000D2E60A99002E51F8047B18BF32463878DA
:1036A00008BF4FF0FF32002800F07B83BC18A4460F
:1036B0003A4604E012F8014F002C00F03F81944597
:1036C000F8D16446E41B5A0540F12281B44228BF78
:1036D000344613F0020300F088820223CDE90A5138
:1036E00042461D46464408E04B465146D84717F827
:1036F000010F08F1010810B142464645F4D12B46AE
:103700000B990A9D002B40F041810A9194E609999A
:1037100048786C287FF4ECAE0A46887843F440730E
:103720000332E8E6099943F4007348780132E2E68F
:1037300009994878682800F0038143F0800301323A
:10374000D9E6672800F0D980472800F0DC804528BA
:1037500000F0DB80CDE903530A9B0296073323F088
:1037600007031C464246F4E802674B46514658465A
:10377000CDE900670A94FFF787FB80465CE64628A0
:1037800008BF43F02003CDE903530A9B0296073399
:1037900023F007031C464246F4E802674B465146B5
:1037A0005846CDE900670A94FFF70EF9804643E6D4
:1037B00042464B465146252008F10108D8473BE6D2
:1037C0000A9A990702F1040408F1010640F1C68043
:1037D00010784B4642465146D847012D88BFA84431
:1037E00040F2BD8132464B46514620200136D84733
:1037F0004645F7D10A941FE66F2800F0818040F219
:103800004882782800F090810A2723F01003BC46F4
:1038100041E0002606EB860600EB4600A0F13006EC
:1038200011F8010FA0F13002092AF3D90A460991D3
:1038300001322EE6DDE9092151F8046B907802325D
:1038400009920A91013226EAE67622E623F0100078
:1038500013F4806240F021003FF4E7AE12AB0B930B
:103860000B9B0690009308231020059300234246EB
:10387000CDE9023001914B46514658460496FEF779
:10388000AFFF0A958046D7E5582862D0622840F0FD
:103890008F800227BC4613F4806000F0DD8023F0A7
:1038A0000D0313F4007240F081810A990F1D13F487
:1038B000807140F037825C060A9A40F13B811278B1
:1038C000002A40F04E8123F01003002800F04981C7
:1038D000114612AA0B92CDE90553CDE903C6019119
:1038E0000B9B4246009300235146029358464B4699
:1038F000FEF776FF0A9780469EE543F4006329E7CA
:103900000827BC46C7E743F4006343F0200321E7E0
:1039100013F0020300F08E8102230A951E460D4625
:1039200042464B465146D84717F8010F08F10108A7
:103930000028F5D1294633460A9DE3E6D41BC2E6AA
:103940000A46887843F0C0030332D4E50446804633
:1039500046E6102743F02003BC469CE7012D40F2C9
:10396000F880464608F1FF372F4432464B46514611
:1039700020200136D847BE42F7D10A9B324618783C
:1039800051464B46D847A8440A9455E54646A542B9
:103990007FF6BBAEA844A8EB04080C4632464B4663
:1039A000514620200136D8474645F7D12146ACE69E
:1039B00013F4806200F0BB804FF4806223F0110C9E
:1039C0001CF400770A9B4AD11CF4807003F10404B4
:1039D00040F034811CF0400F40F0A3801CF0800FB9
:1039E00000F0D381B3F9001081EAE177A7EBE1772A
:1039F000BFB2CB0F002900F056813A4612A90F46FC
:103A0000DFF8D8E30B910A930C9501E020280FD042
:103A10001546AEFB0213DB0803EB8301A2EB410169
:103A20003031092D1A4600F1010007F8011BEDD8CD
:103A30000A9B0C9DCDE9055CCDE9010304960B9B27
:103A4000424600930A235146039358464B46FEF7DD
:103A5000C7FE0A948046EFE423F00C0321E7073306
:103A600023F00703194608465B6850F8081BDF0F70
:103A70000A9051EA030062D1002A40F09F81134668
:103A8000114612AACDE90C7500201546CDE90E6845
:103A9000DFF848E30B9201E020282DD05A1842F1BC
:103AA0000002AEFB027828F0030707EB9807D21B51
:103AB0001E469B1A61F100070C464FF0CC3101FB0A
:103AC00003F10EFB0711A3FB0E731944052307F046
:103AD0000108A8FB03389B180A2E03F130034FEAB4
:103AE000570774F1000405F8013B00F1010047EAB3
:103AF000C1734FEA5101CFD2DDE90C75DDE90E68E3
:103B00000B9B424600930A23CDE9055CCDE90107F2
:103B1000049603934B4651465846FEF761FE804695
:103B20008AE419780F4664E71027BC46B3E623F011
:103B3000100C45E71C064CBF12881268C0E60A4606
:103B4000191E01DB13469CE75242134661EB41010B
:103B500097E713465146187842464B46D847B04639
:103B600048E613F0200F14BF4120612012ACA64696
:103B70000B940A93A0F10A040C9502E0202912D0BC
:103B80002A46B2FBFCF50CFB1520C3B2092803F151
:103B900030008ABF1B19C3B2DBB262450EF8013B8D
:103BA00001F10101EAD20A9B0C9D94E60A9A0732C0
:103BB00022F00702516852F8084B8E460A9254EAE6
:103BC000010276D123F01003002872D000221146A2
:103BD00012AA0B92CDE905530B9B4246009300239A
:103BE000CDE903C60191029394E7A54298BF013441
:103BF0007FF674AD4FF48063CDE90A7505EB0802DA
:103C00001F460D46141B42464B465146202008F1E4
:103C10000108D847A045F6D13B460A9F2946387887
:103C20000B9D6C1C00283FF470AD002B3FF475AE6B
:103C3000002353E5A542DFD801346EE61968CB0FA7
:103C4000002900F0A88081EAE172A2EBE17212A9DA
:103C50000846DFF888E10B910A930C9501E0202FCC
:103C60000FD01546AEFB0213DB0803EB8301A2EB7A
:103C700041013031092D1A4607F1010700F8011BF7
:103C8000EDD80A9B0C9DCDE9055CCDE90173049646
:103C9000D5E6692823F0100C40F08C8013F4806284
:103CA0003FF48EAE88E6002A3FF4A8AE12AA0B922B
:103CB000C0E613F0200F14BF41226122002012A998
:103CC0000A3ACDE90E68CDE90C35CDF844B0064688
:103CD0008846754693460B91CDF840C003E0202EF0
:103CE00017D004460D4629463A460023204600F0E8
:103CF000E3FCD2B2092A02F1300388BF02EB0B03C6
:103D0000BC42DBB275F1000508F8013B06F1010683
:103D1000E5D23146DDE90C35DDE910CBDDF83C803C
:103D20000E9E57E70A99096851B923F0100338B17C
:103D300012A90B91CDE90553CDE903C60192CFE558
:103D400013F0200F14BF4120612012ACA6460B9443
:103D50000A93A0F10A040C9502E0202A12D0294609
:103D6000B1FBFCF50CFB1510C3B2092803F13000C0
:103D70008ABF1B19C3B2DBB261450EF8013B02F1E9
:103D80000102EAD20A9B0C9DD4E7196881EAE17727
:103D9000A7EBE1772DE6002A3FF459AF12AA0B9268
:103DA00071E713F480640DD013F0020412D00446BE
:103DB0004646ECE50A276346BC466CE512AB00209C
:103DC0000B939DE613F002037FF4E0AD002D7FF42A
:103DD00013AF9AE4002D7FF40DAF96E4CDCCCCCC9C
:103DE00084460CB410B584B006AC54F8043B0A46C3
:103DF0000094614604480394FFF700FB04B0BDE85B
:103E0000104002B0704700BF3927001070B59446CB
:103E10001E4605460C4684B04FF0FF32634602A9A9
:103E200000960348CDE90254FFF7E8FA04B070BDEC
:103E3000BD29001010B5094B84B01C684CB1034675
:103E400000914FF0FF3203A90548A047012004B0BC
:103E500010BD00F065F9204604B010BD94080020A4
:103E6000B529001000BEFDE708B5FFF7FBFF00BF56
:103E700038B5064C064DFEF7EDF9AC4204D254F8C5
:103E8000043B9847AC42FAD338BD00BF104700103E
:103E90001447001003680846114618472DE9F04101
:103EA0001546427D07468846002A46D0002D1DDD76
:103EB0000B780A2B23D0012D4FF0000C18D046466A
:103EC000012416F8012F21460A2A04F1010422D008
:103ED000A542F6D165450BDC08EB050313F8013C60
:103EE000A3F10D03B3FA83F35B093B75BDE8F081E1
:103EF0003B68A5EB0C0108EB0C009847ECE7037D51
:103F0000002BD8D1036802210F489847012DE3D038
:103F10004FF0010CD3E716F8013C0D2BD8D08C459F
:103F200008EB0C00A1EB0C0101DA3B689847022179
:103F300005483B689847A446CAE7294640463B687F
:103F4000BDE8F041184700BFC04E00100B682DE9D6
:103F5000F041802B0D46064605D05A1C2B442A60A2
:103F60001E71BDE8F0810F4B1C68A4B10E4F01F12A
:103F7000040801E0246974B12368002BFAD03B687F
:103F80000BB1A342F6D1204641462A68FFF786FFCF
:103F90002469002CF0D1002301222B442A601E71D9
:103FA000BDE8F08184080020880800202DE9F04752
:103FB00082B00D4691461C460646FDF7ADFE4FF019
:103FC000FF3C6FF000472E4A821841F100039445F0
:103FD00077EB03013CBF62463B462A4800F074FB86
:103FE0006B1C804640D00CB3274F284B1C68B4B1E3
:103FF000B9F1000F1CD1DFF89C9001E0246974B185
:104000002368002BFAD0D9F800300BB19C42F5D1CF
:1040100020462A463146B8472469002CF0D1B8F131
:10402000000F26D1284602B0BDE8F087184FDCE724
:104030004FF00A0ADFF85C9002E02469002CEED011
:104040002368002BF9D0D9F800300BB1A342F4D18A
:104050002A4631462046B847012220460DF1070185
:104060008DF807A0B847E8E7304600F0F3FA0546B8
:10407000B9E7044800F024FB284602B0BDE8F08709
:1040800040420F00D00500209D3E00108408002013
:10409000953E00108808002000207047F0B583B0DE
:1040A00006468DF80700FDF737FE4FF0FF356FF03D
:1040B0000044174A821841F10003954274EB030152
:1040C0003CBF23462A46134800F0FEFA124B07462F
:1040D0001C689CB1114D01E024697CB12368002B60
:1040E000FAD02B680BB19C42F6D1204601220DF18B
:1040F0000701FFF7D3FE2469002CEFD117B9304632
:1041000003B0F0BD034800F0DBFA304603B0F0BD69
:1041100040420F00D00500208408002088080020BD
:1041200038B5044600F096FA012305461A462046A3
:104130002946FFF73BFF084B1C682CB163682BB185
:1041400098472469002CF9D1284638BD2469002CF1
:10415000F4D1284638BD00BF840800202DE9F04185
:10416000A2B004460D46FDF7D7FD4FF0FF376FF0C4
:104170000046264ADFF8A480821841F100039742E6
:1041800076EB03013CBF3A463346214800F09CFAE7
:1041900000272B462246064601A91E480197FFF735
:1041A00035FE019B0546D8F80040C3B1002C2BD04A
:1041B000194F01E0246974B12368002BFAD03B68E1
:1041C0000BB1A342F6D12046019A02A9FFF766FE81
:1041D0002469002CF0D10023D8F8004001932CB1C1
:1041E000636843B198472469002CF9D12EB9284659
:1041F00022B0BDE8F0812469F1E7054800F060FADB
:10420000284622B0BDE8F0810194EFE740420F005C
:10421000D00500204D3F00108808002084080020B1
:104220000FB400B583B004A951F8040B0191FFF756
:1042300095FF03B05DF804EB04B0704700F12F4028
:1042400000F56000030D022B0DD0012B05D0094AAB
:10425000094801EB8301FDF701B9084A064801EB63
:104260008301FDF7FBB8064A034801EB8301FDF724
:10427000F5B800BF8C48001050080020CC48001052
:10428000A84800102DE9F0470F460546FDF7CAF88B
:10429000012297F804A097F905C005F12F4EDFF829
:1042A000D4800EF5600E02FA0AF24FEA1E5EBCF1EF
:1042B000000F58F82E6002F1FF32CAF1200435DBFE
:1042C000A44503DC02FA0CF3334206D04FF0FF346E
:1042D000FDF7BAF82046BDE8F087D5F86831F979DE
:1042E000002B41D14B0731D4644602FA0CF216423E
:1042F00033D13968BAF1000F10D0674601EB4A0A92
:1043000031F8023B07F11209B3F5005F38BF63448F
:10431000514507F1010745F82930F1D1324348F8FA
:104320002E20FDF791F82046BDE8F087002C02DA38
:1043300013E0013C11D302FA04F33342A446F8D14E
:10434000D5F86811FB7991B95B07CED56FF00A04F7
:10435000FDF77AF82046BDE8F0876FF00804FDF716
:1043600073F82046BDE8F087C907BDD5EEE7D90749
:10437000BBD5EBE73C0800202DE9F041D0F86841BF
:104380009DF81860121B1F2A38D84EF29F044EF277
:1043900080054FF4003801EB410C002E18BF254674
:1043A00000EBCC0404F5435400EBCC0C052BDCF8FB
:1043B000DC704FEA410EDCF8CC60C4F80C800CD9FC
:1043C0005401053B44F0A0540532052BCCF8DC40E9
:1043D00002F01F02CCF8D850F2D8714400EBC101B2
:1043E0000020520142EA8363C1F8DC30C1F8D850A2
:1043F000C1F8DC70C1F8CC60BDE8F0816FF004005A
:10440000FAE700BFF0B5012504688D4024EA0504F1
:104410000460B3B3D3E901561F68DC6801EB4103C4
:1044200000EBC303C3F8C8704FEA410CC3F8D06077
:10443000C3F8CC50C3F8DC400CEB01034FF001355E
:1044400000EBC30C4FF0004600EBC30E01230EF54A
:10445000865E0C1D01F108078D40CEF8106003FA4E
:1044600004F4CEF8106002F01F028560BB4000F536
:10447000005004600EF1100E03600020CCF8D8202C
:10448000F0BD4FF480374FF440264FF4F83501EB80
:10449000410400EBC404C4F8C8704FEA410CC4F8EE
:1044A000D060C4F8CC50C4F8DC30C5E710B5054C7A
:1044B00082B001460F23002200940348FCF7FAFF64
:1044C00002B010BDF048001038620220830730B5FA
:1044D00046D08418844604E003F8011B9D0704D0ED
:1044E0009C46A4456346F7D130BD013A0244A2EB95
:1044F0000C02032A29D9CCB20F2A04EB042404EBC2
:1045000004442FD9A2F1100C03F110052CF00F0C6C
:10451000AC44C3E90044C3E9024410336345F8D115
:1045200012F00C0F02F00F0E18D02EF0030CAEF1AB
:1045300004051A469C4442F8044B6245FBD125F021
:10454000030404330EF003022344002ACCD0C9B282
:104550001A4403F8011B9342FBD130BD7246F4E7C5
:104560000346C6E79646E0E7844641EA000313F0B7
:10457000030349D1403A23D30B6803604B6843607F
:104580008B688360CB68C3600B6903614B694361CF
:104590008B698361CB69C3610B6A03624B6A4362B7
:1045A0008B6A8362CB6AC3620B6B03634B6B43639F
:1045B0008B6B8363CB6BC36340304031403ADBD2BB
:1045C00030320BD30B6803604B6843608B688360A9
:1045D000CB68C36010301031103AF3D20C3205D3DF
:1045E00051F8043B40F8043B043AF9D2043208D0B5
:1045F000D2071CBF11F8013B00F8013B01D30B8827
:1046000003806046704700BF082A13D38B07B1D0E0
:1046100010F00303AED0C3F10403D21ADB071CBFB2
:1046200011F8013B00F8013BA4D331F8023B20F81C
:10463000023B9FE7043AD9D3013A11F8013B00F855
:10464000013BF9D20B7803704B7843708B78837001
:104650006046704720F0030110F00300C0F1000035
:1046600051F8043B00F1040C4FEACC0C6FF000024F
:104670001CBF22FA0CF213434FF0010C4CEA0C2C35
:104680004CEA0C4CA3EB0C0222EA030212EACC1215
:1046900004BF51F8043B0430F4D0C2F1000102EA37
:1046A0000102B2FA82F2C2F11F0200EBD20070479F
:1046B000F8B500BF000000005FF800F02102002004
:1046C0005FF800F0E50100205FF800F07D010020B8
:1046D0000123001075220010A9220010952300105C
:1046E000E1220010F921001029230010E52100101B
:1046F0004D1600102D230010C9190010452200107E
:1047000015230010C52200104D150010751500105E
:044710001102001082
:104718002047001009FF0100A08047A000E022A068
:10472800C123A08004650463450000003C470010D5
:104738000EFF0100A08027A0C02001C0420049E070
:10474800C020860000E0C020C0205FE0C0388C0098
:104758006047001009FF0100A08027A0420000FF69
:1047680000FF00FF01FF01EC00C100000A0D5072BC
:104778006F746F746872656164732052503230349C
:10478800302F323335302076312E34200A0D000098
:104798000000000053797374656D20636C6F636B60
:1047A800206F66202575206B487A2063616E6E6FD6
:1047B800742062652065786163746C792061636830
:1047C80069657665640000002558000025780000BA
:1047D80025640000583D2530336420593D25303389
:1047E800642000000A2A2A2A2050414E4943202AE0
:1047F8002A2A0A000A00000048617264776172651B
:1048080020616C61726D20256420616C7265616441
:104818007920636C61696D656400000048617264A9
:10482800206173736572740052656C65617365000D
:10483800626F6F74325F7732357130383000000044
:10484800302E3100322E322E300000007069636F36
:10485800320000007667615069636F320000000023
:10486800536570203135203230323500666E692B41
:1048780000000000666E69006E616E00666E692D4C
:104888000000000050494F203020534D202564205F
:10489800616C726561647920636C61696D6564003F
:1048A80050494F203220534D20282564202D203890
:1048B8002920616C726561647920636C61696D653A
:1048C8006400000050494F203120534D20282564B2
:1048D800202D20342920616C726561647920636C15
:1048E80061696D65640000004E6F20444D4120638E
:1048F80068616E6E656C73206172652061766169AE
:104908006C61626C6500000000000000003E5B4FB7
:104918005B3E3E6B4F6B3E1C3E7C3E1C183C7E3C17
:10492800181C577D571C1C5E7F5E1C00183C180025
:10493800FFE7C3E7FF0018241800FFE7DBE7FF30B5
:10494800483A060E2629792926407F050507407F23
:1049580005253F5A3CE73C5A7F3E1C1C08081C1C96
:104968003E7F14227F22145F5F005F5F06097F018C
:104978007F006689956A606060606094A2FFA29477
:1049880008047E040810207E201008082A1C080845
:104998001C2A08081E101010100C1E0C1E0C303893
:1049A8003E3830060E3E0E06000000000000005F94
:1049B80000000007000700147F147F14242A7F2AB0
:1049C8001223130864623649562050000807030072
:1049D800001C2241000041221C002A1C7F1C2A08BE
:1049E800083E080800807030000808080808000021
:1049F80060600020100804023E5149453E00427F95
:104A0800400072494949462141494D331814127FE3
:104A18001027454545393C4A494931412111090783
:104A28003649494936464949291E00001400000004
:104A380040340000000814224114141414140041D6
:104A480022140802015909063E415D594E7C121193
:104A5800127C7F494949363E414141227F414141CB
:104A68003E7F494949417F090909013E4141517346
:104A78007F0808087F00417F41002040413F017FB7
:104A8800081422417F404040407F021C027F7F047F
:104A980008107F3E4141413E7F090909063E4151C8
:104AA800215E7F09192946264949493203017F01B8
:104AB800033F4040403F1F2040201F3F4038403FB9
:104AC800631408146303047804036159494D4300CF
:104AD8007F4141410204081020004141417F040206
:104AE800010204404040404000030708002054549D
:104AF80078407F284444383844444428384444287B
:104B08007F385454541800087E090218A4A49C78CD
:104B18007F0804047800447D40002040403D007F29
:104B28001028440000417F40007C047804787C0809
:104B38000404783844444438FC18242418182424DD
:104B480018FC7C08040408485454542404043F44C2
:104B5800243C4040207C1C2040201C3C4030403CF1
:104B680044281028444C9090907C4464544C440051
:104B780008364100000077000000413608000201B5
:104B88000204023C2623263C1EA1A161123A4040A1
:104B9800207A38545455592155557941215454781F
:104BA80041215554784020545579400C1E527212B8
:104BB8003955555559395454545939555454580040
:104BC80000457C410002457D420001457C40F029BA
:104BD8002429F0F0282528F07C5455450020545409
:104BE8007C547C0A097F493249494932324848484D
:104BF80032324A4848303A4141217A3A4240207894
:104C0800009DA0A07D39444444393D4040403D3C8E
:104C180024FF2424487E4943662B2FFC2F2BFF09B1
:104C280029F620C0887E09032054547941000044A5
:104C38007D413048484A32384040227A007A0A0A90
:104C4800727D0D19317D2629292F28262929292603
:104C580030484D4020380808080808080808382F48
:104C680010C8ACBA2F102834FA00007B00000814D2
:104C78002A142222142A1408AA005500AAAA55AAFE
:104C880055AA000000FF00101010FF00141414FFB4
:104C9800001010FF00FF1010F010F0141414FC00A6
:104CA8001414F700FF0000FF00FF1414F404FC14B0
:104CB8001417101F10101F101F1414141F001010A9
:104CC80010F0000000001F101010101F101010101E
:104CD800F010000000FF101010101010101010FF3E
:104CE80010000000FF140000FF00FF00001F101755
:104CF8000000FC04F414141710171414F404F4003E
:104D080000FF00F714141414141414F700F7141403
:104D180014171410101F101F141414F4141010F08A
:104D280010F000001F101F0000001F14000000FCFE
:104D3800140000F010F01010FF10FF141414FF14EA
:104D48001010101F00000000F010FFFFFFFFFFF021
:104D5800F0F0F0F0FFFFFF0000000000FFFF0F0F72
:104D68000F0F0F38444438447C2A2A3E147E02022E
:104D78000606027E027E0263554941633844443C7C
:104D880004407E201E2006027E020299A5E7A5990E
:104D98001C2A492A1C4C7201724C304A4D4D303045
:104DA80048784830BC625A463D3E494949007E0130
:104DB80001017E2A2A2A2A2A44445F444440514A4F
:104DC800444040444A51400000FF0103E080FF0096
:104DD8000008086B6B083612362436060F090F06D2
:104DE800000018180000001010003040FF010100FA
:104DF8001F01011E00191D1712003C3C3C3C00001D
:104E08000000000006005250D3F0754230480010F0
:104E180006005250E182887F384800100600525040
:104E28003ABCA9114848001006005250ABB3605371
:104E38004C48001006005250BBFF3CB654480010C6
:104E480006005250861C03025C48001006005250AF
:104E58005422A29D6848001005005250DE65F4688F
:104E6800CC54001000000000000000000000F03FDB
:104E7800000000000000244000000000000059402D
:104E88000000000000408F40000000000088C34080
:104E980000000000006AF8400000000080842E41F5
:104EA80000000000D01263410000000084D7974141
:104EB8000000000065CDCD410D0A00000020202033
:104EC80020202020202028282828282020202020B2
:104ED8002020202020202020202020202088101082
:104EE80010101010101010101010101010040404DE
:104EF800040404040404041010101010101041419C
:104F08004141414101010101010101010101010189
:104F1800010101010101010110101010101042429D
:104F28004242424202020202020202020202020259
:104F380002020202020202021010101020000000F9
:104F48000000000000000000000000000000000059
:104F58000000000000000000000000000000000049
:104F68000000000000000000000000000000000039
:104F78000000000000000000000000000000000029
:104F88000000000000000000000000000000000019
:104F98000000000000000000000000000000000009
:104FA80000000000000000000000000000000000F9
:104FB80000000000000000000000000000000000E9
:084FC800A0F5FF7F01000000CD
:104FD0000C4E0010184E0010244E0010304E0010E1
:104FE0003C4E0010484E0010544E0010604E001011
:104FF0004FF050412DE9F0410027044616461D466A
:10500000D1F8008008E0C1E88F7F8CF3108830462B
:10501000294600F035FAE8B92168EFF3108C72B632
:10502000D1E8CF2F0123002AFAD1C1E8423F002A5C
:10503000F6D1BFF35F8F94F904302168002BE2DAD8
:10504000002384F80480C1E88F3F8CF3108801208E
:10505000BDE8F0810020BDE8F08100BF30B50468F4
:10506000EFF3108C72B6D4E8CFEF0125BEF1000F3C
:10507000F9D1C4E84E5FBEF1000FF4D1BFF35F8FEA
:1050800090F904400568002C10DB0021C5E88F1F53
:105090008CF310884FF0504595F90050A54201D18E
:1050A000084630BDBDE83040FFF7A2BF4FF0504288
:1050B000126800230271C5E88F3F8CF3108801202D
:1050C00030BD00BF0368EFF3108272B6D3E8CFCFD4
:1050D0000121BCF1000FF9D1C3E84C1FBCF1000F56
:1050E000F4D1BFF35F8F4FF0FF0C0023016880F80D
:1050F00004C0C1E88F3F82F3108840BF704700BFF3
:1051000053B94AB9002908BF00281CBF4FF0FF312E
:105110004FF0FF3000F0B2B9ADF1080C6DE904CEEC
:1051200000F006F8DDF804E0DDE9022304B0704782
:105130002DE9F04F8C46099E04460F46002B48D1BE
:105140008A4215465ED9B2FA82F33BB1C3F120021E
:105150009F409D409C4020FA02F217434FEA154EB3
:105160001FFA85FC220CB7FBFEF10EFB117701FB49
:105170000CF042EA0742904207D9AA1801F1FF3722
:1051800002D2904200F258813946121AA4B2B2FB00
:10519000FEF00EFB102200FB0CFC44EA0244A44586
:1051A0000BD92C1900F1FF322CBF01270027A44591
:1051B00002D9002F00F04381104640EA0140A4EBE1
:1051C0000C0400211EB1DC400023C6E90043BDE809
:1051D000F08F8B4206D90EB1C6E9000100210846C6
:1051E000BDE8F08FB3FA83F1002951D16345C0F0D7
:1051F0001681824240F213810846002EE7D0C6E9AC
:105200000047E4E7002A00F0AF80B2FA82F3002BF7
:1052100040F0C2808A1A4FEA154EAFB20121200C2D
:10522000B2FBFEFC0EFB1C2240EA024207FB0CF024
:1052300090420ED9AA180CF1FF382CBF4FF001098B
:105240004FF00009904203D9B9F1000F00F0F0804F
:10525000C446121AA4B2B2FBFEF00EFB102200FBF1
:1052600007F744EA0244A7420ED92C1900F1FF3295
:105270002CBF4FF0010E4FF0000EA74203D9BEF134
:10528000000F00F0D2801046E41B40EA0C4099E782
:10529000C1F120058B400CFA01F400FA01F922FA61
:1052A00005F72CFA05FC8A401F4320FA05F3380C59
:1052B00023431FFA87FE1C0CBCFBF0F800FB18CC44
:1052C00044EA0C4408FB0EFCA4450ED93C1908F135
:1052D000FF3A2CBF4FF0010B4FF0000BA44503D950
:1052E000BBF1000F00F0B880D046A4EB0C041FFA0D
:1052F00083FCB4FBF0F300FB134403FB0EFE4CEA0B
:105300000444A6450ED93C1903F1FF302CBF4FF0E1
:10531000010C4FF0000CA64503D9BCF1000F00F0C2
:105320009F80034643EA0840A4EB0E04A0FB02EC76
:1053300064457346E04602D307D1F14505D2BEEB82
:1053400002036CEB070C0138E0465EB1B9EB0302D7
:1053500064EB080404FA05F522FA01F3CC401D437E
:10536000C6E90054002132E742082F464B08AC46FC
:1053700042EAC172AE46C407110C92B241EA03413F
:1053800042EA0142B1FBF5F1B3FBF5F01F23A2EBBA
:105390000C0241EA004142E79D40C3F120029940DE
:1053A0009C402CFA02FC4FEA154E20FA02F2AFB2F2
:1053B000BCFBFEF80A430EFB18CC110C41EA0C4171
:1053C00008FB07FC8C4550D9691808F1FF302CBF49
:1053D0004FF001094FF000098C4502D9B9F1000FD7
:1053E00030D0A1EB0C01B1FBFEF808FB07FC0EFB73
:1053F000181192B242EA0142624534D2AA1808F169
:10540000FF312CBF4FF001094FF000096245BED2B9
:10541000B9F1000FBBD1A8F102012A44B7E7841A01
:105420006CEB030201201746E7E62C4402382BE719
:10543000ACF1020C2A440CE702392A44A5E62C44BC
:105440000238BAE6A5EB0C0CA8F102006144B1FBEE
:10545000FEF808FB07FCCAE7A8F102083C4444E751
:10546000023B3C445EE7414691E7A1EB0C0140461C
:10547000B1FBFEF808FB07FCB9E700BF704700BFAF
:105480005FF800F0111C0010380A00201000000026
:10549000000000000000000000000000000000000C
:1054A00000000000D80500200000000000000000FF
:0854B0000000000000000000F4
:1054B800D3DEFFFFFE010000FF01000080ACFFFF0C
:0454C800793512AB75
:040000051000014D99
:00000001FF
