:020000041000EA
:1000000000B5324B212058609868022188439860DF
:10001000D860186158612E4B002199600221596106
:100020000121F02299502B49196001219960352056
:1000300000F044F80222904214D00621196600F024
:1000400034F8196E01211966002018661A6600F04E
:100050002CF8196E196E196E052000F02FF8012189
:100060000842F9D1002199601B49196000215960AB
:100070001A491B48016001219960EB211966A021F2
:10008000196600F012F800219960164914480160C1
:100090000121996001BC002800D000471248134993
:1000A000086003C880F30888084703B5996A0420EC
:1000B0000142FBD001200142F8D103BD02B5186610
:1000C0001866FFF7F2FF186E186E02BD00000240BE
:1000D000000000180000070000035F00212200005C
:1000E000F4000018222000A00001001008ED00E03C
:1000F00000000000000000000000000074B24E7A12
:1001000000200420F7010010CB010010CD010010E9
:10011000C9010010C9010010C9010010C901001077
:10012000C9010010C9010010C9010010CF01001061
:10013000C9010010C9010010D1010010D301001045
:10014000C1010010C1010010C1010010C101001067
:10015000C1010010C1010010C1010010C101001057
:10016000C1010010C1010010C1010010C101001047
:10017000C1010010C1010010C1010010C101001037
:10018000C1010010C1010010C1010010C101001027
:10019000C1010010C1010010C1010010C101001017
:1001A000C1010010C1010010C1010010C101001007
:1001B000C1010010C1010010C1010010C1010010F7
:1001C000EFF30580103800BE00BE00BE00BE00BECA
:1001D00000BE00BEF2EB887184690010A4690010B3
:1001E0003802001090A31AE71E481F49086006C88D
:1001F00081F3088810471D480068002801D019487D
:10020000F3E70DA40ECC002902D000F012F8F9E7B4
:100210001749184A002000E001C19142FCD116495B
:100220008847164988471649884700BEFDE701C937
:1002300001C29A42FBD37047A4690010C00000209D
:1002400030030020146C0010000004200000042083
:10025000146C0010001004200010042000000000A6
:10026000704700000000000008ED00E0000000D032
:100270003003002098600220BD590010E5020010F4
:10028000B5590010F8B5C04606480749091A8B1041
:10029000C90FC91810B5491003D0044B002B00D06A
:1002A000984710BD300300203003002000000000FC
:1002B000054B10B5002B03D00449054800E000BFF2
:1002C000FFF7E2FF10BDC046000000002C08002030
:1002D00028600010024A0120136801331360704740
:1002E0005C080020F0B5DE4657464E464546E0B570
:1002F00093B08F480CAB0BAA0AA902F01BFD002893
:1003000003D18C488A4901F0BBFD0C9A0B990A98DD
:1003100002F034FC05F046FC00F0F2FB0523B022AD
:100320000021402000932D3301F0E2FB0823B0228E
:100330000021FA2000932A3301F0DAFB0323B420D2
:10034000B02200210093FF302F3301F0D1FB0F20AA
:1003500001F0EEFC0021412001F0D6FC012001F06B
:10036000DDFC754801F0EEFC0A21412001F0CCFCD7
:10037000724801F0E7FC1421412001F0C5FC7048EF
:1003800001F0E0FC1E21412001F0BEFC6D4801F0AF
:10039000D9FC2821412001F0B7FC6B4801F0D2FCC8
:1003A0000021FA2001F0B0FC022001F0B7FC674800
:1003B00001F0C8FC02F096F80CAB0293644B0024E9
:1003C00000930123634A5B42019402F025FAFA2369
:1003D000059364339946604BA0469B465F4B2500CE
:1003E0009A465F4B260008935E4B09939AE00134CE
:1003F000E4B2280023001422642101F0A9F9A0210D
:10040000002223352DB2EB0F8900A9425341A020D1
:1004100032005B42B9390136FF39400036B21D4027
:10042000230000F045FF3300833B5A1E9341962181
:100430005B4242460A201E4000944346490000F0B9
:100440007FFE434605331BB29846C32B01DD0A23CA
:10045000984605F05FFD069005F05CFD070005F08D
:1004600059FD079005F056FDAF217F2349008C46CA
:100470001F40390018408444079A06981A400340E8
:10048000D2335F311800D2326346FF31009400F05E
:1004900037FD4B46962148469A104900230000F04C
:1004A0005DFC4B4602331BB299469B239B0099454A
:1004B00002DD0F3BFF3B9946C8277F0023009622B1
:1004C0003800059900F096FC059B02331BB205939A
:1004D000BB4201DDF02305935B461A6853461B6857
:1004E0009A421CD05B4652461B68142113600823B5
:1004F000B022FA200093163301F0FAFA5B46099F06
:100500001A680899380005F025FA1421FA2001F03C
:10051000FBFB022001F002FC380001F013FC0A2072
:1005200002F076F80F2C00D061E7002461E7C046A6
:10053000F0490200A4600010286000103C60001028
:1005400058600010686000107C600010946000101B
:10055000D5020010C0BDF0FF5C080020600800203C
:10056000D860001064080020F0B5C6460D001400E5
:100570008118A02200B59200914201DD394C241A65
:100580000126064223D0A0210022890087B28F4293
:100590005241D1B2002A18D1E132AFB2FF329742B4
:1005A0004941002911D129B28A005218D20101B261
:1005B00052182D4957108C46C95D164243D00F2260
:1005C0000A4019010A436146CA550130013C01261F
:1005D000264227D0A02700210219013A92B2BF007B
:1005E000BA4249419046CFB200291AD1A9B28C46ED
:1005F000F021624649008A427F41002F11D12FB27B
:10060000B900C919C9010A001749424457108C465C
:10061000C95D16421FD00F220A4019010A436146E4
:10062000CA55013C6210012C0ADDAC0019016419A5
:100630001943A4010C4B40102018C01803F032FDE0
:1006400080BCB846F0BD0F22914362461943D15594
:100650000130013CBBE70F22914362461943D1555B
:10066000013CDFE77F0200008C080020F0B54E4619
:100670005746DE464546E0B59DB0029326AB1B7853
:100680000C00019327AB197893009B18AF4A80B2F6
:100690009B18179300239C4601339A46E023A2B28D
:1006A000FF339B1A9BB21593130008339BB29946F4
:1006B000060063468C4614900692052B00D1B4E1E7
:1006C000179AD25C099232B29346149AA024D11898
:1006D00089B20800002205910021A400A0425141E6
:1006E000CAB203925A46100099496044891AA0423E
:1006F00000DC61465046A0273040002407900020CF
:10070000BF00BE426041C2B21392069A4F1E0092D1
:10071000159A200008925A4601320F923A005A4424
:10072000129292B29046A02445460022A400A5420F
:100730004241D2B210928A1E904652463A400A92E4
:1007400052460B973A4201D042460B92721E904697
:1007500088444246A0250020002492B2AD00AA425F
:1007600060411192C2B20E9252460A400D92524618
:100770000C910A4200D00C97764A06990492099A85
:1007800009934B46009C089F6546089600930E000F
:1007900026E0012D4DD1F0235B009C4215D2039B36
:1007A000002B12D1059BA1009C460919C901049B8D
:1007B000614448101B5C0D4200D1BBE00F21194081
:1007C000029B1B011943049B19540134009B7F1B9E
:1007D000AE19A4B25208BFB2B6B29C4200D194E0A6
:1007E0005146504611401042D3D1029B019883429A
:1007F000EBD0012D4FD1F0235B009C4249410029F1
:10080000E3D103990029E0D1059BA1009C46091979
:10081000C901504B614448109C461B5C0D4200D1FD
:10082000FBE00F211940019B1B011943634619543A
:10083000CBE7F02331B2481988465B00984200DDCF
:1008400074E02BB29C466346002BBEDDA0239B00C8
:100850009B45BADA079B002B00D07DE0E133FF33E4
:100860009942B2DA411E994201DBE021FF310C9B33
:100870005B1016930D9B002B00D0D9E0009B4046E7
:100880009C46169B002B00DD33E101308142F8DAF3
:100890006346009399E7F02330B2291880465B0045
:1008A00099424FDC2BB29C466346002B8DDDA02382
:1008B0009B009B4589DAA03B9C46984285DA4B1EFB
:1008C0009946634502DBE023FF339946009B16926D
:1008D00018942A00444698464B465D46B146BB46AE
:1008E0001E00170021003A002800019B0134FFF789
:1008F0003BFEB442F6DD434600933B004E465F4666
:10090000169AAB46189C1D005FE7AC469946089EB8
:10091000099B66440133B6B2062B00D0CDE61DB06C
:10092000F0BCBB46B246A946A046F0BD3BB29C46D1
:10093000581888E70F218B431900029B1943049B29
:10094000195442E73BB29C461918ADE7DC61001030
:100950007F0200008C080020F0235B009C46994237
:1009600000DB32E7431E1800634502DBE023FF3360
:100970001800A14619964446060090460B9B1B950D
:100980005B101693029B139D19010B4318931A9742
:10099000E30F002D0ED1002B0CD10F21A200121954
:1009A000D201564F5A445210B85C014002980001DF
:1009B0000143B9540A9A002A14D0002B12D1109B7B
:1009C000002B0FD148226B460F219B18A2001B88D9
:1009D0001219D201494F9B185B10FA5C8A430299A5
:1009E0000A43FA54169A002A0EDD60216B465B1802
:1009F0000021595E0F9B414F5810A3001B199B010A
:100A0000C018381803F04EFB0134B442C0DD424632
:100A10004C46199E1A9F1B9DD7E60F218B43190048
:100A2000019B194363461954CFE6002209924AE616
:100A3000A1465B461893009B8C469B464146199203
:100A4000002910DB0E9B002B0DD1119B0F24984623
:100A500088004018C001294A40444010135CA34359
:100A6000029C23431354169B002B09DC01318C4557
:100A7000E6DA5B460093189B4C469B46199AA4E61F
:100A80005B460093189B88469B4661464C46199AE4
:100A90001A4B1B959C465B465B101893029B654660
:100AA0001801034399465B461A934B46A346914669
:100AB000444688461993189BA0009C460019800163
:100AC0006044169A19992818013403F0EBFAA045EE
:100AD00009DB0D9B002BEED04A464146D946A04685
:100AE0001A9B1B9DA6E71A9B5C464A469B461B9D8C
:100AF0006BE6634680460093CAE7C0468C08002038
:100B0000F0B5D6464F464646C0B581498AB08148C1
:100B100005F0CAF8804906007E4805F0C5F87F490F
:100B200005007C4805F0C0F800210400794805F074
:100B3000A3F80121774805F09FF80221754805F0D8
:100B40009BF80023802299460593F82352025B020A
:100B500002920393C02310221B0302A906A8984601
:100B6000049303F0A5FA3100731C08310A03DB017A
:100B7000134306A9102202A8079303F099FA684BC1
:100B800001270593C0230621DB0210209A46029319
:100B900001F05CF90123102200215E48009705F066
:100BA000FFF83200002102AB5A4805F053F9290042
:100BB0006B1C0D310A03DB0113435A4A0621134013
:100BC0008022D2051343079343460893564B1120C6
:100BD00009935346069301F039F9012311220121AB
:100BE0004C48009705F0DCF82A00012106AB494883
:100BF00005F030F94B4680220593F82352025B0240
:100C0000029203934346102202A906A8049303F01C
:100C10004FFA2200A31C08321203DB01134306A97A
:100C2000102202A8079303F043FA404A404B0621E2
:100C300012200492059301F009F90621132001F016
:100C400005F90621142001F001F90621152001F013
:100C5000FDF80423122202212E48009705F0A0F887
:100C60002200022102AB2B4805F0F4F8012005F028
:100C70003FF9A0260400012005F03AF9F605B44634
:100C80002C4BE502C2022C492B40134319432B4E37
:100C9000A30163441E602A4E80015E609626B60260
:100CA0009E601961274960440A4027492A430A4344
:100CB000264901608021436087600261154A49022C
:100CC00053680B42FCD18021214B89021361114AE8
:100CD00053680B42FCD1E0238021FF3353610D4A5E
:100CE000C90253680B42FCD14023FF339361194B77
:100CF000194AA0211A6001238622A340C905D20007
:100D00008B500AB0E0BCBA46B146A846F0BDC0461A
:100D10001867001000002050F4660010D86600101C
:100D200000020004FFFFFF9F2046004400000C402B
:100D300052024010FD0700FF110001008C08002046
:100D400018002050FD871FFF09801F009801002018
:100D50008F0200000020205007070000F0B5DE469B
:100D600057464E464546E0B5541883B09B46019021
:100D7000A14236DA0123A02200259C460E3386B21A
:100D8000984692005B4696426D41F0271B019946BA
:100D9000174EEDB27F0009E04046514601404846FB
:100DA0000143F154013211B2A1421ADA8AB2BA42B5
:100DB000F8D2002DF6D18B005918019BC9019A4633
:100DC00051444B10F05C824660460842E4D14046F4
:100DD00051468143584601320143F15411B2A142B8
:100DE000E4DB03B0F0BCBB46B246A946A046F0BD6A
:100DF0008C080020F0B5C6461400A0220D0000B5F6
:100E0000920090425DDAF02149008D4259DA0119D1
:100E1000914201DD384C241A0126064223D0A0213C
:100E20000022890087B28F425241D1B2002A18D1E4
:100E3000E132AFB2FF3297424941002911D129B2C4
:100E40008A005218D20101B252182C4957108C4610
:100E5000C95D16424AD00F220A4019010A43614671
:100E6000CA550130013C0126264227D0A027002187
:100E70000219013A92B2BF00BA4249419046CFB23C
:100E800000291AD1A9B28C46F021624649008A4253
:100E90007F41002F11D12FB2B900C919C9010A0031
:100EA0001649424457108C46C95D164218D00F228D
:100EB0000A4019010A436146CA55013C6210012CDF
:100EC00002DC80BCB846F0BD19011943AB005B19C8
:100ED0009B0140101818094BC01803F0E3F8F0E725
:100EE0000F22914362461943D155E6E70F22914301
:100EF00062461943D155B4E77F0200008C080020F8
:100F0000F0B557464E46DE464546E0B587B010ACD4
:100F10002478171A03945C1AE617A51975400195F1
:100F2000FD177E196E40019D894693468246B54263
:100F300065DC824200DBD3E0CF1AFC173F19674023
:100F4000841AA5B224B2A846E50FAC4664446410E6
:100F50008B4200DBD4E0010018000B0011000122DD
:100F60000292BAB29446019AB24271DDF022520066
:100F70009146A0329246704A9346039A1201059216
:100F80004246049262469C46019218E00E331D4090
:100F9000059B1D435B46DD55019BE11A8DB20CB2EA
:100FA000090407D5029B9846049B4644984645444D
:100FB00030B22CB2013211B2614500DDA8E000254B
:100FC00000274B468AB29A426F4186B2FDB2002F8B
:100FD000E2D153469E426D41002DDDD15B468D002E
:100FE0006918C90109184F10DD5D01230B42CDD1ED
:100FF0000F239D43039B1D435B46DD55CCE78B428E
:1010000016DA871AFC173F196740CC1AA5B224B22A
:10101000A846E50FAC4664446410824200DB85E0DC
:1010200008001A0001005B4618000B00110096E74B
:10103000A5B224B2E70F3C19A846370064108242DB
:101040008DDC3E4A0292BAB29446019AB2428DDCDD
:10105000F02252009146A0329246374A9346039AB4
:10106000120105924246049262469C46019217E0A4
:101070000E339D43039B1D435B46DD55019BE11AE7
:101080008DB20CB2090407D5029B9846049B4644D6
:101090009846454430B22CB2013211B2614537DC7A
:1010A000002500274B4686B29E426F418AB2FDB2B0
:1010B000002FE3D153469A426D41002DDED15B46AD
:1010C00085002D18ED0169184F10DD5D01230B42DD
:1010D000CED00F231D40059B1D435B46DD55CDE75C
:1010E000BCB23FB2A046FC0FE41964108B4216DC80
:1010F000ABB29C461300114A080002925146A7E782
:101100001800534611000D4A0292994200DC28E76C
:1011100007B0F0BCBB46B246A946A046F0BD1300DE
:10112000012201002F0048460292EEE71000034A18
:10113000190002924B4614E78C080020FFFF0000C4
:10114000F0B545465746DE464E46E0B55D18A0234D
:1011500085B001920EAA127807000C0090469B0001
:10116000984213DAF0266B1E99467600B14200DBF6
:1011700093E01300019A9246FFF7F6F9B14507DABA
:101180004346524649463800FFF7EEF9AC427DDA55
:10119000F021490089464549A0238C4601218A4611
:1011A0000E3100208B464146BEB29B009E4240411C
:1011B000090100916146C0B2BC462300070022002D
:1011C00008000296039409E05B461940009B19430E
:1011D0008155013212B21300AA4217DA92B24A457F
:1011E000F7D2002FF5D154469900CB18DB016344A8
:1011F0005E10815D1C42E7D15B4699434346013254
:10120000194312B213008155AA42E7DB019B029EEB
:10121000013BF618B3B29B46A0235A4600219B001F
:101220009A42494101239C460E3399464346F02792
:101230001B019A46C346039C1C48C9B27F0000921A
:1012400009E04E4643463340564633430355013288
:1012500014B2AC421ADAA2B2BA42F8D20029F6D1DC
:10126000A3001B19009CDB01A04643445C10065DF3
:10127000B04666461E42E4D14E464346B3435E4600
:1012800001323343035514B2AC42E4DB05B0F0BC89
:10129000BB46B246A946A046F0BDB34200DB75E7A7
:1012A00013004946019AFFF75FF9EFE78C08002029
:1012B000F0B5DE4657464E4645469C460123E0B50E
:1012C00086B2B34689B0059292B29B1A1BB20493C0
:1012D000D3039B1A5B001BB2A02607938BB2D518D1
:1012E0005F4603930023B600B7425B41ADB2A03E18
:1012F0000124DBB2B54200D303E2002B00D000E2B0
:10130000AB005B19DB011B185D10A8464746E04D9A
:10131000EF5D1C4200D0A3E10F239F4363461F43B0
:101320004346EF54039B9C1AA4B2B4420AD2A300D2
:101330001B19DB011B185B10E85C0F24A0436446FB
:101340002043E8545B46F020D4180023039D40005E
:1013500085425B41A4B2A030DBB2844211D2002BA3
:101360000FD188004018C0010019C94E4510745DA6
:10137000C00700D4DDE10F20204064462401204353
:1013800070555846A024801A80B2A400A04211D201
:10139000002B0FD18B005B18DB01BD4C1B185810C4
:1013A000215CDB0700D4CAE10F230B406146090131
:1013B0000B432354059B002B00DC9BE1039BB44EA5
:1013C0005D1E5C1C0023ADB2A4B202930095019493
:1013D000FCE00F27074060460001074348463754AA
:1013E0005846A027C31A002400209BB2BF00BB426E
:1013F00060418146C0B205004846002815D14046EC
:10140000002812D109B2880080464144C901C91898
:1014100048108146305CC90700D45BE10F210140D0
:1014200060460001014348463154F0270020002463
:1014300003997F00891A89B2B9426041C0B28046DF
:101440005046002818D14046002815D18800814612
:1014500089444846C0018146069800B24844441079
:10146000A246345DC00700D43CE10F202040644612
:101470002401204354463055002D13D14046002806
:1014800010D109B288004018C0011BB2C31858100F
:10149000315CDB0700D4FDE00F230B4061460901FE
:1014A0000B4333545B46A020002400219B1880008E
:1014B0009BB283426141F027C8B280460020019D63
:1014C0007F00BD426041C0B2002913D1002811D174
:1014D000A946A9004944C901C9184C10A146375D65
:1014E000C90700D4DCE064460F21394027014C468F
:1014F000394331555946A0278A1A00240021BF00DC
:1015000092B2BA426141CFB2002917D1002815D159
:10151000019908B281000918C9018918481081464B
:101520004C465B488246005DC90700D4BEE00F21EF
:10153000014060460001014350460155F02400205F
:101540000021009D6400A54241414046C9B20028E7
:1015500017D1002915D1A846A8004044C0011BB2EC
:10156000C31858108046444649488146005DDB0751
:1015700000D4A2E00F230340604600010343484625
:101580000355002F14D1002912D1009B12B219B2B9
:101590008B005B18DB019A183D485110435CD20761
:1015A00000D491E00F2213406246120113434354CA
:1015B000009D019C013DABB201340093A3B20193A5
:1015C000029A059B934200DC94E09AB2049B99B284
:1015D000002B09DB531E9AB21BB20593079B023303
:1015E00018B25918079089B202980024013083B2CA
:1015F00000B2029058000130091809B2049159460E
:10160000C81880B205000690A020002780008542FF
:101610006741F8B2B946F0278246002003997F005F
:10162000891889B2B94260414C46C0B28046002C4C
:1016300000D0D5E6002800D0D2E6A9468F007F185A
:10164000FF014F4478108146305CFF0700D5C0E6AB
:101650000F27B84307006046074348463754BFE6A4
:101660000F2364463B40474624012343EB55039B2D
:101670009F1ABFB2B74200D364E6BB00DB19DB019F
:101680001B185B10E85C0F2630402043E85459E6F5
:101690008C0800200F23994363461943315401E716
:1016A0000F218F4361460F43375523E70F218843AE
:1016B000614608435146085540E70F239843634667
:1016C00018434B4618555CE70F2293436246134379
:1016D00043546DE70F2188430100604601434846AB
:1016E0003154A2E60F208443200064462043544630
:1016F0003055C1E609B0F0BCBB46B246A946A0468B
:10170000F0BD039CA51AF024ADB26400A54200D33D
:1017100018E6002B00D015E6AC006419E40124188B
:101720000A4D6310E85CE40700D406E66446240131
:10173000A9E70F20844360460443745521E60F2334
:10174000994363461943215434E6C0468C0800206F
:10175000F0B54E46DE4657464546E0B594B28DB0EC
:1017600008926200019392B28BB2191B561C09B207
:1017700036B2761806938E423DDDA023002785B24F
:101780009B009D427F41A03B9846D24BFFB29C46B6
:10179000012399460E339A46019B00901B013800A5
:1017A0000392A34667463200029308E0534619406D
:1017B000029B1943B955013529B28A4218DD8DB211
:1017C0004545F8D20028F6D18B005B1800994C46AD
:1017D0008C46DB0163445E10B95D1C42E6D1534682
:1017E0009943019B01351943B95529B28A42E6DC78
:1017F0005C46039A009801231B1B1BB252420793BD
:1018000013B20B93089B002B00DC4BE183B20393D4
:101810000323029300230593019BAE4F9B46009741
:10182000079A019493B2002A0BDB2200013A91B28D
:1018300012B208920B9A0191023211B2D3180B9195
:101840009BB2059A013294B212B20592029A944662
:1018500063441BB20793039B019A1B199BB29C46DE
:10186000069B9B1A520001321BB212B2D618B34229
:1018700000DB1EE1F020A0226146002540008046EA
:10188000E038FF3882460E30920081465846914239
:101890006D410001009F19001A00EDB204900993F8
:1018A000009409E04B461940049B19433954013216
:1018B00012B21100964217DD92B24245F7D2002DC6
:1018C000F5D154468B005B18DB0163445810395C3A
:1018D0001C42E7D14B4699435B460132194312B291
:1018E000395411009642E7DC0199039A8C46694607
:1018F000624492B2009C9046069A08254D5F121BE6
:1019000012B2AD18099B0097954200DCEAE0A020D6
:1019100047460021800087424941F0277F00B946B1
:10192000D23FFF3FC9B2BA465F468C4610003F0126
:10193000110004976246009FC4460993A0460A9688
:10194000009009E053461840049B1843B8550131F4
:1019500009B208008D4217DD89B24945F7D2002A45
:10196000F5D1012483001B18DB0163445E10B85DD0
:101970001C42E7D1534698435B460131184309B2F4
:10198000B85508008D42E7DC44460399099B0C1BBF
:101990000A9EA1B2009A8C460097B34200DB9BE0FE
:1019A000A02100246046890088426441A03988460D
:1019B000E039FF398A460E31894659460901009FB0
:1019C000E4B204910995009208E04B461840049B4C
:1019D0001843785501310BB29E4216DD99B241454C
:1019E000F8D2002CF6D152469800C318DB016344AC
:1019F0005D10785D1A42E8D14B4698435B46013151
:101A000018430BB278559E42E8DC039B0199009A7B
:101A10005C1A099DA3B29A460097954238DDA0232F
:101A2000514600209B0099424041012398460E33C5
:101A30009C465B46F0261B019A46009FC0B276008A
:101A4000019109E064464B46234054462343BB546E
:101A500001310AB295421ADD91B2B142F8D20028A2
:101A6000F6D193009B18019ADB0191464B445A1022
:101A7000BC5CA14644461C42E4D164464B46A343A9
:101A80005C4601312343BB540AB29542E4DC009723
:101A9000029B059A02339BB20293089B9A4201DA99
:101AA0009CB2BDE60DB0F0BCBB46B246A946A0460E
:101AB000F0BD0199039A8C466946624492B2904601
:101AC000069A08254D5F121B12B2AD18AA4200DA21
:101AD0001DE7DDE78C080020039B01995C1AA3B287
:101AE0009A469CE703990C1BA1B28C4658E7C04666
:101AF000F0B5DE464E4645465746E0B585B0050092
:101B00000EA800785E188346F0200C004000864244
:101B100004DDE023FF335B1A1BB25E18002B13DDDC
:101B2000A027BF00BD420FDA754B50195B1BB842AE
:101B300000DC7FE0F02252009446AFB2581EEA0764
:101B400009D4614500DA7EE005B0F0BCBB46B24680
:101B5000A946A046F0BD6145F6DAA0210022890021
:101B60008F425241013ED2B29146664500DBBEE053
:101B70006A1C02923A18009292B29446A021002266
:101B8000674689008F425241D2B201920122110070
:101B900001408A46023B024200D0A6E0431098462C
:101BA0005B465A461B011A43009B4746A8464D46D2
:101BB00099460392E30F002D12D1002B10D1A20001
:101BC0001219D2014F4842445210815C00928C4657
:101BD0000F21624611405A4612011143009A815466
:101BE0005246002A12D0019A002A0FD1002B0DD1A3
:101BF0004A460F20A3001B1992B2DB0141499B18F2
:101C00005B10CA5C824358460243CA54002F0DDD64
:101C10006B460C21595E029B3A005810A3001B1919
:101C20009B01C018374BC01802F03CFA0134B44293
:101C3000C0DD89E71300F02252009446AFB2581E6F
:101C4000EA0788D47DE7721E624553DA013FFF1828
:101C5000A026B9B20027B600B1427F418A46F9B248
:101C6000009101210E001E4019423CD15F10002E50
:101C700043D1002F04DC0134A242FADA64E745467E
:101C8000204BA84601936B1099465B46150018013E
:101C900003430293019BA0009C4600198001484425
:101CA0003A0002996044013402F0FCF9A54200DADE
:101CB0004AE7002EEED02A00002C0EDB009B002B02
:101CC0000BD10F25A3001B19DB010E4853445B10F9
:101CD000C15CA9435D462943C154002FCFDC0134C8
:101CE000A242E9DA30E70300C0E7180056E7E02631
:101CF000FF363DE7E022FF32A8E7A846DCE7C04612
:101D00007F0200008C080020024B1880024B1980D3
:101D10007047C0468E60022090600220034A031C78
:101D2000002800D10123DBB21380704792600220AB
:101D3000024B1870024B18707047C0469460022026
:101D400095600220F0B5D6464F464646C0B50278AB
:101D5000040082B0002A22D0364B374D9A46374EC7
:101D60000DE00D2A08D02B88092A1ED19F2292004F
:101D7000934201D204332B802278002A0FD0013401
:101D80000A2AEED12D4B2E4A1B881188DB005B18E6
:101D900013800022284B1A802278002AEFD102B04B
:101DA000E0BCBA46B146A846F0BD19B28C46A020A8
:101DB00031888000844521DA21480027C05F8046B1
:101DC000F0204000804519DAC8B2814640004844FE
:101DD00040006044002811DD4846C000404400280F
:101DE0000CDD4946174B60461B780191164909786E
:101DF00000914146FEF73AFC31882B884A008A1848
:101E000052009B18524612789BB22B80002AB3D006
:101E1000A020800084468A008A1A520062449342BD
:101E2000AADD074BC9001A888918198000232B8066
:101E3000A2E7C046966002208E60022092600220D7
:101E4000906002209560022094600220094A83007D
:101E50009A1810B514684022544080322240064C33
:101E6000C000A44663441A60044B9C466044416031
:101E700010BDC04604C0014004D0014000400140F4
:101E80000FB400B5084883B003F0D8FE049B002BC4
:101E900007D005A91800019103F072FD034803F073
:101EA000CDFE012003F084FDDC600010EC6000102A
:101EB000EFF3108072B6034A1368002BFCD0BFF317
:101EC0005F8F70472C0100D0BFF35F8F0022024B61
:101ED0001A6080F3108870472C0100D070B5EFF3C2
:101EE000108C72B60D4D2B68002BFCD0BFF35F8FAA
:101EF0000724CB08C618C05C01230C40A3401C007B
:101F00000440034207D118433070BFF35F8F2C6049
:101F10008CF3108870BD1000FFF7B2FF2C0100D0C9
:101F2000F8B54746CE46884680B5EFF3108C72B6BA
:101F30001C4D2C68002CFCD0BFF35F8F9A4222D836
:101F400007210126894602E00132934218D34D460B
:101F500037001540AF40D4080119045D2742F3D182
:101F600010003C430C70BFF35F8F00220D4B1A60D2
:101F70008CF3108800280EDBC0BCB946B046F8BD13
:101F800001204042EFE7BFF35F8F00232B608CF30B
:101F90001088012040424346002BEDD00898FFF7FF
:101FA0006FFFC0462C0100D0044A1078431CDBB2FE
:101FB000172B00D9102313707047C0469C010020D6
:101FC0000021044B044ABFF35F8F02C39342FAD14E
:101FD0007047C046000100D0800100D0054B064A82
:101FE0001360064A136053609360D36013615361BA
:101FF000936170478080808000E400E004E400E0AA
:102000001F2318401E3B8340002905D0C021044AED
:102010004900535013607047802201498B50FAE702
:1020200000E100E070B50D00EFF3108672B60F4AC4
:102030001368002BFCD0BFF35F8F0D4B10309B68F3
:1020400084001B590B4A934203D09D4201D001F0FA
:1020500049F8074B9B681D51BFF35F8FBFF35F8F3C
:102060000022024B1A6086F3108870BD240100D054
:1020700000ED00E0C1010010024B9C466144890064
:10208000016070474000003470B5114C114DAC42F6
:102090000FD2FF262368002B0CD0FFF785FF01002D
:1020A0002000FFF7E9FFA680BFF35F8F0834AC4242
:1020B000F0D370BDFFF778FF01002000FFF7DCFFD1
:1020C0002671BFF35F8F0834AC42E3D3F1E7C0461B
:1020D00028030020300300200A4B1968EFF310801A
:1020E00072B60A68002AFCD0BFF35F8F1B68BFF38B
:1020F0005F8F00221A6080F3108840BF002000210B
:102100007047C04658080020F0B5DE4657464E4698
:102110004546E0B587B0EFF30583032201251A4059
:10212000954091008846A946B34B03925C58B34B47
:102130001D60B34B04934B46B24843630823E55EEE
:10214000002D37DAA3881BB2002B00DBADE0A379AA
:10215000002B00D0EEE00823E05E002820DB4300E7
:1021600062691B18DB00D3189E68DD68731C00D100
:1021700011E1A44801004144826A0B69B71A9B1A15
:102180009F4215D30123026A039883401A420FD05D
:102190009C4800F0DDFB8D4202DCCCD18642CAD9DE
:1021A00040BF07B0F0BCBB46B246A946A046F0BD52
:1021B0000E61EDE762696B0092465B19DB009A44A1
:1021C00053469E68DF6800F0C3FB8F42BADC00D143
:1021D00003E1002F00DAE8E05246534652691B69DA
:1021E0009346049A934200D1D9E052460821605E9A
:1021F0005288000459461043984700900191009975
:10220000019A0B001000134300D1CEE013000A0026
:10221000B61A9F41002806DB7A4800F099FB009E21
:10222000019F36184F4153469E60DF6000229A5E40
:10223000002A00DA86E7530099186069C90041183E
:1022400002938B68C9689B46B94200DD7AE702D1E8
:10225000B34200D976E708239C46A4440595654619
:102260002281A446029B2C0006E053009918C90065
:1022700041188D68C968AB469B18DB00C318B9428A
:1022800006DC00D1B3E01C000023E25E002AECDA99
:10229000230064469C4653461A806346059D1D8074
:1022A000A3881BB2002B00DA51E72269EFF31081FB
:1022B00072B61368002BFCD0BFF35F8F0123A78891
:1022C0005B42A3803FB22369BFF35F8F00221A6095
:1022D00081F31088002F00DA39E723000833220049
:1022E0009A4666697B00DB19DB00F3189968504653
:1022F0008C460824115FDD68002910DB029306E09C
:10230000AB4244D00023E15E2000002906DB4C00F4
:102310006418E4003419E368AB42F1DD029B0780E6
:1023200000201F5E1980002FDCDA1400A379002B37
:1023300000D110E70023A37126000823E15E0836D0
:102340004B1C00D12CE70800A246656902E03E0064
:102350004B1C1AD04B005B18DB00EF180A008C46B0
:10236000E95E7B881BB2002BF1DA01235B42DC17AC
:10237000BB60FC60824205D0534631801B893B80A4
:1023800053461A8160464B1CE4D15446E5E6A368E7
:102390006345B7D9C2E76B1C00D0EAE6F8E65B46B6
:1023A00058461B69984700281BD153461B88226951
:1023B0002381EFF3108372B611680029FCD0BFF3BC
:1023C0005F8F514662880A8022696580BFF35F8F04
:1023D0000021116083F31088B4E6864200D8F8E645
:1023E000B0E65B461A685B680092019307E7B34565
:1023F00000D848E74CE7C046440800203C70054040
:10240000092100100040054070B52E4C2569002DB3
:1024100004D00A212C48FFF72FFE70BD2B4E03215C
:10242000300000F08BFAE660FFF7BEFD284B032278
:102430009C46D02322701B061B6801216370254B2C
:102440006044A3600F2380002061022063806369E1
:102450004942A18019800231198647311D835852A3
:1024600018315A5275325C399952183201319952E9
:102470001832013199521832013199520835183207
:102480009D52023118329952183201319952183244
:102490000131995218320131995218320131995251
:1024A0001832013199520C4B0C49DC600130356215
:1024B000FFF7B8FD01210320FFF7A2FD084B1D60C7
:1024C000A7E7C046A00100205808002000400540B2
:1024D00040000034FFFF10004408002009210010D4
:1024E0003860054000487047A001002070B5010029
:1024F0000469EFF3108C72B620680028FCD0BFF39B
:102500005F8F02200D5E4C6968004019C0002418DE
:102510000869002D36DB26884E80BFF35F8F0026CA
:1025200006608CF31088E3606388049801332061AF
:102530005B0405985B0CA26060611A1C002B1FD025
:1025400093B22804628018430A69EFF3108C72B6C4
:102550001368002BFCD0BFF35F8F8B8823808D80A6
:102560000B69BFF35F8F00221A608CF310880B7821
:1025700001329A40CB6808498C4663441A6070BDAA
:102580000122DDE7BFF35F8F002303608CF3108827
:1025900001204042F3E7C0463C20000010B54389CB
:1025A0000A1493421ADD53009B184269DB00D318CA
:1025B0000469EFF3108C72B62268002AFCD0BFF3D6
:1025C0005F8F5A88090494B2090C8A4208D00369C3
:1025D000BFF35F8F00221A608CF31088002010BDBB
:1025E0008022120214435C80012302698371BFF3CD
:1025F0005F8F002111608CF31088044902788C46AB
:102600009340C268012062441360E8E73C20000068
:10261000F0B5C64600B582B0040000F0A1F9FA2278
:1026200006000F00200000230021920001F0D0FCE2
:102630008019794104000D1E02DA01242E4D6442F6
:1026400006267642F71736196F41AF4214D811D0DB
:1026500000F086F932003B00121A8B41002B15DC8A
:10266000002B46D02000290000F084F902B080BC85
:10267000B846F0BDA642EBD90026002700F070F95D
:1026800032003B00121A8B41002BE9DD00F068F9A3
:1026900032003B00121A8B41002B0ADB002301930E
:1026A000164B3200009316483B00FFF71FFF013026
:1026B000D8D000233900B0469C46124A1248536ACB
:1026C000994204D8966A4645CCD29942CAD1066846
:1026D000EFF3108772B63368002BFCD0BFF35F8F27
:1026E0000368BFF35F8F66461E6087F3108820BFC4
:1026F000E5E7002AB6D0C9E7FFFFFF7FD920001029
:10270000A00100200040054058080020F0B55746C1
:102710004E46DE464546E0B506000F0085B0EFF3B5
:10272000058399468B46002B12D0384900204B6A0E
:10273000BB4206D38A6ADB1B591E8B41B242404121
:10274000184305B0F0BCBB46B246A946A046F0BD52
:102750002F4B9A46DB68984653461B7840460393B6
:1027600000F0F6F84246039B040004339B009B589C
:102770000D001B1A39003000001BA941894510DCEF
:102780000DD020BF214A0020536A5B45D9D3926AFD
:10279000DB1B591E8B41B24240411843D1E78342B3
:1027A000EFD900F0DDF832003B00121A8B41002B0C
:1027B0001ADB00230193174B3200009350463B0075
:1027C000FFF794FE011E0FDD104B5A6A5A451BD3CA
:1027D0009B6AB34216D35046FFF7E0FE0B4A002037
:1027E000536A5B45ADD3D2E7084A0020536A5B4584
:1027F000A7D30020926ADB1BB24240415A1E93418C
:1028000018439EE75A45E6D120BFE4E70040054063
:10281000A0010020D9200010F0B5CE464746110097
:1028200080B583B004009C460C9D194300D16CE038
:102830006146DB170193009353401E00019B4B4000
:102840001F0000980199361A8F4163460A996B6000
:102850000B9BAC6029612A606B6100F081F88019E4
:102860007941002902DA0120314940422269EFF31F
:10287000108972B61368002BFCD0BFF35F8F022360
:10288000E65E636972009219D2009B182269904635
:10289000002E42DB1A886280BFF35F8F002247461A
:1028A0003A6089F31088234A9860D9601A615A887F
:1028B0005D6101325204520C111C002A2BD088B2E7
:1028C0003204024359802069EFF3108772B6016821
:1028D0000029FCD0BFF35F8FA1881980A6802369EF
:1028E000BFF35F8F0021196087F3108812482378A7
:1028F0008446013199400120E36863441960EA602D
:1029000003B0C0BCB946B046F0BD00230126002785
:1029100001229C4699E70121D1E7BFF35F8F002395
:10292000136089F31088012200205242E7E7C04675
:10293000FFFFFF7F092100103C20000010B5024A74
:102940000248FFF7CBFA10BDF0600010F00700203E
:102950000300416A0A00986A596A8A42FAD17047AC
:10296000034B596A0A00986A596A9142FAD1704732
:1029700000400540064A536A9942FCD807D1044BEF
:1029800002E05A6A914202D19A6A9042F9D870479D
:1029900000400540F8B5DE464E4657464546E0B590
:1029A0008B4605000A991800160000F0EDFC0A9B02
:1029B0006C001F02324B64199C46A4006444636897
:1029C00081469F4200D967602B1FDBB29846012BDE
:1029D00030D9C02380229B01E31812011A60294BD1
:1029E000AD0059599A4600291BD17301E02622688F
:1029F00053401E40802342465B01E3181E60012ABB
:102A000030D9802380229B01E31812011A605346BB
:102A10004A4667605A51F0BCBB46B246A946A0463A
:102A2000F8BD586900F0B0FC013043001B18033BAF
:102A3000FDD2DAE75B46012BCBD1C02303229B01F9
:102A4000E3181A60023AA3681A42FCD07301E02628
:102A50002268AD0053401E4080230A4A5B01924623
:102A6000E3181E605A462168514003220A401A604A
:102A700001225B469A40A3681A42FCD0C1E7C046D7
:102A800000800040F8070020F0B546464F46D64685
:102A9000C0B51F00344B44009C462418A400644475
:102AA000636888461600FF2B02D880235B006360B2
:102AB000031FDBB29A46012B30D9C02380229B0131
:102AC000E31812011A60294B8500595999460029CB
:102AD0001BD17301E026226853401E4080235246DA
:102AE0005B01E3181E60012A30D9802380229B01FC
:102AF000E31812011A6080235B0063604B465F514C
:102B0000E0BCBA46B146A846F0BD586900F03CFCAE
:102B1000013043001B18033BFDD2DAE74346012B8B
:102B2000CBD1C02303229B01E3181A60023AA368A9
:102B30001A42FCD07301E0262268850053401E40F3
:102B400080230A4A5B019146E3181E6042462168D1
:102B5000514003220A401A60012342469340A26872
:102B60001342FCD0C1E7C04600800040F8070020B7
:102B7000014B8000C0587047F8070020F0B5474669
:102B8000CE4680B55B4B16005A680700884683B076
:102B9000FF2A02D8802252005A600322564B554D1C
:102BA0001A600123AC682342FCD0202229685140DE
:102BB000C0320A4051490A602A684E4D5A400323E8
:102BC00013400B600223AC682342FCD080224C4BA4
:102BD00012011A6080235B006B604A4C99464A4B95
:102BE0003A006361012143464848009600F0D8F955
:102BF00041463800714300F0C7FB454B05005A6859
:102C0000FF2A01D84A465A608022424B12011A60BC
:102C10002169002907D0606900F0B6FB013043004C
:102C20001B18033BFDD2E023394A3B4811680B4097
:102C3000036002231168594001330B4004210360F3
:102C400093681942FCD08021344B0901196080211E
:102C5000334B490051602361264B5A68FF2A00D844
:102C6000596003220121244B1A60224A93681942B9
:102C7000FCD0E0231068034020480360126803235F
:102C80004A40022113401B4A036093681942FCD05A
:102C900080211B4B090119608021224B49005160A2
:102CA00065615A68FF2A00D8596080221E4B1201C4
:102CB0001A60A169002907D0606900F065FB013046
:102CC00043001B18033BFDD2402316490A685A40B3
:102CD000A0331340154A13608022154B12011A606D
:102CE00080235B004B60084BA36103B0C0BCB946B6
:102CF000B046F0BD3C8000403CB000403C900040FD
:102D00003CA00040F8070020006CDC02008002407C
:102D10003080004030B000403090004030A0004093
:102D2000001BB7004880004048B000404890004079
:102D300048A00040F0B54E46DE4657464546E0B551
:102D40001600924A85B09346A022520091465A46F8
:102D500003969B46060001920291019B8C4A934286
:102D60000DD901235B429C468A4AE1449446019B6B
:102D7000634401934B460F2BEFD100208EE01F00E0
:102D8000854B07249C4667442300634338001900A1
:102D9000984600F0F9FAA246651E864250D06C4370
:102DA0003800210000F0F0FA864259D06B1E984698
:102DB000012D00D1D3E05346E41A2100380000F081
:102DC000E3FA864258D0AB1E9846022D00D1B9E0F6
:102DD0005346E41A2100380000F0D6FA864264D047
:102DE000EB1E9846032D66D05346E41A21003800A6
:102DF00000F0CAFA864200D172E02B1F9846042DDB
:102E000000D174E05346E41A2100380000F0BCFA07
:102E1000864200D17DE0052D00D17FE05346380089
:102E2000E11A00F0B1FA06248642ADD10029ABD1F7
:102E3000C8465B46D14601250298039E26E0A84677
:102E40004146380000F0A0FA002900D197E0651E45
:102E5000A2466C433800210000F096FA8642A5D1C4
:102E60002100380000F090FA00299FD1C8465B4647
:102E7000D1460298039E09E00029A4D15246C246D9
:102E80005B46C846554691460298039E42464349D2
:102E900051434A460160012032601D6005B0F0BC1C
:102EA000BB46B246A946A046F0BD0029E6D0EB1EBF
:102EB0009846032D98D1092138000324092500F0F4
:102EC00063FA8642BBD00323062138009A460334B6
:102ED000073D00F059FA8642C2D0012398466AE7BE
:102EE0000029CBD02B1F9846042D00D08AE704245C
:102EF0000C353B099E42A2D004230C2138009A468F
:102F000008340D3D00F040FA8642A9D002239846CD
:102F100051E70029B2D0052D00D07FE719213800F4
:102F2000192500F031FA864226D01421380000F02D
:102F30002BFA052314249A4686421BD0023B98465E
:102F4000153D38E7042302249846BB089E4200D171
:102F500076E7A246013D7B089E4200D180E7B7425A
:102F600000D0FEE60122C8465B4691460125029844
:102F7000039E8BE7042573E7A846052460E7C8464F
:102F80005B46A14625000298039E7FE750262F004E
:102F900050F80C0020D1FFFFB0710B00001BB700F0
:102FA000F8B5040021481E0017000D0000F0ECF9F0
:102FB0000100380000F0E8F9069B36041B031E43AD
:102FC0002368002B20DB1A4B1A49E3185A1E934141
:102FD0008022920194465B421B0B174A1B036344F9
:102FE0001360164A13601F000A689743FBD1144B05
:102FF0002560E2182123A06013602368002BFCDA0F
:103000000823E6601360F8BD3F2322681340AB42FB
:10301000D9D1A3681B051B0D8342D4D1EE22E368EE
:10302000D2021340B342CED1EDE7C046001BB70039
:103030000040FDBF08C0004000E0004000F000403C
:10304000043000008023024A9B000B43D362704788
:1030500000800540002310B50100988A1B8B98471B
:1030600010BDC046162310B50100188802331B8816
:10307000984710BDF8B54746CE4680B50F1E18D00C
:1030800014239946043304000025012698464B4634
:103090001888434621681B88984701C4431E9841FD
:1030A00001350640AF42F2D13000C0BCB946B0464F
:1030B000F8BD0126F8E7C046AA23064A1B011360A3
:1030C0008D235B00D3600449044B19605368002BC7
:1030D000FCDA70470040024000B0FA000060024095
:1030E0007047C04610B50148FEF7CAFE14610010D3
:1030F00070B5074D074EB54209D20024013E761B3C
:10310000B60808CD984723000134B342F9D170BD09
:10311000E85F001024600010054B064A06491A605B
:10312000064A074B1A6010000B689843FBD17047A2
:1031300000E00040BFCDFBFE08C00040FE7F3C0029
:1031400000F00040044BDB6C002B03D18022034BCA
:10315000D2021A607047C046000011504C20115036
:10316000044A054B1A60054A1368DB018033FBD122
:103170007047C046FFFFFF0100F0004008C000405C
:103180004022034B9A675A671A67DA667047C0464F
:1031900000F0014010B5FEF713FF10BDF8B5274948
:1031A000274C284D641AA6103200302E00D9302248
:1031B0002800920000F07CFFBC2C3BD830202F234D
:1031C0002C196407204A801BE40F9B1B052B16D982
:1031D0003700002C02D0B300771CEA50001B3319D3
:1031E0009B004108EB18C900C9181A605A600833DF
:1031F0009942FAD1012303421CD09843C619B30067
:10320000EA50731C2F2E15D09B00EA50B31C2E2EB3
:1032100010D09B00EA50F31C2D2E0BD09B00EA50DF
:10322000331D2C2E06D09B00EA50731D2B2E01D08F
:103230009B00EA50054B9D60F8BDC04600010010A0
:10324000C001001000000020C101001000ED00E0EE
:10325000002310B5294C82B0A367FFF72DFF012290
:10326000274B1A60636C012BFCD10322254B1A609B
:10327000224A936B012BFCD1013300930121224A96
:1032800022480433FFF78CFE052301210093204AD6
:103290002048FFF785FE0022022104201E4BFFF785
:1032A000F3FB0022012105201C4BFFF7EDFB002260
:1032B000002107201A4BFFF7E7FB0022002108201E
:1032C000174BFFF7E1FB8023DB0000930022002176
:1032D0000920134BFFF75EFB0022104B0021062054
:1032E000FFF7D2FB0420FFF743FC0E4900F04CF837
:1032F00001000020FFF7A6FE02B010BD00800040D4
:103300003CB0004030B00040002F685900800240BF
:10331000008C864700C00240001BB700405973076D
:10332000006CDC0240420F0001480421014B1847A9
:10333000C001002075300010124A936F9B0815D20F
:103340009066D166002905D0FFE7FFE7FFE7516FE0
:10335000106F704704B580210906C217514000283C
:1033600000D0C84302F030FE002104BDF0B5146E59
:10337000556E576F166FFFF7E3FF14665566576774
:103380001667F0BD000000D0114A936F9B0813D25E
:1033900010665166002905D0FFE7FFE7FFE7516F90
:1033A000106F704704B5002801D00020C04302F020
:1033B0000BFE002104BDC046F0B5146E556E576F6C
:1033C000166FFFF7E5FF1466556657671667F0BD81
:1033D000000000D094464A4A926F9208624601D299
:1033E00028E0C046F0B5464E346E756E776F366F86
:1033F00000F020F89446424A1466556657671667EF
:103400006246F0BD94463E4A926F9208624601D2EF
:1034100054E0C046F0B53A4E346E756E776F366F35
:1034200000F04CF89446364A14665566576716679E
:103430006246F0BD002B24DB11D000293EDA00B536
:10344000C943404200D1013100F038F8C94340423D
:1034500000D10131DB43524200D1013300BD002ACB
:10346000EBD1002801D1002905D00020C90FC907E0
:1034700001D1C043410800B502F09EFD00220023A7
:1034800000BD00B500290ADBDB43524200D1013305
:1034900000F014F8C943404200D1013100BDC943D6
:1034A000404200D10131DB43524200D1013300F0F0
:1034B00005F8DB43524200D1013300BD002923D17E
:1034C000002B18D1002A0CD0BC460D4F38667A6606
:1034D00000210023FFE7FFE7FFE77A6F386F6746B9
:1034E0007047002801D00748010000B502F064FDD4
:1034F0000022002300BD02000B00002000217047C5
:10350000000000D0FFFFFFFF002B00D0BFE0130C36
:1035100028D1002AE7D080B4114F39667A66FFE7D8
:10352000FFE730B4040C7B6F396F1B0423433B6609
:103530007A66FFE7FFE7FFE7C04684B27B6F3D6F27
:103540001B0423433B667A66FFE7FFE7C046002380
:103550002C042D0C7A6F386F00196941B0BC70478C
:10356000000000D0F0B594460025140E01D11202DF
:103570000835140F01D112010435940F01D19200C6
:103580000235D40F01D152000135D40B0134254F3F
:103590007C66254C3C660E0C93B2FFE7FFE7FFE725
:1035A0003C6F6643360C7703BE467343DF0B5B0408
:1035B000C01AB941130C7343DB18C91ACE0866430D
:1035C000360CB64493B273431F0F1B01C01AB941A6
:1035D000130C73431F0B1B05C01AB941860D8F02D4
:1035E0003E436643360C092D24DB520A7243801A8F
:1035F0007703460A6643360C16235B1BDE40DF402A
:10360000BF1964466643821B7046043506330100C9
:10361000D940A840C01900D30131A24206D20023EC
:10362000F0BD0000000000D0FFFFFFFF121B0130C3
:10363000F3D3F1E709277F1BFE406446A2B2724331
:10364000801A00D20139220C7243130C1204821A20
:1036500099410B007046043513370100F940A8402A
:10366000801900D30131002B02D1A2420AD2F0BD51
:10367000013000D30131121BFAD2013BF8D1A24232
:1036800000D2F0BD013000D30131121BF7E7F0B5D5
:103690001C0C00D080E00CB400251C0A04D11B02D5
:1036A000160E3343120208351C0B04D11B01160FF2
:1036B0003343120104359C0B04D19B00960F334316
:1036C00092000235DC0B02D192185B4101351C00DF
:1036D000971864410134464F7C66464C3C660E0C9C
:1036E000FFE7FFE7FFE7C0463C6F6643360C770312
:1036F000BE4697B27743C01B00D20139C01B00D22F
:1037000001399FB27743C91BC91B170C77437E044D
:10371000FF0B801BB941CE086643360C0C2D33DB02
:10372000B644120B1F053A431B0B97B27743C01BDD
:1037300000D201399FB27743C91B170C77433E046F
:103740003F0C801BB941860D8F023E4366432927FB
:103750007F1BFE400C3D7746AF40BF1930BCA2B284
:10376000ABB272437343801A9941220C7243130C1B
:103770001204801A994102000B000137001BA94175
:10378000F9D2781E0021F0BD0C277F1BFE40774642
:103790007F0BAF40FF19E0E700245D1C07D0144FFA
:1037A0007D663966FFE7FFE7FFE7FFE73C6F95B20D
:1037B0009EB265436643401BB141150C1E0C654328
:1037C000664336042F0C3E432D04401BB141994201
:1037D00004D202000B0020000021F0BD01D1904274
:1037E000F7D3801A994101349942F2D3F6E70000E9
:1037F000000000D0FFFFFFFF48404140484018B4A0
:103800001B4B5B68FC46019308BD04DFA33A001024
:1038100018B4174B1B68FC46019308BD00DFAD3A96
:1038200000109446134A926F920809D2624618B467
:103830000F4BDB68FC46019308BD0CDF653D0010B3
:103840000C4AF0B5146E556E576F166F6246FFF74F
:10385000EEFF084A1466556657671667F0BD18B440
:10386000034B9B68FC46019308BD08DF093C001030
:10387000B0040020000000D0FFB55040424050404E
:1038800059404B40594000E0FFB5154F4C00640DC6
:1038900003D0BC4204D10C0314D80020090D090543
:1038A0005C00640D03D0BC4204D11C030AD8002282
:1038B0001B0D1B0501264B4009D44B4003D58B4201
:1038C00000D18242FFBD9942FCD19042FFBD0B4323
:1038D000DB1803431343F5D0C9434918FFBD00006B
:1038E000FF07000000B5FFF7CFFF804100BDC046D5
:1038F00000B5FFF7C9FF01D9002000BD012000BDC0
:1039000000B5FFF7B9FF01D9002000BD012000BDBF
:1039100000B5FFF7B1FF804100BD012040054A001E
:10392000121804D85A00121801D80020704701203C
:10393000704700000021002805D17047C11748409A
:10394000401AFAD0C90713B5064B1B6898470CBC40
:10395000441CA2401005120B0349091B0905194319
:10396000114310BD540800201F04000010B54C0086
:10397000620D8023D218DB00D21A5B057E2A10DD8F
:103980009E3A13DACC170903490819435242D14031
:10399000640001341532202A05DAD0400843604320
:1039A00010BD002010BD0846604310BDC80FC018F0
:1039B000013810BD18B4044B5B6AFC46019308BD86
:1039C00024DF153F00100000B0040020132370B561
:1039D0001D78012D19D014DD1F48FFF743FB0600A9
:1039E0001E48FFF73FFB1E4C80223100200000F0F4
:1039F0005FFB022D2DD01B48FFF72CFB1A4B1860E4
:103A000070BD1A4B164CA364F5E7184B144C236099
:103A10006360A360E36023616361A361E361236288
:103A20006362A362E36223636363A363E363236468
:103A30006364A364E36423656365A365E365236648
:103A40006366A366E36623676367A367E367A364AC
:103A5000D1E7064BA364CEE7534400005346000071
:103A6000B00400204C33000054080020713A0010CC
:103A700007B5604601880A0A0230DF2AFAD1C9B2C6
:103A8000820804D3028840880004104300E00068E4
:103A9000014A5050039007BDB00400200FB403BC8E
:103AA0000CBCF0B50124E407634000E0F0B50C0D58
:103AB000CF0F661E3605891B640503D3C9434042F8
:103AC00000D30131640D03D0661CF60A07D0E41B55
:103AD00000207F00791C89078912803C24031D0D7A
:103AE000DF0F6E1E36059B1B6D0503D3DB43524271
:103AF00000D301336D0D03D06E1CF60A07D0ED1B09
:103B000000227F007B1C9B079B12803D2D032F1BF7
:103B1000661B58D4A446202E46DA20371400BC4039
:103B20001D00BD40F24033412A4380185941CB0F5C
:103B300005D0C943C043002264425041514162460E
:103B40004D0D28D10D0D07D100281FD0241940415B
:103B50004941013A0D0DF9D0640006D3013000D37C
:103B60000131002C01D140084000013A0BD4941CD3
:103B7000E40A04D112051144DB071944F0BDD9074A
:103B8000204B194300E0D9070020F0BD0029DDD10A
:103B9000002CDBD1F0BD0132C6074008CD07284319
:103BA0004908002EE1D0D9E73C2E29DA203E4037E3
:103BB0001400BC4000D00124F24014431A00BB4062
:103BC0001C43D317ACE7AC46202F08DA203604009C
:103BD000B4400D00B540F84039412843A5E73C2FDB
:103BE0000CDA203F40360400B44000D00124F840F5
:103BF00004430800B1400C43C117EAE71000190064
:103C0000002494E70000F07FF0B50C0D661E360529
:103C1000891BE60A6405640D02D0651CED0A04D018
:103C2000002001210905803C2403A4461C0D671EC9
:103C30003F05DB1BE70A6405640D02D0651CED0A35
:103C400004D0002201231B05803C240377406444F8
:103C500097B484B296B27443070C7E43150C6F433D
:103C600080B26843361802D3012000043F183004A4
:103C7000350C00197D41844688B29AB250430C0C31
:103C800062431F0C7C438EB27E43921902D30126FD
:103C90003604A4191604170C3618674101BC81B20A
:103CA0009AB25143040C62431B0C5C4380B25843EC
:103CB000121802D30120000424181004130C401819
:103CC00063412D185E410020474106BC88B293B283
:103CD00058430C0C6343120C544389B251435B1894
:103CE00002D301210904641819041A0C091862414D
:103CF0006D1856410020474118BCF902720D11435E
:103D0000F0026A0D1043ED020A0D03D16D19404116
:103D10004941013B124E9B1B7600B3420ED26D000F
:103D200007D30130002671416646354301D1400872
:103D300040001B05C918E4072144F0BD0BDA01332C
:103D400006D1013004D101314F0D01D04908F2E70D
:103D5000E1070020F0BD013631050020EBE700004F
:103D6000FF030000F0B51C0D671E3F05DB1BE70AD3
:103D70006405640D02D0661CF60A04D000220123FB
:103D80001B05803C2403D0252D060026F6432E6615
:103D90001E096E66CE0FF619B44649004F0D02D0CB
:103DA0007E1CF60A03D000200021403F3F033E1B4B
:103DB000B600B444013F7F05C91B49082E6F013688
:103DC00076089C02950D25437543ED137543AD139D
:103DD00001356D10F603761B0CB4CC02450D2C4357
:103DE000A2B2B3B25A43270C7B43350C6F43A4B243
:103DF0006C431B1902D3012424043F191C041D0C1D
:103E0000A4187D4124196D41009A91B2ACB261436E
:103E1000170C7C432B0C5F4392B25A43A41802D375
:103E200001221204BF182204230C52187B41019C6A
:103E30006C431B19520ED9010A434401A01A81B2E6
:103E4000B2B2514303145A43360C734387B27743DB
:103E5000D617D21900277E4136049B191704160C79
:103E60007F185E417316ED18F3010026803375410B
:103E7000A90F06D16400690AE8055B0A184309D254
:103E80002FE00422944480337541A90AA8059B0AB7
:103E9000184326D3404149412404009A019B0D0058
:103EA0005543641B4343E41A95B286B27543170C1D
:103EB0007E43030C5F4392B25A43B61802D30122E9
:103EC0001204BF183204330C52197B4152429C41F8
:103ED000002C02D40022013051414008CA0710438F
:103EE000490802B06246D7079210084BD218084B17
:103EF0009A4203D212058918C919F0BD0020002A80
:103F000001DC3900F0BD01331905F5E7FD030000C0
:103F1000FE070000002200B5203200F004F808007F
:103F200000BD000000220B150AD410B5944600F025
:103F300031F81414013400DA0021CB17144C204757
:103F40000020002170476244343A0CD40C2A07DA6E
:103F500004009140904052422032D440214310BD91
:103F6000D843D94310BD203207D40C469440524266
:103F700020321141D040204310BD0800C917203223
:103F800003D452422032104110BD1800190010BD58
:103F9000473F00100A0DCC0F531E1B05C91A5205CE
:103FA00003D3C943404200D30131520D03D0531C07
:103FB000DB0A07D0121B00206400611C89078912EC
:103FC000803A1203014BD21A70470000FF03000031
:103FD00051434343C9188C46110C83B24B4310B470
:103FE000040C614392B280B2504362431C041B0C28
:103FF000001910BC59411304120CC01851416144FE
:1040000070470000132310B512481C78FFF72AF8F8
:104010000100012C0AD003DD80220F4800F048F88F
:104020000E48FFF717F80E4B186010BD0A4C5422CB
:10403000200000F03DF80B4B6365A365E365236644
:104040006366A366E36623676367A367E367236228
:10405000E361E5E753460000B00500204C33000063
:10406000540800206940001007B5604601880A0A1C
:104070000230DF2AFAD1C9B2820804D3028840880C
:104080000004104300E00068014A5050039007BD4F
:10409000B005002001480421014B1847D001002041
:1040A00075300010014B1B6818470000D00100203C
:1040B000014B5B6818470000D00100209A4200D2F3
:1040C000885470477047C046F8B55746DE464E469E
:1040D0004546E0B599460A9B07009A460D9B8846DF
:1040E00093460B9C9B073BD10C9B9C423DD21E1BD5
:1040F0000B9415000C005E442A004B46013521004C
:104100002020B847B542F7D1A0460B9C002C20D008
:10411000454636195346321B013C185D29004B4673
:10412000B847002CF6D12B00350098460D9B9B0715
:104130000FD55B46EC1A0C9BA3420AD9464698461B
:104140002A004B46310020200134B8470135444550
:10415000F6D32800F0BCBB46B246A946A046F8BD3F
:1041600016001500002CD3D1E0E716001500002C36
:10417000CED1EEE7F0B54546DE4657464E46E0B5B1
:1041800085B09C4610AB1B78149F934698460F9CB5
:10419000129E139DBB074CD4002D42D1B44248D28D
:1041A00001233B4099460E9B013B9A46302304E095
:1041B000524601341355A64201D9202CF8D14B4662
:1041C000002B00D183E00E9B013B99463023A54292
:1041D00005D82EE04A4601341355AC4229D0202C94
:1041E000F8D1FB060CD57B0554D4A64263D0A5427A
:1041F00061D0119B102B50D0022B57D0202C32D1E4
:10420000202301930E9B5A46009303976346029521
:10421000FFF75AFF05B0F0BCBB46B246A946A04620
:10422000F0BD01233B40994601233B422AD1B442D1
:10423000B9D3FB061CD57B05DBD4002CD5D1119B53
:10424000102B5BD0119B022B6BD0302301240E9AD4
:1042500013704346002B10D17B073ED52B260E9AB8
:10426000631C1655CDE72300013430260E9AD65430
:10427000202CC5D04346002BEED02D260E9A631C71
:104280001655BEE74346002B2FD0013DB44200D265
:1042900089E798E7119B102BB2D1BB0637D5202CAC
:1042A000AED058230E9A13550134A7E7202CA7D07F
:1042B0002300013407E0631E012CC0D0119A102A9C
:1042C00031D0022AD1D162260E9AD65496E7FB0647
:1042D000CED57B0500D488E78BE723003E0790D539
:1042E00020260E9A013316558BE70C233B405A1EAD
:1042F0009341ED1AB44200D255E764E7BB060ED4F1
:1043000078230E9A0224137030235370A1E7202CD7
:1043100000D175E778230E9A135501346EE75823C0
:10432000EFE76033EDE70E9AA61E91464E44BA06BB
:1043300002D55822327098E77822327095E7C0464D
:1043400010B5002800D110BD01F02EFCFBE7C046DF
:10435000F0B55746DE464E464546E0B595B0834635
:104360000F00924698461E9A1F9B10001900209E2F
:10437000FFF7D3FA002800D0EAE11E981F99012226
:10438000C54B5242FFF7AEFA002800D014E11E9848
:104390001F990122C14B5242FFF7BAFA002800D000
:1043A000E9E01E981F990022BD4BFFF7B1FA0028E3
:1043B00000D0C8E01E981F990022BA4BFFF792FA6E
:1043C000002800D0BFE01E981F9900220023FFF7AD
:1043D00089FA002800D0E4E000230B93229B5B05C0
:1043E00000D406260024302307E0172106AA013452
:1043F00052181355013E202C01D0092EF5D81E98D5
:104400001F99FFF7B3FAA84BF2009B181A685B6874
:10441000050008920993FFF791FA02000B001E981D
:104420001F99FFF7ECF9089A099BFFF718FA069015
:104430000791FFF7BFFA8146FFF77CFA02000B00F5
:1044400006980799FFF7DBF90022984B0690079131
:10445000FFF75EFA002800D10DE101239C46E144FC
:104460004846FFF767FA02000B0008980999FFF722
:104470003FFA002802D0002399460135002E00D1D2
:10448000D9E006954D46B94614E006AA944617238E
:104490000A216344280001341F19FEF775FF3031EB
:1044A000397028000A21013EFEF76EFF092D00D861
:1044B00017E10500202CE8D14F46069D20240CAEC4
:1044C00006AA17239446634499465B46B34606936F
:1044D0000FE04B4628000A210134E618FEF72CFFB6
:1044E0003031280031700A21FEF726FF051E00D169
:1044F000E4E0202CEDD1069B5E469B460323229AE6
:104500001340012B18D1219B002B15D00B9B002BA6
:1045100000D1FDE0219B013B2193202B0CD93023BE
:10452000219A07E0172006A9013409180B55944277
:1045300000D3CCE0202CF5D1229B01940393219B46
:104540000096029322E0229B52460493219B39005D
:10455000039358461E9B1F9C02960093019443466A
:1045600000F04AF90400200015B0F0BCBB46B2468A
:10457000A946A046F0BD229B5B070FD403224C4BFB
:104580002299019203912199009302914346524648
:1045900039005846FFF798FD0400E4E70422454B34
:1045A000EEE71E9A1F9B00200021FFF728F9012348
:1045B0001E901F910B9311E7229B54469B0711D12C
:1045C000219B042B0ED9219B55469C465E46043CFC
:1045D00064442A004346013539002020B047A542F3
:1045E000F7D1B346344D26002B1F99465B46A346B0
:1045F0001C003200E87843463900013DA0470136EF
:104600004D45F6D123005C469B46229B04349B0714
:10461000A9D55346219AE31A9A42A4D95E461500B9
:104620002200434639002020B04753460134E31AA4
:104630009D42F5D897E72800FFF780F902000B00AC
:104640001E981F99FFF7DBF80022184B0690079180
:10465000FFF748F90CAE002800D031E7069807991B
:104660000022124BFFF754F9002800D028E701235D
:1046700001359D4324E70022069807990B4BFFF76D
:1046800031F9002800D0F9E64B46002B5CD101231C
:104690009C46E144F2E6C046FFFFEFFFFFFFEF7FDD
:1046A00065CDCD4165CDCDC1306900100000E03F42
:1046B0006C6100106461001074610010069B5E461E
:1046C0009B460323229A1340012B00D181E0202C2A
:1046D00000D131E70B9B002B27D02D23335501341C
:1046E0002AE74F46069D202C00D1E7E630223319F9
:1046F00007E0172006A9013409180A55202C00D11B
:10470000DCE6A342F5D12E220CAE0134F254D7E6FA
:104710000C23229A134257D0219B013B2193A342A1
:1047200000D9FCE6202C00D106E7229B5B0703D5CD
:104730002B2333550134FFE6229B1B0700D4FBE6F5
:10474000202333550134F7E6DB0700D496E69EE7D5
:10475000229B55469B0711D1219B032B0ED9219BF0
:1047600054469C465E46033D654422004346013460
:1047700039002020B047AC42F7D1B346B9465F4676
:104780001C4EEC1C2A00B078434649460135B84718
:10479000013EAC42F6D1229BBB464F469B0700D45C
:1047A000E1E65346219AE31A9A4200D8DBE65E46D8
:1047B00015002200434639002020B04753460134FB
:1047C000E31AAB42F5D3CEE6219BA34200D9A6E67D
:1047D000B2E6219B002B00D179E70B9B002B97D0F1
:1047E000219B013B21939C4200D298E6202C00D0D3
:1047F00073E7A1E670610010F0B5DE4657464E46FD
:104800004546E0B599B081468B4692469846229A35
:10481000239B10001900FFF780F8002800D0CAE0A1
:10482000229823990122824B5242FFF771F8002807
:1048300000D0C0E02298239901227E4B5242FFF71C
:1048400051F8002800D0B6E02298239900220023D6
:10485000FFF748F8002800D0C9E1229B239C089369
:104860000994089809998023269ADB001A400D9232
:104870008022269C1201144022000B94269C0700E3
:104880000E001C4200D0ADE00B00034300D0D5E089
:10489000002A00D00AE222000633249302231340A8
:1048A0000C930223134200D002E2259B042B00D27A
:1048B0000FE2043B0B93002304250A930022229865
:1048C00023990023FFF70EF8002800D003E25A4B8B
:1048D000269A134004930B9B0393249B0293089BFB
:1048E000099C009301945946434652464846FFF7B7
:1048F0002FFD02002020269B1F27034059424B41D9
:104900005B421840531C0893594643464530C847FC
:104910000A9AD317D4185C40D30F0A936B1E0B93DB
:1049200008AB9C460025674401E0202D0FD02000F5
:104930000A21FEF729FD01357E1930313170200042
:104940000A21FEF721FD26000400092EEDD80523DB
:1049500006930B9B59460593002304930A33039354
:104960000A9B4846029310AB0093089A4346019570
:10497000FFF700FC0C9B002B2DD05346C41A259B3F
:10498000A34228D94D465F4681461E005346390052
:104990001A19202043460134A847A642F6D85346A8
:1049A00048462599C21A01320023914200D386E17C
:1049B000013018180FE0269B0493259B0393249B3A
:1049C0000293229B239C00930194434652465946EE
:1049D0004846FFF7BDFC19B0F0BCBB46B246A9463D
:1049E000A046F0BD01432BD10B9B2200002B00D130
:1049F00054E700230A93249B0A9A0024934200DD83
:104A000085E12298239900220023FEF76BFF0028FE
:104A100000D035E1269B084A02941A408023DB002F
:104A200013430493259B0393089B099CCBE7C04643
:104A3000FFFFEF7FFFFFEFFFFFF7FFFF062324934A
:104A4000B44B70009C46400D6044FEF777FFB24ABD
:104A5000B24BFEF704FFB24AB24BFEF7D9FE360363
:104A6000B14B360B334304000D003800190000220F
:104A7000AE4BFEF7C4FEAE4AAE4BFEF7F0FE0200B0
:104A80000B0020002900FEF7C3FEFEF76FFF0A901F
:104A9000FEF754FFA84AA94B04000D00FEF7DFFE05
:104AA0000022A74BFEF7B4FEFEF760FFA54A060002
:104AB000A54B20002900FEF7D2FE040030000D00B7
:104AC0000C96FEF73BFFA14AA14BFEF7C8FE020081
:104AD0000B0020002900FEF792FE02000B000600EA
:104AE0000F00FEF7BCFE320004000D003B0030005A
:104AF0003900FEF78DFE00220E900F91954B20009D
:104B00002900FEF78EFE0022934BFEF781FE020085
:104B10000B0020002900FEF784FE00228F4BFEF7D9
:104B200077FE02000B0020002900FEF77AFE0D0040
:104B30008021040032003B000020C905FEF75FFE23
:104B400002000B0020002900FEF762FE02000B00AD
:104B50000E980F99FEF765FE0022734BFEF758FE84
:104B60007F4B0C9C9C46644400222305FEF777FE95
:104B700006000F0002000B0008980999FEF7B2FE2C
:104B800000280AD00A9B3000013B39000A9300221A
:104B9000714BFEF746FE06000F000A9A330063329F
:104BA0003900C62A12D802222698042510400B9AF2
:104BB0000C90002A25D1259B042B05D9002800D074
:104BC000A1E0259B043B0B93042541E0022226989B
:104BD00010400B9A0C90002A12D1259B052B76D9F8
:104BE000002872D1259B0525053B0B9334E08022DC
:104BF00012069446229B0893239B6344099330E654
:104C000005250B4300D1F6E608980999554A564BFD
:104C1000FEF776FE002808D0089809990022534B29
:104C2000FEF760FE002800D0E5E6249B002B1CD098
:104C30000D9B002B19D0249B013B2493259BAB4259
:104C400004D90C9B002B5AD002230C9300230B9306
:104C50000A9B002B00D131E60898099932003B00ED
:104C6000FEF7DFFD0890099128E6259BAB42EDD9C0
:104C70000C9B002B43D000230B9302330C93E7E7EC
:104C80008020269B3A4A00061A40802384460294DC
:104C9000089C099D2900DB0013430493259B614474
:104CA000220003930B00009201938EE60524A8E6F0
:104CB00000230B930A93023304250C93FEE553461D
:104CC0008C46013B63441B1A72E602230C930525B4
:104CD000C2E70423EDE58020089E099F0006390005
:104CE0008446269A224B6144134004930B9B320066
:104CF0000393249B02930B0000920193F3E5259B01
:104D00005B1B0B93A4E7022304250C93A0E79C1ADA
:104D1000013C76E601FCFFFFFB799F501344D33F33
:104D2000B3C8608B288AC63F0000F03F0000F83F00
:104D300061436F63A787D23F71A379094F930A40FC
:104D40000000E03F1655B5BBB16B0240EF39FAFEEB
:104D5000422EE63F00002C40000024400000184096
:104D6000FF0300002D431CEBE2361A3F80842E41E6
:104D7000FFF7FFFFF0B5DE4657464E464546E0B525
:104D8000A5B01E002E9B92460C93CD4ACD4B80467B
:104D90008B461A60002900D1EAE100233078994659
:104DA000002800D1ECE1C84B4C460B93C74B45465D
:104DB00057460E930AE0631C984622003B00594672
:104DC000A84744463078002800D187E001362528DE
:104DD000F1D108239A46043B9946023B9846013B91
:104DE00000229C460D943078711C0300203BDBB2FE
:104DF000102B03D80B9C9B00E3589F460300303BCD
:104E000089460D9C092B3AD9002398462A2800D1BF
:104E1000C1E000239A462E284BD00300683BDBB24A
:104E2000122B1ED80E999B00CB589F4663460E004E
:104E30001A43D8E743460E001A43D4E74B460E0008
:104E40001A43D0E710230E001A43CCE753460E0056
:104E50001A43C8E780235B001A43FF3B9C467078E7
:104E6000E1444E4667284FD82428A4D90300253BA7
:104E7000DBB2422B9FD896499B00CB589F4600231C
:104E800094461E0000E00131B3009B195B001E1820
:104E90000878303E0300303B092BF4D901236246E9
:104EA00089469C460023B0469A460E00E1442E28CF
:104EB000B3D13021802049428C46C0000243707833
:104EC0004B4684446146092900D86CE12A2800D168
:104ED0007AE101239C464E46E1449EE7A146A8465E
:104EE000BA46CA4503D801235B4253449946534608
:104EF0004A4659460020C047200025B0F0BCBB46BA
:104F0000B246A946A046F0BD0300693BDBB20D9353
:104F10000F2B00D94FE7012199408C466D498946F6
:104F200061464B4619400F91634649460B4200D0FB
:104F300028E10D9B0A2B3AD0072B00D03BE70C9BB6
:104F4000190008C98846002B00D14BE121200243FB
:104F5000914614A98C461F220F2162448C4651466B
:104F60000D950C91A24615000F9902E020290CD056
:104F7000130064461C4020003730092C00D8073845
:104F8000013168541A090F2BF0D80C9B54460D9D23
:104F90009A460F9133E10C9B02CB8846002947DBF0
:104FA0000C9301239C4670784E46E14431E70C9BFC
:104FB00002CB14935346002B00D138E19C4608786D
:104FC0000B000C908C44002801D100F098FC89461D
:104FD0006146944603E05A780133002A01D08B429F
:104FE000F9D1494662465B1A0C900F93530500D5E0
:104FF00020E10223180010400D90134200D1CBE3B2
:105000000D930B1BB1469A465E460C9822003B005E
:105010003100A84753460134185D0028F6D1B34645
:105020004E460D9B002B00D0C7E1149B0C93C9E6A4
:105030000C9301239C4628384942024388467078E5
:105040004E46E144E5E670786C2800D17FE180238C
:105050005B001A43FF3B9C46E14402E780239B0030
:105060001A4301239C467078E144FAE67078682878
:1050700000D173E180231A437F3B9C46E144F0E674
:10508000672800D103E1472800D15AE1452800D123
:105090005AE10492072142460C9B03920733524681
:1050A0008B43190002920CC92800009201930C91C5
:1050B00022003B005946FFF79FFB040082E6C046F2
:1050C000754D00102808002094670010D867001064
:1050D0002468001041900000462800D1DBE00492D3
:1050E000072142460C9B0392073352468B4319001B
:1050F00002920CC92800009201930C9122003B00FF
:105100005946FFF725F904005CE6631C9846220027
:105110003B0059462520A847444653E60C9B0433E0
:105120000D93631C9946920700D422E10C9B220048
:10513000187859463B00A84743464444012B00D801
:1051400085E23300B8462E005F4625004C4699465E
:1051500022004346013439002020B047AC42F7D149
:105160002C00BB46350047464E460D9B0C9329E666
:10517000DB4B3078984600239946002800D012E691
:105180000024AEE66F2800D188E000D80BE310239E
:10519000782800D1CFE09A430A239C4600230F933E
:1051A0000A330D9380E05646B10089194900013356
:1051B0000E181878303E010030390929F4D9B2466A
:1051C0001E000133994628E60C9B023602CB8A4624
:1051D000C9435046C917084082460C933078731C67
:1051E00099461AE61023100098431133184381465C
:1051F00080201300C0000340024200D1A9E64B46C4
:105200000693082305935346049310230393002326
:1052100002930F9B220001931CAB009359463B0065
:105220002800FEF7A7FF434604000C93CAE50123BC
:105230005B42C3E60F9B534501D953460F930223AC
:10524000180010400D90134200D1B7E10D93D146E4
:105250000B1B9A463300A1442E0022004D460C98A9
:10526000B9465F469B4608E04B463900541CB047A0
:105270005346185D002877D022009542F4D15B4652
:10528000BB464F46A94635004C461E00C9E6802362
:105290001B011A43FDE620231A4320E708239C46FE
:1052A00000230F9308330D9380231100DB00194076
:1052B0001A4200D116E10D239A4310008023020008
:1052C0009B001A401492184200D0C2E180230200D1
:1052D0005B001A4091460C9A04320F92184200D09B
:1052E000B7E2430600D59FE1030600D419E30C9B07
:1052F0001B880993002B00D0FCE110339843002950
:1053000000D1F7E1002399464346059353460493A1
:105310000D9B069003930023D2E0582808D0622802
:1053200067D102239C4600230F9302330D93BBE702
:1053300020231A43103B9C4600230F9310330D93F8
:10534000B2E780231B011A4320231A43A1E6C0239E
:105350009B001A43F31C9946B07882E5C0231A4398
:10536000F31C9946B0787CE535005E46BB464F4657
:1053700057E64346012B00D863E1631E43449A4637
:105380003300B9462E005F4655469B46A246220092
:105390004B46013439002020B047AC42F7D13500EC
:1053A0005E46BB464F46A14654460C9B4A4618787B
:1053B00059463B004444A847D7E6A1460F9B984571
:1053C00000D832E64444E41A3300B8462E005F4663
:1053D00025004C46994622004346013439002020DE
:1053E000B047AC42F7D12C00BB46350047464E468D
:1053F0001BE680231000DB0018401A4200D10FE1A9
:10540000112118008A430D920D9A802311009B00F0
:1054100019408C461A4269D1802311005B00194063
:1054200089460C9904310F911A4200D0CAE1130049
:105430005B0600D5F0E013001B0600D459E20C9B7C
:1054400000229B5ED9175A184A4092B2D90F0C918C
:10545000002B00D1F9E1100014AA944642461F2304
:10546000149252466344A84616944D460400B94629
:10547000B2461F00159201E0202D0FD020000A2116
:10548000FDF782FF01357E193031317020000A218D
:10549000FDF77AFF26000400092EEDD8149B4F4635
:1054A000A94645469846159B56469A46169C0D9B1E
:1054B000069343460593534604930A2303930C9B98
:1054C00002934B4601931CAB2200009359463B00CC
:1054D0002800FEF74FFE0F9B04000C9372E4C046B9
:1054E000C54000100C239A431000E7E607220C9BEE
:1054F00007339343013294469C4462460C920CCB92
:10550000D90F0F911100194300D191E0D9171391D0
:10551000129151401091139959401191109811997D
:10552000129A139B801A99411090119114AA00238A
:10553000944642469946149252461F336344A84605
:10554000B24616944E46109C119DB94615921F0006
:1055500001E0202E10D0200029000A220023FDF7B0
:1055600051FF013630322B00BA550D0022000400E5
:10557000002BEED1092AECD8149B109411954546C6
:105580009846159B4F46B14656469A46169C0D9B2B
:10559000069343460593534604930A2303930F9BB4
:1055A00002934B4601931CAB2200009359463B00EB
:1055B0002800FEF7DFFD0400FFF704FC0F9B984571
:1055C00000D8C1E18023DB000D9343460F9A1B19DD
:1055D0009B1A994633002E004D46B9465F469B46BE
:1055E0000C9122004B46013439002020B047AC42D8
:1055F000F7D143460C9901330F930B7835000C9388
:105600005E46BB464F46002B00D10EE50D9B002B9E
:1056100000D1F6E4002319E60C9B1B781A0015E76D
:1056200010239A430D92EFE60C9B1B78099361E6D9
:10563000002399460028AAD100220023109211933A
:1056400074E70C9B2200187859463B00A8474C464B
:105650008BE50C9AFA3BFF3B07329A43013399469C
:1056600091444B460C931368526815921A4306D125
:105670001032904300220992002900D081E061227B
:10568000810600D54122D2B20A9214AA91460A9A02
:1056900000210A3A149242461792524618925A46EC
:1056A0000991B3461F311E000F9B4944BA46199415
:1056B0001A950024674698468946159D16901B92B8
:1056C0000AE03032D2B24B4601341A55A8454AD0CE
:1056D000202C4AD006000D003A000023300029009B
:1056E000FDF790FED2B2092AEBD9149B9C46624486
:1056F000D2B2E8E76123820600D54123DBB20A3B40
:105700000C93434614A91F228C46159353466244BA
:10571000A046B2464C461797A9461700099D0D9E14
:105720001490169308E03033DBB201343B55B54298
:105730000ED3202C0CD0050031002800FDF724FEEC
:10574000CBB20929EFD90C9A94466344DBB2ECE75B
:10575000159B4D46A14644469846169B56461498BE
:105760009A46179FD0E5B742B2D9179B574698463D
:10577000189B5E469A461B9B09949B461698199C5B
:105780001A9D43460593534604930D9B069003933D
:1057900000230293099B05E70F9B984500D914E766
:1057A00001330F932DE41023110099430D916928C3
:1057B00000D0BAE080231000DB0018401A4200D16C
:1057C00022E61DE60C9B1B68DA0F1100002B00D1AE
:1057D0008CE0DA179818504014AA914642461F23CD
:1057E000149252464B44A046A946169704006546BB
:1057F000B2461F000C91159201E0202D0FD0200021
:105800000A21FDF7C1FD01357E19303131702000CC
:105810000A21FDF7B9FD26000400092EEDD8149BDE
:10582000444698460C9BAC461900159B56464D467F
:105830009A46169F0D9B0291069343460593534645
:1058400004930A23039363463CE6002800D02EE627
:1058500002E60C9B1B689946002B03D1103398433A
:10586000002938D16123820600D54123DBB20A3BEF
:105870000C9343461693534614A91F228C46179344
:105880002B006244A0464D46B24618979946170031
:10589000149C0D9E159008E03033DBB201343B556B
:1058A000B5420ED3202C0CD0050031002800FDF7A6
:1058B0006BFDCBB20929EFD90C9A94466344DBB255
:1058C000ECE7169B149444469846179B56464D4663
:1058D0009A461598189F43460593534604930D9B8B
:1058E0000690039300230293149BEBE50028A1D1BB
:1058F00072E70C9B1B68D9175A184A40A6E580230B
:105900001000DB0018409C460F901A420FD0022076
:10591000030013400F93104219D00023A1460F93A8
:105920004CE50C9B1B680993E4E40A0034E4022371
:10593000180010400D90134200D03EE54346002B66
:1059400000D042E6FFF771FB01330F937FE463461B
:105950000D93F3E70EB4012230B584B007AC08CC48
:10596000064D01000094280052420394FFF702FA0A
:1059700004B030BC08BC03B01847C046BD4000109E
:1059800010B5094A0300146884B0002C08D0012225
:1059900000910648524203A9A047012004B010BD5F
:1059A00000F04CF90020F9E72808002041430010DE
:1059B00000BEFDE710B5FFF7FBFFC04670B5FDF771
:1059C00097FB074D074EB54209D20024013E761BD6
:1059D000B60808CD984723000134B342F9D170BD11
:1059E0002460001028600010030010B508001100AA
:1059F0001B68984710BDC046F0B5C64600B5437D4C
:105A000007000C001600002B46D0002A17DD0B788B
:105A10000A2B24D000239846012E13D001252900FB
:105A2000635C01350A2B26D0B542F8D1464509DC26
:105A3000A419013C23780D3B5A4253413B7580BC6D
:105A4000B846F0BD4346E018A419F11A013C3B6882
:105A5000984723780D3B5A4253413B75EFE7037D4E
:105A6000002BD7D102210F483B689847012EDFD089
:105A700001239846D2E7631E5B5C0D2BD4D088458A
:105A800004DA4346C91AE0183B68984702210548E2
:105A90003B68A8469847C7E703681100200098476D
:105AA000CDE7C04680690010F0B54546DE464E465B
:105AB0005746E0B583B091461C0080460D00FCF7C8
:105AC0004FFF0023304A12184B41002B02DA01220B
:105AD0002E4B52422E4908008A4600F07DFA0700FC
