:020000041000EA
:1000000000B5324B212058609868022188439860DF
:10001000D860186158612E4B002199600221596106
:100020000121F02299502B49196001219960352056
:1000300000F044F80222904214D00621196600F024
:1000400034F8196E01211966002018661A6600F04E
:100050002CF8196E196E196E052000F02FF8012189
:100060000842F9D1002199601B49196000215960AB
:100070001A491B48016001219960EB211966A021F2
:10008000196600F012F800219960164914480160C1
:100090000121996001BC002800D000471248134993
:1000A000086003C880F30888084703B5996A0420EC
:1000B0000142FBD001200142F8D103BD02B5186610
:1000C0001866FFF7F2FF186E186E02BD00000240BE
:1000D000000000180000070000035F00212200005C
:1000E000F4000018222000A00001001008ED00E03C
:1000F00000000000000000000000000074B24E7A12
:1001000000200420F7010010C3010010C5010010F9
:10011000C1010010C1010010C1010010C101001097
:10012000C1010010C1010010C1010010C701001081
:10013000C1010010C1010010C9010010CB01001065
:10014000CD010010CD010010CD010010CD01001037
:10015000CD010010CD010010CD010010CD01001027
:10016000CD010010CD010010CD010010CD01001017
:10017000CD010010CD010010CD010010CD01001007
:10018000CD010010CD010010CD010010CD010010F7
:10019000CD010010CD010010CD010010CD010010E7
:1001A000CD010010CD010010CD010010CD010010D7
:1001B000CD010010CD010010CD010010CD010010C7
:1001C00000BE00BE00BE00BE00BE00BE00F04BF888
:1001D000103800BEF2EB8871685500108855001089
:1001E0003402001090A31AE700202149086006C8D5
:1001F00081F3088810471F48006800282FD10DA4FC
:100200000ECC002902D000F012F8F9E71A491B4A77
:10021000002000E001C19142FCD1194988471949E9
:1002200088471949884700BEFDE701C901C29A42C3
:10023000FBD3704788550010C00000205C0A0020E6
:10024000245F00100000042000000420245F001040
:1002500000100420001004200000000070470B482C
:1002600002F0E0FF0047EFF30580C0B270470000E6
:1002700008ED00E0000000D0600A0020E0760220D7
:100280005D1400100D0300107D150010575600007E
:1002900006005250ABB36053D054001006005250C9
:1002A000861C0302E0540010060052505422A29D06
:1002B000EC54001005005250DE65F468245F001015
:1002C000F8B5C04610B5064C2378002B07D1054B76
:1002D000002B02D0044800E000BF0123237010BDB2
:1002E000600C002000000000A8510010044B10B565
:1002F000002B03D00349044800E000BF10BDC046F6
:1003000000000000640C0020A8510010F0B5DE468B
:1003100057464E464546E0B593B004F047F9ED49DF
:10032000ED4804F0A1F9ED490600EB4804F09CF912
:10033000EB490500E84804F097F90023802299462C
:100340000D93F82352025B020A920B93C023040020
:100350001B0310220AA90EA898460C9303F04EFF27
:100360003100731C08310A03DB0113430EA910226C
:100370000AA80F9303F042FFDA4B01270D93A02345
:100380000621DB0210209A460A9300F07DFA012331
:1003900010220021D048009704F0CAF93200002151
:1003A000CD480AAB04F006FA29006B1C0D310A0394
:1003B000DB011343CC4A062113408022D2051343AC
:1003C0000F9343461093C94B1120119353460E933C
:1003D00000F05AFA012311220121BF48009704F0CE
:1003E000A7F92A000121BC480EAB04F0E3F94B4603
:1003F00080220D93F82352025B020A920B9343462C
:1004000010220AA90EA80C9303F0F8FE2200A31CE8
:1004100008321203DB0113430EA910220AA80F931E
:1004200003F0ECFEB24B062112200D9300F02CFAE3
:100430000621132000F028FA0621142000F024FAE7
:10044000032312220221A448009704F071F922002C
:1004500002210AABA04804F0ADF9A023A54ADB05B0
:100460001A60A54AA5495A60962292029A60A44A47
:100470001A61A44A11605360A34B976013618022F4
:10048000954B520259681142FCD1A04A1A61802250
:10049000914B920259681142FCD1E022FF325A611D
:1004A00080228D4BD20259681142FCD14022FF328A
:1004B0009A611968964A0A431A60A022862301218C
:1004C000D205DB00D150934BA0261D0000240793DA
:1004D000B600200003F07AFD8F4903F06BFD8F49D1
:1004E00003F065FD8021C90503F05BFD9B21C90573
:1004F00003F060FD03F08CFD013401C5B442E8D186
:10050000874BF0261C600024864D7600200003F007
:100510005DFD011C03F048FD834903F048FD011C0B
:10052000FE20800503F03DFD9B21C90503F042FD3F
:1005300003F06EFD013401C5B442E7D100227B4BCC
:100540001C607B4B1A6000F0BDFC794B08901B6867
:100550000991059300230693079B1B680293714B37
:10056000039300230493039B00271B6800269B46EC
:10057000012399460023002400259A46984622002C
:1005800043462800514603F0EFFC029BF51B9C46B6
:1005900009016544000FEB1708432A0019004400C5
:1005A00028009A4603F0E0FC5C44E3170E01000FBC
:1005B0002200190006432000984603F0D5FC802253
:1005C0000F01000F0743F319D205934253DA0123B9
:1005D0009C46584BE1449945D1D1564A059B9446D7
:1005E00063440593039B049A04330393F02301327D
:1005F00004925B009A42B6D1079B069A0433079394
:10060000A023013206929B009A42A5D1049A474B3F
:100610001A604A46484B1D60484B1C60484B1E60A0
:10062000484B1F60484B1A60029A484B1A605A4662
:10063000474B1A60059A3E4B1A60069A384B1A606F
:1006400000F040FC089B099CC01AA14103F01AFD70
:1006500003F026FD3F4A404B03F0A2F802000B00D6
:100660003E4803F097FF324B3D481B681900029348
:1006700003F090FF27E7059B4B440593FA239B006B
:100680009945AFD0F53BFF3B99456BDA4B46F92BCB
:100690007BDC7C2B00DDA6E03D2B00DD88E01E2B03
:1006A00000DDCBE0049A0E2B00DC82E09446930040
:1006B000069A634494460122DB0163441A4200D146
:1006C000CFE028210B4A5B10D25C0A430949CA5487
:1006D00088E7C046DC510010000020501452001082
:1006E000F851001000020004FFFFFF9F2046004465
:1006F0005202300C5C0D0020180020507C010020BC
:10070000110801004000005009801F008F02000006
:10071000070700005C650220000040400000204404
:10072000240D00205C6F02200000F043280D002003
:10073000540D0020E90300008C0C0020840C0020E4
:10074000900C0020880C00200C0D0020800C002054
:100750007C0C00208DEDB5A0F7C6B03EA85100106E
:10076000C4510010049A94469300069A6344944638
:100770000122DB0163441A422DD03821414A5B102B
:10078000D25C0A433F49CA542CE7049A944693002A
:10079000069A634494460122DB0163441A4235D031
:1007A0003021384A5B10D25C0A433649CA5419E7F3
:1007B000049A94469300069A634494460122DB010E
:1007C00063441A422AD008212E4A5B10D25C0A43A5
:1007D0002C49CA5406E707212A4A5B10D25C0A4317
:1007E0002849CA54FEE6049A94469300069A634444
:1007F00094460122DB0163441A4217D02021214A8A
:100800005B10D25C0A431F49CA54EBE606211D4A1D
:100810005B10D25C0A431B49CA54E3E60121194A22
:100820005B10D25C0A431749CA54DBE60421154A1F
:100830005B10D25C0A431349CA54D3E6049A944627
:100840009300069A634494460122DB0163441A42F2
:100850000FD018210B4A5B10D25C0A430949CA54D5
:10086000C0E60521074A5B10D25C0A430549CA5419
:10087000B8E60321034A5B10D25C0A430149CA541B
:10088000B0E6C0465C0D0020094A83009446402231
:10089000634410B51C68C0006240C024144080222C
:1008A000520113431C60034B9C466044416010BDE1
:1008B00004C0014000400140EFF3108072B6034ACB
:1008C0001368002BFCD0BFF35F8F70472C0100D062
:1008D000BFF35F8F0022024B1A6080F310887047CD
:1008E0002C0100D0F8B5CE464746914680B5EFF3CF
:1008F000108C72B6104D2B68002BFCD0BFF35F8FAD
:10090000CB08C45CC7180720260001230840C64056
:100910001A00324033420BD1834023433B70BFF374
:100920005F8F2A608CF31088C0BCB946B046F8BD12
:10093000484600F025FEC0462C0100D00021044BA3
:10094000044ABFF35F8F02C39342FAD17047C04697
:10095000000100D0800100D0044A1078431CDBB2B3
:10096000172B00D9102313707047C0468001002058
:10097000024B18688007C00F7047C04600C0064091
:10098000F8B5040006200D0000F088FF002844D0D0
:100990002A4B2B49E21853425A418023DB039C46E1
:1009A0009205284B62441A60274B1A6010008B682E
:1009B0009843FBD1214B8021E3185A425341234AEB
:1009C0005B0049009952062000F068FF2900C00032
:1009D00002F086FCC30921D1402701212600802591
:1009E0006162A36200232C36AD0135432B600620E3
:1009F00000F054FF3900800002F072FC6023E26ACC
:100A000053406E221A4080235B0133431A60104B1F
:100A1000236310232B600D3BA364F8BD0D4A934262
:100A200003D900230C4F0D49D8E77F221040013035
:100A300040089F0119003F180300CFE70080FCBF6A
:100A400000C0004000E0004000F00040580D0020D1
:100A500001030000FEFF0000C0FF3F00FFFF000099
:100A600083680B4810B58446614462440901120151
:100A70009A18591854684B6801209C4201D802D03A
:100A80000020C0B210BD12680B689A42F9D8F7E78F
:100A9000FFFFFF0FF8B5DE4657464E464546E0B528
:100AA0001F000DAB1B7805009B460C9B1600002B0E
:100AB00045D03F4A0C9B9446DBB2AA689A460C9BF1
:100AC0002C68634494461B010A9A63449A600B9A0B
:100AD0001E60DA600C9A5F6094460C9B00225B00FB
:100AE0006344033B9846236843449A705A701A70D3
:100AF000637B9946002B42D052461900A068636878
:100B00009847226800282BD04B465B004B44033BA0
:100B1000D1188C464146484651188870D35C002B4A
:100B200042D15346624613704B4663730C9B994502
:100B300027D0F0BCBB46B246A946A046F8BD026825
:100B4000947B002CF5D0116863008C461B1963441C
:100B5000033B5B789373002B00D1D3730C94A8E70D
:100B60004346D1184B4650465B004B44033BD318D9
:100B700098704046125C002A18D14B460B705346C1
:100B8000637332003B00287D00F0ECF9041E06D0B0
:100B90005B46002B03D15146286800F021FC0E9BD8
:100BA000002BC6D01C70C4E74B70BAE75A70E4E75C
:100BB000FFFFFF0FF0B5DE464E4657464546002381
:100BC000E0B58DB00A936B4B8200D3580B909946D9
:100BD00000239B464B46079300F074F9079C0600E0
:100BE0000F006268EFF3108572B61368002BFCD01B
:100BF00022000794BFF35F8F2468637B9946002B24
:100C000067D092685C4B90464B441B019844434626
:100C10001A685B6810001900801BB94100295FDD6C
:100C20000B9800F09FF900230026984600279A466B
:100C3000079C6368BFF35F8F5A461A6085F310887C
:100C40005346002B08D10028C6D10DB0F0BCBB46DE
:100C5000B246A946A046F0BD0A9B414618024B4643
:100C60001843D047089009916268EFF3108572B677
:100C70001368002BFCD00794BFF35F8F0899099A83
:100C8000002A48DB114303D0079B1B69002B5DD171
:100C9000079B1B68D97B002907D04A0052181968A6
:100CA0008C4649466244033A51704A46DA734B46D1
:100CB000079A013BD168CA5C0132CA545B46079A65
:100CC00013615368BFF35F8F5A461A6085F310882B
:100CD00082E700230026984600279A460020A7E7CF
:100CE000002901D100289BD10121200000F0FAFA4F
:100CF00043461E685F689B68079A9A464346DB68CE
:100D00009846D3684B44013B1B780A931B0203436C
:100D1000136100208CE72369002BB9D033003C001D
:100D20005B1A94411A002300A74219D89F421BD096
:100D3000594604910121039149460291414601918E
:100D4000514607980091FFF7A5FEB7E700F0BAF803
:100D5000089A099B06000F0092197B419942E5D938
:100D600001225242D317E3E79642E1D901225242CF
:100D7000D317DDE7300D0020FFFFFF0F70B5184CD3
:100D80002368002B00D070BD032000F08FF80320F3
:100D900000F04AF91349032000F09EF8182003F0F0
:100DA00017FA0500FFF7D8FD0F4B2A009C46604458
:100DB00080000E496860102000F09EF91021286024
:100DC000102003F009FA0121A860102003F004FAB2
:100DD00003232B75064BE860DD602560D3E7C04632
:100DE000100D0020B50B001040000034610A001007
:100DF000300D0020F0B5D6464F464646C0B5EFF35D
:100E000005833F22134018001038EFF3108C72B6A0
:100E1000204D2A68002AFCD0BFF35F8F0122110009
:100E200081401D4C884661631C4917000E788A4634
:100E30003100C1400F400A4209D1BFF35F8F2F60DC
:100E40008CF31088E0BCBA46B146A846F0BD144900
:100E50008200646A51588C420FD3124BD2584346D9
:100E60009E4353461E70BFF35F8F00232B608CF3AD
:100E70001088002AE6D09047E4E70B4A9B00904692
:100E800043441A681A60BFF35F8F00232B608CF312
:100E90001088D7E7280100D000400540DE76022008
:100EA000440D0020D40C0020D03F054010B50100B7
:100EB000024A0348FFF716FD10BDC0463852001025
:100EC000DC760220034B596A0A00986A596A8A4202
:100ED000FAD170470040054070B504000D00EFF3F3
:100EE000108672B61A4A1368002BFCD0BFF35F8FCE
:100EF000002D1BD0200000F033FD164981420AD09E
:100F0000200000F035FD0121200000F017FD012335
:100F1000A340114A1360114BA400E550BFF35F8F4B
:100F200000220B4B1A6086F3108870BD0B4BA20099
:100F3000D5500122A2400A4920000B7893430B7040
:100F4000044900F03FFD0021200000F0F7FCE5E738
:100F5000280100D0F50D001038600540D40C0020A9
:100F6000DE760220F0B5CE46474680B52A4C616A4F
:100F70000D00A66A616AA942FAD18B4207D804D053
:100F80000120C0BCB946B046F0BDB242F8D9EFF37B
:100F9000108972B6214C21680029FCD0BFF35F8F05
:100FA000012585401C4C1E4F6563E9B2884639789F
:100FB0008C464146664631433970011D89000A510D
:100FC000184980004350216A002029420BD0616AF1
:100FD0000800A66A616A8142FAD18B4202D80AD11E
:100FE000B24208D90020BFF35F8F00220B4B1A607A
:100FF00089F31088C5E7084B42461D625D6363466E
:10100000934301203B70BFF35F8F0022034B1A60B4
:1010100089F31088B5E7C04600400540280100D09C
:10102000DE760220440D0020EFF3108C72B60A49E0
:101030000B68002BFCD0BFF35F8F01238340074A6E
:101040000748136202789A430270BFF35F8F002350
:101050000B608CF310887047280100D000400540D9
:10106000DE760220024B9C46614489000160704795
:101070004000003410B50400FFF76EFC01002000B2
:10108000FFF7F0FFFF232371BFF35F8F10BDC04652
:1010900070B5050014001600002915D00C00002AB8
:1010A00012D080686B689847296800280ED07300BA
:1010B0009B196200033B1219CB18033A9C708818E5
:1010C0008A5C002A15D10670200070BD63001B19D0
:1010D0007200033B9219CB18033A9E7088188A5C01
:1010E000002A02D104703400EEE75A700470340014
:1010F000EAE75A700670E7E7F0B5C64605000F004C
:1011000000B510210120160003F066F8EBB20400D0
:101110000373032147602800984603F05DF800231D
:1011200063730133A3734346FF21E373FE232060FF
:10113000A66029402B4206D0421CFD3B01331370B0
:1011400003328B42FAD34B0059180023401803385E
:101150004370200080BCB846F0BDC046F8B5CE460E
:10116000474606000C0080B5002907D04D000368F3
:101170006D18033D5A195778002F04D12000C0BCC8
:10118000B946B046F8BD7900C919033988464344C9
:101190005978894600215970517073683A002100CE
:1011A000806898473368002814D042469A18947093
:1011B00059195B5D002B00D053700F702700494612
:1011C0003000FFF7CBFF390002003000FFF760FF6F
:1011D0000400D3E7424641465D19AF709A185B5C44
:1011E000002B00D06B701470E9E7C046F0B557468D
:1011F0004546DE464E46E0B50D006B0001685B19C2
:10120000DF1E0400C85D83B00192CA1900284CD0CB
:1012100043001B18033BCB185E78B446002E16D152
:10122000019E002E3ED1E67B002E04D073009B1958
:10123000CB18033B5D70E57300282FD1002353705A
:1012400003B0F0BCBB46B246A946A046F0BD720052
:101250006244033A89184A78904600224A709146BF
:101260005A70010032002000FFF712FF4346824609
:10127000002B07D05B0021684344033BCB185A780E
:10128000002A16D1424651462000FFF701FF21688F
:10129000019BCA19002BC6D00028CFD043001B18D1
:1012A000033BCB1800219970C8E7019B002BC5D1E7
:1012B000B9E7500080180338091848788346484633
:1012C0004870587041462000FFF7E2FE59468046BC
:1012D0002000FFF743FF414602002000FFF7D8FE41
:1012E0008046CFE7F0B557464546DE464E46E0B568
:1012F00083B00191457B04006B0000685B19DF1E21
:10130000C15DC21900294ED04B005B18033BC318C6
:101310005E78B446002E18D1019E002E40D1E67BA7
:10132000002E04D073009B19C318033B5D70E57356
:10133000002931D1002328005370617303B0F0BC41
:10134000BB46B246A946A046F0BD72006244033ACD
:101350008018427890460022427091465A702000D0
:101360003200FFF795FE43468246002B07D05B0014
:1013700021684344033BCB185A78002A17D14246D0
:1013800051462000FFF784FE019B01002068C2192E
:10139000002BC4D00029CDD04B005B18033BC318F1
:1013A00000209870C6E7019B002BC3D1B7E750001F
:1013B00080180338091848788346484648705870A2
:1013C00041462000FFF764FE594680462000FFF7A3
:1013D000C5FE414602002000FFF75AFE8046CEE7D8
:1013E00070B5040000292CD0437B8B422ED00568B9
:1013F00048004018033828188278002A21D053006A
:101400009B18033BEA5CEE188A4202D11BE0002ADB
:1014100008D053009B18033BEB185A788A42F6D148
:1014200042785A7000230022837043702000FFF737
:10143000DDFE617B02002000FFF72AFE60730120C1
:1014400000E0002070BD43783370EBE70022190004
:10145000FFF7CCFE60730120F4E7C046F8B52B4AD5
:101460002B4B2C491A602C4A2C4B1A6014008B68A9
:101470009C43FBD12A4D2B4EB54208D2013E761B30
:10148000B60808CD984723000134B342F9D100F0E3
:1014900095F8254A214B1A601E4A9368DB43DB010D
:1014A000DC09002BF9D14022204B214D214F9A67B6
:1014B0005A671A67DA66BD420BD20026013F7F1BCE
:1014C000FF082800FFF7D6FD083533000136BB4280
:1014D000F7D1194E194DC022A968300002F08EFED6
:1014E000AE60FFF72BFA00F0ABFBFFF747FC144DA3
:1014F000144EB54208D2013E761BB60808CD984777
:10150000230001349E42F9D1F8BDC046BFCDFFFF94
:1015100000E0004000C00040FE7F3C0000F00040C2
:10152000480A0020580A0020FFFFFF0100F0014098
:10153000400A0020480A00200000002000ED00E0E2
:10154000580A00205C0A0020094A0300106800289D
:1015500005D00849C3188B4207D21360704706486C
:101560000449C31810608B42F7D301204042F5E7CD
:10157000200D002000000420E076022000BEFDE7E0
:101580000FB400B5084883B002F054FF049B002B51
:1015900007D005A91800019101F024FE034802F0CC
:1015A00049FF00BEFDE7C0465C5200106C520010BF
:1015B00010B50148FFF7E4FF7052001030B50C2061
:1015C00083B000F071F9FFF7D3F900280ED09A4BE1
:1015D0009A4A1A605A609A60DA601A615A619A618E
:1015E000DA611A62964A5A6203B030BD954CA06720
:1015F00000F062F90122944B1A60636C012BFCD15C
:101600000322924B1A608F4A936B012BFCD1C022AC
:101610008F4B92011A608F4B8F491A6010008B68B4
:101620009843031EFAD1022401218C4A8C480633C8
:10163000009400F055F905238A4A01218A48009454
:1016400000F04EF9894B5A68FF2A02D880225200D6
:101650005A608022784C7D4B21691201834D1A60BB
:10166000002905D0606901F03BFE01300138FDD151
:10167000E0217E4B02201A681140802252012A4349
:1016800011601968484003210140116004219A68E3
:101690001142FCD08022802192012A43090111606D
:1016A000802252005A60724B2361724B5968FF29A5
:1016B00000D85A600321644A6E4B116002399A685F
:1016C0001142FCD0E0201A681040802252011A43D7
:1016D00010601868484003210140022011606549EC
:1016E0008A681042FCD080229201134380221201AA
:1016F0001A608022604B52004A6063615F4B5968F8
:10170000FF2900D85A6080225D4BE16912015B4DD0
:101710001A60002905D0606901F0E2FD013001384E
:10172000FDD1E02255490B681A4080235B012B4311
:101730001A60802380229B012B4312011A608022B1
:101740003E4B52004A60E3614E4B5968FF2900D876
:101750005A6080224C4B216A12014A4D1A600029BE
:1017600005D0606901F0BCFD01300138FDD1E022F7
:1017700044490B681A4080235B012B431A60802385
:1017800080229B012B4312011A60802380225B0080
:101790004B602A4BD20223623C4B5968914200D2E3
:1017A0005A6080223A4B616A1201384D1A60002952
:1017B00005D0606901F094FD01300138FDD1E022CF
:1017C00032490B681A4080235B012B431A60802347
:1017D00080229B012B4312011A608023DB024B60A5
:1017E000174B63622B4B5A68FF2A02D880225200A3
:1017F0005A608022284BA1691201264D1A600029E7
:1018000005D0606901F06CFD01300138FDD1E022A6
:1018100020490B681A4080235B012B431A60802308
:1018200080229B012B4312011A6080235B004B60D6
:10183000114BA361D8E6C046E40C0020006CDC022A
:101840001BB70000008000403CB0004030B00040BA
:1018500000E0004000F0004000C00040002F685948
:101860000080024000389C1C00C0024030800040D4
:10187000001BB7003C800040405973075480004073
:1018800054B000406080004060B000406C80004078
:101890006CB000404880004048B00040014B8000E0
:1018A000C0587047E40C00208023024A9B00034389
:1018B000D362704700800540AA23064A1B011360CB
:1018C0002F230549D360054B19605368002BFCDAC0
:1018D0007047C0460040024000B0FA00006002407D
:1018E000F0B5C64600B51E0006AB1F7801235B426B
:1018F000436000230400836001600C20904601F0E7
:10190000EFFC4101091A8D01691AC9000918890102
:10191000404601F0E5FCC021231D89011943212324
:10192000A0600B602268002AFCDA08233F0336041B
:101930003E43E6600B6080BCB846F0BD01238340A7
:10194000002904D0034A1360034A13607047034A16
:101950001360FBE780E200E000E100E080E100E0EE
:10196000024B10309B688000C058704700ED00E0CB
:1019700070B50D00EFF3108672B60F4A1368002B96
:10198000FCD0BFF35F8F0D4B10309B6884001B5958
:101990000B4A934203D09D4201D0FFF709FE074B4B
:1019A0009B681D51BFF35F8FBFF35F8F0022024B17
:1019B0001A6086F3108870BD240100D000ED00E0AD
:1019C000CD010010F0B5DE4657464E464546E0B51F
:1019D0000C0083B0EFF3108A72B65E4A1368002BD6
:1019E000FCD0BFF35F8F1022914681444A465A4B88
:1019F00096009B689D59594B98469D4205D0A5423B
:101A000016D0574FEB1B2F2B14D9534B9B689D516E
:101A1000BFF35F8FBFF35F8F00224E4B1A608AF3D4
:101A2000108803B0F0BCBB46B246A946A046F0BD44
:101A30001D00EAE7012383409B465A46494B1B6839
:101A40001A4000925A46484B1A60BFF35F8FFEF768
:101A50000AFC0190002803D0814501D0FFF7A8FDC2
:101A60000123290099438B68A34268D00A0007E04C
:101A700043001B189B00FB189868A04211D01A0065
:101A8000062010560028F3DA009B002B05D05A469A
:101A9000364B1A60334B1A60B7E75A46324B1A601E
:101AA000B3E706201856002821DB420011188900F0
:101AB0007C188846A1689960E179D9710621615640
:101AC000997100292BDBA488F91A64052415444474
:101AD0000919E0240905490D2402214399801218AF
:101AE000234B9200BF181A781870BA71CCE701988E
:101AF000002817D1FF3090711E4890801C4AC91BE6
:101B00001078891098718B005B1818011B18180247
:101B10001B1818041B185B005B181370B4E7BD2179
:101B20000902DBE7144A1549D21A083A5002400D5F
:101B300001439980124952080A43DA80A4E706203B
:101B400008560B000028B0DA019A002AEAD145466F
:101B5000D4E7C046240100D000ED00E0CD01001024
:101B60008401002000E100E080E100E080E200E08C
:101B7000DD76022000BDFFFFBE01002000F0FFFF68
:101B800000F8FFFF70B5012504000543FEF76BFB6D
:101B9000EFF3108C72B6244A1368002BFCD0BFF30D
:101BA0005F8F224E8000A11B89108A0052181301FA
:101BB000D2181302D2181304D3181D4A5B005B1805
:101BC00091680958A9421CD00622B2569A421CD0EC
:101BD0001222B256934222D01E22B256934220D0F5
:101BE0002A22B25603219A4210D0124A1178137059
:101BF000A171BFF35F8F00220B4B1A608CF310882A
:101C000070BD92680C491150EFE700214A0052184C
:101C1000FF219200B218917108499180E5E70121F6
:101C2000F4E70221F2E7C046240100D0840100203D
:101C300000ED00E0DD760220CD01001000BDFFFFC9
:101C4000F0B500220324FF27802620003D00094B29
:101C500011009C461040C0008540A14361440B68C0
:101C60000132AB43350085402B430B60202AECD179
:101C7000F0BDC04600E400E07047C046F8B55746E6
:101C80004E464546DE46E0B599460A9B07009A4611
:101C90000D9B8846934615000B9E9B0710D10C9B0D
:101CA0009E420DD29D1B14000E005D4422004B4647
:101CB000013431002020B847A542F7D1B0460B9E31
:101CC000002E27D0444675195346AA1B013E985D45
:101CD00021004B46B847002EF6D123002C00984631
:101CE0000D9B9B070FD55B46E51A0C9BAB420AD9AF
:101CF0004646984622004B46310020200135B84721
:101D00000134A845F6D82000F0BCBB46B246A9462F
:101D1000A046F8BD2C00E3E7F0B54F464646D64650
:101D2000C0B584B098460EAB1B78129F9946944676
:101D30000D9C109B119EBA0725D4002E4BD19C42BE
:101D400000D3BFE001223A4092461F2C00D9B8E0F0
:101D50000C9A551E302201E0202C03D001342A5564
:101D6000A342F9D85246002A0DD0A6420BD9202C06
:101D700044D00C9A551E302201E0202C3ED0013474
:101D80002A55B442F9D1FA064DD57A053FD4002C34
:101D900039D10F9B102B00D179E00F9B022B00D182
:101DA0008AE030230C9A012413704B46002B3FD05D
:101DB0002D230C9A135501340C9B62460093039714
:101DC000434602960194FFF759FF04B0E0BCBA46BF
:101DD000B146A846F0BD012215003D40AA463A4250
:101DE0002FD04A46002A02D10C323A4200D0013E9E
:101DF0009C42BAD21F2CABD9202E27D92024FA0618
:101E0000DAD57A0503D4A3422DD0A6422BD00F9B5E
:101E1000102B32D0022B20D0202CCDD030220C9B86
:101E20001B191A700134202CC6D04B46002BBFD191
:101E30007B070DD43B07BFD520230C9A13550134E3
:101E4000BAE79C429FD21F2C00D881E720249AE752
:101E50002B230C9A13550134AEE7202CACD00C9BED
:101E60001B1901343AE0631E012C92D00F9A102AFC
:101E70002AD0022A2FD01C00D0E7BB060ED4202C7B
:101E80009AD00C9B1A19013478231370C4E7BB064F
:101E90000DD478230C9A01241370BFE7202C00D1B5
:101EA0008AE758220C9B1B191A700134B4E7582397
:101EB0000C9A01241370B1E70C9A6033012413705B
:101EC000ACE7202400265EE7023CBA06E9D40C9A6F
:101ED00012191C00D8E70C9A9246534462221A70D9
:101EE0009AE7C04610B5002800D110BD02F094FA60
:101EF000FBE7C0460B0010B5002802D049681B68FC
:101F0000984710BDF0B5DE4657464E464546E0B50B
:101F10009BB09A46249B8B469946259B0B909846EE
:101F20000C9243464A464846414601F096FC00283A
:101F300000D095E1012248464146E14B524201F072
:101F400087FC002800D08BE1012248464146DD4B4A
:101F5000524201F067FC002800D081E100220023FA
:101F60004846414601F05EFC002800D09CE14A460C
:101F700043460A9209938023289ADB001A40119263
:101F8000289A1A4201D106232693CF4B099F9C46DB
:101F90007800400D604401F073FCCC4ACC4B01F05A
:101FA000FFFBCC4ACC4B01F0E9FB3B03CB4A0A9E3A
:101FB0001B0B1A4304000D0030001100C84B002217
:101FC00001F0D3FBC74AC84B01F0EAFB02000B004B
:101FD0002000290001F0D2FB01F06AFC0D9001F015
:101FE0004FFCC24AC24B04000D0001F0D9FB002295
:101FF000C04B01F0C3FB01F05BFCBF4A0600BF4BC6
:102000002000290001F0CCFB040030000D001096E8
:1020100001F036FCBA4ABB4B01F0C2FB02000B00D8
:102020002000290001F0A1FB02000B0006000F00B8
:1020300001F0B6FB320004000D003B003000390017
:1020400001F09CFB00220E900F91AF4B2000290065
:1020500001F09DFB0022AD4B01F090FB02000B0054
:102060002000290001F093FB0022A94B01F086FB20
:1020700002000B002000290001F089FB0D008021E7
:10208000040032003B000020C90501F06EFB020095
:102090000B002000290001F071FB02000B000E98DC
:1020A0000F9901F074FB00228C4B01F067FB109B31
:1020B000984A1C00944664440022230501F070FBFA
:1020C00006000F0002000B000A98099901F0AAFB14
:1020D00000280AD00D9B3000013B39000D930022EF
:1020E0008A4B01F054FB06000F000D9DC6242B0007
:1020F00063339C42A441289B644204341B051FD5D2
:10210000854A864B0A98099901F09AFB002800D16C
:10211000BFE00022824B0A98099901F083FB002856
:1021200000D1B6E0269A954200DAC4E00023269357
:102130008023289ADB001A430023002428920D9361
:10214000279B0025A34200D91D1B0223289A1A4071
:102150001092289A134203D0634263415B421D40B0
:102160000D9B002B07D00A98099932003B0001F023
:102170000EFB0A900991002200234846414601F0D7
:1021800051FB002805D0802000068446099961444F
:102190000991289A634B0B9E13400493269B0A9A3D
:1021A0000293099B039500920193594653463000D0
:1021B0000C9A00F0B9F80500002C62D0289B2A0088
:1021C00098061F23C01798436B1C984659465346E0
:1021D0006530B0470D9B0026DA179D18DB0F994636
:1021E0005540013C01E0202E13D00AAA94461F233B
:1021F000280063440A2101369F1901F071F830313B
:10220000397028000A2101F06BF82F000500092F12
:10221000E9D805230693002304930A3303934B461E
:102220000B9F029312AB0093424653465946380027
:1022300005940196FFF770FD109B0500002B20D040
:102240000C9BC41A279BA3421BD91E002A0053468D
:10225000594620200134B8470135A642F6D810E08F
:10226000289B4A460493279B59460393269B0B9829
:10227000029343460092019353460C9A00F054F89F
:10228000050028001BB0F0BCBB46B246A946A046DC
:10229000F0BD269B002B00D152E7119B5A1E9341A3
:1022A000269AD31A26934BE74B460A9380231B06A4
:1022B000434409935FE6501B431E269338E7C0460C
:1022C000FFFFEF7FFFFFEFFF01FCFFFFFB799F5058
:1022D0001344D33FB3C8608B288AC63F0000F03F49
:1022E0000000F83F61436F63A787D23F71A379096C
:1022F0004F930A400000E03F1655B5BBB16B02405A
:10230000EF39FAFE422EE63F00002C400000244048
:1023100000001840FF0300002D431CEBE2361A3F7B
:1023200080842E41FFF7FFFFF0B54E46DE4657464C
:102330004546E0B597B09946209E219F229B834653
:10234000984607910C923B0032003000390001F0B2
:1023500084FA002800D0A9E1012230003900CA4BDC
:10236000524201F05FFA002800D0E1E00122300083
:102370003900C64B524201F06BFA002800D0B7E09A
:10238000002230003900C24B01F062FA002800D070
:1023900099E0002230003900BE4B01F043FA0028DA
:1023A00000D090E0002200233000390001F03AFA1A
:1023B000002800D0B1E000230D93249B5B0501D4DD
:1023C0000623984608AB9C4617220024302341463A
:1023D000624404E0013413550139202C01D009294D
:1023E000F8D888463000390001F062FA4346DA0036
:1023F000A94B05009B181A685B680892099301F0C5
:102400003FFA02000B003000390001F0AEF9089AE3
:10241000099B01F0C5F90A900B9101F06DFA824613
:1024200001F02AFA02000B000A980B9901F09DF9BD
:1024300000229A4B0A900B9101F00AFA002800D171
:10244000C0E001239C46E244504601F015FA020028
:102450000B000898099901F0EBF9002802D000233D
:102460009A4601354346002B6AD008AB17269C4696
:1024700008956644554614E001235B4243440A2113
:1024800028009A4600F02CFF01343031371939709A
:1024900028000A2100F024FF092D00D8D0E0D04602
:1024A0000500202CE8D10EAB98460323249A134054
:1024B000012B00D196E02023249A01930392239AC2
:1024C000434602921EE0249B58460493239B0096A9
:1024D0000197039343460C9A029307994B46FFF7E3
:1024E00011FD17B0F0BCBB46B246A946A046F0BDF0
:1024F000249B5B070ED40322694B2499019203911C
:1025000023990291009358464B460C9A0799FFF77E
:10251000B5FBE6E70422634BEFE73B003200002007
:10252000002101F022F9012306000F000D9344E77A
:10253000249B0393239B0293042301935A4BE1E7CB
:10254000280001F09DF902000B003000390001F075
:102550000CF9524B002206000F0001F063F90EAB9C
:10256000984600280AD10022300039004B4B01F078
:102570006FF9002802D1EB0700D50135202C94D04B
:1025800008AA94461723280063440A2101341E191F
:1025900000F07AFE3031280031700A2100F074FE1C
:1025A000051EEBD10323249A1340012B1BD0202CB2
:1025B00000D180E70D9B002B35D02D224146631CB6
:1025C0000A5579E700220A980B99344B01F02AF951
:1025D000002800D046E75346002B51D101239C46EA
:1025E000E2443FE72024239B002BE0D00D9B002BEF
:1025F00003D1249A0C33134202D0239B013B239333
:10260000239BA342D3D908AB9C46172230236244B4
:10261000202C00D14FE72399013413558C42C6D0AA
:10262000202CF8D147E7249B5B0724D4249A23006D
:10263000120700D440E72022414601330A553BE708
:102640005746089D202C00D12DE72200302140461E
:10265000002F09D00132B154202A00D123E7D343FF
:102660001B191B18002BF5D10EAB98462E234146A3
:10267000541C8B5482E72B224146631C0A551BE7EE
:10268000DB0700D4EEE6A9E7FFFFEFFFFFFFEF7FD8
:1026900065CDCD4165CDCDC1785400100000E03F3F
:1026A0007C520010805200108C520010249B039327
:1026B000239B029303230193004B23E788520010CE
:1026C000F0B5DE464E4657464546E0B59FB01C0085
:1026D000289B91460993C94AC94B8B4608901A60BA
:1026E000002900D118E2002320789A46002800D162
:1026F0001AE226001D005C460AE02A006F1C4B46C9
:10270000089D2100A8473D0001363078002870D090
:102710002528F2D110239B46083B9A46043B984655
:10272000023B00219C46721C107816000300203BDF
:10273000DBB2102B03D8B34F9B00FB589F4603001E
:10274000303B092B32D900230A932A2868D0002372
:1027500098462E283ED00300683BDBB2122B1CD8D3
:10276000A94A9B00D3589F46012301321943DBE756
:10277000634601321943D7E7434601321943D3E791
:102780005B4601321943CFE7534601321943CBE789
:1027900080235B007078194301360300253BDBB2D0
:1027A000532BAAD8994A9B00D3589F460027030071
:1027B000B800C01901364000C018337830381A000C
:1027C000303A0700092AF3D90A90180000239846E6
:1027D0002E28C0D180237078DB0019430300303BE2
:1027E000721C092B00D8A1E12A2800D1B2E1160001
:1027F000B1E7A346AA462C00D14503D801235B428A
:102800004B449A464B46524659460020089DA847DD
:1028100020001FB0F0BCBB46B246A946A046F0BDA2
:10282000099B40CB0A96002E03DB50780993561C77
:102830008DE72838014370420A9009935078561C5E
:1028400085E7782800D1DFE1582800D14CE26F28D5
:1028500000D14FE3622801D100F030FC10230A00C0
:102860009A430B92692801D000F0A9FC0A230C932B
:102870004B0500D5D0E10B9A802311009B00194035
:102880008B461A4200D0A1E2802311005B00194060
:102890008A461A4200D0B6E313005B0600D5EDE28B
:1028A000130009991B0601D400F076FC08C91BB27D
:1028B000D8171A18424092B209919346DA0F129231
:1028C000002B09D1802310220B99DB000B40914390
:1028D0000B91002B00D0E4E20B9A6123920600D505
:1028E00041230EA91F228C46DBB262440A3B5F469D
:1028F0001395A34655460C9CB2460D9316000AE06C
:102900003033DBB201357355A74200D2EDE2202D02
:1029100000D1EAE207002100380000F0E1FCCBB270
:102920000929EDD90D9A94466344DBB2EAE7802386
:102930009B007078194301362FE77078682800D122
:10294000CDE180230136194327E770786C2800D148
:10295000BFE180235B00194301361EE7462800D102
:102960009BE10722099B0491073393430A9A1900BC
:102970000392424602920CC9089800920193099171
:102980002A004B462100FFF7CFFC01360500BCE6CC
:102990002A006F1C4B46089D21002520A8470136C0
:1029A0003D00B2E68B0700D4ADE1099B2A009A46B0
:1029B0006B1C9846534601CB21009A46089F4B4614
:1029C000C0B2B8470A9B9C466544012B00D886E2FA
:1029D000089B4746B04626004C4699463A002300DD
:1029E000013731002020C847AF42F7D1A1465346F6
:1029F000340046460993013687E6C046C1260010DA
:102A00002C0D002094520010D852001024530010B6
:102A1000099B04CB9B4643460992002B00D1C6E09C
:102A200013789C46002B00D1BDE34346013B099A35
:102A30000133D0180A9F130001E0834203D05A7873
:102A40000133002AF9D1099A0A979B1A0B93802324
:102A50000A00DB001A400C92194204D00B9B43453C
:102A600001D943460B9302231A000A400D920B42F0
:102A700000D187E16046002800D168E10C9B002B63
:102A800000D10DE1A844C246099B57465B1B9846FE
:102A9000089BB2462A0026004C46994609E02300CE
:102AA0003100551CC8474346585D002800D126E137
:102AB0002A009742F3D1A1463D00340056460D9BB3
:102AC000002B00D043E15B46013609931DE6099BCC
:102AD0001A0008CA9246002B48D0212211438B4687
:102AE0000EA884461F216144099500220F27A446A1
:102AF0000D0002E0202A0CD00B003C001C402000FE
:102B00003730092C00D807380132A85419090F2B87
:102B1000F0D86446099D32E0DC4B2078089300230E
:102B20009A46002800D0E4E5002465E64346060006
:102B30000A9F9800C01801324000801916780300DF
:102B400030003038303B0928F3D930009846160061
:102B50000A9700E6099B023604CB9046D2434046D2
:102B6000D2171040804609933078F4E5102208000F
:102B7000904311321043834600224905B0D55B468D
:102B800006930823059343460493102303930023DD
:102B9000029316AB019200932A004B46210008983D
:102BA000FFF7BAF85346050001360993ADE51378EF
:102BB0009C46002B00D1F7E202235B4237E720233B
:102BC00002009A43472A04D180231B0119430223A0
:102BD0009843452801D1202319430722099B0491DA
:102BE000073393430A9A19000392424602920CC992
:102BF00008980092019309912A004B462100FFF7A3
:102C000081F90136050080E510230C930C230A009E
:102C10009A430B924B0503D501230B9A9A430B92CF
:102C2000692800D127E6642800D124E60B9A802386
:102C300011009B0019408B461A4200D066E18023A8
:102C400011005B0019408A461A4200D039E2130095
:102C50005B0600D53CE113001B0600D4A6E2099BED
:102C600004CB1204120C934609935B46002B00D050
:102C70009AE10B9A1033110099430B91520500D43D
:102C800092E100239A460B9B06930A9B05934346C9
:102C900004930C9B039300230CE12023194360E66B
:102CA000099B0A9A5B1B98464B4691461F00B24609
:102CB0002600089C2A003B003100A047434601350E
:102CC000585D0028F6D14A463400B94656460A9265
:102CD000F5E6C0239B00B078194302365DE5C023BA
:102CE000B0781943023658E50C230A009A4314338E
:102CF0001A43103B0B920C934B058DD496E7A146DB
:102D000034005646DBE60A9A012A00D853E26B1ECD
:102D10009F18089BB04626004C4699462A0023007F
:102D2000013531002020C847BD42F7D1A14634000B
:102D30004646099B3A0001CB210098467D1C4B4634
:102D4000089FC0B2B847434601360993DDE40B9BA8
:102D50000A99A846994200D8B5E68C466544ED1A12
:102D6000089B4746B04626004C4699463A00230049
:102D7000013731002020C847AF42F7D1A1463400C7
:102D80004646A0E60B9A0A98531C904200D814E2DB
:102D900043199B1A1F00089BB24626004C469946D1
:102DA0002A002300013531002020C847BD42F7D159
:102DB0000A9BA14601330B93099B34001B785646AE
:102DC0009C466046002800D058E67CE60722099B16
:102DD00007339343013294469C4462465F680992EC
:102DE0001A68FB1710931193109811990300534020
:102DF0000E930B007B400F9394460E9A0F9B121A72
:102E00008B410E920F93FB0F6246129300233A43BD
:102E10009B463DD00B9A6123920600D541230022A8
:102E2000DBB20EA90A3B8C4692460D9343461F32F5
:102E300062441395159655460E9E0F9FA2469046E6
:102E40000C9C14930CE03032D2B2434601355A55F3
:102E5000BB4500D18AE1202D00D18AE106000F0098
:102E6000220000233000390000F080FAD2B2092A93
:102E7000E9D90D9B9C466244D2B2E6E7FF2309994B
:102E800004C913401A00099117E5C046791C0010C7
:102E90000B9A1033110099430B915205BAD50023B8
:102EA0009A460B9B06930A9B0593434604930C9BFF
:102EB0000393129B02935346019316AB2A0000938F
:102EC00021004B460898FEF727FF013605001CE459
:102ED000FF22099B02CB11408B460993C5E653465E
:102EE000454609930136FFF710FC56465C46AA4654
:102EF000139DD6E708230C930B910B99642800D0FF
:102F000084E60B9B5B0500D586E6B4E40722099BAB
:102F100007339343013294469C44624609921A68EF
:102F20005B6810009B4613005A46134307D10B9A67
:102F30001033110099430B91520500D5A1E60B9A6D
:102F40006123920600D541230022DBB20EA90A3B81
:102F50008C4692460D9343461F3262445F4612955B
:102F6000A34655460400B24690460C9E13930DE0CE
:102F70003032D2B2434601355A550023BB4200D10C
:102F800000E1202D00D100E104000F0032000023F9
:102F90002000390000F0EAF9D2B2092AE8D90D9BE5
:102FA0009C466244D2B2E5E70B9A6123920600D5B3
:102FB0004123DBB20EA90A3B1F228C460D9323004E
:102FC00062445C461295170055469B46B2460C9EDD
:102FD00008E03033DBB201357B55B4420ED3202DEF
:102FE0000CD004003100200000F07AF9CBB209299E
:102FF000EFD90D9A94466344DBB2ECE756465C4643
:10300000AA46129D3FE6099B1A0008CAD9171392D7
:103010005A184A409246DA0F1292002B08D18023A8
:1030200010220B99DB000B4091430B91002B2BD10D
:103030000B9A6123920600D541230EAA1F279446BE
:10304000DBB20A3B0D9567445D460993A34654469F
:10305000B2460C9E08E03033DBB201357B55B442FA
:103060000ED3202D0CD004003100200000F038F9E0
:10307000CBB20929EFD9099A94466344DBB2ECE755
:1030800056465C46AB460D9D0B9B2A0006930A9B59
:1030900021000593434604930C9B08980393129BCD
:1030A000013602935B46019316AB00934B46FEF745
:1030B00033FE139B05000993FFF727FB02230C93B4
:1030C0001AE7099B04CB92461293002A08D1802369
:1030D00010220B99DB000B4091430B91002B2BD15D
:1030E0000B9A6123920600D541230EAA1F2794460E
:1030F000DBB20A3B0D9567445D460993A3465446EF
:10310000B2460C9E08E03033DBB201357B55B44249
:103110000ED3202D0CD004003100200000F0E0F888
:10312000CBB20929EFD9099A94466344DBB2ECE7A4
:1031300056465C46AB460D9D0B9B2A0006930A9BA8
:1031400021000593434604930C9B089803930023A6
:1031500002935B46019316AB00934B46FEF7DCFDF2
:10316000129B050009930136FFF7CFFAB44200D84D
:1031700071E6149B54460E960F97AA469846159EE4
:10318000139D8EE6A64200D8FBE6139B5646984652
:10319000AA465C46129D76E508C9D8171A1842401F
:1031A0000991FFF78AFB00230B9350E4099B04CBA2
:1031B0009346099359E52F00BBE50B9301E6063BC7
:1031C0000C939AE600B585B003910121029000931B
:1031D000034813004A4202A9FFF772FA05B000BD86
:1031E000F51E001010B5094A0300146884B0002CC5
:1031F00008D0012200910648524203A9A0470120AD
:1032000004B010BD01F016F90020F9E72C0D0020E4
:10321000E51E001001480421014B1847D001002091
:1032200045320010142310B50100188804331B88A0
:10323000984710BD162310B50100188802331B886B
:10324000984710BDF8B54746CE4680B50F1E19D039
:1032500014239946043304000025012698464B4662
:103260001888434621681B88984701C4431E98412B
:10327000013540420640AF42F1D13000C0BCB946F2
:10328000B046F8BD0126F8E7144A936F9B0815D2A3
:103290009066D166002905D0FFE7FFE7FFE7516F91
:1032A000106F704704B580210906C21751400028ED
:1032B00000D0C84301F060FF002104BD936F5B089C
:1032C000FDD3F0B5946ED56E576F166FFFF7E0FF24
:1032D0009466D56657671667F0BD0000000000D001
:1032E000134A936F9B0813D210665166002905D0CC
:1032F000FFE7FFE7FFE7516F106F704704B5002845
:1033000001D00020C04301F037FF002104BDC046BA
:10331000936F5B08FDD3F0B5946ED56E576F166F43
:10332000FFF7E2FF9466D56657671667F0BD0000A9
:10333000000000D094464E4A926F9208624601D235
:1033400030E0C046F0B54A4EB56F6D08FCD3346E20
:10335000756E776F366F00F025F89446444A146610
:103360005566576716676246F0BDC0469446404AA8
:10337000926F9208624601D258E0C046F0B53C4ECA
:10338000B56F6D08FCD3346E756E776F366F00F0D5
:103390004DF89446364A1466556657671667624676
:1033A000F0BDC046002B24DB11D000293EDA00B569
:1033B000C943404200D1013100F038F8C9434042CE
:1033C00000D10131DB43524200D1013300BD002A5C
:1033D000EBD1002801D1002905D00020C90FC90771
:1033E00001D1C043410800B501F0BEFE0022002318
:1033F00000BD00B500290ADBDB43524200D1013396
:1034000000F014F8C943404200D1013100BDC94366
:10341000404200D10131DB43524200D1013300F080
:1034200005F8DB43524200D1013300BD002923D10E
:10343000002B18D1002A0CD0BC460D4F38667A6696
:1034400000210023FFE7FFE7FFE77A6F386F674649
:103450007047002801D00748010000B501F084FE44
:103460000022002300BD02000B0000200021704755
:10347000000000D0FFFFFFFF002B00D0BDE0130CC9
:1034800026D1002AE7D080B4104F39667A66FFE76C
:10349000FFE730B4040C7B6F396F1B0423433B669A
:1034A000FFE7FFE7FFE7C04684B27B6F3D6F1B0479
:1034B00023433B66FFE7FFE7C04600232C042D0CA7
:1034C0007A6F386F00196941B0BC7047000000D0B6
:1034D000F0B594460025140E01D112020835140FE0
:1034E00001D112010435940F01D192000235D40F9D
:1034F00001D152000135D40B0134254F7C66254C97
:103500003C660E0C93B2FFE7FFE7FFE73C6F6643B4
:10351000360C7703BE467343DF0B5B04C01AB94118
:10352000130C7343DB18C91ACE086643360CB64435
:1035300093B273431F0F1B01C01AB941130C73439D
:103540001F0B1B05C01AB941860D8F023E4366430F
:10355000360C092D24DB520A7243801A7703460A7F
:103560006643360C16235B1BDE40DF40BF19644602
:103570006643821B7046043506330100D940A840DB
:10358000C01900D30131A24206D20023F0BD0000D1
:10359000000000D0FFFFFFFF121B0130F3D3F1E763
:1035A00009277F1BFE406446A2B27243801A00D2F4
:1035B0000139220C7243130C1204821A99410B0038
:1035C0007046043513370100F940A840801900D334
:1035D0000131002B02D1A2420AD2F0BD013000D34A
:1035E0000131121BFAD2013BF8D1A24200D2F0BD48
:1035F000013000D30131121BF7E7F0B51C0C00D0ED
:1036000080E00CB400251C0A04D11B02160E3343C3
:10361000120208351C0B04D11B01160F3343120193
:1036200004359C0B04D19B00960F33439200023566
:10363000DC0B02D192185B4101351C0097186441E4
:103640000134464F7C66464C3C660E0CFFE7FFE7B4
:10365000FFE7C0463C6F6643360C7703BE4697B221
:103660007743C01B00D20139C01B00D201399FB281
:103670007743C91BC91B170C77437E04FF0B801BC4
:10368000B941CE086643360C0C2D33DBB644120B21
:103690001F053A431B0B97B27743C01B00D2013979
:1036A0009FB27743C91B170C77433E043F0C801B26
:1036B000B941860D8F023E43664329277F1BFE409A
:1036C0000C3D7746AF40BF1930BCA2B2ABB27243DB
:1036D0007343801A9941220C7243130C1204801A0E
:1036E000994102000B000137001BA941F9D2781E55
:1036F0000021F0BD0C277F1BFE4077467F0BAF40BB
:10370000FF19E0E700245D1C07D0144F7D66396681
:10371000FFE7FFE7FFE7FFE73C6F95B29EB2654327
:103720006643401BB141150C1E0C654366433604CD
:103730002F0C3E432D04401BB141994204D202009C
:103740000B0020000021F0BD01D19042F7D3801A78
:10375000994101349942F2D3F6E70000000000D00D
:10376000FFFFFFFF48404140484018B4114B5B68E1
:10377000FC46019308BD04DFC339001018B40D4B9B
:103780001B68FC46019308BD00DFCD39001018B45A
:10379000084BDB68FC46019308BD0CDF853C00103C
:1037A00018B4044B9B68FC46019308BD08DF293B15
:1037B00000100000600A0020FFB550404240504019
:1037C00059404B40594000E0FFB5154F4C00640D87
:1037D00003D0BC4204D10C0314D80020090D090504
:1037E0005C00640D03D0BC4204D11C030AD8002243
:1037F0001B0D1B0501264B4009D44B4003D58B42C2
:1038000000D18242FFBD9942FCD19042FFBD0B43E3
:10381000DB1803431343F5D0C9434918FFBD00002B
:10382000FF07000000B5FFF7CFFF804100BDC04695
:1038300000B5FFF7C9FF01D9002000BD012000BD80
:1038400000B5FFF7B9FF01D9002000BD012000BD80
:1038500000B5FFF7B1FF804100BD012040054A00DF
:10386000121804D85A00121801D8002070470120FD
:1038700070470020704700000021002805D17047E4
:10388000C1174840401AFAD0C90713B5064B1B6848
:1038900098470CBC441CA2401005120B0349091B9D
:1038A00009051943114310BD400D00201F040000FD
:1038B00010B54C00620D8023D218DB00D21A5B05D4
:1038C0007E2A10DD9E3A13DACC1709034908194302
:1038D0005242D140640001341532202A05DAD0402A
:1038E0000843604310BD002010BD0846604310BD72
:1038F000C80FC018013810BD18B4044B5B6AFC46F1
:10390000019308BD24DFB13E00100000600A0020D2
:10391000132370B51D78012D10D00BDD1948FFF76A
:1039200089FC194C01008022200000F067FC022D68
:1039300001D070BD144C154BA364FAE7134B124C25
:1039400023606360A360E36023616361A361E3615B
:1039500023626362A362E36223636363A363E3633B
:1039600023646364A364E36423656365A365E3651B
:1039700023666366A366E36623676367A367E367FB
:10398000A364D6E753440000600A00209139001078
:1039900007B5604601880A0A0230DF2AFAD1C9B2A7
:1039A000820804D3028840880004104300E00068C5
:1039B000014A5050039007BD600A00200FB403BCB9
:1039C0000CBCF0B50124E407634000E0F0B50C0D39
:1039D000CF0F661E3605891B640503D3C9434042D9
:1039E00000D30131640D03D0661CF60A07D0E41B36
:1039F00000207F00791C89078912803C24031D0D5B
:103A0000DF0F6E1E36059B1B6D0503D3DB43524251
:103A100000D301336D0D03D06E1CF60A07D0ED1BE9
:103A200000227F007B1C9B079B12803D2D032F1BD8
:103A3000661B58D4A446202E46DA20371400BC401A
:103A40001D00BD40F24033412A4380185941CB0F3D
:103A500005D0C943C04300226442504151416246EF
:103A60004D0D28D10D0D07D100281FD0241940413C
:103A70004941013A0D0DF9D0640006D3013000D35D
:103A80000131002C01D140084000013A0BD4941CB4
:103A9000E40A04D112051144DB071944F0BDD9072B
:103AA000204B194300E0D9070020F0BD0029DDD1EB
:103AB000002CDBD1F0BD0132C6074008CD072843FA
:103AC0004908002EE1D0D9E73C2E29DA203E4037C4
:103AD0001400BC4000D00124F24014431A00BB4043
:103AE0001C43D317ACE7AC46202F08DA203604007D
:103AF000B4400D00B540F84039412843A5E73C2FBC
:103B00000CDA203F40360400B44000D00124F840D5
:103B100004430800B1400C43C117EAE71000190044
:103B2000002494E70000F07FF0B50C0D661E36050A
:103B3000891BE60A6405640D02D0651CED0A04D0F9
:103B4000002001210905803C2403A4461C0D671EAA
:103B50003F05DB1BE70A6405640D02D0651CED0A16
:103B600004D0002201231B05803C240377406444D9
:103B700097B484B296B27443070C7E43150C6F431E
:103B800080B26843361802D3012000043F18300485
:103B9000350C00197D41844688B29AB250430C0C12
:103BA00062431F0C7C438EB27E43921902D30126DE
:103BB0003604A4191604170C3618674101BC81B2EB
:103BC0009AB25143040C62431B0C5C4380B25843CD
:103BD000121802D30120000424181004130C4018FA
:103BE00063412D185E410020474106BC88B293B264
:103BF00058430C0C6343120C544389B251435B1875
:103C000002D301210904641819041A0C091862412D
:103C10006D1856410020474118BCF902720D11433E
:103C2000F0026A0D1043ED020A0D03D16D194041F7
:103C30004941013B124E9B1B7600B3420ED26D00F0
:103C400007D30130002671416646354301D1400853
:103C500040001B05C918E4072144F0BD0BDA01330D
:103C600006D1013004D101314F0D01D04908F2E7EE
:103C7000E1070020F0BD013631050020EBE7000030
:103C8000FF030000F0B51C0D671E3F05DB1BE70AB4
:103C90006405640D02D0661CF60A04D000220123DC
:103CA0001B05803C2403D0252D060026F6432E66F6
:103CB0001E096E66CE0FF619B44649004F0D02D0AC
:103CC0007E1CF60A03D000200021403F3F033E1B2C
:103CD000B600B444013F7F05C91B49082E6F013669
:103CE00076089C02950D25437543ED137543AD137E
:103CF00001356D10F603761B0CB4CC02450D2C4338
:103D0000A2B2B3B25A43270C7B43350C6F43A4B223
:103D10006C431B1902D3012424043F191C041D0CFD
:103D2000A4187D4124196D41009A91B2ACB261434F
:103D3000170C7C432B0C5F4392B25A43A41802D356
:103D400001221204BF182204230C52187B41019C4B
:103D50006C431B19520ED9010A434401A01A81B2C7
:103D6000B2B2514303145A43360C734387B27743BC
:103D7000D617D21900277E4136049B191704160C5A
:103D80007F185E417316ED18F301002680337541EC
:103D9000A90F06D16400690AE8055B0A184309D235
:103DA0002FE00422944480337541A90AA8059B0A98
:103DB000184326D3404149412404009A019B0D0039
:103DC0005543641B4343E41A95B286B27543170CFE
:103DD0007E43030C5F4392B25A43B61802D30122CA
:103DE0001204BF183204330C52197B4152429C41D9
:103DF000002C02D40022013051414008CA07104370
:103E0000490802B06246D7079210084BD218084BF7
:103E10009A4203D212058918C919F0BD0020002A60
:103E200001DC3900F0BD01331905F5E7FD030000A1
:103E3000FE070000624618CA944600291ADAC01824
:103E400061415B463B415C46B4405246FA402243E6
:103E500044464D4662416B41904699462B46B340DD
:103E60003D41FC401C4352465B46A241AB41924659
:103E70009B467047C01AA1414B463B414C46B4405B
:103E80004246FA40224354465D4662416B419246A7
:103E90009B462B46B3403D41FC401C4342464B46AB
:103EA000A241AB41904699467047002000217047DF
:103EB000002200B5203200F004F8080000BD000028
:103EC00000220B15F1D410B5944600F02FF814140D
:103ED000013400DA0021CB17134C20476244343AF6
:103EE0000CD40C2A07DA0400914090405242203250
:103EF000D440214310BDD843D94310BD203207D44C
:103F00000C469440524220321141D040204310BD13
:103F10000800C917203203D452422032104110BD8C
:103F20001800190010BD0000DD3E00100A0DCC0F76
:103F3000531E1B05C91A520503D3C943404200D37F
:103F40000131520D03D0531CDB0A07D0121B002095
:103F50006400611C89078912803A1203014BD21A4E
:103F600070470000FF03000051434343C9188C46CB
:103F7000110C83B24B4310B4040C614392B280B273
:103F8000504362431C041B0C001910BC594113041C
:103F9000120CC01851416144704700004840414034
:103FA0004840064B5B681847044B1B681847034B97
:103FB000DB681847014B9B6818470000600B002026
:103FC000491A002808D1084670470000C10FC907E8
:103FD00000D54042002817D0F44603B40B4B1B68B1
:103FE000984706BC81409E384042803107D20B067C
:103FF00007D04900490AC005104308436047013013
:10400000F8E7490A8902F5E770470000400D0020F3
:1040100041000A0E80231B067E2A0BDD9E3A0BDA36
:10402000C1174002400818435242D04049000131B4
:104030004843704700207047C00FC01801387047D0
:10404000C0420DD300B540004008002100F012F836
:10405000002801D4404200BD8020000600BD0000C1
:10406000034BDB69FC4618471CDF89410010000048
:10407000600B0020014B5B6A18470000600B0020BA
:10408000054A10470029FBD0044B5B6EFC461847DD
:1040900064DF454100100000C13F0010600B0020AC
:1040A000034BDB6FFC4618477CDFA141001000008A
:1040B000600B0020132310B512481C78FFF7BAF8E4
:1040C0000100012C0AD003DD80220F4800F096F891
:1040D0000E48FFF7A7F80E4B186010BD0A4C54228B
:1040E000200000F08BF80B4B6365A365E365236646
:1040F0006366A366E36623676367A367E367236278
:10410000E361E5E753460000600B00204C330000FC
:10411000400D00201941001007B5604601880A0AC9
:104120000230DF2AFAD1C9B2820804D3028840885B
:104130000004104300E00068014A5050039007BD9E
:10414000600B0020002230B5002906D5CD070543BD
:104150004808013A10E0002230B505000D430FD0A9
:10416000CD170C16AC4205D1C901440E2143C00144
:104170000732F6E70500080052423D320149884700
:1041800030BD0000EF2900000021C21580328032CE
:1041900001D0024A1047002070470000CD2A0000DD
:1041A000C30FDB0741000A0E07D0FF2A08D0090918
:1041B000054A8918194340077047190000207047C5
:1041C0000249C918FAE70000000000380000F07F3B
:1041D00010B500F071FB10BD10B500F033FB10BD41
:1041E00001480421014B1847E0010020453200102E
:1041F000014B1B6818470000E0010020014B5B6881
:1042000018470000E0010020F0B546464F46D6466C
:104210008046C0B50E00171E3FDD4B1E9946214B50
:104220000125002400209A460DE04B461B5D0D3B06
:104230005A425341325DDBB20A2A0BD02B000134C3
:1042400001359F421ADD002CEFD14346325D1B7CC5
:104250000A2AF3D1002BF1D1A04204DA4346211AF5
:104260001B6830189847434650461B680221984700
:10427000013428002B0001359F42E4DC874204DD35
:104280004346391A1B6830189847F619013E3378AF
:104290000D3B5A42534142461374E0BCBA46B14604
:1042A000A846F0BD10550010F8B5CE4647460D00A3
:1042B0000968060080B5802907D04B1C2B606D185B
:1042C0002E71C0BCB946B046F8BD134B1C68002C1B
:1042D0001BD0124B98462B1D994602E0E468002C37
:1042E00013D02768002FF9D043461B68002B01D05C
:1042F0009C42F3D1637C2A68002B09D020004946F8
:10430000FFF782FFE468002CEBD101230021D5E701
:1043100011004846B847E1E7140D00201C0D0020AD
:10432000F0B557464546DE464E46D023E0B51B065F
:104330001C68354B83B007000D00180001A990469A
:104340009A4600F021FF8146002807D1019B9C423C
:1043500004D0504600F020FF012399466B1C03D186
:10436000380000F095FD0500284B1C68002C2FD06C
:104370000A23274E9B4602E0E468002C28D02268DE
:10438000002AF9D03368002B01D0A342F4D1637C1A
:10439000002B27D02A0039002000FFF735FF4346C5
:1043A000002BE9D06B465A461A71637C002B1DD056
:1043B000237C002B23D00121236801A898476B465A
:1043C0001B790D3B5A4253412374E468002CD6D12B
:1043D0004B46002B0FD103B0F0BCBB46B246A946FA
:1043E000A046F0BD290038009047D8E70121236896
:1043F00001A89847C0E7504600F0AEFEEBE7022167
:10440000044823689847DAE7400A0020140D00208A
:104410001C0D00201055001010B582B06B46040032
:104420000022D81D01210470FFF77AFF200002B09E
:1044300010BDC04670B5040000F02AFD0122010045
:1044400005002000FFF76CFF084B1C68002C06D00D
:104450006368002B05D09847E468002CF8D1280049
:1044600070BDE468002CF3D1F9E7C046140D0020BC
:104470000D4A1368002B13D0834202D109E0984201
:1044800008D01A00DB68002BF9D1002900D0D060D9
:1044900070471A000029FBD1DB68D360C160F7E7E1
:1044A0000029F5D01060F3E7140D0020F0B5464662
:1044B000D6464F46D023C0B51B061F68314BA2B06D
:1044C00004000D00180001A9984600F05DFE061ECC
:1044D00006D1019B9F4203D0404600F05DFE0136AD
:1044E0008422002101A8FFF783FE2B00220026482A
:1044F00001A9FEF767FE019B0700002B15D1234B96
:104500001C68002C06D06368002B0CD09847E46828
:10451000002CF8D1002E2FD1380022B0E0BCBA46D2
:10452000B146A846F0BDE468EBE7184B1D689A4613
:10453000002D25D0164B994602E0ED68002D13D0D2
:104540002C68002CF9D04B461B68002B01D09D42F3
:10455000F3D16B7C019A002B0AD0280002A9FFF747
:1045600053FEED68002DEBD1534601951C68C8E75A
:10457000110002A8A047E0E7404600F0EDFDCBE7C0
:104580000195C7E7400A0020A9420010140D002041
:104590001C0D00200FB400B583B004A901C901911E
:1045A000FFF784FF03B008BC04B0184710B500F053
:1045B0003BF810BDF0B5002910D045180D2720217B
:1045C000094B0A4A00269E5F0478A64207D09369E9
:1045D0001942FCD101301460A842F5D1F0BD9369B5
:1045E0001942FCD11760F2E7580D0020004003404B
:1045F00030B504000D000020002910DD1021094A0B
:10460000013C9369194208D1013093691942FCD1E8
:10461000136823548542F4D130BD0028FCD1032017
:104620004042F9E700400340E12110B50A4B49023E
:104630001B780A4B0A481B78FCF7A2F902210020DC
:10464000FCF722F902210120FCF71EF9012105489F
:10465000FFF70EFF10BDC0468055001084550010B6
:1046600000400340F0010020F0B5D6464F464646D4
:104670008846C0B505240600FCF71EF943461F799D
:104680001C57284B8146F01843425841264B9A4606
:1046900083009C4653466246985801222023BA4024
:1046A000DB1B013A002C32DB9C422DDCA2401500C2
:1046B000104229D1002F1AD043465A781978120295
:1046C000114342469B78D2781B040B4312061A43CF
:1046D0009046002241465300C95A4B0B00D109199C
:1046E000131912339B00013299519742F2D8534665
:1046F000624605439D504846FCF7EAF82000E0BCBE
:10470000BA46B146A846F0BD0848FCF739FF002B71
:1047100002DAF9E7013BF7D315009D401C00054282
:10472000F8D1C7E70000D0AFCC0C002054550010E2
:10473000F0B54E464546DE4657468A464900E0B546
:104740000D0080465544ED0045448946290009ACDA
:104750002678DC31741EA6410868744284461448E9
:104760001F26834626405E44052B0CD9A0201F2718
:104770004005D835540104430532053B0C603A40EE
:104780002E60052BF6D849465144C90041445201D8
:104790009B0613430A000800DC3213606346D830DE
:1047A00006601360F0BCBB46B246A946A046F0BD09
:1047B00080E00000F0B501258D400468AC434D0059
:1047C00004606C18E40004192600C836002B2AD0B7
:1047D0001F68DC3437605F6877609F68DB68B760AC
:1047E00023606D18EB001D008024D035451964014D
:1047F0002C4380252D0625602560114C0D1D8C4015
:10480000846001242700AF403D0008318C401F2107
:1048100006680A403543056005682C430460C018EB
:10482000D8300260F0BD80277F023760F8277F0212
:104830007760C027DC343F03B7602360D1E7C04610
:1048400001010101030010B50A00034908681900BD
:1048500000F004F810BDC0460402002010B551431A
:1048600000F034F8041E0ED00300083B5A680323FE
:104870009A43043A242A15D80300132A05D80022A3
:104880001A605A609A60200010BD00210833016050
:1048900041601B2AF3D98160C160242A06D003003D
:1048A0001033ECE70021FFF7A3FCECE70300016104
:1048B00018334161E3E7C04610B5034B01001868A7
:1048C00000F004F810BDC04604020020F0B54E46CA
:1048D0004546DE465746E0B50D000B35060083B071
:1048E000162D22D8102900D9B2E000F0AFFA102519
:1048F00018230220CB4FFB181A005C68083A944238
:1049000000D1B5E0032362689A431300E268A1680E
:10491000CA6091600122E318596830000A435A6066
:1049200000F09CFA2000083095E007239D4300D555
:104930008EE0A94200D98BE000F088FAFC235B00EE
:104940009D4200D2A5E1680A00D18BE0042800D97D
:1049500078E138239846A80980443930C100B14F26
:1049600079184C680839A1420ED003239C4604E014
:10497000002ACBDAE468A14206D06246636893431A
:104980005A1B0F2AF4DD40463A003C690832944233
:1049900000D178E003236168994389460B00491BE5
:1049A0000F2900DD79E17A613A610029B2DA8022CB
:1049B0009200914500D30EE15909DA0801238B409A
:1049C000D2007968D2190B4391687B60E260A160E4
:1049D0009460CC60012182109140994259D80B42D9
:1049E00005D103229043490004300B42FBD003233E
:1049F0009846C3009946B944CC4682466346DC6873
:104A0000A44507D12AE1002A00DB33E1E468A4458C
:104A100000D123E14246636893435A1B0F2AF2DD1B
:104A200001208046611905436560A068E568083784
:104A3000C560A86040461043F960B9604860CF6027
:104A400030008F60E25000F009FA2000083002E0E8
:104A50000C230020336003B0F0BCBB46B246A9462D
:104A6000A046F0BD80213F2340209846890076E78C
:104A7000DC680230A34200D044E73A003C690832C7
:104A8000944200D086E701217B68821091409942D0
:104A9000A5D90323BC6862689A439146954203D81E
:104AA000531B0F2B00DD88E023004B445E4A01932B
:104AB0005E4B93461B681268EB18013200D13BE154
:104AC0005B4A944663441B0B1B0300933000009920
:104AD00000F0CCF903008046013300D1F8E0019BDF
:104AE000834200D9F2E0534B19009A460968009BB3
:104AF0008C46514663440B6001991A00814200D1F3
:104B000050E15B461B68013300D155E143460199F2
:104B10005B1A9A1853461A600723424641461A40C8
:104B20000192194200D111E108239846881A424B9C
:104B30000099804441449B1A5B1A1B051B0D009190
:104B4000300019009B4600F091F9431C00D14FE161
:104B50004346C01A03005B440093534652461B6809
:104B600001215B44136042464046BA60009A0A4302
:104B70004260BC4200D123E14A460F2A00D821E11D
:104B800007200C3A824360680140052011436160B0
:104B9000A118486088600F2A00D934E14246444693
:104BA000526826490868984200D20B602449086878
:104BB000984200D38EE00B608CE001222900134361
:104BC0001143651961603000BD606B6000F046F90B
:104BD000200008303FE75A0A042A71D9142A00D964
:104BE000C4E011005C325B31D20008235B429C467A
:104BF000BA18944463469A6803239846944500D1B2
:104C00009DE0434651689943494502D992689445CD
:104C1000F7D1D3689C467B686146A260E1608C60F6
:104C2000D460D7E630060020380A0020C80C0020E7
:104C30000F100000980C002008100000C00C00208D
:104C4000C40C0020142852D9542800D996E06E23B1
:104C50009846280B80446F30C10080E608239B46AD
:104C6000073BDC449B46DA4443465246134200D09D
:104C7000C4E64CE00122E318596830000A435A6048
:104C8000E368A268D3609A6000F0E8F8200008307A
:104C9000E1E62B00E80808332CE6012360191D43E8
:104CA000656078613861C26082601A004B460A43D1
:104CB00042603000E15000F0D1F820000830CAE630
:104CC0009A09110039323831D2008EE7BC4260D0E7
:104CD000BC68626803239A43531B954202D80F2B8A
:104CE00000DD6AE7300000F0B9F80020B3E65B238E
:104CF000984680445C30C10031E608235B429C4604
:104D0000E1444B469B6801384B4500D098E0434650
:104D10000342F2D17B688B437B604900994200D902
:104D2000B7E6002904D1B4E6042294464900E244DF
:104D30000B42F9D050465CE610330093C6E689106A
:104D4000023B8B4079680B437B6065E7009B30003A
:104D500043445B421B051B0D19009B4600F086F87F
:104D6000431C00D0F4E600239B46F6E6542A2BD8D9
:104D70001A0B11006F326E31D20036E7AA235B00A6
:104D800098422BD8DD3B9846E80B80447830C10030
:104D9000E5E52C4B009A9A461B689C4653466244B4
:104DA0001A60AEE6090500D0ABE6009ABC684A443A
:104DB00001310A436260F4E65B4642461A60ABE6A4
:104DC0004446EEE641608DE7AA2149008A4224D894
:104DD000DA0B110078327731D20006E71A4B98428D
:104DE00024D87C239846A80C80447D30C100B6E5C9
:104DF000009A019B94464246083B63449B1A0093E9
:104E000000239B46A9E621003000083100F0BCF8E1
:104E10005346BC681B686268C3E60B498A420BD8DC
:104E20009A0C11007D327C31D200DEE6FE217E2319
:104E30007F209846890092E5FE227E219200D4E6EA
:104E40007B686AE7980C00205405000010B5024802
:104E500000F07CF910BDC046940C002010B502484B
:104E600000F076F910BDC046940C0020002370B508
:104E7000064D040008002B60FCF766FB431C00D0C5
:104E800070BD2B68002BFBD02360F9E7180D0020C4
:104E900010B583070AD00300032102E001330B425F
:104EA00005D01A78002AF9D1181A10BD0300196824
:104EB0000C4A0D4C8A188A4322420FD15968094A7C
:104EC00004338A188A43224208D15968054A0433B8
:104ED0008A188A432242F1D000E001331A78002A6E
:104EE000FBD1E1E7FFFEFEFE80808080F8B50C007C
:104EF0000500FFF7ABFF204FBB685E6803239E43AE
:104F00001E4B341B9C466444240B013C1133240388
:104F10009C4207DB00212800FFF7A8FFBB689B1914
:104F2000984204D02800FFF799FF0020F8BD280020
:104F30006142FFF79BFF431C0DD00122BB68361B6B
:104F400016435E600E4B28001A68141B1C60FFF7A6
:104F500085FF0120EAE700212800FFF787FFBA68F4
:104F6000831A0F2BDEDD07490968401A04490860DF
:104F700001210B435360D5E730060020EF0F0000FE
:104F8000980C0020380A0020F0B5C64605000C0039
:104F900000B500294FD0FFF759FF210008394C68B0
:104FA000012622000320B2438F187B6883436248A6
:104FB00098468368BB426AD043467B6026421ED136
:104FC00008239C460C688444091B12198C686445AC
:104FD0004FD0CB68E3609C604346FC186468344261
:104FE00011D1BB68554C4244A34200D17EE0FC681D
:104FF000DC60A360012313434B608A5006E0FC1879
:1050000064683442EDD016434E603A6080239B00C2
:105010009A4213D25409D3080122A2404468DB000B
:105020002243426018188368C8608B608160D96031
:105030002800FFF713FF80BCB846F0BD530A042BCD
:105040003ED89409260039343836E4000419236820
:10505000083C03279C4242D05868B843904202D98A
:105060009B689C42F8D1DC68CC608B60A160D96001
:10507000DEE74346F8184068304257D1FB68B8680D
:1050800042441643C36098604E608A50D0E71300D4
:105090004344264206D10A68891A8C689B18CA685C
:1050A000E260946001221A434A60254A81601268D6
:1050B0009A42BDD8234B28001968FFF717FFB7E7BE
:1050C000142B07D9542B1AD8140B26006F346E36C4
:1050D000E400BBE71E005C335B36DC00B6E7012270
:1050E000B610B240466832434260BDE7D96099606D
:1050F000CB608B60012313434B608A5098E7AA244E
:105100006400A34205D8D40B260078347736E40037
:105110009CE70D4CA34205D8940C26007D347C36C8
:10512000E40093E7FE247E26A4008FE733001343B8
:105130004B603A607CE7C04630060020380600200D
:105140003C0A0020C80C0020540500007047C046EF
:105150007047C046F8B5C04601B40248844601BC59
:10516000604700BF5101002001B40248844601BCE1
:10517000604700BF7901002001B40248844601BCA9
:10518000604700BF7901002001B40248844601BC99
:10519000604700BF0D01002001B40248844601BCF5
:0851A000604700BFC1000020C0
:1051A800546F74616C2074696D653A2025332E360E
:1051B80066207365636F6E6473200A00546F7461B0
:1051C8006C20697465726174696F6E733A20256426
:1051D80000000000E451001009FF0000A08027A093
:1051E800420000FF00FF00FF01FF01EC00C10000CA
:1051F8000052001009FF0000A08047A000E022A094
:10520800C123A08003640362450000001C52001003
:105218000EFF0000A08027A0C02001C0420049E086
:10522800C020860000E0C020C0205FE0C0388C00AD
:10523800486172647761726520616C61726D2025C6
:105248006420616C726561647920636C61696D6565
:10525800640000000A2A2A2A2050414E4943202A85
:105268002A2A0A000A0000004861726420617373E8
:1052780065727400666E6900666E692B0000000036
:105288006E616E00666E692D0000000088270010B0
:105298003E2700103E270010802700103E270010F0
:1052A8003E2700103E2700103E2700103E27001022
:1052B8003E2700103E270010782700103E270010D8
:1052C800702700103E2700103E27001068270010A6
:1052D8003A2900109A2700102E2900109A2700104A
:1052E8004A2900109A2700109A2700109A270010C0
:1052F8009A2700109A2700109A2700109A27001062
:10530800902700109A2700109A2700109A2700105B
:105318009A2700109A270010902700109029001053
:10532800FA260010FA260010FA260010FA260010B5
:10533800FA260010FA260010FA260010FA260010A5
:10534800FA260010FA260010FA260010FA26001095
:10535800FA260010FA260010FA260010FA26001085
:10536800FA260010FA260010FA260010FA26001075
:10537800FA260010FA260010FA260010FA26001065
:10538800FA260010FA260010FA260010FA26001055
:10539800FA260010FA260010FA260010BE2B00107C
:1053A8005C290010BE2B0010FA260010FA26001007
:1053B800FA260010FA260010FA260010FA26001025
:1053C800FA260010FA260010FA260010FA26001015
:1053D800FA260010FA260010FA260010FA26001005
:1053E800FA260010FA26001042280010FA260010AB
:1053F800FA260010FA260010FA260010FA260010E5
:10540800FA260010FA260010FA260010FA260010D4
:1054180042280010A429001042280010BE2B0010BA
:105428005C290010BE2B0010FA260010422800103C
:10543800FA260010FA260010FA260010FA260010A4
:10544800FA26001042280010CE2A0010FA26001072
:10545800FA260010102A0010FA2600104228001020
:10546800FA260010FA26001042280010000000005A
:10547800000000000000F03F000000000000244091
:1054880000000000000059400000000000408F406C
:10549800000000000088C34000000000006AF840D7
:1054A8000000000080842E4100000000D0126341FB
:1054B8000000000084D797410000000065CDCD4171
:1054C80052656C6561736500312E302E3100000025
:1054D8007069636F000000006D616E64656C6272D4
:1054E8006F74000041707220323020323032310047
:1054F80006005250BBFF3CB6D8540010060052506C
:10550800D3F07542C85400100D0A0000554152549A
:1055180020737464696E000055415254207374649A
:105528006F7574005541525420737464696E202F4E
:10553800207374646F7574000600525053B4F4A15C
:105548002C55001008005250920000004E6F207039
:10555800726F6772616D207370616365000000008F
:10556800B4020010A80200109C020010F8540010A9
:105578009002001004550010405500104C550010C2
:1055880010B502680024EFF3108172B61368002B7F
:10559800FCD0BFF35F8F03797F2B0BD80368BFF371
:1055A8005F8F1C6081F3108820BF0268EFF31081C1
:1055B80072B6EBE7D0231B061B6803710368BFF3C1
:1055C8005F8F00221A6081F3108810BD0300006805
:1055D800EFF3108C72B60268002AFCD0BFF35F8F1D
:1055E80004229A56002A0BDB00290FD000200A60FB
:1055F8001B68BFF35F8F00221A608CF31088704716
:10560800D0221206126801201A71F1E70020EFE794
:105618000268EFF3108172B61368002BFCD0BFF359
:105628005F8FFF23037140BF0368BFF35F8F0022C2
:105638001A6081F3108870477047C0465C0D0020DF
:105648001000000000000000000001000000000041
:105658000000000000000200000000000000000040
:105668000000030000000000000000000000FF0030
:105678000000000000B5486801318E4600477046BA
:1056880009380149884700BD851B0010000000004B
:10569800503300004C3300005433000052330000F4
:1056A8004D5300004D4300005334000043340000C4
:1056B800B545001000000000F14500100000000092
:1056C800000100000802002000000000F40400208F
:1056D8005C050020C4050020000000000000000058
:1056E80000000000000000000000000000000000B2
:1056F80000000000000000000000000000000000A2
:105708000000000000000000000000000000000091
:105718000000000000000000000000000000000081
:105728000000000000000000000000000000000071
:105738000000000000000000000000000000000061
:105748000000000000000000000000000000000051
:105758000000000000000000000000000000000041
:105768000000000000000000000000000000000031
:1057780001000000000000000E33CDAB34126DE6CE
:10578800ECDE05000B000000000000000000000037
:105798000000000000000000000000000000000001
:1057A80000000000000000000000000000000000F1
:1057B80000000000000000000000000000000000E1
:1057C80000000000000000000000000000000000D1
:105AF80000000000000000003006002030060020F2
:105B08003806002038060020400600204006002005
:105B180048060020480600205006002050060020B5
:105B28005806002058060020600600206006002065
:105B38006806002068060020700600207006002015
:105B480078060020780600208006002080060020C5
:105B58008806002088060020900600209006002075
:105B68009806002098060020A0060020A006002025
:105B7800A8060020A8060020B0060020B0060020D5
:105B8800B8060020B8060020C0060020C006002085
:105B9800C8060020C8060020D0060020D006002035
:105BA800D8060020D8060020E0060020E0060020E5
:105BB800E8060020E8060020F0060020F006002095
:105BC800F8060020F8060020000700200007002043
:105BD80008070020080700201007002010070020F1
:105BE80018070020180700202007002020070020A1
:105BF8002807002028070020300700203007002051
:105C08003807002038070020400700204007002000
:105C180048070020480700205007002050070020B0
:105C28005807002058070020600700206007002060
:105C38006807002068070020700700207007002010
:105C480078070020780700208007002080070020C0
:105C58008807002088070020900700209007002070
:105C68009807002098070020A0070020A007002020
:105C7800A8070020A8070020B0070020B0070020D0
:105C8800B8070020B8070020C0070020C007002080
:105C9800C8070020C8070020D0070020D007002030
:105CA800D8070020D8070020E0070020E0070020E0
:105CB800E8070020E8070020F0070020F007002090
:105CC800F8070020F807002000080020000800203E
:105CD80008080020080800201008002010080020EC
:105CE800180800201808002020080020200800209C
:105CF800280800202808002030080020300800204C
:105D080038080020380800204008002040080020FB
:105D180048080020480800205008002050080020AB
:105D2800580800205808002060080020600800205B
:105D3800680800206808002070080020700800200B
:105D480078080020780800208008002080080020BB
:105D5800880800208808002090080020900800206B
:105D68009808002098080020A0080020A00800201B
:105D7800A8080020A8080020B0080020B0080020CB
:105D8800B8080020B8080020C0080020C00800207B
:105D9800C8080020C8080020D0080020D00800202B
:105DA800D8080020D8080020E0080020E0080020DB
:105DB800E8080020E8080020F0080020F00800208B
:105DC800F8080020F8080020000900200009002039
:105DD80008090020080900201009002010090020E7
:105DE8001809002018090020200900202009002097
