:020000041000EA
:10000000002008205D0100101B0100101D010010E0
:100010001101001011010010110100101101001058
:100020001901001019010010190100101F01001022
:10003000110100101901001021010010230100100E
:100040001101001011010010110100101101001028
:100050001101001011010010110100101101001018
:100060001101001011010010110100101101001008
:1000700011010010110100101101001011010010F8
:1000800011010010110100101101001011010010E8
:1000900011010010110100101101001011010010D8
:1000A00011010010110100101101001011010010C8
:1000B00011010010110100101101001011010010B8
:1000C00011010010110100101101001011010010A8
:1000D0001101001011010010110100101101001098
:1000E0001101001011010010110100101101001088
:1000F0001101001011010010110100101101001078
:100100001101001011010010110100101101001067
:10011000EFF30580103800BE00BE00BE00BE00BE7A
:1001200000BE00BEF2EB8871145001103450011073
:10013000A001001090A31AE7D3DEFFFF42012110B7
:10014000FF010000205B0100793512AB4FF0000089
:100150001E49086006C881F3088810474FF05040D8
:10016000006810B14FF00000F2E70DA40ECC00299A
:1001700002D000F012F8F9E71549164A002000E015
:1001800001C19142FCD11449884714498847144958
:10019000884700BEFDE701C901C29A42FBD3704700
:1001A0003450011010010020340D0020585C011063
:1001B0000000082000000820585C011000100820F2
:1001C00000100820000000007047000008ED00E06B
:1001D000340D0020386D0220796900108D12001056
:1001E0003D690010F8B500BF064B0749C91A8910D0
:1001F00048BF0131491003D0044B0BB101481847E7
:10020000704700BF340D0020340D002000000000B6
:1002100008B5054B1BB105490548AFF30080BDE8A3
:100220000840FFF7E1BF00BF00000000741100208C
:1002300084CD0010036870B50125044633B31B4E0E
:1002400026600DB9012070BD04F0C6F8184DD5E93F
:10025000002390429941F5D34FF050431B68012B86
:1002600020D00122134B1A6004F0B6F8124A134B47
:10027000C018137841F1000183F001036960286020
:100280001921137043EC40100025D9E7192003F021
:10029000DDFB192345EC443045EC4030034B012095
:1002A000236070BD064A1360DEE700BF4002001005
:1002B000C00E0020B0110020326D0220A086010087
:1002C000B41100202DE9F04F04680126054695B0D1
:1002D000002C00F07581A04B2B601EB9012015B0D9
:1002E000BDE8F08F04F078F89C4BD3E900239042EE
:1002F0009941F3D34FF050431B68012B00F0298143
:100300000122974B1A60974B1A78002A40F02184FB
:100310004FF0504394490A6801320A605C6814F453
:100320000034FBD1914B4FF42072B3F900303221ED
:1003300020460093962303F0C9F9DFF874B204F065
:100340004BF88B4B2D221B786421BBF9000002F087
:1003500033F8BBF800006421233800B202F090FEAD
:1003600021460F2002F0A8FE824803F015F9DFF8BD
:1003700044A2814B2D221B786421BAF9000001F0C0
:1003800013FEBAF800006421233800B202F078FEB0
:1003900021460F2002F090FE784803F0FDF8552327
:1003A000774ADFF81492127834210092B9F90000EC
:1003B0001A4602F07BFDB9F800006421053000B256
:1003C00002F05EFE21460F2002F076FE6D4803F03B
:1003D000E3F855236C4ADFF8E48112783421009267
:1003E000B8F900001A4601F051FDB8F800000526E2
:1003F0000530642100B202F043FE21460F2002F0D6
:100400005BFE624803F0C8F83C23614A614F1278F2
:100410001946CDE900625622B7F9000002F08AFBC6
:1004200038886421013000B202F02AFE21460F20F4
:1004300002F042FE584803F0AFF8584B00961B7884
:10044000574E019356223C234621B6F9000002F094
:1004500019F930886421013000B202F011FE214602
:100460000F2002F029FE4F4803F096F83E4B40F271
:100470007E201B68B9F800C0DB430CF1010CA9F821
:1004800000C0B8F800C003F001039C44A8F800C005
:10049000B7F800C0BBF80010BAF80020634402317E
:1004A0003B80338809B2053212B201338142ABF886
:1004B0000010AAF80020338000F3878340F27E23E7
:1004C0009A4200F3788340F27E23B9F900209A42E1
:1004D00000F3678340F27E23B8F900209A4200F3CC
:1004E000568340F27E23B7F900209A4200F34683F8
:1004F00040F27E23B6F900209A4200F33683039B34
:100500000F220133DCB264214FF4A070039403F096
:1005100011F9A0214FF4A07002F0B2FD192C40F2A5
:100520001F830F21002002F0C7FD332C34BF234668
:10053000002303931C4803F003F803F04DFF44F637
:100540002062064B801841F10001002618605960B6
:10055000C1E6164A1360D6E6D6020010780F0020D6
:10056000B01100203E060020201500201C110020A4
:100570003C06002030D00010380600203CD000108F
:100580003406002048D000103006002054D000105F
:100590002C0600202E06002060D000102806002027
:1005A0002A06002070D0001080D00010B411002066
:1005B0002E6D02203A06002036060020320600206A
:1005C00008273223DC2221460E20009702F06EFC21
:1005D0000B213223B022FA200091214602F066FC62
:1005E00003213223B02240F2B3100091214602F0E1
:1005F0005DFC0F2002F056FD21460F2002F040FD69
:10060000304602F047FDE44802F060FD0A210F2069
:1006100002F036FDE14802F059FD14210F2002F0EE
:100620002FFDDF4802F052FD1E210F2002F028FDB1
:10063000DC4802F04BFD0A21FF2002F021FD20469C
:1006400002F030FDD84802F07BFF0A214FF4DB7046
:1006500002F016FD204602F025FD304602F01AFD9C
:10066000D24802F033FD14214FF4DB7002F008FD94
:10067000CF4802F02BFD1E214FF4DB7002F000FD8D
:10068000CC4802F023FD0F2002F00CFD21460F2084
:1006900002F012FD304602F0FDFC4FF0140AA046B5
:1006A000474696240FFA8AF93C2326B2FAB231461D
:1006B000484600921A4602F0F9FB3146484602F0DD
:1006C000DFFC46343A46BC4904A806F0B9F8A4B2A7
:1006D00004A802F0FBFCB4F5D77F07F10407E3D1CF
:1006E00008F101080AF1460AB8F1040F1FFA8AFA64
:1006F000D6D1C821142002F0C3FCB04802F0E6FCB9
:10070000C8215A2002F0BCFCAD4802F0DFFCC82131
:10071000A02002F0B5FCAB4802F0D8FCC821E620CE
:1007200002F0AEFCA84802F0D1FC4FF4877114200F
:1007300002F0A6FCA54802F0C9FC4FF487715A20CC
:1007400002F09EFCA24802F0C1FC4FF48771A02089
:1007500002F096FC9F4802F0B9FC4FF48771E62046
:1007600002F08EFC9C4802F0B1FC4FF4AA711420F8
:1007700002F086FC994802F0A9FC4FF4AA715A20B5
:1007800002F07EFC964802F0A1FC4FF4AA71A02072
:1007900002F076FC934802F099FC4FF4AA71E6202F
:1007A00002F06EFC904802F091FC4FF4CD711420E1
:1007B00002F066FC8D4802F089FC4FF4CD715A209E
:1007C00002F05EFC8A4802F081FC4FF4CD71A0205B
:1007D00002F056FC874802F079FC4FF4CD71E62018
:1007E00002F04EFC844802F071FC96214FF4A57093
:1007F00002F046FC0021032002F05EFC7F4802F07C
:1008000065FC9E214FF4A57002F03AFC00210820FF
:1008100002F052FC7A4802F059FCA6214FF4A57070
:1008200002F02EFC00210A2002F046FC754802F07E
:100830004DFC0021062002F03FFCAE214FF4A570D4
:1008400002F01EFC704802F041FCB6214FF4A57086
:1008500002F016FC00210D2002F02EFC6B4802F085
:1008600035FCC8214FF4A57002F00AFC00210320DA
:1008700002F022FC664802F08FFED0214FF4A570F2
:1008800002F0FEFB0021082002F016FC5C4802F09A
:1008900083FED8214FF4A57002F0F2FB00210A205C
:1008A00002F00AFC574802F077FE0021062002F011
:1008B00003FCE0214FF4A57002F0E2FB524802F085
:1008C0006BFEE8214FF4A57002F0DAFB00210D2049
:1008D00002F0F2FB4D4802F05FFE022002F0DAFB6C
:1008E000FA214FF4967002F0CBFB0021032002F0B6
:1008F000E3FB48480F2602F0E9FB4FF485714FF403
:10090000967002F0BDFB0021082002F0D5FB3C48A8
:1009100002F0DCFB4FF48D714FF4967002F0B0FBE7
:1009200000210A2002F0C8FB364802F0CFFB00216C
:10093000062002F0C1FB4FF495714FF4967002F05F
:100940009FFB314802F0C2FB4FF49D714FF496704B
:1009500002F096FB00210D2002F0AEFB2B4802F0C6
:10096000B5FB012002F096FB4FF4AF714FF4A57078
:1009700002F086FB0021032002F09EFB264802F0D5
:10098000DFFD40F26D114FF4A57002F079FB0021FC
:10099000082002F091FB41E088CD0010ACCD0010A2
:1009A000C8CD0010E8CD001004CE00101CCE001001
:1009B0003CCE001050CE001060CE001064CE00106F
:1009C0006CCE001078CE00107CCE001084CE0010CB
:1009D00090CE001098CE0010A4CE0010ACCE001027
:1009E000B0CE0010BCCE0010C4CE0010CCCE001093
:1009F000D4CE0010DCCE0010E8CE0010F0CE0010F7
:100A000008CF001020CF00103CCF001058CF0010AE
:100A100064CF001080CF001098CF0010704802F013
:100A20008FFD4FF4BE714FF4A57002F029FB002139
:100A30000A2002F041FB6B4802F082FD00210620F3
:100A400002F03AFB40F28B114FF4A57002F018FB54
:100A5000654802F075FD4FF4CD714FF4A57002F0BA
:100A60000FFB00210D2002F027FB604802F068FD1B
:100A70000F2332224B20214601F09EF8214605200B
:100A800002F0FEFA00210F2002F016FB584802F097
:100A900083FD4FF4E273782240F2BD114B200096A3
:100AA00001F0FCF84FF4DC71052002F0E9FA0021B6
:100AB000304602F001FB4F4802F06EFD334619222A
:100AC0004FF4E1714B2001F043F84FF4E171052040
:100AD00002F0D6FA0021304602F0EEFA464802F063
:100AE0005BFD03224FF4E371DC2002F023FE0322BE
:100AF0004FF4E571DE2001F007F84FF4E171962024
:100B000002F0BEFA0021304602F0D6FA3B4802F06D
:100B100043FD21464FF4AA7002F0B2FA002130469C
:100B200002F0CAFA364802F037FD4FF4DC714FF498
:100B3000AA7002F0A5FA0021304602F0BDFA314851
:100B400002F02AFD002303932F4B1A78002A3FF46A
:100B5000DFAB002210461A702A6015B0BDE8F08F96
:100B600000210F2002F0A8FAE4E40023338006F00D
:100B7000E5FD264B00F00F001880C0E400233B8009
:100B800006F0DCFD224B00F00F001880B0E40023DB
:100B9000A8F8003006F0D2FD1E4B00F00F001880C0
:100BA0009FE40023A9F8003006F0C8FD1A4B00F0BE
:100BB0000F0018808EE40023AAF8003006F0BEFD76
:100BC000164B00F00F0018807DE4ABF8004006F0F3
:100BD000B5FD134B00F00F00BAF9002018806DE44A
:100BE00008CF001020CF00103CCF001058CF0010CD
:100BF000BCCF0010C8CF0010D4CF0010E0CF001041
:100C0000ECCF001010D000103E0600202806002077
:100C10002C06002030060020340600203806002074
:100C20003C06002038B57B4D2C68002C00F0A680D7
:100C300044F001042047784B784A9B692A609A0661
:100C400000F182804FF050431B68012B00F0BD8003
:100C50000122734B1A60734BB3F900307F2B00F005
:100C6000AD806D4A936913F02003FBD17F206E495C
:100C700010600A68013A00F19F800A60FE2A40F382
:100C80008F80002302202B6038BD634B674A9B692D
:100C90002A609B0658D44FF050431B68012B00F08C
:100CA0009E8001225E4B1A60614A5E4B1178B3F957
:100CB00000308B4200F08C80574A936913F0200378
:100CC000FBD10D29116000F08D807F2971D056482D
:100CD00003685A1C02605748C154CFE74E4B564A2E
:100CE0009B692A6098062FD44FF050431B68012B54
:100CF0005CD001224A4B1A604A4BB3F900300A2BF0
:100D000000F08180444A93699B06FCD40A23136057
:100D1000B7E7414B494A9B692A609C0614D44FF0BF
:100D200050431B68012B6BD001223D4B1A603D4B99
:100D3000B3F90030202B5CD0374A93699906FCD474
:100D40002021364B11602B60012038BD324B3C4ACC
:100D50009B692A60D806F7D44FF050431B68012BDB
:100D600021D001222E4B1A602B4A9369D906FCD45C
:100D700011682E4B2E4A2B601170E5E7FF222146A9
:100D80002C4806F069FF284B234A1C609369D9065A
:100D900006D49369DB06FCD413689369DC06F8D5A6
:100DA000274B2B60D0E7274A1360DDE7254A136005
:100DB000A2E7224B2B60C7E70B60F1E7164A936965
:100DC0009B06FCD40D2313604BE71E4A136042E7D9
:100DD000114A93699C06FCD40D2313606CE7194AF1
:100DE000136061E7104A13481168134A43542A609C
:100DF000AAE7094A93699806FCD40D2313609BE780
:100E0000104A136093E7044A93699906FCD40D23B2
:100E1000136077E7C413002000000740360C001071
:100E2000B011002024150020AC1100208A0C001005
:100E3000336D0220C4110020DC0C0010120D0010D4
:100E40004C0D0010B41100202DE9F84F3F4B1F68E6
:100E5000002F77D13E4BD3F80080B8F1000F1CD1A2
:100E60003C4E47463C4CDFF8F490336811E00023D9
:100E70003A4D03EB430309EB830328469B689847ED
:100E80002368326801339342236005F10C05F0DBDF
:100E90001346002B2760EADCFEE7B8F1010F01D012
:100EA000BDE8F88F2C4C2B4EDFF8B090DFF8BC80FB
:100EB0002B4DDFF8BCA0D8F8003032680133002A8F
:100EC000C8F80030276000DCFEE7DFF890B02F6044
:100ED00003F082FA2368CAE9000103EB430309EB3C
:100EE00083039B68584698472A682368012A07D0DD
:100EF00032680133934223600BF10C0BDBDAE6E737
:100F0000184951F82320013241F8232003F064FAF4
:100F10008E46D4F800B0144BDAF8041053F83B2096
:100F200003EBCB0CDAF80030D31ADCF8042062EBC8
:100F300001021B180C4842EB0E0240F83B30CCF883
:100F40000420B8E747F00107384700BFB811002078
:100F5000C0110020CC13002060110020D413002009
:100F6000B0110020CC140020C80E0020C4140020B2
:100F7000680F00202DE9F84F3F4B1F68002F77D1F5
:100F80003E4BD3F80080B8F1000F1CD13C4E4746D1
:100F90003C4CDFF8F490336811E000233A4D03EB4A
:100FA000430309EB830328469B689847236832680C
:100FB00001339342236005F10C05F0DB1346002B4F
:100FC0002760EADCFEE7B8F1010F01D0BDE8F88F39
:100FD0002C4C2B4EDFF8B090DFF8BC802B4DDFF8A7
:100FE000BCA0D8F8003032680133002AC8F80030BD
:100FF000276000DCFEE7DFF890B02F6003F0ECF92B
:101000002368CAE9000103EB430309EB83039B68F0
:10101000584698472A682368012A07D03268013366
:10102000934223600BF10C0BDBDAE6E7184951F829
:101030002320013241F8232003F0CEF98E46D4F864
:1010400000B0144BDAF8041053F83B2003EBCB0C40
:10105000DAF80030D31ADCF8042062EB01021B1826
:101060000C4842EB0E0240F83B30CCF80420B8E7C5
:1010700047F00107384700BFBC110020C011002015
:10108000D0130020641100204C140020B411002063
:10109000F4140020180F0020C8140020700F002046
:1010A0004FF050431B68012B1CD01A4A1368092BC0
:1010B00004DD0022184B1A60FFF7C6BE174803EB89
:1010C00043014FEA810C00EB81014B600133136057
:1010D0000023134A40F80C308A6000220E4B1A603D
:1010E000FFF7B2BE0F4A1368092B0EDC0E4803EB64
:1010F00043014FEA810C00EB81014B600133136027
:101100000023074A40F80C308A600022074B1A601F
:10111000FFF730BFCC130020B8110020D4130020FB
:10112000C9110010D01300204C140020BC11002065
:101130000368014670B4002B2AD001221B4B0B60C0
:101140001AB31B4B9B699A061FD44FF050431B6880
:10115000012B20D00122174B1A60174C174D226823
:10116000174BAE5CB3F90030B34217D01048836917
:101170009B06FCD40660531CED5C00222360002D0E
:10118000DCD102200D6070BC7047012070BC70473C
:10119000094C0A4DF0E70B4A1360DEE70448836907
:1011A0009B06FCD40D230360E0E700BF3C11001058
:1011B00000000740B011002070110020C412002070
:1011C00024150020B4110020F8B50368044603B3C9
:1011D00043F001031847214F21493A46681C06F0A5
:1011E0008FFC03F0F9F81F4EC6E900010020B7F9A3
:1011F000001002F091FA03F0EFF8024633681A4843
:10120000D21A736861EB030305F08EFD2B78722B05
:1012100020D00026154D164B0FCB85E80F00154B3F
:101220001E60154B13482360FFF782FF01280FD083
:101230000022124B1A60124B2360FFF7F3FC0128C7
:1012400006D0104D2B78652BC5D0722BE1D101E073
:101250000020F8BD01220C4B1A70DAE71C110020A7
:10126000A8D00010B80E0020ACD00010C41200208E
:1012700098D00010C813002022120010C4130020C0
:1012800036120010C41100203E060020F0B585B0D3
:10129000334803AB02AA01A903F0D8F918B93049C1
:1012A000304802F0F7FBDDE90212019803F00CF977
:1012B00005F076FC2C4805F037FD00F0F9FA05F052
:1012C00093FE2A4805F006FF4FF050431B68012BA0
:1012D0000BD027490B68092B29DD0022254B1A600A
:1012E000FFF7B2FD002005B0F0BD23490B68092BC4
:1012F00005DD0022214B1A60FFF73CFEF2E70C20CF
:10130000002600FB03F41E4A5D1C1E4F16510A2DD9
:101310001444C4E901370D60EBD005FB00F0165012
:10132000024419480233C2E901500B60E1E70C2086
:10133000002500FB03FC154A5C1C124E42F80C50C1
:101340000A2C9444CCE901360C60C6D004FB00F0B2
:10135000155002440C480233C2E901400B60BCE75F
:10136000F0490200E8D00010C4D00010A110001015
:10137000CC130020B8110020D0130020BC11002095
:101380004C140020C502001035020010D4130020B8
:1013900000EB020CBCF5207FC8BFC0F51F7230B552
:1013A000C8BF0332C50723D51FFA80FCBCF5207FD8
:1013B0001CD28CB2B4F5F07F18D24FF4207504B271
:1013C0000FFA81FE1EFB054E264D4FEA6E0415F8FE
:1013D00004C01EF0010F15BF0CF00F0C2CF00F0C09
:1013E0004CEA031C43EA0C0C05F804C00130013A36
:1013F000D40725D500EB020C0CF1FF3C1FFA8CFC46
:10140000BCF5207F1BD28CB2B4F5F07F17D24FF41D
:1014100020740FFA81FE1EFB04CE124D4FEA6E04BB
:1014200015F804C01EF0010F15BF0CF00F0C2CF0C6
:101430000F0C4CEA031C43EA0C0C05F804C0013AFB
:101440005210002A00DC30BD064C01EB810C40102C
:1014500000EB8C10204443EA0311BDE8304006F055
:10146000FBBB00BF281500202DE9F04F00260D46DC
:101470009DB09DF89810B146109181B28A46ADB2E8
:10148000A34C184602EB8202C5F5EF7322440133E8
:1014900014929DF89CB09AB2119512920191B9F1F3
:1014A000050F08BF002340F27F2118BF149B0FFADD
:1014B0008AFC18BF13F80930019F0393119B0CEBB2
:1014C0000B081C461D4608331FFA83FE0AF0010371
:1014D00005930CF101030A93A1EB0C03B8F5207FEF
:1014E000D8BF5B468F4294BF002701278A450297E9
:1014F00094BF002701270AF1FF321A4492B20492E6
:101500005A1E0D970CEB02071FFA87F888450C97B7
:1015100094BF00270127A3F1020812F0010F0B97D7
:101520000CBF174647460F97049FCDF818A08F426F
:1015300094BF0021012113F0010F099114BF11463E
:10154000194602F0010203F00103E246039F0893EB
:10155000129E0346DDF840C00E910792CDF80C9024
:1015600028E0BBF1010F47D140F2DF12944215D8B9
:10157000029A9AB94FF420721146019A14FB01287D
:10158000644A4FEA680118F0010F1046525C00F0FF
:10159000B88002F00F0242EA031242540134A4B2AE
:1015A000A6EB0B065D4474454FEA5707B6B2ADB2E1
:1015B00000F09180F807D4D46345EFD0BBF1010F60
:1015C00052D140F2DF129442E8D8029A002AE5D1C3
:1015D0004FF42071019A4F4814FB01214FEA610832
:1015E000C90710F8082040F1F68002F00F0242EA25
:1015F0000C1200F80820D1E72AB202EB0B01B1F57A
:10160000F07FCABF0FFA86F80FFA8BF808EB0201D9
:10161000B8F1000F9146C1DDBAF5207FBEDA05981A
:10162000002879D1B2F5F07FB8DA40F2DF104FF43C
:10163000207801398142A8BF0146049812FB0808AE
:101640000E9A52101392089A002A40F0CC80139AF6
:101650000398002A00F3268109F10109494508F59C
:101660002078F6DA039099E729B20BEB0102B2F584
:10167000F07FCABF0FFA86F90FFA8BF909EB010266
:10168000B9F1000F884689DDBAF5207F86DAB1F519
:10169000F07F83DA02F1FF3940F2DF129145CDE9A4
:1016A0001545A8BF91460D46984664461397039F7B
:1016B000CDF85CE0294623465A4650460135FFF7EF
:1016C00067FE4D45F6DDDDE9165EA4460397434609
:1016D000139F159C62E7019ADDF80C90DDF818A0C5
:1016E000013209F10109184692B20AEB0B03B9F174
:1016F000060F01921FFA83FA7FF4D1AE1DB0BDE848
:10170000F08F044822F00F021A43425446E700BF0C
:10171000D8DB001028150020B2F5F07FBFF63EAFF1
:10172000481E40F2DF118842A8BF08464FF42071DE
:1017300012FB01A80F9ACDE91756521015970546CE
:1017400057461E46924643EA031116940D9C139188
:10175000CDF864E0CDF868C04FEAD9715CB951B9F1
:10176000514B4FEA680C13F80C0000F00F0040EAF0
:10177000061003F80C00079B6BB161B90B9B53B9C2
:10178000BDF83010484BC91B41444910585C20F04B
:101790000F0030435854BAF1000F0BDD0A9B09EBE0
:1017A0008900800100EB63003F4B524613991844B7
:1017B00006F052FA09F10109A94508F52078CBDDB8
:1017C000BA46DDE915743346179DDDF864E0189ECE
:1017D000DDF868C0E2E6344922F00F024CEA02026A
:1017E00001F80820DAE6CDF854A0B9F1000F0CDBBF
:1017F000099A52B92C4A4FEA680A104612F80A2090
:1018000022F00F021A4300F80A20139A002A08DC7B
:1018100009F10109494508F52078E6DADDF854A018
:10182000BCE6DDF854A0CDE917A719941A950C462B
:1018300045467746E0464FEA6A021692DDF80CA06C
:1018400043EA031215921B93169B09EB890003EBE5
:101850008010154B139A1599184409F1010906F0E7
:10186000FBF9A14505F5207511DC089B002BEBD099
:10187000CDF80CA0DDF85CA02146BE46C446199CFC
:10188000A846189F1B9B1A9DCDF854A0ADE7BE46F5
:10189000DDE91945CDF80CA0C446189FDDF85CA021
:1018A0001B9B7BE60390BEE728150020000000008C
:1018B0002DE9F04F2DED028B87498BB0874805F05D
:1018C00065FA87498146854805F060FA8549804672
:1018D000824805F05BFA9FED7C8B074600217F482C
:1018E00005F030FA01217D4805F02CFA4FF0000A8E
:1018F0004FF4402B0221794805F024FA8DED028B3C
:1019000009F1080602AC06ADCDF814A0CDF810B070
:1019100009F10103360346EAC31694E80F0085E88F
:101920000F00079695E80F00012684E80F004FF49A
:10193000C023DFF8CCC106211020CDF814C00293DB
:1019400002F066F81022334651466448009605F0CE
:1019500097FA23464A465146604805F0D7FA4FF4B5
:10196000C023069308F10D0308EB06021B0343EAAC
:10197000C21323F0C04343F0804307935A4B062120
:1019800011200993CDF820B002F042F8112233461D
:1019900031465248009605F073FA2B4642460FF244
:1019A0003019D9E9008931464C4805F0AFFA8DED80
:1019B000028BCDE904BA07F1080CBB1C4FEA0C3CC2
:1019C0004CEAC31C94E80F0085E80F00CDF81CC05A
:1019D00095E80F0084E80F0006211220CDE9048964
:1019E00002F016F80621132002F012F80621142046
:1019F00002F00EF80621152002F00AF80423122244
:101A000002213648009605F03BFA23463A46022169
:101A1000324805F07BFA304605F0CCFA04463046F1
:101A200005F0C8FA03464FF4163E304D30493148B0
:101A3000DFF8D0804FEA841C0CF1A04C01EA43315E
:101A400005EA4435CCF8008041EA4431CCF8040082
:101A500045EA4330284F40F4802041F4FC019B01CB
:101A600003F1A04340F0110041F009011B4ACCF8FA
:101A700008E0CCF810001F60C3F804C09E60196134
:101A80005368D903FCD440F28F23144913614B6887
:101A90009A03FCD440F2DF13104A4B6153685B0396
:101AA000FCD440F23F150123956140F207704FF0DE
:101AB000A0421249A3400860C2F850340BB0BDECFC
:101AC000028BBDE8F08F00BF0000010000F00100B4
:101AD00000000C405202401014E1001000002050A1
:101AE000F0E00010D4E0001020460044FD1F00FC90
:101AF000FD1F7EFC180020504006002000202050D2
:101B0000000200042815002083B2B3F5207F1CD208
:101B10008BB2B3F5F07F18D24FF4207310B411FBE1
:101B200003010A4C4810C907235C06D423F00F03B5
:101B30001A4322545DF8044B704703F00F0343EA45
:101B4000021323545DF8044B70477047281500209A
:101B50000A4491422DDA2DE9F04185B2B5F5207F96
:101B600034BF0025012540F2DF16124C1F0101EBA6
:101B7000810C89B200EBCC1CB1424FEA6C0812D840
:101B80008DB914F808E01CF0010F0EF00F0C08BF1F
:101B90002EF00F0E4CEA070C0ABF43EA0E0E04F8B3
:101BA00008C004F808E0013109B29142DFDBBDE86A
:101BB000F081704728150020B0F5207F5EDAB1F57E
:101BC000F07F5BDA00EB020CBCF5207FC8BFC0F5EC
:101BD0001F7230B5C8BF0332C50723D51FFA80FC7A
:101BE000BCF5207F1CD28CB2B4F5F07F18D24FF434
:101BF000207504B20FFA81FE1EFB054E264D4FEAFA
:101C00006E0415F804C01EF0010F15BF0CF00F0C88
:101C10002CF00F0C4CEA031C43EA0C0C05F804C032
:101C20000130013AD40725D500EB020C0CF1FF3C42
:101C30001FFA8CFCBCF5207F1BD28CB2B4F5F07F70
:101C400017D24FF420740FFA81FE1EFB04CE124D02
:101C50004FEA6E0415F804C01EF0010F15BF0CF01A
:101C60000F0C2CF00F0C4CEA031C43EA0C0C05F88B
:101C700004C0013A5210002A01DC30BD7047064C06
:101C800001EB8101401000EB8110204443EA031175
:101C9000BDE8304005F0E0BF281500202DE9F04FE9
:101CA00085B09DF838405D1A0194141A85EAE576EE
:101CB00084EAE47EA6EBE576AEEBE47E76450F465D
:101CC00058DC824280F2B880851ACC1AC5F3C03C39
:101CD000002C0CFA85FCB8BF64428B42ADB24FEACF
:101CE0006C0C80F2B98080461146184601274346A5
:101CF0007645A4B262DD019A40F2DF18120140F28B
:101D00007F29CDE90252DFF880A115E00AF80B1017
:101D1000ACEB040E0FFA8EFC0132BCF1000F11B2D5
:101D20001FFA8EFE05DA029A3E4496440FFA8EFCA4
:101D300030B2994200F399808AB2424586B2E7D820
:101D40004E45E5D84FF4207511FB05014FEA610BB4
:101D50001AF80BE0039D11F0010F0EF00F0141EA9C
:101D60000501D3D101992EF00F0E41EA0E0E0AF8AB
:101D70000BE0CDE78B4212DACD1A841AC5F3C03CD2
:101D8000002C0CFA85FCB8BF64428242ADB24FEA27
:101D90006C0C70DA904608461A464346A3E7C5F332
:101DA000C03C0CFA85FC82427446ADB24FEA6C0C22
:101DB00067DC76454FF6FF77A4B29CDC019A40F2CF
:101DC000DF18120140F27F29CDE90252DFF8B8A0F6
:101DD00014E00AF80B10ACEB040E0FFA8EFC013283
:101DE000BCF1000F11B21FFA8EFE05DA029A3E44D2
:101DF00096440FFA8EFC30B2994236DC86B24645E4
:101E00008AB2E8D84A45E6D84FF4207510FB051190
:101E10004FEA610B1AF80BE0019D11F0010F2EF053
:101E20000F0141EA0501D4D003990EF00F0E41EAEB
:101E30000E0E0AF80BE0CEE7C4F3C03C8B420CFA5E
:101E400084FC014613463846A5B24FEA6C0C0FDC01
:101E50004FF6FF77B4B2B1E78146114618464FF608
:101E6000FF774B4699427FF743AF05B0BDE8F08F4F
:101E700034460127F6E7194610463B464FF6FF77F2
:101E800036E7012734E700BF281500202DE9F04F81
:101E9000B0F5207F81B006460C4617469DF8288095
:101EA00003EB010510DAB1F5F07F05F1FF396FDAC8
:101EB0004346FFF76DFAB9F5F07F07DA4946434626
:101EC0003A463046FFF764FAAC425EDAB3B2B3F595
:101ED000207F34BF4FF0000E4FF0010EA446214684
:101EE00040F2DF102F4A4FEA08190CEB8C0C89B234
:101EF00006EBCC1C81424FEA6C0B14D8BEF1000FEC
:101F000011D112F80BA01CF0010F0AF00F0C08BF42
:101F10002AF00F0A4CEA090C0ABF48EA0A0A02F83A
:101F20000BC002F80BA0013109B2A9428C46DCDBE0
:101F3000013F3B449BB2B3F5207F34BF002701270C
:101F400040F2DF1617484FEA081C04EB8402A4B2E3
:101F500003EBC212B4424FEA620E12D88FB910F8E6
:101F60000E1012F0010F01F00F0208BF21F00F0157
:101F700042EA0C020ABF48EA010100F80E2000F80C
:101F80000E10013424B2AC42DFDB01B0BDE8F08FAB
:101F9000B9F5F07F98DA4346494601B0BDE8F04F05
:101FA000FFF7F6B9281500202DE9F04F89B09C46BF
:101FB000009393B20692C3EBC33252008CB212B2BA
:101FC000079203941A19C3F1010425B2059585B24D
:101FD000B5F5207F92B234BF00240124B2F5F07F22
:101FE000049580F0C481002C40F0C1814FF420762C
:101FF00012FB0602AE4C5710D207E55D00F19D8141
:10200000624625F00F051543039AE555D21A92B2A0
:10201000B2F5F07F08D212FB06025210A05C009DC0
:1020200020F00F002843A054049A03989A18B0F5A2
:10203000F07F92B234BF00200120B2F5207F10D291
:1020400078B94FF4207611FB0626994D7410F607E7
:102050002A5D40F1A381009E02F00F0242EA0612BF
:102060002A55049AD21A92B2B2F5207F10D278B9CA
:102070004FF4207411FB04248D486110E407425C86
:1020800040F19281009C02F00F0242EA0412425495
:10209000069A002A40F3688100224FF420750192CD
:1020A000039A0099541E02F1010E049A090102F1EB
:1020B000FF3C501C7E4AA4B21FFA8EFE1FFA8CFC15
:1020C00080B20291059F002FB9B20CDB079F07F188
:1020D00002085F1E0FFA88F311FA88F10793BBB26A
:1020E0003FB289B20697019F0131013701EB4701E9
:1020F00009B2059140F27F2140F2DF16884294BF79
:102100004FF000084FF0010803993FB2194489B21B
:10211000B14294BF4FF0000A4FF0010A0197B8F1A5
:10212000000F14D1BAF1000F11D111FB05094FEACC
:10213000690B12F80B7019F0010F15BF029E009E7B
:1021400007F00F0727F00F07374302F80B7040F234
:102150007F26B44594BF4FF000094FF00109B9F153
:10216000000F14D1BAF1000F11D109B211FB05C152
:102170004FEA610A12F80A70C9074BBF0299009929
:1021800007F00F0727F00F070F4302F80A7040F21D
:10219000DF160399C91A89B2B14294BF4FF0000A01
:1021A0004FF0010AB8F1000F16D1BAF1000F13D1A8
:1021B0000FFA80F811FB05884FEA680B12F80B70D4
:1021C00018F0010F15BF029E009E07F00F0727F0C1
:1021D0000F07374302F80B70B9F1000F16D1BAF1AF
:1021E000000F13D10FFA8CF709B211FB05714FEAFA
:1021F000610812F80870CE074BBF0299009907F0EA
:102200000F0727F00F070F4302F8087040F27F26F0
:102210000499194489B2B14240F2DF1694BF4FF0DD
:1022200000094FF00109B64594BF4FF000084FF088
:102230000108B9F1000F14D1B8F1000F11D11EFB44
:10224000051A4FEA6A0B12F80B701AF0010F15BF4E
:10225000029E009E07F00F0727F00F07374302F892
:102260000B7040F27F26049FFB1A9BB2B34294BFCF
:102270004FF0000A4FF0010ABAF1000F1AD1B8F17D
:10228000000F17D10FFA8EF818FB05384FEA680BCC
:1022900012F80B7018F0010F15BF029E009E07F098
:1022A0000F0727F00F07374302F80B7002E000BF5B
:1022B0002815002040F2DF16B44294BF0027012702
:1022C000B9F1000F13D197B909B214FB05114FEA08
:1022D000610912F80980C9074BBF0299009908F0FB
:1022E0000F0828F00F0841EA080802F80980BAF13F
:1022F000000F10D17FB921B21BB211FB05335F1063
:10230000D15DDB074BBF029B009B01F00F0121F069
:102310000F011943D155069B0199013C0EF1010EA5
:102320000CF1FF3C01308B42A4B21FFA8EFE1FFA63
:102330008CFC80B218DD9BB2C4E605F00F0545EABF
:102340000C15E5556546039A2D01D21A92B2B2F5E5
:10235000F07FBFF469AE12FB06025210A05C00F0E1
:102360000F002843A0545FE609B0BDE8F08F039A40
:10237000D21A92B2B2F5F07FBFF456AE002C7FF4C1
:1023800053AE4FF4207412FB04050A4C6A10EF0799
:10239000A05C7FF544AE009D2D01E0E7009E22F099
:1023A0000F0232432A555CE6009C22F00F022243C2
:1023B00042546DE6281500202DE9F04F97B289B2FE
:1023C0007C009B46A4B2CB1B1BB2651C03FA85F5AF
:1023D0008BB09D42049208912EDD1FFA80FCBCF563
:1023E000207F34BF4FF0000C4FF0010C40F2DF1E95
:1023F0006146A34E4FEA0B1803EB83029BB200EB3E
:10240000C21273454FEA620912D889B916F809C099
:1024100012F0010F0CF00F0208BF2CF00F0C42EA73
:1024200008020ABF4BEA0C0C06F8092006F809C09E
:1024300001331BB29D42DFDC644223B20793C7F134
:1024400001031BB20393049B002B40F30081032381
:1024500082B20193531C1FFA83F9531E1FFA83FEA5
:1024600040F2DF1CF046089B854C1344029209930E
:102470004FEA0B16039A0097002A93B20BDB0799D9
:102480007A1E023113FA81F309B2079191B212B2A6
:102490009BB200910492019A13441BB2089A0393D1
:1024A000009BD21A5F0012B2013702FA87F7BA42D4
:1024B00080F2D08040F27F23994594BF4FF0000E08
:1024C0004FF0010E11461346704601EB81019BB29D
:1024D00009EBC11163454FEA610E12D888B914F8AF
:1024E0000E5011F0010F05F00F0108BF25F00F0588
:1024F00041EA06010ABF4BEA050504F80E1004F88C
:102500000E5001331BB29F421946DEDC0299099B33
:102510000098A3EB090301EB000A01991BB203FA2F
:1025200081FE73451FFA8AFA2BDA40F27F218A4531
:1025300094BF0025012518461946CDE9053200EB68
:10254000800089B20AEBC01061454FEA60020FD8E3
:1025500075B9A35C10F0010F03F00F0008BF23F062
:102560000F0340EA06000ABF4BEA0303A054A3543A
:10257000013109B28E450846E1DCDDE90532BA4297
:1025800079DA40F27F21884594BF0025012502EBCE
:10259000820192B208EBC11162454FEA610A12D87A
:1025A0008DB914F80A0011F0010F00F00F0108BFF7
:1025B00020F00F0041EA06010ABF4BEA000004F8D0
:1025C0000A1004F80A00013212B29742DFDC029AC4
:1025D00000999E45A2EB010080B222DD40F27F22ED
:1025E000904294BF0025012503EB83029BB200EBD0
:1025F000C21263454FEA62070FD875B9E15D12F068
:10260000010F01F00F0208BF21F00F0142EA06029C
:102610000ABF4BEA0101E255E15501331BB29E4569
:10262000E2DC019A08F1FF3309F101091FFA83F88E
:10263000029B1FFA89F9023292B2A9EB03030192BD
:10264000013B049A1BB29A4201DD97B212E70BB02C
:10265000BDE8F08F18460299099B01EB000AA3EB35
:10266000090301991BB203FA81FE9E451FFA8AFAFB
:102670003FF75BAFD5E7029A0099501A80B2ADE7F9
:10268000281500202DE9F04F8DB0BDF958409DF878
:102690005C5005941446059A019502EB0009B9F5C2
:1026A000207F06460D461F4616DA03EB0108B1F5FA
:1026B000F07F08F1FF38A4EB420A04DA524648469C
:1026C000019BFEF765FEB8F5F07F05DA52464146FC
:1026D0004846019BFEF75CFEBDF81420A9B25300EA
:1026E0008D18B8B21FFA83FB0A902BB2A0EB0B0037
:1026F0001FFA86FA03FA80F0544407928342A2B28A
:102700000991ADB206926EDABAF5207F34BF4FF070
:1027100000084FF00108019C19464FEA041944468D
:102720001A46984640F2DF1E2346DFF804C008E050
:10273000281500200CF80710013212B29042114601
:102740001EDD01EB810192B206EBC11172454FEA29
:102750006107F1D8002BEFD11CF8074011F0010FF1
:1027600004F00F0141EA0901E4D10199013212B2EA
:1027700024F00F040C43904211460CF80740E0DCB3
:10278000069A4346541EA4B2B4F5207F34BF4FF0DE
:10279000000C4FF0010C019A614640F2DF1794469D
:1027A000AF4E4FEA021E03EB83029BB204EBC21250
:1027B000BB424FEA620912D889B916F8098012F0B3
:1027C000010F08F00F0208BF28F00F0842EA0E02BE
:1027D0000ABF4CEA080806F8092006F80980013308
:1027E0001BB29842DFDC0799CBF100031BB20393C5
:1027F000C1F1010301EB0A0219B2059B92B2002B51
:10280000089240F391811E4600240B4640F27F2837
:1028100040F2DF1A4FF4207BDDF80CC0019ACDF8AE
:1028200008C01201DFF838E2DDF820C004920B91F5
:10283000002BB2B298B209DB029B561E023310FA8B
:1028400083F01BB2B2B2029380B236B20134A1B2AD
:1028500000EB4100ACEB02070130BFB203B24745C9
:10286000A5EB010024B280B212D8504510D810FB5D
:102870000B704FEA60091EF80970C0074BBF04983F
:10288000019807F00F0727F00F0707430EF80970AC
:10289000ACEB010189B2AA1A414592B211D8524556
:1028A0000FD812FB0B1250101EF80010D7074BBFA9
:1028B000049A019A01F00F0121F00F0111430EF863
:1028C0000010B442B4DBDDE906320B99981A039F7D
:1028D00080B204460B464FF0000E40F27F2940F2D2
:1028E000DF1BBC46421E92B20292019A059E120163
:1028F000DFF86C81049206910B90002BB1B298B274
:1029000009DB0CF1020C4E1E10FA8CF0B1B20FFA7A
:102910008CFC80B236B20EF1010E1FFA8EF200EB83
:102920004200013003B24C45A5EB01000FFA8EFEC8
:1029300080B214D8584512D84FF4207710FB0740C6
:102940004FEA600A18F80A70C0074BBF0498019854
:1029500007F00F0727F00F07074308F80A700298DF
:10296000AA1A014489B2494592B213D85A4511D8DE
:102970004FF4207012FB0012501018F80010D70707
:102980004BBF049A019A01F00F0121F00F0111438E
:1029900008F800100134B645A4B2AEDBDDE90A3018
:1029A000099E013B1E44079B0699F61A039B0025CE
:1029B000049340F27F280B4640F2DF1A4FF4207B4D
:1029C000019A059F1201DFF898E0B6B206920991CC
:1029D000002BB9B29CB209DB049B4F1E023314FAE0
:1029E00083F41BB2B9B20493A4B23FB20135AAB2C8
:1029F00004EB4204013423B2404506EB01042DB23E
:102A0000A4B213D8544511D814FB0B044FEA64093F
:102A10001EF809C0E4074BBF069C019C0CF00F0C8C
:102A20002CF00F0C44EA0C0C0EF809C0029C324446
:102A3000214489B2414592B214D8524512D812FBB2
:102A40000B1254101EF80410D2074BBF069A019ABD
:102A500001F00F0121F00F0111430EF8041001E005
:102A6000281500200130BD4280B2B1DB019B00245B
:102A70004FEA031ACDF808A040F27F2C40F2DF188D
:102A80004FF4207909992A4F059D079BDDF820A076
:102A900000E0ABB2002988B209DB039A5D1E023266
:102AA00013B210FA82F0039380B2ABB22DB20134AC
:102AB000A2B200EB4200AAEB030E01301FFA8EFE19
:102AC00001B2E64506EB020024B280B213D84045BD
:102AD00011D810FB09E04FEA600B17F80BE0C007B4
:102AE0004BBF029801980EF00F0E2EF00F0E40EA29
:102AF0000E0E07F80BE0AAEB020292B233446245D5
:102B00009BB20FD843450DD813FB092358103A5CEC
:102B1000DB074BBF029B019B02F00F0222F00F026A
:102B20001A433A54AC42B4DB0DB0BDE8F08F00BF9D
:102B3000281500202DE9F04F0D461E468FB0BDF937
:102B4000604081B21FFA84F901EB090370190B94FC
:102B50004FEA490A94B2B0F5F07F9AB22F469DF839
:102B600064801FFA8AFA04921BB21FFA85FB40F3B5
:102B70007D81CBF5EF72013212B25019002A06DDC9
:102B8000B3F5207F03DAB5F5F07FC0F27181731ED3
:102B9000A3EB0A039BB2CAF1000A03930FFA8AF36C
:102BA000621E0993C9F101031BB20A44A2EB090298
:102BB0000C930B9B92B2CB440592002B1FFA8BF225
:102BC000019240F3508100204FF0030A40F2DF16DB
:102BD0001946099BDDF830B00A93039BB24C0133D0
:102BE0009BB206934FEA081E0290CDF83490BBF1D9
:102BF000000F8DB21FFA8BF309DB0A996A1E0231AE
:102C000013FA81F309B20A919BB295B211B20298FC
:102C100053440FFA83FB019B01305A1B83B200B26D
:102C20000290069812B200EB4507059802FA87F762
:102C300000EB030CBA421FFA8CFC2FDA40F27F2023
:102C4000844594BF4FF000094FF00109CDE907B169
:102C500019464B46894602EB820192B20CEBC11138
:102C6000B2424FEA610B12D88BB914F80B0011F085
:102C7000010F00F00F0108BF20F00F0041EA0E0124
:102C80000ABF48EA000004F80B1004F80B000132F8
:102C900012B29742DFDCDDE907B14B46019AD31A45
:102CA000059A1BB21544039AADB202EB0A0C03FA63
:102CB0008CFC634528DA40F27F22954294BF4FF0A6
:102CC00000094FF001094A468946114603EB830289
:102CD0009BB205EBC212B3424FEA62070FD871B93B
:102CE000E05D12F0010F00F00F0208BF20F00F00AE
:102CF00042EA0E020ABF48EA0000E255E0550133FD
:102D00001BB29C45E2DC4946029B0AF1020A8B4257
:102D10001FFA8AFAFFF66BAFDDE90B064FF0000BE6
:102D20004FF0030A40F2DF15DDF834905E4C4FEAB5
:102D30000813CDF808B0002EB2B20BDB099809F1E8
:102D4000FF31023012FA80F200B2099092B21FFAFB
:102D500081F908B2029F524416B2019A0137A2EBE0
:102D60000901BAB23FB20297069F09B207EB490CBC
:102D7000049F01FA8CFCA7EB020E8C451FFA8EFE15
:102D80002CDD40F27F27BE4594BF4FF0000B4FF083
:102D9000010B07921A465B469346059601EB8102AA
:102DA00089B20EEBC212A9424FEA62070FD873B97B
:102DB000E65D12F0010F06F00F0208BF26F00F06C5
:102DC00042EA0B020ABF48EA0606E255E65501311F
:102DD00009B28C45E2DC5B46059E079A01998A1A86
:102DE000049912B2A1EB090903991FFA89F901EBC1
:102DF0000A0E02FA8EFE72452BDA40F27F218945D7
:102E000094BF4FF0000B4FF0010B19465B468B4609
:102E100002EB820192B209EBC111AA424FEA610CA6
:102E200012D88BB914F80C7011F0010F07F00F01D4
:102E300008BF27F00F0741EA0B010ABF48EA07075E
:102E400004F80C1004F80C70013212B29645DFDC65
:102E50005B46029A0AF1020A82421FFA8AFA02DAF1
:102E60001FFA80F967E70FB0BDE8F08F324685E6BC
:102E700040F2DF1201389042A8BF1046A4EB0A05C9
:102E8000CDE9011403961C463E4607462DB2314655
:102E900043462A4620460136FEF77AFAB742F6DA6A
:102EA000DDE90114039E72E6281500202DE9F04F9C
:102EB0005F1885B0B7F5F07F06460D469DF838C01F
:102EC00004DDC1F5EF7301331BB25F18002B13DD76
:102ED000B6F5207F10DA40F27F209419831BB4F5F9
:102EE000207FD8BF1346F2071FFA86F903F1FF3A95
:102EF00005D4B1F5F07F67DB05B0BDE8F08FB1F523
:102F0000F07FF9DAA3F1020840F2DF13013F9F429C
:102F1000A8BF1F464FF42073814509EB0A0E94BFEA
:102F20004FF000094FF001091FFA8EFB834511FB9A
:102F3000036494BF002301231AF0010F08BFD04699
:102F400006F1010B02964E46E14600934CEA0C1343
:102F50000AF0010A01934FEA6808CDF80CE0E90F86
:102F60005EB951B9454B4FEA640C13F80C0000F000
:102F70000F0040EA091003F80C00BAF1000F0FD05F
:102F8000009B6BB961B9029BBDF80C10C91A2144B2
:102F90003A4B4910585C20F00F0049EA00005854A1
:102FA000B8F1000F0ADD05EB85013448890101EB1A
:102FB0006B0108444246019904F04EFE0135BD42C2
:102FC00004F52074CBDD97E740F2DF1209F1FF34FE
:102FD0001C44A4B2844207F1FF3794BF00200120B3
:102FE0009742A8BF17464FF4207B13F0010F08BF8C
:102FF0009A4611FB0B4B13F001044FEA6A0828D1E3
:10300000B8F1000F05DC0135AF420BF5207BF7DA94
:1030100072E74FEA660902965E46E3464CEA0C13F5
:10302000CDE90030DFF854A005EB850009EB8010F6
:10303000424600995044013504F00EFEBD4206F5AB
:1030400020763FF759AF002CEED0DC460198B3460E
:10305000029E002D09DB40B908494FEA6B028B5CE8
:1030600023F00F034CEA03038B54B8F1000FD0DCBC
:103070000135AF420BF5207BEBDA3DE72815002048
:10308000024A034B10801980704700BF2A6D02204E
:103090002C6D0220012838BF0120014B1880704799
:1030A000306D0220024A034B10701870704700BF49
:1030B000346D0220356D0220024A034B10701970E6
:1030C000704700BF356D0220346D02200278002A5F
:1030D0005ED02DE9F04104462E4D2F4F2F4E82B089
:1030E0000CE00D2A07D0092A2B8817D1B3F51F7FD2
:1030F00001D204332B8014F8012F62B10A2AF0D1D7
:103100000022338839882A8003EBC103338014F806
:10311000012F002AF2D102B0BDE8F08118B2B0F55B
:10312000207FB7F800C01EDAB6F90010B1F5F07FC5
:1031300019DA4FF0060E5FFA8CF818FB0E0EBEF18E
:10314000000F10DD01EBC80EBEF1000F0BDD144BBC
:10315000CDF804801B780093124B1B78FEF784F99E
:10316000B7F800C02B880CEB4C01ACEB8C0203EBE6
:10317000410352009BB202F5207293422B80BADDCC
:103180000023064A2B80138803EBCC031380B2E79D
:10319000704700BF2A6D0220306D02202C6D022086
:1031A000346D0220356D02202DE9F04F91B09DF86D
:1031B0006890039399451FFA81FC4FEA02126CD084
:1031C000604B40F27F2602EB03080CF10F0399B22B
:1031D0000D464FEA09131FFA80FB0493039B0BF182
:1031E0000804DFF864E1A4B24FEA031A18F8012FCB
:1031F000BCF5F07F0CEB8C0034BF002701275B4649
:10320000CDE9008CC001029517E0B3420FD877B921
:1032100003EB00084FEA680C18F0010F1EF80C10C1
:1032200028D0049D01F00F0129430EF80C10013342
:103230009BB252009C42D2B223D01106E5D5B342D4
:10324000F5D8002FF3D103EB00084FEA680C18F013
:10325000010F1EF80C1006D001F00F0141EA0A011F
:103260000EF80C10E3E7039D21F00F0129430EF83F
:103270000C10DCE721F00F0149EA01010EF80C10F7
:10328000D5E7029DDDE9008C0CF1010C1FFA8CFCE6
:10329000AC45ABD111B0BDE8F08F40F27F23294C93
:1032A00086B21444721C90B29E4294BF4FF0000B41
:1032B0004FF0010B98420D9094BF00200120B21CEA
:1032C00095B29D42029094BF00200120F21C92B260
:1032D0000592321D91B2721D079191B2B21D0991F2
:1032E00091B2F21D0B9191B2039A04904FEA021E23
:1032F000059A01919A4294BF00200120079A0690F6
:103300009A4294BF00200120099A08909A4294BFE3
:10331000002001200B9A0A909A42019A94BF002043
:1033200001209A4294BF002301230CF10F070F964E
:1033300040F2DF180449039EBFB20E950C90009333
:103340001CE000BFD7D30010281500205D063BD439
:103350009D0653D4DD066BD41D0700F184805D0704
:1033600000F19E809D0700F1B880DB0700F1D2805C
:103370000CF1010C1FFA8CFC67458BD014F8013F4F
:10338000C44594BF002001200CEB8C021D064FEABF
:10339000C212DBD5BBF1000FD8D10028D6D10F9DCA
:1033A00005EB020A4FEA6A0911F809501AF0010FF9
:1033B00015BF05F00F0525F00F0545EA0E0535434D
:1033C00001F809505D06C3D50028C1D1029D002D2A
:1033D000BED10D9D05EB020A4FEA6A0911F80950AA
:1033E0001AF0010F15BF05F00F0525F00F0545EA8E
:1033F0000E05354301F809509D06ABD50028A9D12B
:10340000049D002DA6D10E9D05EB020A4FEA6A0924
:1034100011F809501AF0010F15BF05F00F0525F03E
:103420000F0545EA0E05354301F80950DD0693D531
:10343000002891D1069D002D8ED1059D05EB020A35
:103440004FEA6A0911F809501AF0010F15BF05F08B
:103450000F0525F00F0545EA0E05354301F8095023
:103460001D077FF57CAF00287FF479AF089D002D04
:103470007FF475AF079D05EB020A4FEA6A0911F860
:1034800009501AF0010F15BF05F00F0525F00F05C3
:1034900045EA0E05354301F809505D077FF562AF37
:1034A00000287FF45FAF0A9D002D7FF45BAF099D7C
:1034B00005EB020A4FEA6A0911F809501AF0010FE8
:1034C00015BF05F00F0525F00F0545EA0E0535433C
:1034D00001F809509D077FF548AF00287FF445AFFC
:1034E0000C9D002D7FF441AF0B9D05EB020A4FEAC6
:1034F0006A0911F809501AF0010F15BF05F00F0500
:1035000025F00F0545EA0E053543DB0701F80950A4
:103510007FF52EAF009B002B7FF42AAF00287FF4AD
:1035200027AF019B1A4450100B5CD50755BF23F001
:103530000F0303F00F03334343EA0E030B5417E763
:103540000278FAB12DE9F0410F4D0446DFF84480CE
:1035500028880E4F0E4E82B096F800C098F80030C2
:10356000B7F9001000B2CDF800C0FFF71DFE2888A3
:10357000083080B2288014F8012F002AECD102B064
:10358000BDE8F081704700BF2A6D02202C6D02203B
:10359000346D0220356D02202DE9F04FDFF82881CF
:1035A00090F8009098F800B085B0B9F1000F7DD088
:1035B000414E424B0546DA46B6F800C01C88404FE3
:1035C000CDF80CB056E0B1F5F07F45DA5FFA84FE35
:1035D0000EEB4E0E00EB4E0B3A4BBBF1000F1B787F
:1035E0004FEA4E0EE2B256DD4FF0080B12FB0B1BFA
:1035F000BBF1000F4FDDCDE900A24A46FDF734FFD5
:10360000B6F800C02D4A0CF1010000B2B0F5207FE1
:10361000148821DAB7F90010B1F5F07F1CDA294BD4
:103620005FFA84FE0EEB4E0E1B784FEA4E0EE2B2AE
:103630008644BEF1000F0FDD4FF0080E12FB0E1E88
:10364000BEF1000F08DD019200934A46FDF70CFF22
:103650001A4BB6F800C01C88C4EBC40363441FFABD
:1036600083FCA6F800C015F8019FB9F1000F1BD02C
:1036700098F800A00FFA8CF0B0F5207FB7F9001091
:10368000A1DB0CF101031BB2B3F5207F47F6FF73FA
:10369000B8BF9C46E0E70CF1010000B2B0F5207F16
:1036A000C6D140F27F2CD7E7DDF80CB088F800B027
:1036B00005B0BDE8F08F00BF2A6D0220306D0220FA
:1036C0002C6D0220356D0220346D022070B59942B8
:1036D000BDF910601DDA0B4403EB83044FF4A073B3
:1036E000121A401011FB030355100A4A01EB810C1A
:1036F000104400EB841446EA0616A4EB8C14134421
:1037000018462A46314604F0A7FA00F5A073A342F2
:10371000F6D170BD2815002000EB8000044B82011B
:10372000C2F5163241EA011103EB801004F094BA9D
:10373000281500202DE9F04F1FFA80FEBEF5207FEE
:1037400034BF002501251FFA81FCBCF5F07F0EF186
:10375000FF3734BF00260126D2B2BFB2002D40F0A1
:103760000981002E40F0068101EB810400EBC41AB0
:10377000A64B4FEA6A091AF0010F13F809804FEAC5
:10378000C41400F0CE8008F00F0848EA02183C4448
:1037900003F809804FEA640813F8084024F00F0486
:1037A000144303F808400EF101039BB2B3F5207FE8
:1037B00013D296B94FF4207811FB0838934B4FEA97
:1037C0006807DC5D18F0010F15BF04F00F0424F04A
:1037D0000F0444EA02141443DC550CF1FF339BB28E
:1037E000B3F5F07F14D29DB94FF4207413FB040499
:1037F000864B4FEA640813F80870E4074BBF07F0E4
:103800000F0727F00F0747EA0217174303F808705E
:103810000CF101031CB2C3F3C037B4F5F07FA8BFAD
:1038200047F00107AEF102081FFA88F8B8F5207FCB
:1038300034BFB14646F001099CB2002F40F08E80A3
:10384000002D40F08B804FF4207714FB07046F4B62
:103850004FEA640BE40713F80BA040F1B9800AF0BB
:103860000F044FEA021A5FFA8AFA4AEA040403F8DC
:103870000B40B9F1000F08D111FB078464101F5DE4
:1038800007F00F074AEA07071F550EF1020E1FFA4D
:103890008EFEBEF5207F11D286B94FF4207411FB45
:1038A00004E45A4B6610995DE4074BBF01F00F0129
:1038B00021F00F0141EA02111143995540F2DF1343
:1038C000ACF102010CF1020C0FFA8CF6CCF3C0340F
:1038D0009E42C8BF44F0010489B299421FFA8CFC91
:1038E00044EA050430D87DBB4FF4207611FB060175
:1038F000464B4F10C907DD5D57D51201D2B205F016
:103900000F051543DD5554B91CFB060C4FEA6C0C32
:1039100013F80C1001F00F010A4303F80C20BDE866
:10392000F08F28F00F0842EA0808B7F5207F03F867
:103930000980BFF438AF4FF4207911FB09794FEAC1
:10394000690913F8097029E0002CE8D14FF42073BD
:103950001CFB030CC3074ED42C4B2EE0B9F1000F17
:1039600093D14FF4207418F0010F11FB048446D159
:10397000264B39E0B7F5207FBFF415AF002E7FF45A
:1039800012AF4FF4207411FB0474204B4FEA64080B
:10399000E407C14613F808707FF5FEAE07F00F0488
:1039A00044EA021403F80940FDE625F00F0515432B
:1039B000DD55002CB3D11CFB060C4FEA6C0C13F840
:1039C0000C1021F00F010A4303F80C20BDE8F08F22
:1039D0002AF00F0A42EA0A0A03F80BA0B9F1000F15
:1039E0007FF453AF11FB078464101F5D27F00F07AE
:1039F00017431F5549E71201044BD2B286E74FEA3D
:103A0000021A024B5FFA8AFA38E700BF2815002035
:103A100010B44FF480740C4B53F8202003EB800358
:103A2000C00082F0400200F1804003F5805C02F0AB
:103A3000C00200F5203003F54053CCF8002041606F
:103A40001C605DF8044B70470480034030B44FF0B5
:103A5000000343EC440043EC400005254FF4807420
:103A60000B4BC20053F8201003EB800081F04001A3
:103A700002F1804303F5203301F0C00200F58051CC
:103A800000F540500A605D60046030BC704700BFC4
:103A9000048003400FB400B583B0049C074803F0D2
:103AA000C3F83CB105A92046019102F017FF044874
:103AB00003F0BAF8012002F029FF00BF1CD100106A
:103AC0002CD10010EFF3108072B6064BD3E8CF1F55
:103AD00001220029FAD1C3E8412F0029F6D1BFF312
:103AE0005F8F7047FB1000200023034AC2E88F3F1E
:103AF00080F31088704700BFFB10002070B5864629
:103B0000EFF3108572B6124CD4E8CF6F0120002E6F
:103B1000FAD1C4E8460F002EF6D1BFF35F8F4FF005
:103B2000010CC80801F007030CFA03F31EF800C0EB
:103B30001CEA030608D14CEA030C0EF800C0C4E8E6
:103B40008F6F85F3108870BD1046FFF7A3FF00BF8D
:103B5000FB100020F8B5EFF3108772B61C4ED6E8C4
:103B6000CF5F0124002DFAD1C6E8454F002DF6D1D4
:103B7000BFF35F8F9A421BD8012502E001329342C6
:103B800022D3D40810F804E002F0070C05FA0CFC6C
:103B90001EEA0C0FF2D14EEA0C0E00F804E01046BB
:103BA0000023C6E88F3F87F31088984207DBF8BDF3
:103BB0000023C6E88F3F87F310884FF0FF300029BD
:103BC000F5D00698FFF766FF4FF0FF30E8E700BF3B
:103BD000FB100020044A1078431CDBB2182B28BFCE
:103BE00010231370704700BF440600204FF0E022FE
:103BF000936843F000539360704700BF0021044B6B
:103C000003F12002C3E88F1F01339342FAD17047BA
:103C1000F01000204FF0E0234FF08032C3F8002472
:103C2000C3F80424C3F80824C3F80C24C3F81024F0
:103C3000C3F81424C3F81824C3F81C24C3F82024A0
:103C4000C3F82424C3F82824C3F82C24C3F8302450
:103C500062B67047012300F01F029340400941B152
:103C6000800000F1604000F56140C0F880310360E1
:103C70007047024A203042F82030704700E100E0EF
:103C80000123064A410952F8212000F01F0003FADF
:103C900000F01040003818BF0120704700E100E03C
:103CA000F8B50D46EFF3108772B6124ED6E8CF2F57
:103CB0000123002AFAD1C6E8423F002AF6D1BFF319
:103CC0005F8F0D4B00F110049B680C4A53F82430B1
:103CD000934203D0994201D000F016FE064B9B6838
:103CE00043F82450BFF35F8F0023C6E88F3F87F36C
:103CF0001088F8BDF910002000ED00E0110100105F
:103D0000014B0B4403607047F010002070B5104C5D
:103D1000104DAC420ED2FF26236863B1FFF75AFF65
:103D200001462046FFF7ECFFA680BFF35F8F083403
:103D3000AC42F1D370BDFFF74DFF01462046FFF7BF
:103D4000DFFF2671BFF35F8F0834AC42E4D370BD50
:103D5000240D0020340D00200D4B1A68EFF3108164
:103D600072B6D2E8CFCF0120BCF1000FF9D1C2E882
:103D70004C0FBCF1000FF4D1BFF35F8F00221B6822
:103D8000C3E88F2F81F3108840BF002000217047C7
:103D90001C150020000000002DE9F04F2DED028BD6
:103DA00085B0EFF30583DBB2103B9A0818BF012200
:103DB0004FF0010103F0030B18BFAF4DAF4B08BF2D
:103DC000AF4D0BEB820253F8226001FA0BF205F5BE
:103DD00041539FEDA78B01925A602FE0B3881C04DA
:103DE00040F19380B379002B40F0DD80B6F90820D4
:103DF000002AC0F21E81736902EB420203EBC20388
:103E0000D3E90247B7F1FF3F08BFB4F1FF3F0ED03F
:103E100005EB8B01AB6A0A69D21AE31A934205D308
:103E200001232A6A03FA0BF3134200D10C612846DE
:103E300000F0CAFAA042B941C0F2FB80B6F90830DE
:103E4000019A002B0093EA63C8DBD6F8148003EBD9
:103E50004309284608EBC907D7E9024A00F0B4FA3B
:103E6000A04271EB0A01B9DBBAF1000FC0F2C380C6
:103E7000D7E90431834A934200F0ED807A88B6F99D
:103E8000080092B242EA0040984702460B4652EAC6
:103E9000030100F0B080002B80F2D180B4EB020E61
:103EA0006AEB030A38F93930C7E902EA002B95DBDF
:103EB000716903EB430201EBC202D2E90270BE4515
:103EC0007AEB000C4FEA430288DBB4462CF8083F3B
:103ED00006E003EB430001EBC0005A00D0E902709A
:103EE000BE451A447AEB000001EBC20404DB31F951
:103EF0003230A446002BECDA28F83930009BACF8BD
:103F00000030B3881C043FF56DAF3369EFF31082C6
:103F100072B6D3E8CF0F01210028FAD1C3E8401FC1
:103F20000028F6D1BFF35F8F4FF6FF74B0880023EF
:103F3000316900B2B480C1E88F3F82F310889842A3
:103F4000FFF650AF0746A946746906F1080807EB6B
:103F5000470E04EBCE03D3E90250B6F90830C4464D
:103F6000002B13DBB246009704E034F93630944658
:103F7000002B09DB03EB430604EBC602D2E9027116
:103F8000BD4270EB0101F0DA5646009FACF80070BC
:103F900034F93E7024F83E30002FD8DAB3794D461C
:103FA000002B3FF423AF0023B371B6F9083006F1BC
:103FB0000808581C3DD01A46776903E08046591C12
:103FC0003FF416AF03EB430107EBC100B0F802C0AA
:103FD0001C461CF4004F9E4637F93130EED0944217
:103FE00080ED028B05D0A8F80030328927F8312007
:103FF00034817246E3E738F8393033813369EFF3BF
:10400000108272B6D3E8CF0F01210028FAD1C3E89D
:10401000401F0028F6D1BFF35F8F7388316928F8FD
:104020003930009B73800023C1E88F3F82F31088F2
:10403000D4E640BF05B0BDEC028BBDE8F08F28464A
:10404000CDE9022300F0C0F9029A039B10EB020EA7
:1040500043EB010A26E708460B69029198470028BE
:10406000C9D00299D1E9002311E700BFAFF3008066
:10407000FFFFFFFFFFFFFFFF00800B408C110020C0
:1040800000000B40993D00102DE9F84F364C256992
:104090002DB1BDE8F84F0A213448FFF731BEDFF8F3
:1040A000E4800321404600F07DF90326C4F80C802B
:1040B000FFF790FD4FF0504C2D4B267003442361C9
:1040C000DCF800300F216370636961801D834FF05D
:1040D0000405A3F878504FF00505A3F890504FF071
:1040E0000605A3F8A8504FF007050E214FF6FF7202
:1040F00008274FF00A0EA3F8C0504FF001094FF007
:104100000C0C4FF0020B4FF0090A0D204FF00B057D
:10411000A3F868111749A280A3F808E1A160A3F8E9
:1041200048B0A3F8F0A0A3F82051A3F838C1A3F831
:104130005001A3F83090A3F86060A3F8D8701A80FB
:104140000D4B3046C8F820700C49DC60FFF7A8FD25
:1041500049463046FFF77EFD094B0A211F6403489C
:10416000BDE8F84FFFF7CCBD480600201C15002025
:10417000F0100020FFFF10008C110020993D00106E
:1041800000200B4000000B400146F0B50069EFF342
:10419000108772B6D0E8CF5F0124002DFAD1C0E8B5
:1041A000454F002DF6D1BFF35F8FB1F902E04C69A6
:1041B0000EEB4E0CBEF1000F4FEACC05086904EB84
:1041C000CC0C3CDB665B4E800026C0E88F6F87F32B
:1041D0001088BCF80200CCE902230130C0F30E00C5
:1041E000012838BF0120059BACF80200CCF8103044
:1041F000069B40EA0E40CCF814300B69EFF31082B6
:1042000072B6D3E8CFCF0127BCF1000FF9D1C3E8D4
:104210004C7FBCF1000FF4D1BFF35F8F8B886353E9
:10422000A1F804E00B69C3E88F6F82F310880122C4
:10423000CB68097803F501538A405A60F0BD00232A
:10424000C0E88F3F87F310884FF0FF30F0BD00BF0C
:1042500003464089B0EB214F37DD58690A1402EB61
:10426000420210B500EBC2001C69EFF3108C72B66D
:10427000D4E8CFEF0122BEF1000FF9D1C4E84E2FF0
:10428000BEF1000FF4D1BFF35F8F428889B292B2C2
:104290008A4207D000221B69C3E88F2F8CF3108855
:1042A000002010BD42F40042428001210022186922
:1042B0009971C0E88F2F8CF310881C78DA68084653
:1042C00002F50153A140596010BD0020704700BFA6
:1042D0002DE9F04306460D4683B0EFF30584E4B2C2
:1042E0003CB12D4B5A6AAA421CD2002003B0BDE853
:1042F000F0832A4FD7F80C9097F80080484600F0DA
:1043000063F808F1040859F828301B1A301A65EBD5
:104310000101984271F1000110DB20BF1E4B5A6A67
:10432000AA42E2D314BF012400249B6AB34234BFE3
:10433000204644F0010003B0BDE8F08300F04CF8E3
:10434000864265EB0101002914DB154B3846CDE9A7
:10435000003432462B46FFF717FF011E0ADD0E4BD5
:104360005A6AAA4216D39B6AB34211D30B48FFF78D
:104370006FFFB6E7084B5C6AAC42B6D3641B18BF4C
:1043800001249B6AB34234BF204644F00100ADE7EC
:10439000AA42EBD120BFE9E700000B40480600200D
:1043A000593D001010B4054B054C064AA04214BFFD
:1043B0001846581C5DF8044BFFF7A0BB20110020E5
:1043C00000800B4030D100100346416A0A46986ACB
:1043D000596A8A42FAD17047034B596A0A46986A69
:1043E000596A9142FAD1704700000B4000EB400C33
:1043F0004FEA8C0C0CF1804C0CF5803CF0B5164665
:10440000DCF80420051FB2F5803F38BF4FF480323E
:10441000EDB238BFCCF80420012D2AD94FF4006743
:10442000254C0CF54052176054F82020B2B9DCF846
:104430000020012D82EA461202F0E0020CF58056BF
:1044400032602AD94FF4006144F820304FF48033B1
:104450000CF500521160CCF80430F0BD6769B7FB71
:10446000F2FE0EF1010E0EEB4E0EBEF1030EFCD26B
:10447000DDE70129D2D103240CF540521460DCF8A9
:104480000820D207FBD5DCF800200B4C82EA46124C
:1044900002F0E0020CF5805632600122DCF8005098
:1044A0004D4005F00305356002FA01F1DCF8082003
:1044B0000A42FBD0C6E700BF28110020014B53F889
:1044C0002000704728110020584B2DE9F0431C6C48
:1044D0001746B4F5803F38BF4FF4803283B038BF01
:1044E0001A64032280460E46514B504DDA636C6CC1
:1044F000E307FCD5EB6B4F4A83F0200303F0E003A6
:10450000D363EB6B494D83F0010303F00303D363E3
:104510006C6CA407FCD54FF400624FF48039464B15
:10452000464CDA63464B4246636101213346C5F887
:1045300040904448009700F057F94FF400616B6BCE
:1045400007FB06F64B4538BFC5F83490384B226957
:10455000B8FBF6F619633AB16369B3FBF2F30133C2
:1045600003EB4303033BFDD23049324A0B6B03F0AC
:10457000E00313630B6B83F0020303F00303136385
:104580008B6B5807FCD54FF400654FF480332A4AF3
:1045900015632D4A4B6322610A6C9A424FF0030265
:1045A00038BF0B64224B2149DA634B6CDA07FCD528
:1045B000CB6B204A03F0E003D363CB6B1B4983F042
:1045C000010303F00303D3634B6C9B07FCD54FF44B
:1045D00080334FF40065184A6661D5630B64CA6C7A
:1045E0009A4238BFCB644FF40061114BA2699964C1
:1045F0003AB16369B3FBF2F3013303EB4303033BCB
:10460000FDD24FF400604FF48031084A094D936C9D
:1046100083F0400303F0E003AB64074B084DA56152
:104620009864D16403B0BDE8F08300BF000001408E
:1046300000300140001001400020014028110020FE
:10464000006CDC0200000540001BB7002DE9F04FB4
:104650004FF4A078994685B0CDE902125F4CDFF89F
:1046600084A154450AD908F1FF38A4F53B54B8F1A8
:104670000F0FA4F12004F4D1002069E0072304F512
:104680003722019403FB03F402F5D872B2FBF4FE67
:1046900070454FF0010C4FF002074FF003064FF04A
:1046A00004054FF005013FD0B3F1010E00F09480F6
:1046B0000EFB03F4B2FBF4FB58454CD019B301FBDD
:1046C00003F4B2FBF4FB58454FD0E5B105FB03F40E
:1046D000B2FBF4FB584553D0AEB106FB03F4B2FB7A
:1046E000F4FB584557D077B107FB03F4B2FBF4FB5A
:1046F00058455BD0BCF1000F05D00CFB03F4B2FBB6
:10470000F4FB83455DD0734603FB03F4B2FBF4FE78
:10471000704501F1FF3105F1FF3506F1FF3607F174
:10472000FF370CF1FF3CBFD104FB1024002CBBD1A0
:104730009E464A46DDF808B0DDF80C900120284975
:1047400001FB08F1CBF80010C9F80030C2F800E016
:1047500005B0BDE8F08F04FB1024002CAED14A4612
:10476000DDF808B0DDF80C90E8E704FB1024002C1D
:10477000ABD14A468E46DDF808B0DDF80C90DDE797
:1047800004FB1024002CA7D14A46AE46DDF808B041
:10479000DDF80C90D2E704FB1024002CA3D14A468C
:1047A000B646DDF808B0DDF80C90C7E704FB10242E
:1047B000002C9FD14A46BE46DDF808B0DDF80C90CB
:1047C000BCE704FB1024002C9DD14A46E646DDF8E8
:1047D00008B0DDF80C90B1E7019C44E750262F00AB
:1047E000001BB70050F80C0070B4039D04682D0343
:1047F00045EA03451B4B002CB3FBF1F3B2FBF3F688
:104800001FDB194A194B904214BF4FF480424FF4FA
:104810000042174C1A6003F580531A60A36832EA0D
:104820000303FBD1212200F540530433016086606D
:104830001A600268002AFCDA0822C5601A6070BC9F
:104840007047036803F03F038B42DAD18368C3F3F8
:104850000B03B342D5D1C36803F4EE23AB42D0D1EE
:10486000EDE700BF001BB7000080054000200240BC
:1048700000000240012300EB4000800000F1804076
:1048800000F5841041600360704700BF0023DB8A9D
:10489000002242E800F2520201D4102118470421FC
:1048A000184700BF034AD2F82838002BFBD0BFF3CB
:1048B0005F8F704700000E400021044B044ABFF395
:1048C0005F8F43F8041B9342F9D170470C080E40E8
:1048D0002C080E4010B44FF48D704FF42A64064A31
:1048E000064B07491460D06019605368002BFCDA4E
:1048F0005DF8044B704700BF0080044000A00440F6
:1049000000B0FA00704700BF08B50148FFF7C2F8D1
:1049100054D1001038B5054C054DAC4204D254F8C2
:10492000043B9847AC42FAD338BD00BF40CD0010DD
:1049300080CD001038B5054C054DAC4204D254F87A
:10494000043B9847AC42FAD338BD00BF6CCD001091
:1049500080CD001010B40748074C084B084A09499D
:1049600004601A608B6832EA0303FBD15DF8044BE4
:10497000704700BF002002407F3BEFEF0030024055
:10498000F6FFF30300000240044BDB6CB3F5004F6D
:1049900003D14FF48022024BDA64704700001150BB
:1049A000002011504FF0E022044BD2F8881D0B4339
:1049B000C2F8883D10EE3004704700BF030330009A
:1049C0006FF06041044B054A19609368DB4333F094
:1049D0006043FAD1704700BF00300240000002403F
:1049E00010B545F25320FFF751FFBDE810400346D4
:1049F0000420184710B545F25320FFF747FFBDE8E4
:104A00001040034601201847FFF7F8B81449154B2A
:104A100070B55C1AA610442E324628BF4422124DAF
:104A20009200284603F06EFAB4F5867F13D80F4A39
:104A3000C6F1440012D02B19410803EBC101C3E9B0
:104A4000002208338B42FAD1C30704D520F00100BD
:104A5000304445F82020064B9D6070BD4320F8E7A8
:104A600000000010100100100000002011010010D3
:104A700000ED00E0002370B52B4C82B0C4F8843008
:104A8000FFF728FF0122294BDA63636C012BFCD16D
:104A90000321264A244B11639C6B012CFCD1022676
:104AA000052521460523224A22480096FFF79CFE51
:104AB00021462B46204A21480095FFF795FE00220B
:104AC000042031461E4BFFF791FC21462846002268
:104AD0001C4BFFF78BFC0022082011461A4BFFF7F6
:104AE00085FC002209201146174BFFF77FFC0022AE
:104AF00006201146134BFFF779FC0022114B0720CB
:104B00001146FFF773FC0420FFF7D8FC00240F4B7D
:104B1000A3FB0035AD0CE0B229460134FFF7AAFE35
:104B2000062CF8D102B070BD0000014000300140F9
:104B3000002F685900000540008C86470080054022
:104B4000001BB70080D1F008006CDC0283DE1B4341
:104B500086B003B451FC0804CDE9020151FC0904FC
:104B6000CDE9040151EC0A04CDE9060103BCF0478C
:104B7000BDE800504EEC00C4BDE800504EEC01C44E
:104B8000BDE800504EEC02C400BD000000B5FFF7C8
:104B9000DFFF02E010FE30F4F8D441EC100443ECE7
:104BA000112400EE010410EE010480EE200451EC0B
:104BB0001004704700B5FFF7CBFF02E010FE30F4A1
:104BC000F8D441EC100443EC112400EE010410EE83
:104BD000210480EE200451EC3004704700B5FFF74B
:104BE000B7FF02E010FE30F4F8D410B541EC100429
:104BF00043EC112451EC040453EC0524A0FB024CBB
:104C00005FF0000EE0FB03CEE1FB02CE4CEC204453
:104C10000024E1FB03E444EC30E480EE200451EC9A
:104C20005004BDE81040704700B5FFF791FF02E067
:104C300010FE30F4F8D441EC100443EC112451EC94
:104C40002104A0FB01126FEA820252FB100052FB0A
:104C500012F252FB1000A0EBD07C53EC04245CFB5E
:104C600013F153EC1524A1FB022001FB030053ECCC
:104C70004424A2EB000050FB1CF24FEA111312EB8C
:104C8000017043EBE27140EA515020EA915020F06C
:104C9000070053EC7524A0FB023C53EC752400FB89
:104CA00003CC01FB02CC53EC0424ACEB824C40EA75
:104CB0005C70A0F1010041EC400480EE200451EC56
:104CC0007004704700B5FFF743FF02E010FE30F4B8
:104CD000F8D441EC100480EE220410EEB2047047C8
:104CE00000B5FFF735FF02E010FE30F4F8D440ECD9
:104CF000700400EE010410EE210480EE200451EC5B
:104D00003004704700B5FFF723FF02E010FE30F4D7
:104D1000F8D440EC600400EE010410EE210480EEB3
:104D2000200451EC3004704700B5FFF711FF02E09A
:104D300010FE30F4F8D441EC800400EE010410EED3
:104D4000010480EE400410EE1304704700B5FFF735
:104D5000FFFE02E010FE30F4F8D441EC800400EED7
:104D6000010410EE010480EE400410EE330470479D
:104D700000B5FFF7EDFE02E010FE30F4F8D441EC90
:104D8000100443EC112400EE010410EE3004C0F3D3
:104D90000070704700B5FFF7DBFE02E010FE30F454
:104DA000F8D441EC100443EC112400EE010410EEA1
:104DB0003004C0F38070704700B5FFF7C9FE02E011
:104DC00010FE30F4F8D443EC102441EC110400EE52
:104DD000010410EE30F48CBF01200020704700BFAA
:104DE00000B5FFF7B5FE02E010FE30F4F8D443EC56
:104DF000102441EC110400EE010410EE30F42CBF3D
:104E000001200020704700BF00B5FFF7A1FE02E0BF
:104E100010FE30F4F8D441EC100443EC112400EE01
:104E2000010410EE30F42CBF01200020704700BFB9
:104E300000B5FFF78DFE02E010FE30F4F8D441EC2F
:104E4000100443EC112400EE010410EE30F48CBF8A
:104E500001200020704700BF0022002950DA4042A4
:104E600061EB4101C9B1B1FA81F30B3B17D4D3F126
:104E7000200C30FA0CFC9840994051EA0C011A447D
:104E8000524202F2324201EB025141F0004140F243
:104E9000FE739A4238BF704721E011467EE003F16D
:104EA000210310FA03FCA3F1010301FA03FCC3F18F
:104EB000200320FA03F021FA03F140EA0C00A3EBEF
:104EC000020202F2324214D050F1000041EB0251D2
:104ED00041F0004140F2FE739A4238BF70474FF0F4
:104EE0000001A8BFC7F6F0714FF000007047002125
:104EF0007047EBD350F1000020F00100E6E70022FC
:104F0000B9B1B1FA81F30B3B16D4D3F1200C30FACE
:104F10000CFC9840994051EA0C011A44524202F2AA
:104F2000324201EB025140F2FE739A4238BF7047A1
:104F300020E0114600F066B803F1210310FA03FCEB
:104F4000A3F1010301FA03FCC3F1200320FA03F0EB
:104F500021FA03F140EA0C00A3EB020202F2324212
:104F600012D050F1000041EB025140F2FE739A4220
:104F700038BF70474FF00001A8BFC7F6F0714FF07F
:104F80000000704700217047EDD350F1000020F081
:104F90000100E8E7002880F235804042B0FA80F353
:104FA0000B3B11D4984001EB0302524202F2124231
:104FB00000EB025141F000414FF0000040F2FE735F
:104FC0009A4238BF704713E0C3F1000330FA03FC84
:104FD000C3F120029040A3EB010202F212420CEB5B
:104FE000025141F0004140F2FE739A4238BF7047CF
:104FF0004FF00041A8BFCFF6F0714FF000007047AE
:105000000021704760B3B0FA80F30B3B0FD4984097
:1050100001EB0302524202F2124200EB02514FF046
:10502000000040F2FE739A4238BF704710E05B42C6
:1050300030FA03FCC3F120029040A3EB010202F21C
:1050400012420CEB025140F2FE739A4238BF704795
:105050004FF00001A8BFC7F6F0714FF00000704795
:10506000002170470022A2F232425FEA215CACF1DB
:105070000103A1EB03515B0513F5800F32D212EB54
:10508000535210D40B2A36DA9140D2F1200330FA71
:1050900003F319439040BCF1000FA8BF7047404292
:1050A00061EB4101704720320EDD01FA02F3D2F1CB
:1050B0002002D140D0401843BCF1000FA8BF704778
:1050C000404261EB41017047524282F3050231FADE
:1050D00002F00021BCF1000FA8BF7047404261EB15
:1050E0004101704702D000200021704750EA013191
:1050F00018BF4FF0000C6FF0004101EBDC716FEA5C
:10510000EC70704738B50446094807F011FE204698
:1051100002F03CF80546064807F006FE2DB1054BA7
:105120002C449C4201D8284638BD0348FEF7B2FC07
:10513000240D00200000082060D1001038B505467D
:105140000C460A4807F0F4FD2846214602F016FBFB
:105150000546064807F0E8FD2DB1054B2C449C425E
:1051600001D8284638BD0348FEF794FC240D0020E2
:105170000000082060D1001010B50446054807F073
:10518000D7FD204602F00AF8BDE81040014807F0BC
:10519000CBBD00BF240D00209A4238BF8854704711
:1051A000704700BF2DE9F04F83B09946DDE90DABA4
:1051B0000F9B884611469A07074616D1DA453AD220
:1051C0000C460D46ABEB0A060E4422464B464146C2
:1051D00020200134B847B442F7D12946BAF1000F74
:1051E00008D1204603B0BDE8F08F0C46BAF1000F9D
:1051F00010D00E4655460C9B2E449A440191721BCA
:105200004B46013D41461AF8010D3446B847002D82
:10521000F5D101990F9B9B07E3D5651AAB45E0D902
:1052200022464B46414620200135B8475D4504F1F2
:105230000104F5D3D5E70C46BAF1000FD9D1D0E778
:105240002DE9F04F0F9FDDF8248017F0020F0A9C24
:105250009DF82CA00E9DDDE90C9644D1F5BBB4421F
:1052600041D207F0010B04F1FF3C4FF0300EC44473
:1052700004E00134A6420CF801EF01D9202CF8D14A
:10528000BBF1000F00F08880A5422CD904F1FF3C4F
:105290004FF0300EC44404E00134AC420CF801EF8E
:1052A00021D0202CF8D117F0100F0ED017F4806FFA
:1052B00054D1A64263D0A54261D0B9F1100F50D0AD
:1052C000B9F1020F56D0202C29D12024CDE90B575B
:1052D000CDE90984BDE8F04FFFF764BF17F0010B7B
:1052E00034D1B442BFD317F0100F1ED017F4806F23
:1052F000E3D1002CDDD1B9F1100F63D0B9F1020F69
:1053000077D0302488F800400124BAF1000F11D181
:105310007E0748D52B2608F804600134D6E72646D8
:1053200001344FF0300C08F806C0202CCDD0BAF173
:10533000000FEDD02D2608F804600134CDE90B579D
:10534000CDE90984BDE8F04FFFF72CBFBAF1000F9B
:1053500030D0B44205F1FF3585D395E7B9F1100F90
:10536000B3D1BE063BD5202CAFD0582608F8046038
:105370000134A8E7202CA8D02646013407E0661E99
:10538000B9D0B9F1100F36D0B9F1020FC9D14FF031
:10539000620C08F806C096E717F0100FC5D017F496
:1053A000806F86D089E73E0790D5202608F80460F4
:1053B00001348BE717F00C0F00D0013DB442FFF42D
:1053C00052AF61E7BC0612D4782488F8004030243C
:1053D00088F801400224BAF1000F99D0AAE7202CE6
:1053E0003FF473AF782608F8046001346BE7582463
:1053F000EBE76224E9E717F0200FA4F1020C04D0D8
:105400004FF0580E08F80CE08BE74FF0780E08F8D4
:105410000CE086E700B9704701F0C4BB10B1D1E9D8
:1054200000311847704700BF2DE9F04F97B09DED50
:10543000207BDDE9225B0746884651EC170B249C54
:1054400099460C920B4602468DED047B0794FFF7BC
:1054500093FC002840F0F481DDE904014FF0FF32B5
:105460006FF48013FFF7ACFC002840F01B81DDE9EE
:1054700004014FF0FF32AC4BFFF7DEFC002840F098
:10548000EE80DDE90401A4A3D3E90023FFF7D4FCF7
:10549000002840F0D380DDE90401A1A3D3E9002373
:1054A000FFF78EFC002840F0C980DDE904010022EE
:1054B0000023FFF785FC002840F0E88023460D908C
:1054C00013F4806F08BF062530212B460EAAA5F1E4
:1054D000200605E0013BB34202F8011B00F0938176
:1054E000092BF7D81E46ED1ADDE90401FFF720FC71
:1054F0008E4B044603EBC60393ED007B8DED087BDA
:10550000FFF7F2FB02460B46DDE90401FFF756FB0D
:10551000DDE90823FFF766FB02460B46CDE90A23C7
:10552000FFF718FC8246FFF7F1FB02460B46DDE968
:105530000A01FFF743FB02460B46CDE90A2300228E
:105540007B4BFFF779FC002800F0FE800AF1010A8E
:105550005046FFF7DBFB02460B46DDE90801FFF78B
:1055600043FC10B14FF0000A0134002E00F0FD8022
:10557000681E0EABDFF8CCC118440FE0ACFB0A216B
:10558000C90801EB8102AAEB42023032BAF1090FDD
:1055900000F8012F40F21C818A461D46202D05F19E
:1055A000010306F1FF36E9D12025691E0EAB6148E3
:1055B000194410E080FB0462C3EBA20303EB8302F7
:1055C000A4EB420404F1300201351C4601F8012F1E
:1055D000002B00F0EB80202D4FEAE473EAD1079B0B
:1055E00003F00303012B18D1BBF1000F15D00D9B65
:1055F000002B00F00A810BF1FF3BBBF1200F0CD90F
:105600006B1E0EA930220B4405E001355D4503F801
:10561000012F80F0D180202DF7D1079B0EACCDE972
:1056200002B341464B4638460C9A01950094FFF769
:10563000B9FD8246504617B0BDE8F08F079B9DED3F
:10564000047BCDE923B341464B4638460C9A8DED99
:10565000207B229517B0BDE8F04F00F045B96107F7
:1056600023464CBF042303234146219338464B462F
:10567000079A48BF304CCDE922B258BF2F4C0C9A44
:10568000209417B0BDE8F04FFFF78CBDDDE904238F
:1056900000200021FFF792FA0123CDE904010D93C8
:1056A00023460DE723469C0740F0AA80BBF1040F78
:1056B00040F2A6800C9B1D461C1F04EB0B0A2A46D9
:1056C0004B46414620200135B847AA45F7D15546FB
:1056D0001B4C261F14F8010D2A464B464146B8477D
:1056E000B44205F10105F5D1079B0AF1040A9807B8
:1056F000A0D50C9CAAEB04039B459BD952464B4674
:10570000414620200AF1010AB847AAEB04035B4591
:10571000F4D38FE7AFF300800000000065CDCD41EA
:105720000000000065CDCDC1FFFFEF7F90E10010CC
:105730000000E03F67666666B4D10010BCD100107F
:10574000C8D10010CDCCCCCC0022DDE90A01634BDE
:10575000FFF736FB00287FF408AFBAF1000F6AD1DB
:105760000AF1010A002E7FF403AF2046FFF7BCFACE
:1057700002460B46DDE90401FFF720FA02460B461C
:10578000CDE904230022554BFFF71AFB00287FF4D4
:105790000CAFDDE904010022504BFFF74DFB002860
:1057A0007FF403AF013424F00104FEE6079B03F00D
:1057B0000303012B00F08280202D3FF42EAF0D9BC0
:1057C0007BB32D220DEB050383F83820013524E748
:1057D000202B3FF4E9AE0EAA15441E44302204E00B
:1057E000202B05F8012F3FF4DFAE9E4203F10103A9
:1057F000F6D12E220DEB060383F83820751CD4E673
:10580000DDF830A063E720256EE6079B13F00C0F50
:1058100050D00BF1FF3BAB453FF6F2AE202D3FF4ED
:10582000FCAE079B5A0701D52B22CBE71B077FF560
:10583000F4AE2022C6E71AF0010F3FF496AE8FE7D0
:10584000A60734D1BBF1030F31D90C9B1D46DC1EDA
:1058500004EB0B0A2A464B46414620200135B84747
:105860005545F7D155461E4CE61E14F8010D2A4643
:105870004B464146B847A64205F10105F5D1079BC5
:105880000AF1030A9D077FF5D5AE0C9CAAEB040331
:105890009B457FF6CFAE52464B46414620200AF14B
:1058A000010AB847AAEB04039B45F4D8C2E6DDF829
:1058B00030A0D7E7AB453FF6A3AEAEE6BBF1000F95
:1058C0003FF47AAF0D9B002B9FD00BF1FF3B5D4562
:1058D000FFF496AE202D7FF474AF9EE60000E03F0B
:1058E000C3D10010000000002DE9F04F9FB02A9EA8
:1058F000DDE92845074693460891099322462B4641
:10590000204629460E96DDE92BA6FFF735FA00283A
:1059100040F0BE80204629464FF0FF32784BFFF71B
:105920008BFA002840F0B480204629464FF0FF3221
:105930006FF48013FFF744FA002840F0A980204656
:10594000294600220023FFF73BFA002840F0D581CA
:10595000CDE90A45DDE90A239046994606F400623E
:1059600016F480630F92139340F0A18058EA090364
:1059700040F0CA80002A40F0E38106230E9316F01F
:105980000202109240F0D4815346042B38BF042306
:105990000C920422043B12920F93204629460022C7
:1059A0000023FFF70DFA002840F0F3819DED0A7BFC
:1059B0000F9B5A4603930E9B8DED007B029326F4BA
:1059C000006304933846099B0899FFF72DFD0246B2
:1059D00016F0200F099B08990CBF6520452002F1A5
:1059E0000108B8470C9A129B16AC5D1E82EAE2735E
:1059F000A3EBE273D10F002622469946DFF804C1DB
:105A000001E0202E10D0CE46ACFB0930C00800EBE0
:105A10008003A9EB43033033BEF1090F814606F141
:105A2000010602F8013BECD80523002006930A2367
:105A300005950094099D089C4246CDE90330CDE9C7
:105A400001612B4621463846FFF7FAFB109A804643
:105A5000D2B1A0EB0B06B24516D90BEB06022B46D2
:105A6000214620200136B847B245F6D80BF1FF3366
:105A70005344CBF10102A3EB08034244924538BFE3
:105A8000002308F10108984440461FB0BDE8F08F9C
:105A90005A463846CDE92845CDE92BA60E9C099BF0
:105AA00008992A941FB0BDE8F04FFFF7BDBC58EA33
:105AB00009032BD1002A3FF462AF00230C930E9B05
:105AC0000C9A934200F3B9814FF000082046294612
:105AD00000220023FFF774F9002840F013819DEDA8
